{
  "contractName": "Onec1155",
  "abi": [
    {
      "anonymous": false,
      "inputs": [
        {
          "indexed": true,
          "internalType": "address",
          "name": "account",
          "type": "address"
        },
        {
          "indexed": true,
          "internalType": "address",
          "name": "operator",
          "type": "address"
        },
        {
          "indexed": false,
          "internalType": "bool",
          "name": "approved",
          "type": "bool"
        }
      ],
      "name": "ApprovalForAll",
      "type": "event"
    },
    {
      "anonymous": false,
      "inputs": [
        {
          "indexed": true,
          "internalType": "address",
          "name": "previousOwner",
          "type": "address"
        },
        {
          "indexed": true,
          "internalType": "address",
          "name": "newOwner",
          "type": "address"
        }
      ],
      "name": "OwnershipTransferred",
      "type": "event"
    },
    {
      "anonymous": false,
      "inputs": [
        {
          "indexed": false,
          "internalType": "address",
          "name": "account",
          "type": "address"
        }
      ],
      "name": "Paused",
      "type": "event"
    },
    {
      "anonymous": false,
      "inputs": [
        {
          "indexed": true,
          "internalType": "address",
          "name": "operator",
          "type": "address"
        },
        {
          "indexed": true,
          "internalType": "address",
          "name": "from",
          "type": "address"
        },
        {
          "indexed": true,
          "internalType": "address",
          "name": "to",
          "type": "address"
        },
        {
          "indexed": false,
          "internalType": "uint256[]",
          "name": "ids",
          "type": "uint256[]"
        },
        {
          "indexed": false,
          "internalType": "uint256[]",
          "name": "values",
          "type": "uint256[]"
        }
      ],
      "name": "TransferBatch",
      "type": "event"
    },
    {
      "anonymous": false,
      "inputs": [
        {
          "indexed": true,
          "internalType": "address",
          "name": "operator",
          "type": "address"
        },
        {
          "indexed": true,
          "internalType": "address",
          "name": "from",
          "type": "address"
        },
        {
          "indexed": true,
          "internalType": "address",
          "name": "to",
          "type": "address"
        },
        {
          "indexed": false,
          "internalType": "uint256",
          "name": "id",
          "type": "uint256"
        },
        {
          "indexed": false,
          "internalType": "uint256",
          "name": "value",
          "type": "uint256"
        }
      ],
      "name": "TransferSingle",
      "type": "event"
    },
    {
      "anonymous": false,
      "inputs": [
        {
          "indexed": false,
          "internalType": "string",
          "name": "value",
          "type": "string"
        },
        {
          "indexed": true,
          "internalType": "uint256",
          "name": "id",
          "type": "uint256"
        }
      ],
      "name": "URI",
      "type": "event"
    },
    {
      "anonymous": false,
      "inputs": [
        {
          "indexed": false,
          "internalType": "address",
          "name": "account",
          "type": "address"
        }
      ],
      "name": "Unpaused",
      "type": "event"
    },
    {
      "inputs": [
        {
          "internalType": "address",
          "name": "account",
          "type": "address"
        },
        {
          "internalType": "uint256",
          "name": "id",
          "type": "uint256"
        }
      ],
      "name": "balanceOf",
      "outputs": [
        {
          "internalType": "uint256",
          "name": "",
          "type": "uint256"
        }
      ],
      "stateMutability": "view",
      "type": "function"
    },
    {
      "inputs": [
        {
          "internalType": "address[]",
          "name": "accounts",
          "type": "address[]"
        },
        {
          "internalType": "uint256[]",
          "name": "ids",
          "type": "uint256[]"
        }
      ],
      "name": "balanceOfBatch",
      "outputs": [
        {
          "internalType": "uint256[]",
          "name": "",
          "type": "uint256[]"
        }
      ],
      "stateMutability": "view",
      "type": "function"
    },
    {
      "inputs": [
        {
          "internalType": "address",
          "name": "account",
          "type": "address"
        },
        {
          "internalType": "address",
          "name": "operator",
          "type": "address"
        }
      ],
      "name": "isApprovedForAll",
      "outputs": [
        {
          "internalType": "bool",
          "name": "",
          "type": "bool"
        }
      ],
      "stateMutability": "view",
      "type": "function"
    },
    {
      "inputs": [],
      "name": "owner",
      "outputs": [
        {
          "internalType": "address",
          "name": "",
          "type": "address"
        }
      ],
      "stateMutability": "view",
      "type": "function"
    },
    {
      "inputs": [],
      "name": "paused",
      "outputs": [
        {
          "internalType": "bool",
          "name": "",
          "type": "bool"
        }
      ],
      "stateMutability": "view",
      "type": "function"
    },
    {
      "inputs": [],
      "name": "renounceOwnership",
      "outputs": [],
      "stateMutability": "nonpayable",
      "type": "function"
    },
    {
      "inputs": [
        {
          "internalType": "address",
          "name": "from",
          "type": "address"
        },
        {
          "internalType": "address",
          "name": "to",
          "type": "address"
        },
        {
          "internalType": "uint256[]",
          "name": "ids",
          "type": "uint256[]"
        },
        {
          "internalType": "uint256[]",
          "name": "amounts",
          "type": "uint256[]"
        },
        {
          "internalType": "bytes",
          "name": "data",
          "type": "bytes"
        }
      ],
      "name": "safeBatchTransferFrom",
      "outputs": [],
      "stateMutability": "nonpayable",
      "type": "function"
    },
    {
      "inputs": [
        {
          "internalType": "address",
          "name": "from",
          "type": "address"
        },
        {
          "internalType": "address",
          "name": "to",
          "type": "address"
        },
        {
          "internalType": "uint256",
          "name": "id",
          "type": "uint256"
        },
        {
          "internalType": "uint256",
          "name": "amount",
          "type": "uint256"
        },
        {
          "internalType": "bytes",
          "name": "data",
          "type": "bytes"
        }
      ],
      "name": "safeTransferFrom",
      "outputs": [],
      "stateMutability": "nonpayable",
      "type": "function"
    },
    {
      "inputs": [
        {
          "internalType": "address",
          "name": "operator",
          "type": "address"
        },
        {
          "internalType": "bool",
          "name": "approved",
          "type": "bool"
        }
      ],
      "name": "setApprovalForAll",
      "outputs": [],
      "stateMutability": "nonpayable",
      "type": "function"
    },
    {
      "inputs": [
        {
          "internalType": "bytes4",
          "name": "interfaceId",
          "type": "bytes4"
        }
      ],
      "name": "supportsInterface",
      "outputs": [
        {
          "internalType": "bool",
          "name": "",
          "type": "bool"
        }
      ],
      "stateMutability": "view",
      "type": "function"
    },
    {
      "inputs": [
        {
          "internalType": "address",
          "name": "newOwner",
          "type": "address"
        }
      ],
      "name": "transferOwnership",
      "outputs": [],
      "stateMutability": "nonpayable",
      "type": "function"
    },
    {
      "inputs": [
        {
          "internalType": "string",
          "name": "_baseURI",
          "type": "string"
        },
        {
          "internalType": "string",
          "name": "_contractMetadata",
          "type": "string"
        }
      ],
      "name": "initialize",
      "outputs": [],
      "stateMutability": "nonpayable",
      "type": "function"
    },
    {
      "inputs": [],
      "name": "contractURI",
      "outputs": [
        {
          "internalType": "string",
          "name": "",
          "type": "string"
        }
      ],
      "stateMutability": "view",
      "type": "function"
    },
    {
      "inputs": [
        {
          "internalType": "string",
          "name": "_metadata",
          "type": "string"
        }
      ],
      "name": "setContractMetadata",
      "outputs": [],
      "stateMutability": "nonpayable",
      "type": "function"
    },
    {
      "inputs": [
        {
          "internalType": "uint256",
          "name": "_supply",
          "type": "uint256"
        },
        {
          "internalType": "address",
          "name": "_holder",
          "type": "address"
        },
        {
          "internalType": "bytes",
          "name": "_data",
          "type": "bytes"
        }
      ],
      "name": "mintNFT",
      "outputs": [],
      "stateMutability": "nonpayable",
      "type": "function"
    },
    {
      "inputs": [
        {
          "internalType": "uint256",
          "name": "_supply",
          "type": "uint256"
        },
        {
          "internalType": "address",
          "name": "_holder",
          "type": "address"
        },
        {
          "internalType": "bytes",
          "name": "_data",
          "type": "bytes"
        },
        {
          "internalType": "uint256",
          "name": "_parentTokenId",
          "type": "uint256"
        }
      ],
      "name": "mintRefNFT",
      "outputs": [],
      "stateMutability": "nonpayable",
      "type": "function"
    },
    {
      "inputs": [
        {
          "internalType": "uint256",
          "name": "_supply",
          "type": "uint256"
        },
        {
          "internalType": "address",
          "name": "_holder",
          "type": "address"
        },
        {
          "internalType": "bytes",
          "name": "_data",
          "type": "bytes"
        }
      ],
      "name": "batchMintNFT",
      "outputs": [],
      "stateMutability": "nonpayable",
      "type": "function"
    },
    {
      "inputs": [
        {
          "internalType": "uint256",
          "name": "_supply",
          "type": "uint256"
        },
        {
          "internalType": "address",
          "name": "_holder",
          "type": "address"
        },
        {
          "internalType": "bytes",
          "name": "_data",
          "type": "bytes"
        },
        {
          "internalType": "uint256",
          "name": "_parentTokenId",
          "type": "uint256"
        }
      ],
      "name": "batchMintRefNFT",
      "outputs": [],
      "stateMutability": "nonpayable",
      "type": "function"
    },
    {
      "inputs": [
        {
          "internalType": "uint256",
          "name": "_id",
          "type": "uint256"
        }
      ],
      "name": "getReferences",
      "outputs": [
        {
          "internalType": "uint256[]",
          "name": "",
          "type": "uint256[]"
        }
      ],
      "stateMutability": "view",
      "type": "function"
    },
    {
      "inputs": [
        {
          "internalType": "uint256",
          "name": "_id",
          "type": "uint256"
        }
      ],
      "name": "getTokenMetadataHash",
      "outputs": [
        {
          "internalType": "string",
          "name": "",
          "type": "string"
        }
      ],
      "stateMutability": "view",
      "type": "function"
    },
    {
      "inputs": [
        {
          "internalType": "uint256",
          "name": "_id",
          "type": "uint256"
        }
      ],
      "name": "getBaseURI",
      "outputs": [
        {
          "internalType": "string",
          "name": "",
          "type": "string"
        }
      ],
      "stateMutability": "view",
      "type": "function"
    },
    {
      "inputs": [
        {
          "internalType": "string",
          "name": "_baseURI",
          "type": "string"
        }
      ],
      "name": "setBaseURI",
      "outputs": [],
      "stateMutability": "nonpayable",
      "type": "function"
    },
    {
      "inputs": [
        {
          "internalType": "uint256",
          "name": "_id",
          "type": "uint256"
        }
      ],
      "name": "uri",
      "outputs": [
        {
          "internalType": "string",
          "name": "",
          "type": "string"
        }
      ],
      "stateMutability": "view",
      "type": "function"
    },
    {
      "inputs": [
        {
          "internalType": "address",
          "name": "_from",
          "type": "address"
        },
        {
          "internalType": "address",
          "name": "_to",
          "type": "address"
        },
        {
          "internalType": "uint256",
          "name": "_id",
          "type": "uint256"
        },
        {
          "internalType": "uint256",
          "name": "_amount",
          "type": "uint256"
        },
        {
          "internalType": "bytes",
          "name": "_data",
          "type": "bytes"
        }
      ],
      "name": "transfer",
      "outputs": [],
      "stateMutability": "nonpayable",
      "type": "function"
    },
    {
      "inputs": [
        {
          "internalType": "address",
          "name": "_from",
          "type": "address"
        },
        {
          "internalType": "address",
          "name": "_to",
          "type": "address"
        },
        {
          "internalType": "uint256[]",
          "name": "_ids",
          "type": "uint256[]"
        },
        {
          "internalType": "uint256[]",
          "name": "_amounts",
          "type": "uint256[]"
        },
        {
          "internalType": "bytes",
          "name": "_data",
          "type": "bytes"
        }
      ],
      "name": "batchTransfer",
      "outputs": [],
      "stateMutability": "nonpayable",
      "type": "function"
    },
    {
      "inputs": [],
      "name": "makePause",
      "outputs": [],
      "stateMutability": "nonpayable",
      "type": "function"
    },
    {
      "inputs": [],
      "name": "makeUnpause",
      "outputs": [],
      "stateMutability": "nonpayable",
      "type": "function"
    },
    {
      "inputs": [
        {
          "internalType": "address",
          "name": "account",
          "type": "address"
        },
        {
          "internalType": "uint256",
          "name": "id",
          "type": "uint256"
        },
        {
          "internalType": "uint256",
          "name": "amount",
          "type": "uint256"
        }
      ],
      "name": "burnNFT",
      "outputs": [],
      "stateMutability": "nonpayable",
      "type": "function"
    },
    {
      "inputs": [
        {
          "internalType": "address",
          "name": "_operator",
          "type": "address"
        },
        {
          "internalType": "bool",
          "name": "_approved",
          "type": "bool"
        }
      ],
      "name": "setApproval",
      "outputs": [],
      "stateMutability": "nonpayable",
      "type": "function"
    },
    {
      "inputs": [
        {
          "internalType": "address",
          "name": "account",
          "type": "address"
        },
        {
          "internalType": "address",
          "name": "operator",
          "type": "address"
        }
      ],
      "name": "isApproved",
      "outputs": [
        {
          "internalType": "bool",
          "name": "",
          "type": "bool"
        }
      ],
      "stateMutability": "view",
      "type": "function"
    },
    {
      "inputs": [
        {
          "internalType": "address",
          "name": "account",
          "type": "address"
        },
        {
          "internalType": "uint256",
          "name": "id",
          "type": "uint256"
        }
      ],
      "name": "getBalance",
      "outputs": [
        {
          "internalType": "uint256",
          "name": "",
          "type": "uint256"
        }
      ],
      "stateMutability": "view",
      "type": "function"
    },
    {
      "inputs": [],
      "name": "getTotalMintedNFT",
      "outputs": [
        {
          "internalType": "uint256",
          "name": "",
          "type": "uint256"
        }
      ],
      "stateMutability": "view",
      "type": "function"
    }
  ],
  "bytecode": "0x608060405234801561001057600080fd5b50615553806100206000396000f3fe608060405234801561001057600080fd5b50600436106101ef5760003560e01c8063837c59621161010f578063cef8cb87116100a2578063f102ffe511610071578063f102ffe51461059e578063f242432a146105ba578063f2fde38b146105d6578063fce55037146105f2576101ef565b8063cef8cb8714610516578063db9b717014610534578063e8a3d48514610550578063e985e9c51461056e576101ef565b8063a389783e116100de578063a389783e146104a4578063a90205a3146104d4578063b2cf2f16146104de578063c92c9f14146104fa576101ef565b8063837c59621461043057806386838fb6146104605780638da5cb5b1461046a578063a22cb46514610488576101ef565b80634cd88b76116101875780635c975abb116101565780635c975abb146103bc5780636877444f146103da578063715018a6146103f65780637337639814610400576101ef565b80634cd88b76146103385780634e1273f4146103545780635374cf781461038457806355f804b3146103a0576101ef565b80631cc509fd116101c35780631cc509fd146102a05780632b04e840146102bc5780632eb2c2d6146102ec5780633cfc7ae214610308576101ef565b8062fdd58e146101f457806301ffc9a7146102245780630e89341c14610254578063127217d614610284575b600080fd5b61020e60048036038101906102099190614063565b61060e565b60405161021b919061503b565b60405180910390f35b61023e6004803603810190610239919061415a565b6106d8565b60405161024b9190614d5e565b60405180910390f35b61026e60048036038101906102699190614259565b6107ba565b60405161027b9190614d79565b60405180910390f35b61029e60048036038101906102999190613f98565b61083c565b005b6102ba60048036038101906102b5919061409f565b610850565b005b6102d660048036038101906102d19190614063565b610939565b6040516102e3919061503b565b60405180910390f35b61030660048036038101906103019190613ed9565b61094d565b005b610322600480360381019061031d9190614259565b6109ee565b60405161032f9190614d05565b60405180910390f35b610352600480360381019061034d91906141ed565b610a59565b005b61036e600480360381019061036991906140ee565b610b6c565b60405161037b9190614d05565b60405180910390f35b61039e60048036038101906103999190614282565b610d1d565b005b6103ba60048036038101906103b591906141ac565b610dc4565b005b6103c4610e4c565b6040516103d19190614d5e565b60405180910390f35b6103f460048036038101906103ef91906142e9565b610e63565b005b6103fe610f8b565b005b61041a60048036038101906104159190614259565b611013565b6040516104279190614d79565b60405180910390f35b61044a60048036038101906104459190614259565b611025565b6040516104579190614d79565b60405180910390f35b6104686110ca565b005b610472611150565b60405161047f9190614c28565b60405180910390f35b6104a2600480360381019061049d9190614027565b61117a565b005b6104be60048036038101906104b99190613e9d565b6112fb565b6040516104cb9190614d5e565b60405180910390f35b6104dc61130f565b005b6104f860048036038101906104f39190613ed9565b611395565b005b610514600480360381019061050f91906142e9565b6113a9565b005b61051e61169a565b60405161052b919061503b565b60405180910390f35b61054e60048036038101906105499190614027565b6116a4565b005b61055861172e565b6040516105659190614d79565b60405180910390f35b61058860048036038101906105839190613e9d565b6117c0565b6040516105959190614d5e565b60405180910390f35b6105b860048036038101906105b39190614282565b611854565b005b6105d460048036038101906105cf9190613f98565b611a9c565b005b6105f060048036038101906105eb9190613e74565b611b3d565b005b61060c600480360381019061060791906141ac565b611c35565b005b60008073ffffffffffffffffffffffffffffffffffffffff168373ffffffffffffffffffffffffffffffffffffffff16141561067f576040517f08c379a000000000000000000000000000000000000000000000000000000000815260040161067690614e1b565b60405180910390fd5b60c9600083815260200190815260200160002060008473ffffffffffffffffffffffffffffffffffffffff1673ffffffffffffffffffffffffffffffffffffffff16815260200190815260200160002054905092915050565b60007fd9b67a26000000000000000000000000000000000000000000000000000000007bffffffffffffffffffffffffffffffffffffffffffffffffffffffff1916827bffffffffffffffffffffffffffffffffffffffffffffffffffffffff191614806107a357507f0e89341c000000000000000000000000000000000000000000000000000000007bffffffffffffffffffffffffffffffffffffffffffffffffffffffff1916827bffffffffffffffffffffffffffffffffffffffffffffffffffffffff1916145b806107b357506107b282611ccb565b5b9050919050565b60606107c461169a565b821115610806576040517f08c379a00000000000000000000000000000000000000000000000000000000081526004016107fd90614ebb565b60405180910390fd5b600061081183611013565b9050600061081e84611025565b90506108338183611d3590919063ffffffff16565b92505050919050565b6108498585858585611a9c565b5050505050565b610858611f8e565b73ffffffffffffffffffffffffffffffffffffffff16610876611150565b73ffffffffffffffffffffffffffffffffffffffff16146108cc576040517f08c379a00000000000000000000000000000000000000000000000000000000081526004016108c390614f9b565b60405180910390fd5b6108d7838383611f96565b6040518060400160405280600381526020017f307830000000000000000000000000000000000000000000000000000000000081525060fc60008481526020019081526020016000209080519060200190610933929190613ae6565b50505050565b6000610945838361060e565b905092915050565b610955611f8e565b73ffffffffffffffffffffffffffffffffffffffff168573ffffffffffffffffffffffffffffffffffffffff16148061099b575061099a85610995611f8e565b6117c0565b5b6109da576040517f08c379a00000000000000000000000000000000000000000000000000000000081526004016109d190614f1b565b60405180910390fd5b6109e785858585856121b5565b5050505050565b606060fd6000838152602001908152602001600020805480602002602001604051908101604052809291908181526020018280548015610a4d57602002820191906000526020600020905b815481526020019060010190808311610a39575b50505050509050919050565b600060019054906101000a900460ff1680610a7f575060008054906101000a900460ff16155b610abe576040517f08c379a0000000000000000000000000000000000000000000000000000000008152600401610ab590614f3b565b60405180910390fd5b60008060019054906101000a900460ff161590508015610b0e576001600060016101000a81548160ff02191690831515021790555060016000806101000a81548160ff0219169083151502179055505b610b1783612518565b610b1f61260b565b610b276126f4565b600060fb819055508160fe9080519060200190610b45929190613b6c565b508015610b675760008060016101000a81548160ff0219169083151502179055505b505050565b60608151835114610bb2576040517f08c379a0000000000000000000000000000000000000000000000000000000008152600401610ba990614fdb565b60405180910390fd5b6000835167ffffffffffffffff811115610bf5577f4e487b7100000000000000000000000000000000000000000000000000000000600052604160045260246000fd5b604051908082528060200260200182016040528015610c235781602001602082028036833780820191505090505b50905060005b8451811015610d1257610cbc858281518110610c6e577f4e487b7100000000000000000000000000000000000000000000000000000000600052603260045260246000fd5b6020026020010151858381518110610caf577f4e487b7100000000000000000000000000000000000000000000000000000000600052603260045260246000fd5b602002602001015161060e565b828281518110610cf5577f4e487b7100000000000000000000000000000000000000000000000000000000600052603260045260246000fd5b60200260200101818152505080610d0b90615317565b9050610c29565b508091505092915050565b610d25611f8e565b73ffffffffffffffffffffffffffffffffffffffff16610d43611150565b73ffffffffffffffffffffffffffffffffffffffff1614610d99576040517f08c379a0000000000000000000000000000000000000000000000000000000008152600401610d9090614f9b565b60405180910390fd5b610da78260fb5485846127dd565b60fb6000815480929190610dba90615317565b9190505550505050565b610dcc611f8e565b73ffffffffffffffffffffffffffffffffffffffff16610dea611150565b73ffffffffffffffffffffffffffffffffffffffff1614610e40576040517f08c379a0000000000000000000000000000000000000000000000000000000008152600401610e3790614f9b565b60405180910390fd5b610e4981612974565b50565b6000603360009054906101000a900460ff16905090565b610e6b611f8e565b73ffffffffffffffffffffffffffffffffffffffff16610e89611150565b73ffffffffffffffffffffffffffffffffffffffff1614610edf576040517f08c379a0000000000000000000000000000000000000000000000000000000008152600401610ed690614f9b565b60405180910390fd5b60fb548110610f23576040517f08c379a0000000000000000000000000000000000000000000000000000000008152600401610f1a90614ddb565b60405180910390fd5b610f318360fb5486856127dd565b60fd600082815260200190815260200160002060fb54908060018154018082558091505060019003906000526020600020016000909190919091505560fb6000815480929190610f8090615317565b919050555050505050565b610f93611f8e565b73ffffffffffffffffffffffffffffffffffffffff16610fb1611150565b73ffffffffffffffffffffffffffffffffffffffff1614611007576040517f08c379a0000000000000000000000000000000000000000000000000000000008152600401610ffe90614f9b565b60405180910390fd5b611011600061298e565b565b606061101e82612a54565b9050919050565b606060fc60008381526020019081526020016000208054611045906152e5565b80601f0160208091040260200160405190810160405280929190818152602001828054611071906152e5565b80156110be5780601f10611093576101008083540402835291602001916110be565b820191906000526020600020905b8154815290600101906020018083116110a157829003601f168201915b50505050509050919050565b6110d2611f8e565b73ffffffffffffffffffffffffffffffffffffffff166110f0611150565b73ffffffffffffffffffffffffffffffffffffffff1614611146576040517f08c379a000000000000000000000000000000000000000000000000000000000815260040161113d90614f9b565b60405180910390fd5b61114e612ae8565b565b6000606560009054906101000a900473ffffffffffffffffffffffffffffffffffffffff16905090565b8173ffffffffffffffffffffffffffffffffffffffff16611199611f8e565b73ffffffffffffffffffffffffffffffffffffffff1614156111f0576040517f08c379a00000000000000000000000000000000000000000000000000000000081526004016111e790614fbb565b60405180910390fd5b8060ca60006111fd611f8e565b73ffffffffffffffffffffffffffffffffffffffff1673ffffffffffffffffffffffffffffffffffffffff16815260200190815260200160002060008473ffffffffffffffffffffffffffffffffffffffff1673ffffffffffffffffffffffffffffffffffffffff16815260200190815260200160002060006101000a81548160ff0219169083151502179055508173ffffffffffffffffffffffffffffffffffffffff166112aa611f8e565b73ffffffffffffffffffffffffffffffffffffffff167f17307eab39ab6107e8899845ad3d59bd9653f200f220920489ca2b5937696c31836040516112ef9190614d5e565b60405180910390a35050565b600061130783836117c0565b905092915050565b611317611f8e565b73ffffffffffffffffffffffffffffffffffffffff16611335611150565b73ffffffffffffffffffffffffffffffffffffffff161461138b576040517f08c379a000000000000000000000000000000000000000000000000000000000815260040161138290614f9b565b60405180910390fd5b611393612b8a565b565b6113a2858585858561094d565b5050505050565b6113b1611f8e565b73ffffffffffffffffffffffffffffffffffffffff166113cf611150565b73ffffffffffffffffffffffffffffffffffffffff1614611425576040517f08c379a000000000000000000000000000000000000000000000000000000000815260040161141c90614f9b565b60405180910390fd5b60fb54811061143357600080fd5b60008467ffffffffffffffff811115611475577f4e487b7100000000000000000000000000000000000000000000000000000000600052604160045260246000fd5b6040519080825280602002602001820160405280156114a35781602001602082028036833780820191505090505b50905060008567ffffffffffffffff8111156114e8577f4e487b7100000000000000000000000000000000000000000000000000000000600052604160045260246000fd5b6040519080825280602002602001820160405280156115165781602001602082028036833780820191505090505b50905060005b868110156115d1578060fb5461153291906151d9565b83828151811061156b577f4e487b7100000000000000000000000000000000000000000000000000000000600052603260045260246000fd5b60200260200101818152505060018282815181106115b2577f4e487b7100000000000000000000000000000000000000000000000000000000600052603260045260246000fd5b60200260200101818152505080806115c990615317565b91505061151c565b506115de85838387612c2d565b815160fb60008282546115f191906151d9565b9250508190555060005b82518110156116915760fd6000858152602001908152602001600020838281518110611650577f4e487b7100000000000000000000000000000000000000000000000000000000600052603260045260246000fd5b60200260200101519080600181540180825580915050600190039060005260206000200160009091909190915055808061168990615317565b9150506115fb565b50505050505050565b600060fb54905090565b6116ac611f8e565b73ffffffffffffffffffffffffffffffffffffffff166116ca611150565b73ffffffffffffffffffffffffffffffffffffffff1614611720576040517f08c379a000000000000000000000000000000000000000000000000000000000815260040161171790614f9b565b60405180910390fd5b61172a828261117a565b5050565b606060fe805461173d906152e5565b80601f0160208091040260200160405190810160405280929190818152602001828054611769906152e5565b80156117b65780601f1061178b576101008083540402835291602001916117b6565b820191906000526020600020905b81548152906001019060200180831161179957829003601f168201915b5050505050905090565b600060ca60008473ffffffffffffffffffffffffffffffffffffffff1673ffffffffffffffffffffffffffffffffffffffff16815260200190815260200160002060008373ffffffffffffffffffffffffffffffffffffffff1673ffffffffffffffffffffffffffffffffffffffff16815260200190815260200160002060009054906101000a900460ff16905092915050565b61185c611f8e565b73ffffffffffffffffffffffffffffffffffffffff1661187a611150565b73ffffffffffffffffffffffffffffffffffffffff16146118d0576040517f08c379a00000000000000000000000000000000000000000000000000000000081526004016118c790614f9b565b60405180910390fd5b60008367ffffffffffffffff811115611912577f4e487b7100000000000000000000000000000000000000000000000000000000600052604160045260246000fd5b6040519080825280602002602001820160405280156119405781602001602082028036833780820191505090505b50905060008467ffffffffffffffff811115611985577f4e487b7100000000000000000000000000000000000000000000000000000000600052604160045260246000fd5b6040519080825280602002602001820160405280156119b35781602001602082028036833780820191505090505b50905060005b85811015611a6e578060fb546119cf91906151d9565b838281518110611a08577f4e487b7100000000000000000000000000000000000000000000000000000000600052603260045260246000fd5b6020026020010181815250506001828281518110611a4f577f4e487b7100000000000000000000000000000000000000000000000000000000600052603260045260246000fd5b6020026020010181815250508080611a6690615317565b9150506119b9565b50611a7b84838386612c2d565b815160fb6000828254611a8e91906151d9565b925050819055505050505050565b611aa4611f8e565b73ffffffffffffffffffffffffffffffffffffffff168573ffffffffffffffffffffffffffffffffffffffff161480611aea5750611ae985611ae4611f8e565b6117c0565b5b611b29576040517f08c379a0000000000000000000000000000000000000000000000000000000008152600401611b2090614e9b565b60405180910390fd5b611b368585858585612e98565b5050505050565b611b45611f8e565b73ffffffffffffffffffffffffffffffffffffffff16611b63611150565b73ffffffffffffffffffffffffffffffffffffffff1614611bb9576040517f08c379a0000000000000000000000000000000000000000000000000000000008152600401611bb090614f9b565b60405180910390fd5b600073ffffffffffffffffffffffffffffffffffffffff168173ffffffffffffffffffffffffffffffffffffffff161415611c29576040517f08c379a0000000000000000000000000000000000000000000000000000000008152600401611c2090614e3b565b60405180910390fd5b611c328161298e565b50565b611c3d611f8e565b73ffffffffffffffffffffffffffffffffffffffff16611c5b611150565b73ffffffffffffffffffffffffffffffffffffffff1614611cb1576040517f08c379a0000000000000000000000000000000000000000000000000000000008152600401611ca890614f9b565b60405180910390fd5b8060fe9080519060200190611cc7929190613b6c565b5050565b60007f01ffc9a7000000000000000000000000000000000000000000000000000000007bffffffffffffffffffffffffffffffffffffffffffffffffffffffff1916827bffffffffffffffffffffffffffffffffffffffffffffffffffffffff1916149050919050565b606060008390506000839050600081518351611d5191906151d9565b67ffffffffffffffff811115611d90577f4e487b7100000000000000000000000000000000000000000000000000000000600052604160045260246000fd5b6040519080825280601f01601f191660200182016040528015611dc25781602001600182028036833780820191505090505b5090506000819050600080600091505b8551821015611ea657858281518110611e14577f4e487b7100000000000000000000000000000000000000000000000000000000600052603260045260246000fd5b602001015160f81c60f81b838280611e2b90615317565b935081518110611e64577f4e487b7100000000000000000000000000000000000000000000000000000000600052603260045260246000fd5b60200101907effffffffffffffffffffffffffffffffffffffffffffffffffffffffffffff1916908160001a9053508180611e9e90615317565b925050611dd2565b600091505b8451821015611f7f57848281518110611eed577f4e487b7100000000000000000000000000000000000000000000000000000000600052603260045260246000fd5b602001015160f81c60f81b838280611f0490615317565b935081518110611f3d577f4e487b7100000000000000000000000000000000000000000000000000000000600052603260045260246000fd5b60200101907effffffffffffffffffffffffffffffffffffffffffffffffffffffffffffff1916908160001a9053508180611f7790615317565b925050611eab565b82965050505050505092915050565b600033905090565b600073ffffffffffffffffffffffffffffffffffffffff168373ffffffffffffffffffffffffffffffffffffffff161415612006576040517f08c379a0000000000000000000000000000000000000000000000000000000008152600401611ffd90614f5b565b60405180910390fd5b6000612010611f8e565b9050612040818560006120228761311d565b61202b8761311d565b604051806020016040528060008152506131e3565b600060c9600085815260200190815260200160002060008673ffffffffffffffffffffffffffffffffffffffff1673ffffffffffffffffffffffffffffffffffffffff168152602001908152602001600020549050828110156120d8576040517f08c379a00000000000000000000000000000000000000000000000000000000081526004016120cf90614e5b565b60405180910390fd5b82810360c9600086815260200190815260200160002060008773ffffffffffffffffffffffffffffffffffffffff1673ffffffffffffffffffffffffffffffffffffffff16815260200190815260200160002081905550600073ffffffffffffffffffffffffffffffffffffffff168573ffffffffffffffffffffffffffffffffffffffff168373ffffffffffffffffffffffffffffffffffffffff167fc3d58168c5ae7397731d063d5bbf3d657854427343f4c083240f7aacaa2d0f6287876040516121a6929190615056565b60405180910390a45050505050565b81518351146121f9576040517f08c379a00000000000000000000000000000000000000000000000000000000081526004016121f090614ffb565b60405180910390fd5b600073ffffffffffffffffffffffffffffffffffffffff168473ffffffffffffffffffffffffffffffffffffffff161415612269576040517f08c379a000000000000000000000000000000000000000000000000000000000815260040161226090614efb565b60405180910390fd5b6000612273611f8e565b90506122838187878787876131e3565b60005b84518110156124835760008582815181106122ca577f4e487b7100000000000000000000000000000000000000000000000000000000600052603260045260246000fd5b60200260200101519050600085838151811061230f577f4e487b7100000000000000000000000000000000000000000000000000000000600052603260045260246000fd5b60200260200101519050600060c9600084815260200190815260200160002060008b73ffffffffffffffffffffffffffffffffffffffff1673ffffffffffffffffffffffffffffffffffffffff168152602001908152602001600020549050818110156123b1576040517f08c379a00000000000000000000000000000000000000000000000000000000081526004016123a890614f7b565b60405180910390fd5b81810360c9600085815260200190815260200160002060008c73ffffffffffffffffffffffffffffffffffffffff1673ffffffffffffffffffffffffffffffffffffffff168152602001908152602001600020819055508160c9600085815260200190815260200160002060008b73ffffffffffffffffffffffffffffffffffffffff1673ffffffffffffffffffffffffffffffffffffffff168152602001908152602001600020600082825461246891906151d9565b925050819055505050508061247c90615317565b9050612286565b508473ffffffffffffffffffffffffffffffffffffffff168673ffffffffffffffffffffffffffffffffffffffff168273ffffffffffffffffffffffffffffffffffffffff167f4a39dc06d4c0dbc64b70af90fd698a233a518aa5d07e595d983b8c0526c8f7fb87876040516124fa929190614d27565b60405180910390a46125108187878787876132c1565b505050505050565b600060019054906101000a900460ff168061253e575060008054906101000a900460ff16155b61257d576040517f08c379a000000000000000000000000000000000000000000000000000000000815260040161257490614f3b565b60405180910390fd5b60008060019054906101000a900460ff1615905080156125cd576001600060016101000a81548160ff02191690831515021790555060016000806101000a81548160ff0219169083151502179055505b6125d5613491565b6125dd61356a565b6125e682613643565b80156126075760008060016101000a81548160ff0219169083151502179055505b5050565b600060019054906101000a900460ff1680612631575060008054906101000a900460ff16155b612670576040517f08c379a000000000000000000000000000000000000000000000000000000000815260040161266790614f3b565b60405180910390fd5b60008060019054906101000a900460ff1615905080156126c0576001600060016101000a81548160ff02191690831515021790555060016000806101000a81548160ff0219169083151502179055505b6126c8613491565b6126d0613726565b80156126f15760008060016101000a81548160ff0219169083151502179055505b50565b600060019054906101000a900460ff168061271a575060008054906101000a900460ff16155b612759576040517f08c379a000000000000000000000000000000000000000000000000000000000815260040161275090614f3b565b60405180910390fd5b60008060019054906101000a900460ff1615905080156127a9576001600060016101000a81548160ff02191690831515021790555060016000806101000a81548160ff0219169083151502179055505b6127b1613491565b6127b961380f565b80156127da5760008060016101000a81548160ff0219169083151502179055505b50565b600073ffffffffffffffffffffffffffffffffffffffff168473ffffffffffffffffffffffffffffffffffffffff16141561284d576040517f08c379a00000000000000000000000000000000000000000000000000000000081526004016128449061501b565b60405180910390fd5b6000612857611f8e565b9050612878816000876128698861311d565b6128728861311d565b876131e3565b8260c9600086815260200190815260200160002060008773ffffffffffffffffffffffffffffffffffffffff1673ffffffffffffffffffffffffffffffffffffffff16815260200190815260200160002060008282546128d891906151d9565b925050819055508473ffffffffffffffffffffffffffffffffffffffff16600073ffffffffffffffffffffffffffffffffffffffff168273ffffffffffffffffffffffffffffffffffffffff167fc3d58168c5ae7397731d063d5bbf3d657854427343f4c083240f7aacaa2d0f628787604051612956929190615056565b60405180910390a461296d81600087878787613903565b5050505050565b8060cb908051906020019061298a929190613b6c565b5050565b6000606560009054906101000a900473ffffffffffffffffffffffffffffffffffffffff16905081606560006101000a81548173ffffffffffffffffffffffffffffffffffffffff021916908373ffffffffffffffffffffffffffffffffffffffff1602179055508173ffffffffffffffffffffffffffffffffffffffff168173ffffffffffffffffffffffffffffffffffffffff167f8be0079c531659141344cd1fd0a4f28419497f9722a3daafe3b4186f6b6457e060405160405180910390a35050565b606060cb8054612a63906152e5565b80601f0160208091040260200160405190810160405280929190818152602001828054612a8f906152e5565b8015612adc5780601f10612ab157610100808354040283529160200191612adc565b820191906000526020600020905b815481529060010190602001808311612abf57829003601f168201915b50505050509050919050565b612af0610e4c565b612b2f576040517f08c379a0000000000000000000000000000000000000000000000000000000008152600401612b2690614dfb565b60405180910390fd5b6000603360006101000a81548160ff0219169083151502179055507f5db9ee0a495bf2e6ff9c91a7834c1ba4fdd244a5e8aa4e537bd38aeae4b073aa612b73611f8e565b604051612b809190614c28565b60405180910390a1565b612b92610e4c565b15612bd2576040517f08c379a0000000000000000000000000000000000000000000000000000000008152600401612bc990614edb565b60405180910390fd5b6001603360006101000a81548160ff0219169083151502179055507f62e78cea01bee320cd4e420270b5ea74000d11b0c9f74754ebdbfc544b05a258612c16611f8e565b604051612c239190614c28565b60405180910390a1565b600073ffffffffffffffffffffffffffffffffffffffff168473ffffffffffffffffffffffffffffffffffffffff161415612c9d576040517f08c379a0000000000000000000000000000000000000000000000000000000008152600401612c949061501b565b60405180910390fd5b8151835114612ce1576040517f08c379a0000000000000000000000000000000000000000000000000000000008152600401612cd890614ffb565b60405180910390fd5b6000612ceb611f8e565b9050612cfc816000878787876131e3565b60005b8451811015612e0257838181518110612d41577f4e487b7100000000000000000000000000000000000000000000000000000000600052603260045260246000fd5b602002602001015160c96000878481518110612d86577f4e487b7100000000000000000000000000000000000000000000000000000000600052603260045260246000fd5b6020026020010151815260200190815260200160002060008873ffffffffffffffffffffffffffffffffffffffff1673ffffffffffffffffffffffffffffffffffffffff1681526020019081526020016000206000828254612de891906151d9565b925050819055508080612dfa90615317565b915050612cff565b508473ffffffffffffffffffffffffffffffffffffffff16600073ffffffffffffffffffffffffffffffffffffffff168273ffffffffffffffffffffffffffffffffffffffff167f4a39dc06d4c0dbc64b70af90fd698a233a518aa5d07e595d983b8c0526c8f7fb8787604051612e7a929190614d27565b60405180910390a4612e91816000878787876132c1565b5050505050565b600073ffffffffffffffffffffffffffffffffffffffff168473ffffffffffffffffffffffffffffffffffffffff161415612f08576040517f08c379a0000000000000000000000000000000000000000000000000000000008152600401612eff90614efb565b60405180910390fd5b6000612f12611f8e565b9050612f32818787612f238861311d565b612f2c8861311d565b876131e3565b600060c9600086815260200190815260200160002060008873ffffffffffffffffffffffffffffffffffffffff1673ffffffffffffffffffffffffffffffffffffffff16815260200190815260200160002054905083811015612fca576040517f08c379a0000000000000000000000000000000000000000000000000000000008152600401612fc190614f7b565b60405180910390fd5b83810360c9600087815260200190815260200160002060008973ffffffffffffffffffffffffffffffffffffffff1673ffffffffffffffffffffffffffffffffffffffff168152602001908152602001600020819055508360c9600087815260200190815260200160002060008873ffffffffffffffffffffffffffffffffffffffff1673ffffffffffffffffffffffffffffffffffffffff168152602001908152602001600020600082825461308191906151d9565b925050819055508573ffffffffffffffffffffffffffffffffffffffff168773ffffffffffffffffffffffffffffffffffffffff168373ffffffffffffffffffffffffffffffffffffffff167fc3d58168c5ae7397731d063d5bbf3d657854427343f4c083240f7aacaa2d0f6288886040516130fe929190615056565b60405180910390a4613114828888888888613903565b50505050505050565b60606000600167ffffffffffffffff811115613162577f4e487b7100000000000000000000000000000000000000000000000000000000600052604160045260246000fd5b6040519080825280602002602001820160405280156131905781602001602082028036833780820191505090505b50905082816000815181106131ce577f4e487b7100000000000000000000000000000000000000000000000000000000600052603260045260246000fd5b60200260200101818152505080915050919050565b60008351905060005b8181101561326f578260fc6000878481518110613232577f4e487b7100000000000000000000000000000000000000000000000000000000600052603260045260246000fd5b60200260200101518152602001908152602001600020908051906020019061325b929190613ae6565b50808061326790615317565b9150506131ec565b50613278610e4c565b156132b8576040517f08c379a00000000000000000000000000000000000000000000000000000000081526004016132af90614e7b565b60405180910390fd5b50505050505050565b6132e08473ffffffffffffffffffffffffffffffffffffffff16613ad3565b15613489578373ffffffffffffffffffffffffffffffffffffffff1663bc197c8187878686866040518663ffffffff1660e01b8152600401613326959493929190614c43565b602060405180830381600087803b15801561334057600080fd5b505af192505050801561337157506040513d601f19601f8201168201806040525081019061336e9190614183565b60015b6134005761337d61540b565b8061338857506133c5565b806040517f08c379a00000000000000000000000000000000000000000000000000000000081526004016133bc9190614d79565b60405180910390fd5b6040517f08c379a00000000000000000000000000000000000000000000000000000000081526004016133f790614d9b565b60405180910390fd5b63bc197c8160e01b7bffffffffffffffffffffffffffffffffffffffffffffffffffffffff1916817bffffffffffffffffffffffffffffffffffffffffffffffffffffffff191614613487576040517f08c379a000000000000000000000000000000000000000000000000000000000815260040161347e90614dbb565b60405180910390fd5b505b505050505050565b600060019054906101000a900460ff16806134b7575060008054906101000a900460ff16155b6134f6576040517f08c379a00000000000000000000000000000000000000000000000000000000081526004016134ed90614f3b565b60405180910390fd5b60008060019054906101000a900460ff161590508015613546576001600060016101000a81548160ff02191690831515021790555060016000806101000a81548160ff0219169083151502179055505b80156135675760008060016101000a81548160ff0219169083151502179055505b50565b600060019054906101000a900460ff1680613590575060008054906101000a900460ff16155b6135cf576040517f08c379a00000000000000000000000000000000000000000000000000000000081526004016135c690614f3b565b60405180910390fd5b60008060019054906101000a900460ff16159050801561361f576001600060016101000a81548160ff02191690831515021790555060016000806101000a81548160ff0219169083151502179055505b80156136405760008060016101000a81548160ff0219169083151502179055505b50565b600060019054906101000a900460ff1680613669575060008054906101000a900460ff16155b6136a8576040517f08c379a000000000000000000000000000000000000000000000000000000000815260040161369f90614f3b565b60405180910390fd5b60008060019054906101000a900460ff1615905080156136f8576001600060016101000a81548160ff02191690831515021790555060016000806101000a81548160ff0219169083151502179055505b61370182612974565b80156137225760008060016101000a81548160ff0219169083151502179055505b5050565b600060019054906101000a900460ff168061374c575060008054906101000a900460ff16155b61378b576040517f08c379a000000000000000000000000000000000000000000000000000000000815260040161378290614f3b565b60405180910390fd5b60008060019054906101000a900460ff1615905080156137db576001600060016101000a81548160ff02191690831515021790555060016000806101000a81548160ff0219169083151502179055505b6137eb6137e6611f8e565b61298e565b801561380c5760008060016101000a81548160ff0219169083151502179055505b50565b600060019054906101000a900460ff1680613835575060008054906101000a900460ff16155b613874576040517f08c379a000000000000000000000000000000000000000000000000000000000815260040161386b90614f3b565b60405180910390fd5b60008060019054906101000a900460ff1615905080156138c4576001600060016101000a81548160ff02191690831515021790555060016000806101000a81548160ff0219169083151502179055505b6000603360006101000a81548160ff02191690831515021790555080156139005760008060016101000a81548160ff0219169083151502179055505b50565b6139228473ffffffffffffffffffffffffffffffffffffffff16613ad3565b15613acb578373ffffffffffffffffffffffffffffffffffffffff1663f23a6e6187878686866040518663ffffffff1660e01b8152600401613968959493929190614cab565b602060405180830381600087803b15801561398257600080fd5b505af19250505080156139b357506040513d601f19601f820116820180604052508101906139b09190614183565b60015b613a42576139bf61540b565b806139ca5750613a07565b806040517f08c379a00000000000000000000000000000000000000000000000000000000081526004016139fe9190614d79565b60405180910390fd5b6040517f08c379a0000000000000000000000000000000000000000000000000000000008152600401613a3990614d9b565b60405180910390fd5b63f23a6e6160e01b7bffffffffffffffffffffffffffffffffffffffffffffffffffffffff1916817bffffffffffffffffffffffffffffffffffffffffffffffffffffffff191614613ac9576040517f08c379a0000000000000000000000000000000000000000000000000000000008152600401613ac090614dbb565b60405180910390fd5b505b505050505050565b600080823b905060008111915050919050565b828054613af2906152e5565b90600052602060002090601f016020900481019282613b145760008555613b5b565b82601f10613b2d57805160ff1916838001178555613b5b565b82800160010185558215613b5b579182015b82811115613b5a578251825591602001919060010190613b3f565b5b509050613b689190613bf2565b5090565b828054613b78906152e5565b90600052602060002090601f016020900481019282613b9a5760008555613be1565b82601f10613bb357805160ff1916838001178555613be1565b82800160010185558215613be1579182015b82811115613be0578251825591602001919060010190613bc5565b5b509050613bee9190613bf2565b5090565b5b80821115613c0b576000816000905550600101613bf3565b5090565b6000613c22613c1d846150b0565b61507f565b90508083825260208201905082856020860282011115613c4157600080fd5b60005b85811015613c715781613c578882613d63565b845260208401935060208301925050600181019050613c44565b5050509392505050565b6000613c8e613c89846150dc565b61507f565b90508083825260208201905082856020860282011115613cad57600080fd5b60005b85811015613cdd5781613cc38882613e5f565b845260208401935060208301925050600181019050613cb0565b5050509392505050565b6000613cfa613cf584615108565b61507f565b905082815260208101848484011115613d1257600080fd5b613d1d8482856152a3565b509392505050565b6000613d38613d3384615138565b61507f565b905082815260208101848484011115613d5057600080fd5b613d5b8482856152a3565b509392505050565b600081359050613d72816154c1565b92915050565b600082601f830112613d8957600080fd5b8135613d99848260208601613c0f565b91505092915050565b600082601f830112613db357600080fd5b8135613dc3848260208601613c7b565b91505092915050565b600081359050613ddb816154d8565b92915050565b600081359050613df0816154ef565b92915050565b600081519050613e05816154ef565b92915050565b600082601f830112613e1c57600080fd5b8135613e2c848260208601613ce7565b91505092915050565b600082601f830112613e4657600080fd5b8135613e56848260208601613d25565b91505092915050565b600081359050613e6e81615506565b92915050565b600060208284031215613e8657600080fd5b6000613e9484828501613d63565b91505092915050565b60008060408385031215613eb057600080fd5b6000613ebe85828601613d63565b9250506020613ecf85828601613d63565b9150509250929050565b600080600080600060a08688031215613ef157600080fd5b6000613eff88828901613d63565b9550506020613f1088828901613d63565b945050604086013567ffffffffffffffff811115613f2d57600080fd5b613f3988828901613da2565b935050606086013567ffffffffffffffff811115613f5657600080fd5b613f6288828901613da2565b925050608086013567ffffffffffffffff811115613f7f57600080fd5b613f8b88828901613e0b565b9150509295509295909350565b600080600080600060a08688031215613fb057600080fd5b6000613fbe88828901613d63565b9550506020613fcf88828901613d63565b9450506040613fe088828901613e5f565b9350506060613ff188828901613e5f565b925050608086013567ffffffffffffffff81111561400e57600080fd5b61401a88828901613e0b565b9150509295509295909350565b6000806040838503121561403a57600080fd5b600061404885828601613d63565b925050602061405985828601613dcc565b9150509250929050565b6000806040838503121561407657600080fd5b600061408485828601613d63565b925050602061409585828601613e5f565b9150509250929050565b6000806000606084860312156140b457600080fd5b60006140c286828701613d63565b93505060206140d386828701613e5f565b92505060406140e486828701613e5f565b9150509250925092565b6000806040838503121561410157600080fd5b600083013567ffffffffffffffff81111561411b57600080fd5b61412785828601613d78565b925050602083013567ffffffffffffffff81111561414457600080fd5b61415085828601613da2565b9150509250929050565b60006020828403121561416c57600080fd5b600061417a84828501613de1565b91505092915050565b60006020828403121561419557600080fd5b60006141a384828501613df6565b91505092915050565b6000602082840312156141be57600080fd5b600082013567ffffffffffffffff8111156141d857600080fd5b6141e484828501613e35565b91505092915050565b6000806040838503121561420057600080fd5b600083013567ffffffffffffffff81111561421a57600080fd5b61422685828601613e35565b925050602083013567ffffffffffffffff81111561424357600080fd5b61424f85828601613e35565b9150509250929050565b60006020828403121561426b57600080fd5b600061427984828501613e5f565b91505092915050565b60008060006060848603121561429757600080fd5b60006142a586828701613e5f565b93505060206142b686828701613d63565b925050604084013567ffffffffffffffff8111156142d357600080fd5b6142df86828701613e0b565b9150509250925092565b600080600080608085870312156142ff57600080fd5b600061430d87828801613e5f565b945050602061431e87828801613d63565b935050604085013567ffffffffffffffff81111561433b57600080fd5b61434787828801613e0b565b925050606061435887828801613e5f565b91505092959194509250565b60006143708383614c0a565b60208301905092915050565b6143858161522f565b82525050565b600061439682615178565b6143a081856151a6565b93506143ab83615168565b8060005b838110156143dc5781516143c38882614364565b97506143ce83615199565b9250506001810190506143af565b5085935050505092915050565b6143f281615241565b82525050565b600061440382615183565b61440d81856151b7565b935061441d8185602086016152b2565b614426816153ed565b840191505092915050565b600061443c8261518e565b61444681856151c8565b93506144568185602086016152b2565b61445f816153ed565b840191505092915050565b60006144776034836151c8565b91507f455243313135353a207472616e7366657220746f206e6f6e204552433131353560008301527f526563656976657220696d706c656d656e7465720000000000000000000000006020830152604082019050919050565b60006144dd6028836151c8565b91507f455243313135353a204552433131353552656365697665722072656a6563746560008301527f6420746f6b656e730000000000000000000000000000000000000000000000006020830152604082019050919050565b6000614543601c836151c8565b91507f506172656e7420746f6b656e206964206973206e6f742076616c6964000000006000830152602082019050919050565b60006145836014836151c8565b91507f5061757361626c653a206e6f74207061757365640000000000000000000000006000830152602082019050919050565b60006145c3602b836151c8565b91507f455243313135353a2062616c616e636520717565727920666f7220746865207a60008301527f65726f20616464726573730000000000000000000000000000000000000000006020830152604082019050919050565b60006146296026836151c8565b91507f4f776e61626c653a206e6577206f776e657220697320746865207a65726f206160008301527f64647265737300000000000000000000000000000000000000000000000000006020830152604082019050919050565b600061468f6024836151c8565b91507f455243313135353a206275726e20616d6f756e7420657863656564732062616c60008301527f616e6365000000000000000000000000000000000000000000000000000000006020830152604082019050919050565b60006146f5602c836151c8565b91507f455243313135355061757361626c653a20746f6b656e207472616e736665722060008301527f7768696c652070617573656400000000000000000000000000000000000000006020830152604082019050919050565b600061475b6029836151c8565b91507f455243313135353a2063616c6c6572206973206e6f74206f776e6572206e6f7260008301527f20617070726f76656400000000000000000000000000000000000000000000006020830152604082019050919050565b60006147c16017836151c8565b91507f237572693a204e4f4e4558495354454e545f544f4b454e0000000000000000006000830152602082019050919050565b60006148016010836151c8565b91507f5061757361626c653a20706175736564000000000000000000000000000000006000830152602082019050919050565b60006148416025836151c8565b91507f455243313135353a207472616e7366657220746f20746865207a65726f20616460008301527f64726573730000000000000000000000000000000000000000000000000000006020830152604082019050919050565b60006148a76032836151c8565b91507f455243313135353a207472616e736665722063616c6c6572206973206e6f742060008301527f6f776e6572206e6f7220617070726f76656400000000000000000000000000006020830152604082019050919050565b600061490d602e836151c8565b91507f496e697469616c697a61626c653a20636f6e747261637420697320616c72656160008301527f647920696e697469616c697a65640000000000000000000000000000000000006020830152604082019050919050565b60006149736023836151c8565b91507f455243313135353a206275726e2066726f6d20746865207a65726f206164647260008301527f65737300000000000000000000000000000000000000000000000000000000006020830152604082019050919050565b60006149d9602a836151c8565b91507f455243313135353a20696e73756666696369656e742062616c616e636520666f60008301527f72207472616e73666572000000000000000000000000000000000000000000006020830152604082019050919050565b6000614a3f6020836151c8565b91507f4f776e61626c653a2063616c6c6572206973206e6f7420746865206f776e65726000830152602082019050919050565b6000614a7f6029836151c8565b91507f455243313135353a2073657474696e6720617070726f76616c2073746174757360008301527f20666f722073656c6600000000000000000000000000000000000000000000006020830152604082019050919050565b6000614ae56029836151c8565b91507f455243313135353a206163636f756e747320616e6420696473206c656e67746860008301527f206d69736d6174636800000000000000000000000000000000000000000000006020830152604082019050919050565b6000614b4b6028836151c8565b91507f455243313135353a2069647320616e6420616d6f756e7473206c656e6774682060008301527f6d69736d617463680000000000000000000000000000000000000000000000006020830152604082019050919050565b6000614bb16021836151c8565b91507f455243313135353a206d696e7420746f20746865207a65726f2061646472657360008301527f73000000000000000000000000000000000000000000000000000000000000006020830152604082019050919050565b614c1381615299565b82525050565b614c2281615299565b82525050565b6000602082019050614c3d600083018461437c565b92915050565b600060a082019050614c58600083018861437c565b614c65602083018761437c565b8181036040830152614c77818661438b565b90508181036060830152614c8b818561438b565b90508181036080830152614c9f81846143f8565b90509695505050505050565b600060a082019050614cc0600083018861437c565b614ccd602083018761437c565b614cda6040830186614c19565b614ce76060830185614c19565b8181036080830152614cf981846143f8565b90509695505050505050565b60006020820190508181036000830152614d1f818461438b565b905092915050565b60006040820190508181036000830152614d41818561438b565b90508181036020830152614d55818461438b565b90509392505050565b6000602082019050614d7360008301846143e9565b92915050565b60006020820190508181036000830152614d938184614431565b905092915050565b60006020820190508181036000830152614db48161446a565b9050919050565b60006020820190508181036000830152614dd4816144d0565b9050919050565b60006020820190508181036000830152614df481614536565b9050919050565b60006020820190508181036000830152614e1481614576565b9050919050565b60006020820190508181036000830152614e34816145b6565b9050919050565b60006020820190508181036000830152614e548161461c565b9050919050565b60006020820190508181036000830152614e7481614682565b9050919050565b60006020820190508181036000830152614e94816146e8565b9050919050565b60006020820190508181036000830152614eb48161474e565b9050919050565b60006020820190508181036000830152614ed4816147b4565b9050919050565b60006020820190508181036000830152614ef4816147f4565b9050919050565b60006020820190508181036000830152614f1481614834565b9050919050565b60006020820190508181036000830152614f348161489a565b9050919050565b60006020820190508181036000830152614f5481614900565b9050919050565b60006020820190508181036000830152614f7481614966565b9050919050565b60006020820190508181036000830152614f94816149cc565b9050919050565b60006020820190508181036000830152614fb481614a32565b9050919050565b60006020820190508181036000830152614fd481614a72565b9050919050565b60006020820190508181036000830152614ff481614ad8565b9050919050565b6000602082019050818103600083015261501481614b3e565b9050919050565b6000602082019050818103600083015261503481614ba4565b9050919050565b60006020820190506150506000830184614c19565b92915050565b600060408201905061506b6000830185614c19565b6150786020830184614c19565b9392505050565b6000604051905081810181811067ffffffffffffffff821117156150a6576150a56153be565b5b8060405250919050565b600067ffffffffffffffff8211156150cb576150ca6153be565b5b602082029050602081019050919050565b600067ffffffffffffffff8211156150f7576150f66153be565b5b602082029050602081019050919050565b600067ffffffffffffffff821115615123576151226153be565b5b601f19601f8301169050602081019050919050565b600067ffffffffffffffff821115615153576151526153be565b5b601f19601f8301169050602081019050919050565b6000819050602082019050919050565b600081519050919050565b600081519050919050565b600081519050919050565b6000602082019050919050565b600082825260208201905092915050565b600082825260208201905092915050565b600082825260208201905092915050565b60006151e482615299565b91506151ef83615299565b9250827fffffffffffffffffffffffffffffffffffffffffffffffffffffffffffffffff0382111561522457615223615360565b5b828201905092915050565b600061523a82615279565b9050919050565b60008115159050919050565b60007fffffffff0000000000000000000000000000000000000000000000000000000082169050919050565b600073ffffffffffffffffffffffffffffffffffffffff82169050919050565b6000819050919050565b82818337600083830152505050565b60005b838110156152d05780820151818401526020810190506152b5565b838111156152df576000848401525b50505050565b600060028204905060018216806152fd57607f821691505b602082108114156153115761531061538f565b5b50919050565b600061532282615299565b91507fffffffffffffffffffffffffffffffffffffffffffffffffffffffffffffffff82141561535557615354615360565b5b600182019050919050565b7f4e487b7100000000000000000000000000000000000000000000000000000000600052601160045260246000fd5b7f4e487b7100000000000000000000000000000000000000000000000000000000600052602260045260246000fd5b7f4e487b7100000000000000000000000000000000000000000000000000000000600052604160045260246000fd5b6000601f19601f8301169050919050565b60008160e01c9050919050565b600060443d101561541b576154be565b60046000803e61542c6000516153fe565b6308c379a0811461543d57506154be565b60405160043d036004823e80513d602482011167ffffffffffffffff82111715615469575050506154be565b808201805167ffffffffffffffff8111156154885750505050506154be565b8060208301013d85018111156154a3575050505050506154be565b6154ac826153ed565b60208401016040528296505050505050505b90565b6154ca8161522f565b81146154d557600080fd5b50565b6154e181615241565b81146154ec57600080fd5b50565b6154f88161524d565b811461550357600080fd5b50565b61550f81615299565b811461551a57600080fd5b5056fea2646970667358221220b282d616e6de92c1ab786bd51658ab7ffdf32b4b938b8d47f06e496b6f7ff20664736f6c63430008000033",
  "immutableReferences": {},
  "source": "// SPDX-License-Identifier: MIT\npragma solidity ^0.8.0;\n\n\nimport \"@openzeppelin/contracts-upgradeable/token/ERC1155/ERC1155Upgradeable.sol\";\nimport \"@openzeppelin/contracts-upgradeable/security/PausableUpgradeable.sol\";\nimport \"@openzeppelin/contracts-upgradeable/access/OwnableUpgradeable.sol\";\nimport \"@openzeppelin/contracts-upgradeable/proxy/utils/Initializable.sol\";\nimport \"./strings.sol\";\n\ncontract Onec1155 is Initializable,PausableUpgradeable, OwnableUpgradeable, ERC1155Upgradeable {\n\n    using Strings for string;\n\n    uint private NFTCounter;\n    // token-id to metadata hash\n    mapping(uint256 => bytes) private metadataHash;\n    // tokenIds to refTokenIds\n    mapping(uint256 => uint256[]) private references;\n\n    string private contractMetadata;\n\n    function initialize(string memory _baseURI,string memory _contractMetadata) public initializer {\n        ERC1155Upgradeable.__ERC1155_init(_baseURI);\n        OwnableUpgradeable.__Ownable_init();\n        PausableUpgradeable.__Pausable_init();\n        NFTCounter = 0;\n        contractMetadata = _contractMetadata;\n    }\n\n     /*\n     * @dev Returns the contract URI to make it trackable at OpenSea.\n     */   \n    function contractURI() public view returns (string memory) {\n        return contractMetadata;\n    }\n\n     /*\n     * @dev Sets the contract URI to make it trackable at OpenSea.\n     @params _metadata: The URL for the contract's OpenSea metadata.\n     */  \n    function setContractMetadata(string memory _metadata) public onlyOwner {\n        contractMetadata = _metadata;\n    }\n\n    /*\n     * @dev Mints NFT to the address of _holder.\n     * @params _supply:total no. of NFTs to mint\n     * _holder:public address of the account to mint NFT on that.\n     * _data: metadata hash of the NFT.\n     * Requirements:\n     * Can only be called by the deployer of the smart contract.\n     */\n    function mintNFT(uint _supply, address _holder, bytes memory _data) public onlyOwner{\n        _mint(_holder, NFTCounter, _supply, _data);\n        NFTCounter++;        \n    }\n\n    /*\n     * @dev Mints Reference  to the address of _holder.\n     * @params _supply: total no. of NFTs to mint\n     * _holder: public address of the account to mint NFT on that.\n     * _data: metadata hash of the NFT.\n     * _parentTokenId: the token id of the NFT of which you are minting the references.\n     * Requirements:\n     * Can only be called by the deployer of the smart contract.\n     */\n    function mintRefNFT(uint256 _supply, address _holder, bytes memory _data,uint256 _parentTokenId) public onlyOwner {\n        require(_parentTokenId < NFTCounter, \"Parent token id is not valid\");\n        _mint(_holder, NFTCounter, _supply, _data);\n        references[_parentTokenId].push(NFTCounter);\n        NFTCounter++;\n    }\n\n    /*\n     * @dev Batch-Mints NFTs to the address of _holder.\n     * @params _supply:total no. of NFT to mint\n     * _holder:public address of the account to mint NFT on that.\n     * _data metadata hash of the NFT.\n     * Requirements:\n     * Can only be called by the deployer of the smart contract.\n     */\n    function batchMintNFT(uint _supply,address _holder, bytes memory _data) public onlyOwner {\n        //create ids array\n        uint[] memory _ids = new uint[](_supply);\n        uint[] memory _amounts = new uint[](_supply);\n        for(uint i=0;i<_supply;i++){\n            _ids[i]=NFTCounter+i;\n            _amounts[i]=1;\n        }\n        //create amount array\n        _mintBatch(_holder,_ids,_amounts,_data);\n        NFTCounter+=_ids.length;\n    }\n\n    /*\n     * @dev Batch Mints Reference NFTs to the address of _holder.\n     * @params _supply:total no. of NFT to mint\n     * _holder:public address of the account to mint NFT on that.\n     * _data: metadata hash of the NFT.\n     * _parentTokenId: the token id of the NFT of which you are minting the references.\n     * Requirements:\n     * Can only be called by the deployer of the smart contract.\n     */\n    function batchMintRefNFT(uint _supply,address _holder, bytes memory _data,uint _parentTokenId) public onlyOwner {\n        //create ids array\n        require(_parentTokenId < NFTCounter);\n        uint[] memory _ids = new uint[](_supply);\n        uint[] memory _amounts = new uint[](_supply);\n        for(uint i=0;i<_supply;i++){\n            _ids[i]=NFTCounter+i;\n            _amounts[i]=1;\n        }\n        //create amount array\n        _mintBatch(_holder,_ids,_amounts,_data);\n        NFTCounter+=_ids.length;\n        for(uint i=0;i<_ids.length;i++){\n            references[_parentTokenId].push(_ids[i]);\n        }\n    }\n    \n    /*\n     * @dev return the list of token-ids of all the reference service tokens\n     */\n    function getReferences(uint _id) public view returns(uint256[] memory) {\n        return references[_id];    \n    }\n    \n    /*\n     *@dev Called before every token transfer, maps the metadataHash of a NFT with the token id  \n     */\n    function _beforeTokenTransfer(address _operator, address _from, address _to, uint256[] memory ids, uint256[] memory amount, bytes memory data) override internal {\n        //save the metadata hash\n        uint arrayLength = ids.length;\n        for (uint i=0; i<arrayLength; i++) {\n            metadataHash[ids[i]] = data;\n        }\n        require(!paused(), \"ERC1155Pausable: token transfer while paused\");\n    }\n\n    /*\n     * @dev returns the metaDataHash for the token-ID\n     */\n\n    function getTokenMetadataHash(uint256 _id) view public returns(string memory) {\n        return string(metadataHash[_id]);\n    }\n\n     /*\n      * @dev returns the baseURI.\n      * Doesn't depends on the token-id and returns same thing.\n      */\n    function getBaseURI(uint256 _id) view public returns(string memory) {\n        return super.uri(_id);\n    }\n\n    function setBaseURI(string memory _baseURI) public onlyOwner{\n        super._setURI(_baseURI);\n    }\n\n     /*\n      * @dev returns the tokenURI.\n      * Depends on the token-id and returns same thing.\n      */\n    function uri(uint256 _id) public view override returns (string memory) {\n        require(_id<=getTotalMintedNFT(), \"#uri: NONEXISTENT_TOKEN\");\n        string memory baseURI = getBaseURI(_id);\n        string memory hash = getTokenMetadataHash(_id);\n        return baseURI.concat(string(hash));\n    }\n\n     /*\n      * @dev Tranfers the NFT to new address.\n      * Can be called by the NFT holder.\n      */\n    function transfer(address _from,address _to, uint256 _id, uint256 _amount, bytes memory _data) public {\n        super.safeTransferFrom(_from, _to, _id, _amount, _data);\n    }\n\n     /*\n      * @dev Batch tranfers the services/NFTs to new address.\n      * Can be called by the NFT holder.\n      */\n    function batchTransfer(address _from,address _to,uint256[] memory _ids,uint256[] memory _amounts,bytes memory _data) public {\n        super.safeBatchTransferFrom(_from,_to,_ids,_amounts,_data);\n    }\n\n    /*\n     * @dev pause the onec contract.\n     */\n    function makePause() public onlyOwner {\n        super._pause();\n    }\n\n    /*\n     * @dev un-pause the onec contract.\n     */\n    function makeUnpause() public onlyOwner{\n        super._unpause();\n    } \n\n    /*\n     * @dev Burns the token with the given tokenid.\n     */\n    function burnNFT(address account,uint256 id,uint256 amount) public onlyOwner{\n        super._burn(account,id,amount);\n        metadataHash[id]=bytes(\"0x0\");\n    }\n    \n    /*\n     * @dev Sets approval to the operator to manage NFT held by the caller of the function.\n     */\n    function setApproval(address _operator, bool _approved) public onlyOwner{\n        super.setApprovalForAll(_operator,_approved);\n    }\n\n    /*\n     * @dev Give status of the approval rights, if the operator can manage NFT held by the account.\n     */\n    function isApproved(address account, address operator) public view returns(bool){\n        return super.isApprovedForAll(account,operator);\n    }\n    \n    /*\n     * @dev Gives the balance of a particular NFT of given id held by an account.\n     */\n    function getBalance(address account, uint256 id) public view returns(uint256){\n        return super.balanceOf(account,id);\n    }\n\n    /*    \n     * @dev Returns the total minted NFTs by the contract.\n     */\n    function getTotalMintedNFT() public view returns(uint256){\n        return NFTCounter;\n    }\n    \n\n}",
  "sourcePath": "/Users/hrishabhsharma/Projects/core-contract/contracts/Onec1155.sol",
  "compiler": {
    "name": "solc",
    "version": "0.8.0+commit.c7dfd78e.Emscripten.clang"
  },
  "schemaVersion": "3.4.3",
  "updatedAt": "2022-01-18T12:50:52.554Z",
  "devdoc": {
    "kind": "dev",
    "methods": {
      "balanceOf(address,uint256)": {
        "details": "See {IERC1155-balanceOf}. Requirements: - `account` cannot be the zero address."
      },
      "balanceOfBatch(address[],uint256[])": {
        "details": "See {IERC1155-balanceOfBatch}. Requirements: - `accounts` and `ids` must have the same length."
      },
      "isApprovedForAll(address,address)": {
        "details": "See {IERC1155-isApprovedForAll}."
      },
      "owner()": {
        "details": "Returns the address of the current owner."
      },
      "paused()": {
        "details": "Returns true if the contract is paused, and false otherwise."
      },
      "renounceOwnership()": {
        "details": "Leaves the contract without owner. It will not be possible to call `onlyOwner` functions anymore. Can only be called by the current owner. NOTE: Renouncing ownership will leave the contract without an owner, thereby removing any functionality that is only available to the owner."
      },
      "safeBatchTransferFrom(address,address,uint256[],uint256[],bytes)": {
        "details": "See {IERC1155-safeBatchTransferFrom}."
      },
      "safeTransferFrom(address,address,uint256,uint256,bytes)": {
        "details": "See {IERC1155-safeTransferFrom}."
      },
      "setApprovalForAll(address,bool)": {
        "details": "See {IERC1155-setApprovalForAll}."
      },
      "supportsInterface(bytes4)": {
        "details": "See {IERC165-supportsInterface}."
      },
      "transferOwnership(address)": {
        "details": "Transfers ownership of the contract to a new account (`newOwner`). Can only be called by the current owner."
      }
    },
    "version": 1
  },
  "userdoc": {
    "kind": "user",
    "methods": {},
    "version": 1
  }
}