{
  "contractName": "Onec1155Factory",
  "abi": [
    {
      "inputs": [],
      "stateMutability": "nonpayable",
      "type": "constructor"
    },
    {
      "anonymous": false,
      "inputs": [
        {
          "indexed": true,
          "internalType": "address",
          "name": "previousOwner",
          "type": "address"
        },
        {
          "indexed": true,
          "internalType": "address",
          "name": "newOwner",
          "type": "address"
        }
      ],
      "name": "OwnershipTransferred",
      "type": "event"
    },
    {
      "inputs": [],
      "name": "owner",
      "outputs": [
        {
          "internalType": "address",
          "name": "",
          "type": "address"
        }
      ],
      "stateMutability": "view",
      "type": "function"
    },
    {
      "inputs": [],
      "name": "renounceOwnership",
      "outputs": [],
      "stateMutability": "nonpayable",
      "type": "function"
    },
    {
      "inputs": [
        {
          "internalType": "address",
          "name": "newOwner",
          "type": "address"
        }
      ],
      "name": "transferOwnership",
      "outputs": [],
      "stateMutability": "nonpayable",
      "type": "function"
    },
    {
      "inputs": [
        {
          "internalType": "string",
          "name": "_name",
          "type": "string"
        },
        {
          "internalType": "string",
          "name": "_symbol",
          "type": "string"
        },
        {
          "internalType": "string",
          "name": "_baseURI",
          "type": "string"
        },
        {
          "internalType": "string",
          "name": "_contractMetadata",
          "type": "string"
        },
        {
          "internalType": "address",
          "name": "_newOwner",
          "type": "address"
        }
      ],
      "name": "createOnec1155",
      "outputs": [
        {
          "internalType": "address",
          "name": "",
          "type": "address"
        }
      ],
      "stateMutability": "nonpayable",
      "type": "function"
    }
  ],
  "bytecode": "0x608060405234801561001057600080fd5b5061002d61002261009b60201b60201c565b6100a360201b60201c565b60405161003990610167565b604051809103906000f080158015610055573d6000803e3d6000fd5b50600160006101000a81548173ffffffffffffffffffffffffffffffffffffffff021916908373ffffffffffffffffffffffffffffffffffffffff160217905550610174565b600033905090565b60008060009054906101000a900473ffffffffffffffffffffffffffffffffffffffff169050816000806101000a81548173ffffffffffffffffffffffffffffffffffffffff021916908373ffffffffffffffffffffffffffffffffffffffff1602179055508173ffffffffffffffffffffffffffffffffffffffff168173ffffffffffffffffffffffffffffffffffffffff167f8be0079c531659141344cd1fd0a4f28419497f9722a3daafe3b4186f6b6457e060405160405180910390a35050565b61526480610c6783390190565b610ae4806101836000396000f3fe608060405234801561001057600080fd5b506004361061004c5760003560e01c8063548f49ff14610051578063715018a6146100815780638da5cb5b1461008b578063f2fde38b146100a9575b600080fd5b61006b60048036038101906100669190610685565b6100c5565b604051610078919061088a565b60405180910390f35b610089610295565b005b61009361031d565b6040516100a0919061088a565b60405180910390f35b6100c360048036038101906100be919061065c565b610346565b005b60006100cf61043e565b73ffffffffffffffffffffffffffffffffffffffff166100ed61031d565b73ffffffffffffffffffffffffffffffffffffffff1614610143576040517f08c379a000000000000000000000000000000000000000000000000000000000815260040161013a90610946565b60405180910390fd5b600073ffffffffffffffffffffffffffffffffffffffff168273ffffffffffffffffffffffffffffffffffffffff16141561017d57600080fd5b60006101aa600160009054906101000a900473ffffffffffffffffffffffffffffffffffffffff16610446565b90508073ffffffffffffffffffffffffffffffffffffffff1663a523d35e888888886040518563ffffffff1660e01b81526004016101eb94939291906108a5565b600060405180830381600087803b15801561020557600080fd5b505af1158015610219573d6000803e3d6000fd5b505050508073ffffffffffffffffffffffffffffffffffffffff1663f2fde38b846040518263ffffffff1660e01b8152600401610256919061088a565b600060405180830381600087803b15801561027057600080fd5b505af1158015610284573d6000803e3d6000fd5b505050508091505095945050505050565b61029d61043e565b73ffffffffffffffffffffffffffffffffffffffff166102bb61031d565b73ffffffffffffffffffffffffffffffffffffffff1614610311576040517f08c379a000000000000000000000000000000000000000000000000000000000815260040161030890610946565b60405180910390fd5b61031b600061051b565b565b60008060009054906101000a900473ffffffffffffffffffffffffffffffffffffffff16905090565b61034e61043e565b73ffffffffffffffffffffffffffffffffffffffff1661036c61031d565b73ffffffffffffffffffffffffffffffffffffffff16146103c2576040517f08c379a00000000000000000000000000000000000000000000000000000000081526004016103b990610946565b60405180910390fd5b600073ffffffffffffffffffffffffffffffffffffffff168173ffffffffffffffffffffffffffffffffffffffff161415610432576040517f08c379a000000000000000000000000000000000000000000000000000000000815260040161042990610906565b60405180910390fd5b61043b8161051b565b50565b600033905090565b60006040517f3d602d80600a3d3981f3363d3d373d3d3d363d7300000000000000000000000081528260601b60148201527f5af43d82803e903d91602b57fd5bf3000000000000000000000000000000000060288201526037816000f0915050600073ffffffffffffffffffffffffffffffffffffffff168173ffffffffffffffffffffffffffffffffffffffff161415610516576040517f08c379a000000000000000000000000000000000000000000000000000000000815260040161050d90610926565b60405180910390fd5b919050565b60008060009054906101000a900473ffffffffffffffffffffffffffffffffffffffff169050816000806101000a81548173ffffffffffffffffffffffffffffffffffffffff021916908373ffffffffffffffffffffffffffffffffffffffff1602179055508173ffffffffffffffffffffffffffffffffffffffff168173ffffffffffffffffffffffffffffffffffffffff167f8be0079c531659141344cd1fd0a4f28419497f9722a3daafe3b4186f6b6457e060405160405180910390a35050565b60006105f26105ed84610997565b610966565b90508281526020810184848401111561060a57600080fd5b610615848285610a15565b509392505050565b60008135905061062c81610a97565b92915050565b600082601f83011261064357600080fd5b81356106538482602086016105df565b91505092915050565b60006020828403121561066e57600080fd5b600061067c8482850161061d565b91505092915050565b600080600080600060a0868803121561069d57600080fd5b600086013567ffffffffffffffff8111156106b757600080fd5b6106c388828901610632565b955050602086013567ffffffffffffffff8111156106e057600080fd5b6106ec88828901610632565b945050604086013567ffffffffffffffff81111561070957600080fd5b61071588828901610632565b935050606086013567ffffffffffffffff81111561073257600080fd5b61073e88828901610632565b925050608061074f8882890161061d565b9150509295509295909350565b610765816109e3565b82525050565b6000610776826109c7565b61078081856109d2565b9350610790818560208601610a24565b61079981610a86565b840191505092915050565b60006107b16026836109d2565b91507f4f776e61626c653a206e6577206f776e657220697320746865207a65726f206160008301527f64647265737300000000000000000000000000000000000000000000000000006020830152604082019050919050565b60006108176016836109d2565b91507f455243313136373a20637265617465206661696c6564000000000000000000006000830152602082019050919050565b60006108576020836109d2565b91507f4f776e61626c653a2063616c6c6572206973206e6f7420746865206f776e65726000830152602082019050919050565b600060208201905061089f600083018461075c565b92915050565b600060808201905081810360008301526108bf818761076b565b905081810360208301526108d3818661076b565b905081810360408301526108e7818561076b565b905081810360608301526108fb818461076b565b905095945050505050565b6000602082019050818103600083015261091f816107a4565b9050919050565b6000602082019050818103600083015261093f8161080a565b9050919050565b6000602082019050818103600083015261095f8161084a565b9050919050565b6000604051905081810181811067ffffffffffffffff8211171561098d5761098c610a57565b5b8060405250919050565b600067ffffffffffffffff8211156109b2576109b1610a57565b5b601f19601f8301169050602081019050919050565b600081519050919050565b600082825260208201905092915050565b60006109ee826109f5565b9050919050565b600073ffffffffffffffffffffffffffffffffffffffff82169050919050565b82818337600083830152505050565b60005b83811015610a42578082015181840152602081019050610a27565b83811115610a51576000848401525b50505050565b7f4e487b7100000000000000000000000000000000000000000000000000000000600052604160045260246000fd5b6000601f19601f8301169050919050565b610aa0816109e3565b8114610aab57600080fd5b5056fea2646970667358221220a139961d6e55303266d0a13345494688a43b47d3da1f7768d9aa7a8bf26d8dd864736f6c63430008000033608060405234801561001057600080fd5b50615244806100206000396000f3fe608060405234801561001057600080fd5b50600436106101ef5760003560e01c8063837c59621161010f578063bdd36712116100a2578063e985e9c511610071578063e985e9c51461058e578063f242432a146105be578063f2fde38b146105da578063fce55037146105f6576101ef565b8063bdd367121461051a578063cef8cb8714610536578063db9b717014610554578063e8a3d48514610570576101ef565b8063a22cb465116100de578063a22cb465146104a8578063a389783e146104c4578063a523d35e146104f4578063a90205a314610510576101ef565b8063837c59621461043257806386838fb6146104625780638da5cb5b1461046c57806395d89b411461048a576101ef565b80633cfc7ae2116101875780635c975abb116101565780635c975abb146103be5780636877444f146103dc578063715018a6146103f85780637337639814610402576101ef565b80633cfc7ae2146103265780634e1273f4146103565780635374cf781461038657806355f804b3146103a2576101ef565b80630e89341c116101c35780630e89341c1461028e5780631cc509fd146102be5780632b04e840146102da5780632eb2c2d61461030a576101ef565b8062fdd58e146101f457806301ffc9a7146102245780630411b2521461025457806306fdde0314610270575b600080fd5b61020e60048036038101906102099190613cfd565b610612565b60405161021b9190614d2c565b60405180910390f35b61023e60048036038101906102399190613df4565b6106dc565b60405161024b9190614a4f565b60405180910390f35b61026e60048036038101906102699190613b50565b6107be565b005b6102786107e0565b6040516102859190614a6a565b60405180910390f35b6102a860048036038101906102a39190613f4a565b61086e565b6040516102b59190614a6a565b60405180910390f35b6102d860048036038101906102d39190613d39565b6108f0565b005b6102f460048036038101906102ef9190613cfd565b61095d565b6040516103019190614d2c565b60405180910390f35b610324600480360381019061031f9190613a91565b610971565b005b610340600480360381019061033b9190613f4a565b610a12565b60405161034d91906149f6565b60405180910390f35b610370600480360381019061036b9190613d88565b610a7d565b60405161037d91906149f6565b60405180910390f35b6103a0600480360381019061039b9190613f73565b610c2e565b005b6103bc60048036038101906103b79190613e46565b610c59565b005b6103c6610ce1565b6040516103d39190614a4f565b60405180910390f35b6103f660048036038101906103f19190613fda565b610cf8565b005b610400610da4565b005b61041c60048036038101906104179190613f4a565b610e2c565b6040516104299190614a6a565b60405180910390f35b61044c60048036038101906104479190613f4a565b610e3e565b6040516104599190614a6a565b60405180910390f35b61046a610ee3565b005b610474610f69565b6040516104819190614919565b60405180910390f35b610492610f93565b60405161049f9190614a6a565b60405180910390f35b6104c260048036038101906104bd9190613cc1565b611021565b005b6104de60048036038101906104d99190613a55565b6111a2565b6040516104eb9190614a4f565b60405180910390f35b61050e60048036038101906105099190613e87565b6111b6565b005b6105186112fa565b005b610534600480360381019061052f9190613c42565b611380565b005b61053e611498565b60405161054b9190614d2c565b60405180910390f35b61056e60048036038101906105699190613cc1565b6114a2565b005b61057861152c565b6040516105859190614a6a565b60405180910390f35b6105a860048036038101906105a39190613a55565b6115bf565b6040516105b59190614a4f565b60405180910390f35b6105d860048036038101906105d39190613bb3565b611653565b005b6105f460048036038101906105ef9190613a2c565b6116f4565b005b610610600480360381019061060b9190613e46565b6117ec565b005b60008073ffffffffffffffffffffffffffffffffffffffff168373ffffffffffffffffffffffffffffffffffffffff161415610683576040517f08c379a000000000000000000000000000000000000000000000000000000000815260040161067a90614b0c565b60405180910390fd5b60c9600083815260200190815260200160002060008473ffffffffffffffffffffffffffffffffffffffff1673ffffffffffffffffffffffffffffffffffffffff16815260200190815260200160002054905092915050565b60007fd9b67a26000000000000000000000000000000000000000000000000000000007bffffffffffffffffffffffffffffffffffffffffffffffffffffffff1916827bffffffffffffffffffffffffffffffffffffffffffffffffffffffff191614806107a757507f0e89341c000000000000000000000000000000000000000000000000000000007bffffffffffffffffffffffffffffffffffffffffffffffffffffffff1916827bffffffffffffffffffffffffffffffffffffffffffffffffffffffff1916145b806107b757506107b682611883565b5b9050919050565b6107da8484848460405180602001604052806000815250611653565b50505050565b60fb80546107ed90614fd6565b80601f016020809104026020016040519081016040528092919081815260200182805461081990614fd6565b80156108665780601f1061083b57610100808354040283529160200191610866565b820191906000526020600020905b81548152906001019060200180831161084957829003601f168201915b505050505081565b6060610878611498565b8211156108ba576040517f08c379a00000000000000000000000000000000000000000000000000000000081526004016108b190614bac565b60405180910390fd5b60006108c583610e2c565b905060006108d284610e3e565b90506108e781836118ed90919063ffffffff16565b92505050919050565b6108fb838383611b46565b6040518060400160405280600381526020017f307830000000000000000000000000000000000000000000000000000000000081525060fe6000848152602001908152602001600020908051906020019061095792919061369e565b50505050565b60006109698383610612565b905092915050565b610979611d65565b73ffffffffffffffffffffffffffffffffffffffff168573ffffffffffffffffffffffffffffffffffffffff1614806109bf57506109be856109b9611d65565b6115bf565b5b6109fe576040517f08c379a00000000000000000000000000000000000000000000000000000000081526004016109f590614c0c565b60405180910390fd5b610a0b8585858585611d6d565b5050505050565b606060ff6000838152602001908152602001600020805480602002602001604051908101604052809291908181526020018280548015610a7157602002820191906000526020600020905b815481526020019060010190808311610a5d575b50505050509050919050565b60608151835114610ac3576040517f08c379a0000000000000000000000000000000000000000000000000000000008152600401610aba90614ccc565b60405180910390fd5b6000835167ffffffffffffffff811115610b06577f4e487b7100000000000000000000000000000000000000000000000000000000600052604160045260246000fd5b604051908082528060200260200182016040528015610b345781602001602082028036833780820191505090505b50905060005b8451811015610c2357610bcd858281518110610b7f577f4e487b7100000000000000000000000000000000000000000000000000000000600052603260045260246000fd5b6020026020010151858381518110610bc0577f4e487b7100000000000000000000000000000000000000000000000000000000600052603260045260246000fd5b6020026020010151610612565b828281518110610c06577f4e487b7100000000000000000000000000000000000000000000000000000000600052603260045260246000fd5b60200260200101818152505080610c1c90615008565b9050610b3a565b508091505092915050565b610c3c8260fd5485846120d0565b60fd6000815480929190610c4f90615008565b9190505550505050565b610c61611d65565b73ffffffffffffffffffffffffffffffffffffffff16610c7f610f69565b73ffffffffffffffffffffffffffffffffffffffff1614610cd5576040517f08c379a0000000000000000000000000000000000000000000000000000000008152600401610ccc90614c8c565b60405180910390fd5b610cde81612267565b50565b6000603360009054906101000a900460ff16905090565b60fd548110610d3c576040517f08c379a0000000000000000000000000000000000000000000000000000000008152600401610d3390614acc565b60405180910390fd5b610d4a8360fd5486856120d0565b60ff600082815260200190815260200160002060fd54908060018154018082558091505060019003906000526020600020016000909190919091505560fd6000815480929190610d9990615008565b919050555050505050565b610dac611d65565b73ffffffffffffffffffffffffffffffffffffffff16610dca610f69565b73ffffffffffffffffffffffffffffffffffffffff1614610e20576040517f08c379a0000000000000000000000000000000000000000000000000000000008152600401610e1790614c8c565b60405180910390fd5b610e2a6000612281565b565b6060610e3782612347565b9050919050565b606060fe60008381526020019081526020016000208054610e5e90614fd6565b80601f0160208091040260200160405190810160405280929190818152602001828054610e8a90614fd6565b8015610ed75780601f10610eac57610100808354040283529160200191610ed7565b820191906000526020600020905b815481529060010190602001808311610eba57829003601f168201915b50505050509050919050565b610eeb611d65565b73ffffffffffffffffffffffffffffffffffffffff16610f09610f69565b73ffffffffffffffffffffffffffffffffffffffff1614610f5f576040517f08c379a0000000000000000000000000000000000000000000000000000000008152600401610f5690614c8c565b60405180910390fd5b610f676123db565b565b6000606560009054906101000a900473ffffffffffffffffffffffffffffffffffffffff16905090565b60fc8054610fa090614fd6565b80601f0160208091040260200160405190810160405280929190818152602001828054610fcc90614fd6565b80156110195780601f10610fee57610100808354040283529160200191611019565b820191906000526020600020905b815481529060010190602001808311610ffc57829003601f168201915b505050505081565b8173ffffffffffffffffffffffffffffffffffffffff16611040611d65565b73ffffffffffffffffffffffffffffffffffffffff161415611097576040517f08c379a000000000000000000000000000000000000000000000000000000000815260040161108e90614cac565b60405180910390fd5b8060ca60006110a4611d65565b73ffffffffffffffffffffffffffffffffffffffff1673ffffffffffffffffffffffffffffffffffffffff16815260200190815260200160002060008473ffffffffffffffffffffffffffffffffffffffff1673ffffffffffffffffffffffffffffffffffffffff16815260200190815260200160002060006101000a81548160ff0219169083151502179055508173ffffffffffffffffffffffffffffffffffffffff16611151611d65565b73ffffffffffffffffffffffffffffffffffffffff167f17307eab39ab6107e8899845ad3d59bd9653f200f220920489ca2b5937696c31836040516111969190614a4f565b60405180910390a35050565b60006111ae83836115bf565b905092915050565b600060019054906101000a900460ff16806111dc575060008054906101000a900460ff16155b61121b576040517f08c379a000000000000000000000000000000000000000000000000000000000815260040161121290614c2c565b60405180910390fd5b60008060019054906101000a900460ff16159050801561126b576001600060016101000a81548160ff02191690831515021790555060016000806101000a81548160ff0219169083151502179055505b6112748361247d565b61127c612570565b611284612659565b600060fd819055508161010090805190602001906112a3929190613724565b508460fb90805190602001906112ba929190613724565b508360fc90805190602001906112d1929190613724565b5080156112f35760008060016101000a81548160ff0219169083151502179055505b5050505050565b611302611d65565b73ffffffffffffffffffffffffffffffffffffffff16611320610f69565b73ffffffffffffffffffffffffffffffffffffffff1614611376576040517f08c379a000000000000000000000000000000000000000000000000000000000815260040161136d90614c8c565b60405180910390fd5b61137e612742565b565b60008251905060008167ffffffffffffffff8111156113c8577f4e487b7100000000000000000000000000000000000000000000000000000000600052604160045260246000fd5b6040519080825280602002602001820160405280156113f65781602001602082028036833780820191505090505b50905060005b8281101561146a578060fd546114129190614eca565b82828151811061144b577f4e487b7100000000000000000000000000000000000000000000000000000000600052603260045260246000fd5b602002602001018181525050808061146290615008565b9150506113fc565b50611477858286866127e5565b805160fd600082825461148a9190614eca565b925050819055505050505050565b600060fd54905090565b6114aa611d65565b73ffffffffffffffffffffffffffffffffffffffff166114c8610f69565b73ffffffffffffffffffffffffffffffffffffffff161461151e576040517f08c379a000000000000000000000000000000000000000000000000000000000815260040161151590614c8c565b60405180910390fd5b6115288282611021565b5050565b6060610100805461153c90614fd6565b80601f016020809104026020016040519081016040528092919081815260200182805461156890614fd6565b80156115b55780601f1061158a576101008083540402835291602001916115b5565b820191906000526020600020905b81548152906001019060200180831161159857829003601f168201915b5050505050905090565b600060ca60008473ffffffffffffffffffffffffffffffffffffffff1673ffffffffffffffffffffffffffffffffffffffff16815260200190815260200160002060008373ffffffffffffffffffffffffffffffffffffffff1673ffffffffffffffffffffffffffffffffffffffff16815260200190815260200160002060009054906101000a900460ff16905092915050565b61165b611d65565b73ffffffffffffffffffffffffffffffffffffffff168573ffffffffffffffffffffffffffffffffffffffff1614806116a157506116a08561169b611d65565b6115bf565b5b6116e0576040517f08c379a00000000000000000000000000000000000000000000000000000000081526004016116d790614b8c565b60405180910390fd5b6116ed8585858585612a50565b5050505050565b6116fc611d65565b73ffffffffffffffffffffffffffffffffffffffff1661171a610f69565b73ffffffffffffffffffffffffffffffffffffffff1614611770576040517f08c379a000000000000000000000000000000000000000000000000000000000815260040161176790614c8c565b60405180910390fd5b600073ffffffffffffffffffffffffffffffffffffffff168173ffffffffffffffffffffffffffffffffffffffff1614156117e0576040517f08c379a00000000000000000000000000000000000000000000000000000000081526004016117d790614b2c565b60405180910390fd5b6117e981612281565b50565b6117f4611d65565b73ffffffffffffffffffffffffffffffffffffffff16611812610f69565b73ffffffffffffffffffffffffffffffffffffffff1614611868576040517f08c379a000000000000000000000000000000000000000000000000000000000815260040161185f90614c8c565b60405180910390fd5b80610100908051906020019061187f929190613724565b5050565b60007f01ffc9a7000000000000000000000000000000000000000000000000000000007bffffffffffffffffffffffffffffffffffffffffffffffffffffffff1916827bffffffffffffffffffffffffffffffffffffffffffffffffffffffff1916149050919050565b6060600083905060008390506000815183516119099190614eca565b67ffffffffffffffff811115611948577f4e487b7100000000000000000000000000000000000000000000000000000000600052604160045260246000fd5b6040519080825280601f01601f19166020018201604052801561197a5781602001600182028036833780820191505090505b5090506000819050600080600091505b8551821015611a5e578582815181106119cc577f4e487b7100000000000000000000000000000000000000000000000000000000600052603260045260246000fd5b602001015160f81c60f81b8382806119e390615008565b935081518110611a1c577f4e487b7100000000000000000000000000000000000000000000000000000000600052603260045260246000fd5b60200101907effffffffffffffffffffffffffffffffffffffffffffffffffffffffffffff1916908160001a9053508180611a5690615008565b92505061198a565b600091505b8451821015611b3757848281518110611aa5577f4e487b7100000000000000000000000000000000000000000000000000000000600052603260045260246000fd5b602001015160f81c60f81b838280611abc90615008565b935081518110611af5577f4e487b7100000000000000000000000000000000000000000000000000000000600052603260045260246000fd5b60200101907effffffffffffffffffffffffffffffffffffffffffffffffffffffffffffff1916908160001a9053508180611b2f90615008565b925050611a63565b82965050505050505092915050565b600073ffffffffffffffffffffffffffffffffffffffff168373ffffffffffffffffffffffffffffffffffffffff161415611bb6576040517f08c379a0000000000000000000000000000000000000000000000000000000008152600401611bad90614c4c565b60405180910390fd5b6000611bc0611d65565b9050611bf081856000611bd287612cd5565b611bdb87612cd5565b60405180602001604052806000815250612d9b565b600060c9600085815260200190815260200160002060008673ffffffffffffffffffffffffffffffffffffffff1673ffffffffffffffffffffffffffffffffffffffff16815260200190815260200160002054905082811015611c88576040517f08c379a0000000000000000000000000000000000000000000000000000000008152600401611c7f90614b4c565b60405180910390fd5b82810360c9600086815260200190815260200160002060008773ffffffffffffffffffffffffffffffffffffffff1673ffffffffffffffffffffffffffffffffffffffff16815260200190815260200160002081905550600073ffffffffffffffffffffffffffffffffffffffff168573ffffffffffffffffffffffffffffffffffffffff168373ffffffffffffffffffffffffffffffffffffffff167fc3d58168c5ae7397731d063d5bbf3d657854427343f4c083240f7aacaa2d0f628787604051611d56929190614d47565b60405180910390a45050505050565b600033905090565b8151835114611db1576040517f08c379a0000000000000000000000000000000000000000000000000000000008152600401611da890614cec565b60405180910390fd5b600073ffffffffffffffffffffffffffffffffffffffff168473ffffffffffffffffffffffffffffffffffffffff161415611e21576040517f08c379a0000000000000000000000000000000000000000000000000000000008152600401611e1890614bec565b60405180910390fd5b6000611e2b611d65565b9050611e3b818787878787612d9b565b60005b845181101561203b576000858281518110611e82577f4e487b7100000000000000000000000000000000000000000000000000000000600052603260045260246000fd5b602002602001015190506000858381518110611ec7577f4e487b7100000000000000000000000000000000000000000000000000000000600052603260045260246000fd5b60200260200101519050600060c9600084815260200190815260200160002060008b73ffffffffffffffffffffffffffffffffffffffff1673ffffffffffffffffffffffffffffffffffffffff16815260200190815260200160002054905081811015611f69576040517f08c379a0000000000000000000000000000000000000000000000000000000008152600401611f6090614c6c565b60405180910390fd5b81810360c9600085815260200190815260200160002060008c73ffffffffffffffffffffffffffffffffffffffff1673ffffffffffffffffffffffffffffffffffffffff168152602001908152602001600020819055508160c9600085815260200190815260200160002060008b73ffffffffffffffffffffffffffffffffffffffff1673ffffffffffffffffffffffffffffffffffffffff16815260200190815260200160002060008282546120209190614eca565b925050819055505050508061203490615008565b9050611e3e565b508473ffffffffffffffffffffffffffffffffffffffff168673ffffffffffffffffffffffffffffffffffffffff168273ffffffffffffffffffffffffffffffffffffffff167f4a39dc06d4c0dbc64b70af90fd698a233a518aa5d07e595d983b8c0526c8f7fb87876040516120b2929190614a18565b60405180910390a46120c8818787878787612e79565b505050505050565b600073ffffffffffffffffffffffffffffffffffffffff168473ffffffffffffffffffffffffffffffffffffffff161415612140576040517f08c379a000000000000000000000000000000000000000000000000000000000815260040161213790614d0c565b60405180910390fd5b600061214a611d65565b905061216b8160008761215c88612cd5565b61216588612cd5565b87612d9b565b8260c9600086815260200190815260200160002060008773ffffffffffffffffffffffffffffffffffffffff1673ffffffffffffffffffffffffffffffffffffffff16815260200190815260200160002060008282546121cb9190614eca565b925050819055508473ffffffffffffffffffffffffffffffffffffffff16600073ffffffffffffffffffffffffffffffffffffffff168273ffffffffffffffffffffffffffffffffffffffff167fc3d58168c5ae7397731d063d5bbf3d657854427343f4c083240f7aacaa2d0f628787604051612249929190614d47565b60405180910390a461226081600087878787613049565b5050505050565b8060cb908051906020019061227d929190613724565b5050565b6000606560009054906101000a900473ffffffffffffffffffffffffffffffffffffffff16905081606560006101000a81548173ffffffffffffffffffffffffffffffffffffffff021916908373ffffffffffffffffffffffffffffffffffffffff1602179055508173ffffffffffffffffffffffffffffffffffffffff168173ffffffffffffffffffffffffffffffffffffffff167f8be0079c531659141344cd1fd0a4f28419497f9722a3daafe3b4186f6b6457e060405160405180910390a35050565b606060cb805461235690614fd6565b80601f016020809104026020016040519081016040528092919081815260200182805461238290614fd6565b80156123cf5780601f106123a4576101008083540402835291602001916123cf565b820191906000526020600020905b8154815290600101906020018083116123b257829003601f168201915b50505050509050919050565b6123e3610ce1565b612422576040517f08c379a000000000000000000000000000000000000000000000000000000000815260040161241990614aec565b60405180910390fd5b6000603360006101000a81548160ff0219169083151502179055507f5db9ee0a495bf2e6ff9c91a7834c1ba4fdd244a5e8aa4e537bd38aeae4b073aa612466611d65565b6040516124739190614919565b60405180910390a1565b600060019054906101000a900460ff16806124a3575060008054906101000a900460ff16155b6124e2576040517f08c379a00000000000000000000000000000000000000000000000000000000081526004016124d990614c2c565b60405180910390fd5b60008060019054906101000a900460ff161590508015612532576001600060016101000a81548160ff02191690831515021790555060016000806101000a81548160ff0219169083151502179055505b61253a613219565b6125426132f2565b61254b826133cb565b801561256c5760008060016101000a81548160ff0219169083151502179055505b5050565b600060019054906101000a900460ff1680612596575060008054906101000a900460ff16155b6125d5576040517f08c379a00000000000000000000000000000000000000000000000000000000081526004016125cc90614c2c565b60405180910390fd5b60008060019054906101000a900460ff161590508015612625576001600060016101000a81548160ff02191690831515021790555060016000806101000a81548160ff0219169083151502179055505b61262d613219565b6126356134ae565b80156126565760008060016101000a81548160ff0219169083151502179055505b50565b600060019054906101000a900460ff168061267f575060008054906101000a900460ff16155b6126be576040517f08c379a00000000000000000000000000000000000000000000000000000000081526004016126b590614c2c565b60405180910390fd5b60008060019054906101000a900460ff16159050801561270e576001600060016101000a81548160ff02191690831515021790555060016000806101000a81548160ff0219169083151502179055505b612716613219565b61271e613597565b801561273f5760008060016101000a81548160ff0219169083151502179055505b50565b61274a610ce1565b1561278a576040517f08c379a000000000000000000000000000000000000000000000000000000000815260040161278190614bcc565b60405180910390fd5b6001603360006101000a81548160ff0219169083151502179055507f62e78cea01bee320cd4e420270b5ea74000d11b0c9f74754ebdbfc544b05a2586127ce611d65565b6040516127db9190614919565b60405180910390a1565b600073ffffffffffffffffffffffffffffffffffffffff168473ffffffffffffffffffffffffffffffffffffffff161415612855576040517f08c379a000000000000000000000000000000000000000000000000000000000815260040161284c90614d0c565b60405180910390fd5b8151835114612899576040517f08c379a000000000000000000000000000000000000000000000000000000000815260040161289090614cec565b60405180910390fd5b60006128a3611d65565b90506128b481600087878787612d9b565b60005b84518110156129ba578381815181106128f9577f4e487b7100000000000000000000000000000000000000000000000000000000600052603260045260246000fd5b602002602001015160c9600087848151811061293e577f4e487b7100000000000000000000000000000000000000000000000000000000600052603260045260246000fd5b6020026020010151815260200190815260200160002060008873ffffffffffffffffffffffffffffffffffffffff1673ffffffffffffffffffffffffffffffffffffffff16815260200190815260200160002060008282546129a09190614eca565b9250508190555080806129b290615008565b9150506128b7565b508473ffffffffffffffffffffffffffffffffffffffff16600073ffffffffffffffffffffffffffffffffffffffff168273ffffffffffffffffffffffffffffffffffffffff167f4a39dc06d4c0dbc64b70af90fd698a233a518aa5d07e595d983b8c0526c8f7fb8787604051612a32929190614a18565b60405180910390a4612a4981600087878787612e79565b5050505050565b600073ffffffffffffffffffffffffffffffffffffffff168473ffffffffffffffffffffffffffffffffffffffff161415612ac0576040517f08c379a0000000000000000000000000000000000000000000000000000000008152600401612ab790614bec565b60405180910390fd5b6000612aca611d65565b9050612aea818787612adb88612cd5565b612ae488612cd5565b87612d9b565b600060c9600086815260200190815260200160002060008873ffffffffffffffffffffffffffffffffffffffff1673ffffffffffffffffffffffffffffffffffffffff16815260200190815260200160002054905083811015612b82576040517f08c379a0000000000000000000000000000000000000000000000000000000008152600401612b7990614c6c565b60405180910390fd5b83810360c9600087815260200190815260200160002060008973ffffffffffffffffffffffffffffffffffffffff1673ffffffffffffffffffffffffffffffffffffffff168152602001908152602001600020819055508360c9600087815260200190815260200160002060008873ffffffffffffffffffffffffffffffffffffffff1673ffffffffffffffffffffffffffffffffffffffff1681526020019081526020016000206000828254612c399190614eca565b925050819055508573ffffffffffffffffffffffffffffffffffffffff168773ffffffffffffffffffffffffffffffffffffffff168373ffffffffffffffffffffffffffffffffffffffff167fc3d58168c5ae7397731d063d5bbf3d657854427343f4c083240f7aacaa2d0f628888604051612cb6929190614d47565b60405180910390a4612ccc828888888888613049565b50505050505050565b60606000600167ffffffffffffffff811115612d1a577f4e487b7100000000000000000000000000000000000000000000000000000000600052604160045260246000fd5b604051908082528060200260200182016040528015612d485781602001602082028036833780820191505090505b5090508281600081518110612d86577f4e487b7100000000000000000000000000000000000000000000000000000000600052603260045260246000fd5b60200260200101818152505080915050919050565b60008351905060005b81811015612e27578260fe6000878481518110612dea577f4e487b7100000000000000000000000000000000000000000000000000000000600052603260045260246000fd5b602002602001015181526020019081526020016000209080519060200190612e1392919061369e565b508080612e1f90615008565b915050612da4565b50612e30610ce1565b15612e70576040517f08c379a0000000000000000000000000000000000000000000000000000000008152600401612e6790614b6c565b60405180910390fd5b50505050505050565b612e988473ffffffffffffffffffffffffffffffffffffffff1661368b565b15613041578373ffffffffffffffffffffffffffffffffffffffff1663bc197c8187878686866040518663ffffffff1660e01b8152600401612ede959493929190614934565b602060405180830381600087803b158015612ef857600080fd5b505af1925050508015612f2957506040513d601f19601f82011682018060405250810190612f269190613e1d565b60015b612fb857612f356150fc565b80612f405750612f7d565b806040517f08c379a0000000000000000000000000000000000000000000000000000000008152600401612f749190614a6a565b60405180910390fd5b6040517f08c379a0000000000000000000000000000000000000000000000000000000008152600401612faf90614a8c565b60405180910390fd5b63bc197c8160e01b7bffffffffffffffffffffffffffffffffffffffffffffffffffffffff1916817bffffffffffffffffffffffffffffffffffffffffffffffffffffffff19161461303f576040517f08c379a000000000000000000000000000000000000000000000000000000000815260040161303690614aac565b60405180910390fd5b505b505050505050565b6130688473ffffffffffffffffffffffffffffffffffffffff1661368b565b15613211578373ffffffffffffffffffffffffffffffffffffffff1663f23a6e6187878686866040518663ffffffff1660e01b81526004016130ae95949392919061499c565b602060405180830381600087803b1580156130c857600080fd5b505af19250505080156130f957506040513d601f19601f820116820180604052508101906130f69190613e1d565b60015b613188576131056150fc565b80613110575061314d565b806040517f08c379a00000000000000000000000000000000000000000000000000000000081526004016131449190614a6a565b60405180910390fd5b6040517f08c379a000000000000000000000000000000000000000000000000000000000815260040161317f90614a8c565b60405180910390fd5b63f23a6e6160e01b7bffffffffffffffffffffffffffffffffffffffffffffffffffffffff1916817bffffffffffffffffffffffffffffffffffffffffffffffffffffffff19161461320f576040517f08c379a000000000000000000000000000000000000000000000000000000000815260040161320690614aac565b60405180910390fd5b505b505050505050565b600060019054906101000a900460ff168061323f575060008054906101000a900460ff16155b61327e576040517f08c379a000000000000000000000000000000000000000000000000000000000815260040161327590614c2c565b60405180910390fd5b60008060019054906101000a900460ff1615905080156132ce576001600060016101000a81548160ff02191690831515021790555060016000806101000a81548160ff0219169083151502179055505b80156132ef5760008060016101000a81548160ff0219169083151502179055505b50565b600060019054906101000a900460ff1680613318575060008054906101000a900460ff16155b613357576040517f08c379a000000000000000000000000000000000000000000000000000000000815260040161334e90614c2c565b60405180910390fd5b60008060019054906101000a900460ff1615905080156133a7576001600060016101000a81548160ff02191690831515021790555060016000806101000a81548160ff0219169083151502179055505b80156133c85760008060016101000a81548160ff0219169083151502179055505b50565b600060019054906101000a900460ff16806133f1575060008054906101000a900460ff16155b613430576040517f08c379a000000000000000000000000000000000000000000000000000000000815260040161342790614c2c565b60405180910390fd5b60008060019054906101000a900460ff161590508015613480576001600060016101000a81548160ff02191690831515021790555060016000806101000a81548160ff0219169083151502179055505b61348982612267565b80156134aa5760008060016101000a81548160ff0219169083151502179055505b5050565b600060019054906101000a900460ff16806134d4575060008054906101000a900460ff16155b613513576040517f08c379a000000000000000000000000000000000000000000000000000000000815260040161350a90614c2c565b60405180910390fd5b60008060019054906101000a900460ff161590508015613563576001600060016101000a81548160ff02191690831515021790555060016000806101000a81548160ff0219169083151502179055505b61357361356e611d65565b612281565b80156135945760008060016101000a81548160ff0219169083151502179055505b50565b600060019054906101000a900460ff16806135bd575060008054906101000a900460ff16155b6135fc576040517f08c379a00000000000000000000000000000000000000000000000000000000081526004016135f390614c2c565b60405180910390fd5b60008060019054906101000a900460ff16159050801561364c576001600060016101000a81548160ff02191690831515021790555060016000806101000a81548160ff0219169083151502179055505b6000603360006101000a81548160ff02191690831515021790555080156136885760008060016101000a81548160ff0219169083151502179055505b50565b600080823b905060008111915050919050565b8280546136aa90614fd6565b90600052602060002090601f0160209004810192826136cc5760008555613713565b82601f106136e557805160ff1916838001178555613713565b82800160010185558215613713579182015b828111156137125782518255916020019190600101906136f7565b5b50905061372091906137aa565b5090565b82805461373090614fd6565b90600052602060002090601f0160209004810192826137525760008555613799565b82601f1061376b57805160ff1916838001178555613799565b82800160010185558215613799579182015b8281111561379857825182559160200191906001019061377d565b5b5090506137a691906137aa565b5090565b5b808211156137c35760008160009055506001016137ab565b5090565b60006137da6137d584614da1565b614d70565b905080838252602082019050828560208602820111156137f957600080fd5b60005b85811015613829578161380f888261391b565b8452602084019350602083019250506001810190506137fc565b5050509392505050565b600061384661384184614dcd565b614d70565b9050808382526020820190508285602086028201111561386557600080fd5b60005b85811015613895578161387b8882613a17565b845260208401935060208301925050600181019050613868565b5050509392505050565b60006138b26138ad84614df9565b614d70565b9050828152602081018484840111156138ca57600080fd5b6138d5848285614f94565b509392505050565b60006138f06138eb84614e29565b614d70565b90508281526020810184848401111561390857600080fd5b613913848285614f94565b509392505050565b60008135905061392a816151b2565b92915050565b600082601f83011261394157600080fd5b81356139518482602086016137c7565b91505092915050565b600082601f83011261396b57600080fd5b813561397b848260208601613833565b91505092915050565b600081359050613993816151c9565b92915050565b6000813590506139a8816151e0565b92915050565b6000815190506139bd816151e0565b92915050565b600082601f8301126139d457600080fd5b81356139e484826020860161389f565b91505092915050565b600082601f8301126139fe57600080fd5b8135613a0e8482602086016138dd565b91505092915050565b600081359050613a26816151f7565b92915050565b600060208284031215613a3e57600080fd5b6000613a4c8482850161391b565b91505092915050565b60008060408385031215613a6857600080fd5b6000613a768582860161391b565b9250506020613a878582860161391b565b9150509250929050565b600080600080600060a08688031215613aa957600080fd5b6000613ab78882890161391b565b9550506020613ac88882890161391b565b945050604086013567ffffffffffffffff811115613ae557600080fd5b613af18882890161395a565b935050606086013567ffffffffffffffff811115613b0e57600080fd5b613b1a8882890161395a565b925050608086013567ffffffffffffffff811115613b3757600080fd5b613b43888289016139c3565b9150509295509295909350565b60008060008060808587031215613b6657600080fd5b6000613b748782880161391b565b9450506020613b858782880161391b565b9350506040613b9687828801613a17565b9250506060613ba787828801613a17565b91505092959194509250565b600080600080600060a08688031215613bcb57600080fd5b6000613bd98882890161391b565b9550506020613bea8882890161391b565b9450506040613bfb88828901613a17565b9350506060613c0c88828901613a17565b925050608086013567ffffffffffffffff811115613c2957600080fd5b613c35888289016139c3565b9150509295509295909350565b600080600060608486031215613c5757600080fd5b6000613c658682870161391b565b935050602084013567ffffffffffffffff811115613c8257600080fd5b613c8e8682870161395a565b925050604084013567ffffffffffffffff811115613cab57600080fd5b613cb7868287016139c3565b9150509250925092565b60008060408385031215613cd457600080fd5b6000613ce28582860161391b565b9250506020613cf385828601613984565b9150509250929050565b60008060408385031215613d1057600080fd5b6000613d1e8582860161391b565b9250506020613d2f85828601613a17565b9150509250929050565b600080600060608486031215613d4e57600080fd5b6000613d5c8682870161391b565b9350506020613d6d86828701613a17565b9250506040613d7e86828701613a17565b9150509250925092565b60008060408385031215613d9b57600080fd5b600083013567ffffffffffffffff811115613db557600080fd5b613dc185828601613930565b925050602083013567ffffffffffffffff811115613dde57600080fd5b613dea8582860161395a565b9150509250929050565b600060208284031215613e0657600080fd5b6000613e1484828501613999565b91505092915050565b600060208284031215613e2f57600080fd5b6000613e3d848285016139ae565b91505092915050565b600060208284031215613e5857600080fd5b600082013567ffffffffffffffff811115613e7257600080fd5b613e7e848285016139ed565b91505092915050565b60008060008060808587031215613e9d57600080fd5b600085013567ffffffffffffffff811115613eb757600080fd5b613ec3878288016139ed565b945050602085013567ffffffffffffffff811115613ee057600080fd5b613eec878288016139ed565b935050604085013567ffffffffffffffff811115613f0957600080fd5b613f15878288016139ed565b925050606085013567ffffffffffffffff811115613f3257600080fd5b613f3e878288016139ed565b91505092959194509250565b600060208284031215613f5c57600080fd5b6000613f6a84828501613a17565b91505092915050565b600080600060608486031215613f8857600080fd5b6000613f9686828701613a17565b9350506020613fa78682870161391b565b925050604084013567ffffffffffffffff811115613fc457600080fd5b613fd0868287016139c3565b9150509250925092565b60008060008060808587031215613ff057600080fd5b6000613ffe87828801613a17565b945050602061400f8782880161391b565b935050604085013567ffffffffffffffff81111561402c57600080fd5b614038878288016139c3565b925050606061404987828801613a17565b91505092959194509250565b600061406183836148fb565b60208301905092915050565b61407681614f20565b82525050565b600061408782614e69565b6140918185614e97565b935061409c83614e59565b8060005b838110156140cd5781516140b48882614055565b97506140bf83614e8a565b9250506001810190506140a0565b5085935050505092915050565b6140e381614f32565b82525050565b60006140f482614e74565b6140fe8185614ea8565b935061410e818560208601614fa3565b614117816150de565b840191505092915050565b600061412d82614e7f565b6141378185614eb9565b9350614147818560208601614fa3565b614150816150de565b840191505092915050565b6000614168603483614eb9565b91507f455243313135353a207472616e7366657220746f206e6f6e204552433131353560008301527f526563656976657220696d706c656d656e7465720000000000000000000000006020830152604082019050919050565b60006141ce602883614eb9565b91507f455243313135353a204552433131353552656365697665722072656a6563746560008301527f6420746f6b656e730000000000000000000000000000000000000000000000006020830152604082019050919050565b6000614234601c83614eb9565b91507f506172656e7420746f6b656e206964206973206e6f742076616c6964000000006000830152602082019050919050565b6000614274601483614eb9565b91507f5061757361626c653a206e6f74207061757365640000000000000000000000006000830152602082019050919050565b60006142b4602b83614eb9565b91507f455243313135353a2062616c616e636520717565727920666f7220746865207a60008301527f65726f20616464726573730000000000000000000000000000000000000000006020830152604082019050919050565b600061431a602683614eb9565b91507f4f776e61626c653a206e6577206f776e657220697320746865207a65726f206160008301527f64647265737300000000000000000000000000000000000000000000000000006020830152604082019050919050565b6000614380602483614eb9565b91507f455243313135353a206275726e20616d6f756e7420657863656564732062616c60008301527f616e6365000000000000000000000000000000000000000000000000000000006020830152604082019050919050565b60006143e6602c83614eb9565b91507f455243313135355061757361626c653a20746f6b656e207472616e736665722060008301527f7768696c652070617573656400000000000000000000000000000000000000006020830152604082019050919050565b600061444c602983614eb9565b91507f455243313135353a2063616c6c6572206973206e6f74206f776e6572206e6f7260008301527f20617070726f76656400000000000000000000000000000000000000000000006020830152604082019050919050565b60006144b2601783614eb9565b91507f237572693a204e4f4e4558495354454e545f544f4b454e0000000000000000006000830152602082019050919050565b60006144f2601083614eb9565b91507f5061757361626c653a20706175736564000000000000000000000000000000006000830152602082019050919050565b6000614532602583614eb9565b91507f455243313135353a207472616e7366657220746f20746865207a65726f20616460008301527f64726573730000000000000000000000000000000000000000000000000000006020830152604082019050919050565b6000614598603283614eb9565b91507f455243313135353a207472616e736665722063616c6c6572206973206e6f742060008301527f6f776e6572206e6f7220617070726f76656400000000000000000000000000006020830152604082019050919050565b60006145fe602e83614eb9565b91507f496e697469616c697a61626c653a20636f6e747261637420697320616c72656160008301527f647920696e697469616c697a65640000000000000000000000000000000000006020830152604082019050919050565b6000614664602383614eb9565b91507f455243313135353a206275726e2066726f6d20746865207a65726f206164647260008301527f65737300000000000000000000000000000000000000000000000000000000006020830152604082019050919050565b60006146ca602a83614eb9565b91507f455243313135353a20696e73756666696369656e742062616c616e636520666f60008301527f72207472616e73666572000000000000000000000000000000000000000000006020830152604082019050919050565b6000614730602083614eb9565b91507f4f776e61626c653a2063616c6c6572206973206e6f7420746865206f776e65726000830152602082019050919050565b6000614770602983614eb9565b91507f455243313135353a2073657474696e6720617070726f76616c2073746174757360008301527f20666f722073656c6600000000000000000000000000000000000000000000006020830152604082019050919050565b60006147d6602983614eb9565b91507f455243313135353a206163636f756e747320616e6420696473206c656e67746860008301527f206d69736d6174636800000000000000000000000000000000000000000000006020830152604082019050919050565b600061483c602883614eb9565b91507f455243313135353a2069647320616e6420616d6f756e7473206c656e6774682060008301527f6d69736d617463680000000000000000000000000000000000000000000000006020830152604082019050919050565b60006148a2602183614eb9565b91507f455243313135353a206d696e7420746f20746865207a65726f2061646472657360008301527f73000000000000000000000000000000000000000000000000000000000000006020830152604082019050919050565b61490481614f8a565b82525050565b61491381614f8a565b82525050565b600060208201905061492e600083018461406d565b92915050565b600060a082019050614949600083018861406d565b614956602083018761406d565b8181036040830152614968818661407c565b9050818103606083015261497c818561407c565b9050818103608083015261499081846140e9565b90509695505050505050565b600060a0820190506149b1600083018861406d565b6149be602083018761406d565b6149cb604083018661490a565b6149d8606083018561490a565b81810360808301526149ea81846140e9565b90509695505050505050565b60006020820190508181036000830152614a10818461407c565b905092915050565b60006040820190508181036000830152614a32818561407c565b90508181036020830152614a46818461407c565b90509392505050565b6000602082019050614a6460008301846140da565b92915050565b60006020820190508181036000830152614a848184614122565b905092915050565b60006020820190508181036000830152614aa58161415b565b9050919050565b60006020820190508181036000830152614ac5816141c1565b9050919050565b60006020820190508181036000830152614ae581614227565b9050919050565b60006020820190508181036000830152614b0581614267565b9050919050565b60006020820190508181036000830152614b25816142a7565b9050919050565b60006020820190508181036000830152614b458161430d565b9050919050565b60006020820190508181036000830152614b6581614373565b9050919050565b60006020820190508181036000830152614b85816143d9565b9050919050565b60006020820190508181036000830152614ba58161443f565b9050919050565b60006020820190508181036000830152614bc5816144a5565b9050919050565b60006020820190508181036000830152614be5816144e5565b9050919050565b60006020820190508181036000830152614c0581614525565b9050919050565b60006020820190508181036000830152614c258161458b565b9050919050565b60006020820190508181036000830152614c45816145f1565b9050919050565b60006020820190508181036000830152614c6581614657565b9050919050565b60006020820190508181036000830152614c85816146bd565b9050919050565b60006020820190508181036000830152614ca581614723565b9050919050565b60006020820190508181036000830152614cc581614763565b9050919050565b60006020820190508181036000830152614ce5816147c9565b9050919050565b60006020820190508181036000830152614d058161482f565b9050919050565b60006020820190508181036000830152614d2581614895565b9050919050565b6000602082019050614d41600083018461490a565b92915050565b6000604082019050614d5c600083018561490a565b614d69602083018461490a565b9392505050565b6000604051905081810181811067ffffffffffffffff82111715614d9757614d966150af565b5b8060405250919050565b600067ffffffffffffffff821115614dbc57614dbb6150af565b5b602082029050602081019050919050565b600067ffffffffffffffff821115614de857614de76150af565b5b602082029050602081019050919050565b600067ffffffffffffffff821115614e1457614e136150af565b5b601f19601f8301169050602081019050919050565b600067ffffffffffffffff821115614e4457614e436150af565b5b601f19601f8301169050602081019050919050565b6000819050602082019050919050565b600081519050919050565b600081519050919050565b600081519050919050565b6000602082019050919050565b600082825260208201905092915050565b600082825260208201905092915050565b600082825260208201905092915050565b6000614ed582614f8a565b9150614ee083614f8a565b9250827fffffffffffffffffffffffffffffffffffffffffffffffffffffffffffffffff03821115614f1557614f14615051565b5b828201905092915050565b6000614f2b82614f6a565b9050919050565b60008115159050919050565b60007fffffffff0000000000000000000000000000000000000000000000000000000082169050919050565b600073ffffffffffffffffffffffffffffffffffffffff82169050919050565b6000819050919050565b82818337600083830152505050565b60005b83811015614fc1578082015181840152602081019050614fa6565b83811115614fd0576000848401525b50505050565b60006002820490506001821680614fee57607f821691505b6020821081141561500257615001615080565b5b50919050565b600061501382614f8a565b91507fffffffffffffffffffffffffffffffffffffffffffffffffffffffffffffffff82141561504657615045615051565b5b600182019050919050565b7f4e487b7100000000000000000000000000000000000000000000000000000000600052601160045260246000fd5b7f4e487b7100000000000000000000000000000000000000000000000000000000600052602260045260246000fd5b7f4e487b7100000000000000000000000000000000000000000000000000000000600052604160045260246000fd5b6000601f19601f8301169050919050565b60008160e01c9050919050565b600060443d101561510c576151af565b60046000803e61511d6000516150ef565b6308c379a0811461512e57506151af565b60405160043d036004823e80513d602482011167ffffffffffffffff8211171561515a575050506151af565b808201805167ffffffffffffffff8111156151795750505050506151af565b8060208301013d8501811115615194575050505050506151af565b61519d826150de565b60208401016040528296505050505050505b90565b6151bb81614f20565b81146151c657600080fd5b50565b6151d281614f32565b81146151dd57600080fd5b50565b6151e981614f3e565b81146151f457600080fd5b50565b61520081614f8a565b811461520b57600080fd5b5056fea264697066735822122061affa4da07133255809f36280aa819e7d603dbb90978c6254b9824160e8ebd264736f6c63430008000033",
  "immutableReferences": {},
  "source": "// SPDX-License-Identifier: MIT\npragma solidity ^0.8.0;\n\nimport \"@openzeppelin/contracts/proxy/Clones.sol\";\nimport \"@openzeppelin/contracts/access/Ownable.sol\";\nimport \"./Onec1155.sol\";\n\ncontract Onec1155Factory is Ownable {\n\n    address private tokenImplementation;\n    constructor(){\n        tokenImplementation = address(new Onec1155());    \n    }\n    \n    function createOnec1155(string memory _name,string memory _symbol,string memory _baseURI,string memory _contractMetadata,address _newOwner) external onlyOwner returns (address) {\n        require(_newOwner != address(0));\n        address clone = Clones.clone(tokenImplementation);\n        Onec1155(clone).initialize(_name,_symbol,_baseURI, _contractMetadata);\n        Onec1155(clone).transferOwnership(_newOwner);\n        return clone;\n    }\n\n}",
  "sourcePath": "/Users/hrishabhsharma/Projects/core-contract/contracts/Onec1155Factory.sol",
  "compiler": {
    "name": "solc",
    "version": "0.8.0+commit.c7dfd78e.Emscripten.clang"
  },
  "schemaVersion": "3.4.3",
  "updatedAt": "2022-04-02T16:23:30.530Z",
  "devdoc": {
    "kind": "dev",
    "methods": {
      "owner()": {
        "details": "Returns the address of the current owner."
      },
      "renounceOwnership()": {
        "details": "Leaves the contract without owner. It will not be possible to call `onlyOwner` functions anymore. Can only be called by the current owner. NOTE: Renouncing ownership will leave the contract without an owner, thereby removing any functionality that is only available to the owner."
      },
      "transferOwnership(address)": {
        "details": "Transfers ownership of the contract to a new account (`newOwner`). Can only be called by the current owner."
      }
    },
    "version": 1
  },
  "userdoc": {
    "kind": "user",
    "methods": {},
    "version": 1
  }
}