{
  "contractName": "OnecV2",
  "abi": [
    {
      "anonymous": false,
      "inputs": [
        {
          "indexed": true,
          "internalType": "address",
          "name": "account",
          "type": "address"
        },
        {
          "indexed": true,
          "internalType": "address",
          "name": "operator",
          "type": "address"
        },
        {
          "indexed": false,
          "internalType": "bool",
          "name": "approved",
          "type": "bool"
        }
      ],
      "name": "ApprovalForAll",
      "type": "event"
    },
    {
      "anonymous": false,
      "inputs": [
        {
          "indexed": true,
          "internalType": "address",
          "name": "previousOwner",
          "type": "address"
        },
        {
          "indexed": true,
          "internalType": "address",
          "name": "newOwner",
          "type": "address"
        }
      ],
      "name": "OwnershipTransferred",
      "type": "event"
    },
    {
      "anonymous": false,
      "inputs": [
        {
          "indexed": false,
          "internalType": "address",
          "name": "account",
          "type": "address"
        }
      ],
      "name": "Paused",
      "type": "event"
    },
    {
      "anonymous": false,
      "inputs": [
        {
          "indexed": true,
          "internalType": "address",
          "name": "operator",
          "type": "address"
        },
        {
          "indexed": true,
          "internalType": "address",
          "name": "from",
          "type": "address"
        },
        {
          "indexed": true,
          "internalType": "address",
          "name": "to",
          "type": "address"
        },
        {
          "indexed": false,
          "internalType": "uint256[]",
          "name": "ids",
          "type": "uint256[]"
        },
        {
          "indexed": false,
          "internalType": "uint256[]",
          "name": "values",
          "type": "uint256[]"
        }
      ],
      "name": "TransferBatch",
      "type": "event"
    },
    {
      "anonymous": false,
      "inputs": [
        {
          "indexed": true,
          "internalType": "address",
          "name": "operator",
          "type": "address"
        },
        {
          "indexed": true,
          "internalType": "address",
          "name": "from",
          "type": "address"
        },
        {
          "indexed": true,
          "internalType": "address",
          "name": "to",
          "type": "address"
        },
        {
          "indexed": false,
          "internalType": "uint256",
          "name": "id",
          "type": "uint256"
        },
        {
          "indexed": false,
          "internalType": "uint256",
          "name": "value",
          "type": "uint256"
        }
      ],
      "name": "TransferSingle",
      "type": "event"
    },
    {
      "anonymous": false,
      "inputs": [
        {
          "indexed": false,
          "internalType": "string",
          "name": "value",
          "type": "string"
        },
        {
          "indexed": true,
          "internalType": "uint256",
          "name": "id",
          "type": "uint256"
        }
      ],
      "name": "URI",
      "type": "event"
    },
    {
      "anonymous": false,
      "inputs": [
        {
          "indexed": false,
          "internalType": "address",
          "name": "account",
          "type": "address"
        }
      ],
      "name": "Unpaused",
      "type": "event"
    },
    {
      "inputs": [
        {
          "internalType": "address",
          "name": "account",
          "type": "address"
        },
        {
          "internalType": "uint256",
          "name": "id",
          "type": "uint256"
        }
      ],
      "name": "balanceOf",
      "outputs": [
        {
          "internalType": "uint256",
          "name": "",
          "type": "uint256"
        }
      ],
      "stateMutability": "view",
      "type": "function",
      "constant": true
    },
    {
      "inputs": [
        {
          "internalType": "address[]",
          "name": "accounts",
          "type": "address[]"
        },
        {
          "internalType": "uint256[]",
          "name": "ids",
          "type": "uint256[]"
        }
      ],
      "name": "balanceOfBatch",
      "outputs": [
        {
          "internalType": "uint256[]",
          "name": "",
          "type": "uint256[]"
        }
      ],
      "stateMutability": "view",
      "type": "function",
      "constant": true
    },
    {
      "inputs": [
        {
          "internalType": "address",
          "name": "account",
          "type": "address"
        },
        {
          "internalType": "address",
          "name": "operator",
          "type": "address"
        }
      ],
      "name": "isApprovedForAll",
      "outputs": [
        {
          "internalType": "bool",
          "name": "",
          "type": "bool"
        }
      ],
      "stateMutability": "view",
      "type": "function",
      "constant": true
    },
    {
      "inputs": [],
      "name": "owner",
      "outputs": [
        {
          "internalType": "address",
          "name": "",
          "type": "address"
        }
      ],
      "stateMutability": "view",
      "type": "function",
      "constant": true
    },
    {
      "inputs": [],
      "name": "paused",
      "outputs": [
        {
          "internalType": "bool",
          "name": "",
          "type": "bool"
        }
      ],
      "stateMutability": "view",
      "type": "function",
      "constant": true
    },
    {
      "inputs": [],
      "name": "renounceOwnership",
      "outputs": [],
      "stateMutability": "nonpayable",
      "type": "function"
    },
    {
      "inputs": [
        {
          "internalType": "address",
          "name": "from",
          "type": "address"
        },
        {
          "internalType": "address",
          "name": "to",
          "type": "address"
        },
        {
          "internalType": "uint256[]",
          "name": "ids",
          "type": "uint256[]"
        },
        {
          "internalType": "uint256[]",
          "name": "amounts",
          "type": "uint256[]"
        },
        {
          "internalType": "bytes",
          "name": "data",
          "type": "bytes"
        }
      ],
      "name": "safeBatchTransferFrom",
      "outputs": [],
      "stateMutability": "nonpayable",
      "type": "function"
    },
    {
      "inputs": [
        {
          "internalType": "address",
          "name": "from",
          "type": "address"
        },
        {
          "internalType": "address",
          "name": "to",
          "type": "address"
        },
        {
          "internalType": "uint256",
          "name": "id",
          "type": "uint256"
        },
        {
          "internalType": "uint256",
          "name": "amount",
          "type": "uint256"
        },
        {
          "internalType": "bytes",
          "name": "data",
          "type": "bytes"
        }
      ],
      "name": "safeTransferFrom",
      "outputs": [],
      "stateMutability": "nonpayable",
      "type": "function"
    },
    {
      "inputs": [
        {
          "internalType": "address",
          "name": "operator",
          "type": "address"
        },
        {
          "internalType": "bool",
          "name": "approved",
          "type": "bool"
        }
      ],
      "name": "setApprovalForAll",
      "outputs": [],
      "stateMutability": "nonpayable",
      "type": "function"
    },
    {
      "inputs": [
        {
          "internalType": "bytes4",
          "name": "interfaceId",
          "type": "bytes4"
        }
      ],
      "name": "supportsInterface",
      "outputs": [
        {
          "internalType": "bool",
          "name": "",
          "type": "bool"
        }
      ],
      "stateMutability": "view",
      "type": "function",
      "constant": true
    },
    {
      "inputs": [],
      "name": "totalRegisteredAssets",
      "outputs": [
        {
          "internalType": "uint256",
          "name": "",
          "type": "uint256"
        }
      ],
      "stateMutability": "view",
      "type": "function",
      "constant": true
    },
    {
      "inputs": [
        {
          "internalType": "address",
          "name": "newOwner",
          "type": "address"
        }
      ],
      "name": "transferOwnership",
      "outputs": [],
      "stateMutability": "nonpayable",
      "type": "function"
    },
    {
      "inputs": [
        {
          "internalType": "uint256",
          "name": "",
          "type": "uint256"
        }
      ],
      "name": "uri",
      "outputs": [
        {
          "internalType": "string",
          "name": "",
          "type": "string"
        }
      ],
      "stateMutability": "view",
      "type": "function",
      "constant": true
    },
    {
      "inputs": [],
      "name": "initialize",
      "outputs": [],
      "stateMutability": "nonpayable",
      "type": "function"
    },
    {
      "inputs": [
        {
          "internalType": "uint256",
          "name": "_supply",
          "type": "uint256"
        },
        {
          "internalType": "address",
          "name": "_holder",
          "type": "address"
        },
        {
          "internalType": "uint256",
          "name": "_id",
          "type": "uint256"
        },
        {
          "internalType": "bytes",
          "name": "_data",
          "type": "bytes"
        }
      ],
      "name": "mintAsset",
      "outputs": [],
      "stateMutability": "nonpayable",
      "type": "function"
    },
    {
      "inputs": [
        {
          "internalType": "uint256",
          "name": "_id",
          "type": "uint256"
        }
      ],
      "name": "getTokenMetadataHash",
      "outputs": [
        {
          "internalType": "string",
          "name": "",
          "type": "string"
        }
      ],
      "stateMutability": "view",
      "type": "function",
      "constant": true
    },
    {
      "inputs": [
        {
          "internalType": "uint256",
          "name": "_id",
          "type": "uint256"
        }
      ],
      "name": "getBaseURI",
      "outputs": [
        {
          "internalType": "string",
          "name": "",
          "type": "string"
        }
      ],
      "stateMutability": "view",
      "type": "function",
      "constant": true
    },
    {
      "inputs": [
        {
          "internalType": "address",
          "name": "_from",
          "type": "address"
        },
        {
          "internalType": "address",
          "name": "_to",
          "type": "address"
        },
        {
          "internalType": "uint256",
          "name": "_id",
          "type": "uint256"
        },
        {
          "internalType": "uint256",
          "name": "_amount",
          "type": "uint256"
        },
        {
          "internalType": "bytes",
          "name": "_data",
          "type": "bytes"
        }
      ],
      "name": "transfer",
      "outputs": [],
      "stateMutability": "nonpayable",
      "type": "function"
    },
    {
      "inputs": [],
      "name": "makePause",
      "outputs": [],
      "stateMutability": "nonpayable",
      "type": "function"
    },
    {
      "inputs": [],
      "name": "makeUnpause",
      "outputs": [],
      "stateMutability": "nonpayable",
      "type": "function"
    },
    {
      "inputs": [
        {
          "internalType": "address",
          "name": "account",
          "type": "address"
        },
        {
          "internalType": "uint256",
          "name": "id",
          "type": "uint256"
        },
        {
          "internalType": "uint256",
          "name": "amount",
          "type": "uint256"
        }
      ],
      "name": "burnAsset",
      "outputs": [],
      "stateMutability": "nonpayable",
      "type": "function"
    },
    {
      "inputs": [
        {
          "internalType": "address",
          "name": "_operator",
          "type": "address"
        },
        {
          "internalType": "bool",
          "name": "_approved",
          "type": "bool"
        }
      ],
      "name": "setApproval",
      "outputs": [],
      "stateMutability": "nonpayable",
      "type": "function"
    },
    {
      "inputs": [
        {
          "internalType": "address",
          "name": "account",
          "type": "address"
        },
        {
          "internalType": "address",
          "name": "operator",
          "type": "address"
        }
      ],
      "name": "isApproved",
      "outputs": [
        {
          "internalType": "bool",
          "name": "",
          "type": "bool"
        }
      ],
      "stateMutability": "view",
      "type": "function",
      "constant": true
    },
    {
      "inputs": [
        {
          "internalType": "address",
          "name": "account",
          "type": "address"
        },
        {
          "internalType": "uint256",
          "name": "id",
          "type": "uint256"
        }
      ],
      "name": "getBalance",
      "outputs": [
        {
          "internalType": "uint256",
          "name": "",
          "type": "uint256"
        }
      ],
      "stateMutability": "view",
      "type": "function",
      "constant": true
    }
  ],
  "bytecode": "0x608060405234801561001057600080fd5b50613e85806100206000396000f3fe608060405234801561001057600080fd5b50600436106101575760003560e01c80638129fc1c116100c3578063a90205a31161007c578063a90205a3146103c4578063db9b7170146103ce578063dd3d0f93146103ea578063e985e9c514610406578063f242432a14610436578063f2fde38b1461045257610157565b80638129fc1c14610316578063837c59621461032057806386838fb6146103505780638da5cb5b1461035a578063a22cb46514610378578063a389783e1461039457610157565b80632eb2c2d6116101155780632eb2c2d614610256578063411672ee146102725780634e1273f41461028e5780635c975abb146102be578063715018a6146102dc57806373376398146102e657610157565b8062fdd58e1461015c57806301ffc9a71461018c5780630e89341c146101bc578063127217d6146101ec5780632a8b7be6146102085780632b04e84014610226575b600080fd5b61017660048036038101906101719190612b53565b61046e565b6040516101839190613957565b60405180910390f35b6101a660048036038101906101a19190612c4a565b610538565b6040516101b391906136ba565b60405180910390f35b6101d660048036038101906101d19190612c9c565b61061a565b6040516101e391906136d5565b60405180910390f35b61020660048036038101906102019190612a88565b6106ae565b005b6102106106c2565b60405161021d9190613957565b60405180910390f35b610240600480360381019061023b9190612b53565b6106c8565b60405161024d9190613957565b60405180910390f35b610270600480360381019061026b91906129c9565b6106dc565b005b61028c60048036038101906102879190612cc5565b61077d565b005b6102a860048036038101906102a39190612bde565b6107d3565b6040516102b59190613661565b60405180910390f35b6102c6610984565b6040516102d391906136ba565b60405180910390f35b6102e461099b565b005b61030060048036038101906102fb9190612c9c565b610a23565b60405161030d91906136d5565b60405180910390f35b61031e610a35565b005b61033a60048036038101906103359190612c9c565b610b37565b60405161034791906136d5565b60405180910390f35b610358610bdc565b005b610362610c62565b60405161036f9190613584565b60405180910390f35b610392600480360381019061038d9190612b17565b610c8c565b005b6103ae60048036038101906103a9919061298d565b610e0d565b6040516103bb91906136ba565b60405180910390f35b6103cc610e21565b005b6103e860048036038101906103e39190612b17565b610ea7565b005b61040460048036038101906103ff9190612b8f565b610eb5565b005b610420600480360381019061041b919061298d565b610f22565b60405161042d91906136ba565b60405180910390f35b610450600480360381019061044b9190612a88565b610fb6565b005b61046c60048036038101906104679190612964565b611057565b005b60008073ffffffffffffffffffffffffffffffffffffffff168373ffffffffffffffffffffffffffffffffffffffff1614156104df576040517f08c379a00000000000000000000000000000000000000000000000000000000081526004016104d690613757565b60405180910390fd5b60c9600083815260200190815260200160002060008473ffffffffffffffffffffffffffffffffffffffff1673ffffffffffffffffffffffffffffffffffffffff16815260200190815260200160002054905092915050565b60007fd9b67a26000000000000000000000000000000000000000000000000000000007bffffffffffffffffffffffffffffffffffffffffffffffffffffffff1916827bffffffffffffffffffffffffffffffffffffffffffffffffffffffff1916148061060357507f0e89341c000000000000000000000000000000000000000000000000000000007bffffffffffffffffffffffffffffffffffffffffffffffffffffffff1916827bffffffffffffffffffffffffffffffffffffffffffffffffffffffff1916145b8061061357506106128261114f565b5b9050919050565b606060cb805461062990613bd1565b80601f016020809104026020016040519081016040528092919081815260200182805461065590613bd1565b80156106a25780601f10610677576101008083540402835291602001916106a2565b820191906000526020600020905b81548152906001019060200180831161068557829003601f168201915b50505050509050919050565b6106bb8585858585610fb6565b5050505050565b60fb5481565b60006106d4838361046e565b905092915050565b6106e46111b9565b73ffffffffffffffffffffffffffffffffffffffff168573ffffffffffffffffffffffffffffffffffffffff16148061072a5750610729856107246111b9565b610f22565b5b610769576040517f08c379a000000000000000000000000000000000000000000000000000000000815260040161076090613837565b60405180910390fd5b61077685858585856111c1565b5050505050565b600060fc6000848152602001908152602001600020805461079d90613bd1565b9050146107a957600080fd5b6107b583838684611524565b60fb60008154809291906107c890613c03565b919050555050505050565b60608151835114610819576040517f08c379a0000000000000000000000000000000000000000000000000000000008152600401610810906138f7565b60405180910390fd5b6000835167ffffffffffffffff81111561085c577f4e487b7100000000000000000000000000000000000000000000000000000000600052604160045260246000fd5b60405190808252806020026020018201604052801561088a5781602001602082028036833780820191505090505b50905060005b8451811015610979576109238582815181106108d5577f4e487b7100000000000000000000000000000000000000000000000000000000600052603260045260246000fd5b6020026020010151858381518110610916577f4e487b7100000000000000000000000000000000000000000000000000000000600052603260045260246000fd5b602002602001015161046e565b82828151811061095c577f4e487b7100000000000000000000000000000000000000000000000000000000600052603260045260246000fd5b6020026020010181815250508061097290613c03565b9050610890565b508091505092915050565b6000603360009054906101000a900460ff16905090565b6109a36111b9565b73ffffffffffffffffffffffffffffffffffffffff166109c1610c62565b73ffffffffffffffffffffffffffffffffffffffff1614610a17576040517f08c379a0000000000000000000000000000000000000000000000000000000008152600401610a0e906138b7565b60405180910390fd5b610a2160006116bb565b565b6060610a2e8261061a565b9050919050565b600060019054906101000a900460ff1680610a5b575060008054906101000a900460ff16155b610a9a576040517f08c379a0000000000000000000000000000000000000000000000000000000008152600401610a9190613857565b60405180910390fd5b60008060019054906101000a900460ff161590508015610aea576001600060016101000a81548160ff02191690831515021790555060016000806101000a81548160ff0219169083151502179055505b610b0b604051806080016040528060468152602001613e0a60469139611781565b600060fb819055508015610b345760008060016101000a81548160ff0219169083151502179055505b50565b606060fc60008381526020019081526020016000208054610b5790613bd1565b80601f0160208091040260200160405190810160405280929190818152602001828054610b8390613bd1565b8015610bd05780601f10610ba557610100808354040283529160200191610bd0565b820191906000526020600020905b815481529060010190602001808311610bb357829003601f168201915b50505050509050919050565b610be46111b9565b73ffffffffffffffffffffffffffffffffffffffff16610c02610c62565b73ffffffffffffffffffffffffffffffffffffffff1614610c58576040517f08c379a0000000000000000000000000000000000000000000000000000000008152600401610c4f906138b7565b60405180910390fd5b610c60611874565b565b6000606560009054906101000a900473ffffffffffffffffffffffffffffffffffffffff16905090565b8173ffffffffffffffffffffffffffffffffffffffff16610cab6111b9565b73ffffffffffffffffffffffffffffffffffffffff161415610d02576040517f08c379a0000000000000000000000000000000000000000000000000000000008152600401610cf9906138d7565b60405180910390fd5b8060ca6000610d0f6111b9565b73ffffffffffffffffffffffffffffffffffffffff1673ffffffffffffffffffffffffffffffffffffffff16815260200190815260200160002060008473ffffffffffffffffffffffffffffffffffffffff1673ffffffffffffffffffffffffffffffffffffffff16815260200190815260200160002060006101000a81548160ff0219169083151502179055508173ffffffffffffffffffffffffffffffffffffffff16610dbc6111b9565b73ffffffffffffffffffffffffffffffffffffffff167f17307eab39ab6107e8899845ad3d59bd9653f200f220920489ca2b5937696c3183604051610e0191906136ba565b60405180910390a35050565b6000610e198383610f22565b905092915050565b610e296111b9565b73ffffffffffffffffffffffffffffffffffffffff16610e47610c62565b73ffffffffffffffffffffffffffffffffffffffff1614610e9d576040517f08c379a0000000000000000000000000000000000000000000000000000000008152600401610e94906138b7565b60405180910390fd5b610ea5611916565b565b610eb18282610c8c565b5050565b610ec08383836119b9565b6040518060400160405280600381526020017f307830000000000000000000000000000000000000000000000000000000000081525060fc60008481526020019081526020016000209080519060200190610f1c92919061263e565b50505050565b600060ca60008473ffffffffffffffffffffffffffffffffffffffff1673ffffffffffffffffffffffffffffffffffffffff16815260200190815260200160002060008373ffffffffffffffffffffffffffffffffffffffff1673ffffffffffffffffffffffffffffffffffffffff16815260200190815260200160002060009054906101000a900460ff16905092915050565b610fbe6111b9565b73ffffffffffffffffffffffffffffffffffffffff168573ffffffffffffffffffffffffffffffffffffffff161480611004575061100385610ffe6111b9565b610f22565b5b611043576040517f08c379a000000000000000000000000000000000000000000000000000000000815260040161103a906137d7565b60405180910390fd5b6110508585858585611bd8565b5050505050565b61105f6111b9565b73ffffffffffffffffffffffffffffffffffffffff1661107d610c62565b73ffffffffffffffffffffffffffffffffffffffff16146110d3576040517f08c379a00000000000000000000000000000000000000000000000000000000081526004016110ca906138b7565b60405180910390fd5b600073ffffffffffffffffffffffffffffffffffffffff168173ffffffffffffffffffffffffffffffffffffffff161415611143576040517f08c379a000000000000000000000000000000000000000000000000000000000815260040161113a90613777565b60405180910390fd5b61114c816116bb565b50565b60007f01ffc9a7000000000000000000000000000000000000000000000000000000007bffffffffffffffffffffffffffffffffffffffffffffffffffffffff1916827bffffffffffffffffffffffffffffffffffffffffffffffffffffffff1916149050919050565b600033905090565b8151835114611205576040517f08c379a00000000000000000000000000000000000000000000000000000000081526004016111fc90613917565b60405180910390fd5b600073ffffffffffffffffffffffffffffffffffffffff168473ffffffffffffffffffffffffffffffffffffffff161415611275576040517f08c379a000000000000000000000000000000000000000000000000000000000815260040161126c90613817565b60405180910390fd5b600061127f6111b9565b905061128f818787878787611e5d565b60005b845181101561148f5760008582815181106112d6577f4e487b7100000000000000000000000000000000000000000000000000000000600052603260045260246000fd5b60200260200101519050600085838151811061131b577f4e487b7100000000000000000000000000000000000000000000000000000000600052603260045260246000fd5b60200260200101519050600060c9600084815260200190815260200160002060008b73ffffffffffffffffffffffffffffffffffffffff1673ffffffffffffffffffffffffffffffffffffffff168152602001908152602001600020549050818110156113bd576040517f08c379a00000000000000000000000000000000000000000000000000000000081526004016113b490613897565b60405180910390fd5b81810360c9600085815260200190815260200160002060008c73ffffffffffffffffffffffffffffffffffffffff1673ffffffffffffffffffffffffffffffffffffffff168152602001908152602001600020819055508160c9600085815260200190815260200160002060008b73ffffffffffffffffffffffffffffffffffffffff1673ffffffffffffffffffffffffffffffffffffffff16815260200190815260200160002060008282546114749190613ac5565b925050819055505050508061148890613c03565b9050611292565b508473ffffffffffffffffffffffffffffffffffffffff168673ffffffffffffffffffffffffffffffffffffffff168273ffffffffffffffffffffffffffffffffffffffff167f4a39dc06d4c0dbc64b70af90fd698a233a518aa5d07e595d983b8c0526c8f7fb8787604051611506929190613683565b60405180910390a461151c818787878787611f16565b505050505050565b600073ffffffffffffffffffffffffffffffffffffffff168473ffffffffffffffffffffffffffffffffffffffff161415611594576040517f08c379a000000000000000000000000000000000000000000000000000000000815260040161158b90613937565b60405180910390fd5b600061159e6111b9565b90506115bf816000876115b0886120e6565b6115b9886120e6565b87611e5d565b8260c9600086815260200190815260200160002060008773ffffffffffffffffffffffffffffffffffffffff1673ffffffffffffffffffffffffffffffffffffffff168152602001908152602001600020600082825461161f9190613ac5565b925050819055508473ffffffffffffffffffffffffffffffffffffffff16600073ffffffffffffffffffffffffffffffffffffffff168273ffffffffffffffffffffffffffffffffffffffff167fc3d58168c5ae7397731d063d5bbf3d657854427343f4c083240f7aacaa2d0f62878760405161169d929190613972565b60405180910390a46116b4816000878787876121ac565b5050505050565b6000606560009054906101000a900473ffffffffffffffffffffffffffffffffffffffff16905081606560006101000a81548173ffffffffffffffffffffffffffffffffffffffff021916908373ffffffffffffffffffffffffffffffffffffffff1602179055508173ffffffffffffffffffffffffffffffffffffffff168173ffffffffffffffffffffffffffffffffffffffff167f8be0079c531659141344cd1fd0a4f28419497f9722a3daafe3b4186f6b6457e060405160405180910390a35050565b600060019054906101000a900460ff16806117a7575060008054906101000a900460ff16155b6117e6576040517f08c379a00000000000000000000000000000000000000000000000000000000081526004016117dd90613857565b60405180910390fd5b60008060019054906101000a900460ff161590508015611836576001600060016101000a81548160ff02191690831515021790555060016000806101000a81548160ff0219169083151502179055505b61183e61237c565b611846612455565b61184f8261252e565b80156118705760008060016101000a81548160ff0219169083151502179055505b5050565b61187c610984565b6118bb576040517f08c379a00000000000000000000000000000000000000000000000000000000081526004016118b290613737565b60405180910390fd5b6000603360006101000a81548160ff0219169083151502179055507f5db9ee0a495bf2e6ff9c91a7834c1ba4fdd244a5e8aa4e537bd38aeae4b073aa6118ff6111b9565b60405161190c9190613584565b60405180910390a1565b61191e610984565b1561195e576040517f08c379a0000000000000000000000000000000000000000000000000000000008152600401611955906137f7565b60405180910390fd5b6001603360006101000a81548160ff0219169083151502179055507f62e78cea01bee320cd4e420270b5ea74000d11b0c9f74754ebdbfc544b05a2586119a26111b9565b6040516119af9190613584565b60405180910390a1565b600073ffffffffffffffffffffffffffffffffffffffff168373ffffffffffffffffffffffffffffffffffffffff161415611a29576040517f08c379a0000000000000000000000000000000000000000000000000000000008152600401611a2090613877565b60405180910390fd5b6000611a336111b9565b9050611a6381856000611a45876120e6565b611a4e876120e6565b60405180602001604052806000815250611e5d565b600060c9600085815260200190815260200160002060008673ffffffffffffffffffffffffffffffffffffffff1673ffffffffffffffffffffffffffffffffffffffff16815260200190815260200160002054905082811015611afb576040517f08c379a0000000000000000000000000000000000000000000000000000000008152600401611af290613797565b60405180910390fd5b82810360c9600086815260200190815260200160002060008773ffffffffffffffffffffffffffffffffffffffff1673ffffffffffffffffffffffffffffffffffffffff16815260200190815260200160002081905550600073ffffffffffffffffffffffffffffffffffffffff168573ffffffffffffffffffffffffffffffffffffffff168373ffffffffffffffffffffffffffffffffffffffff167fc3d58168c5ae7397731d063d5bbf3d657854427343f4c083240f7aacaa2d0f628787604051611bc9929190613972565b60405180910390a45050505050565b600073ffffffffffffffffffffffffffffffffffffffff168473ffffffffffffffffffffffffffffffffffffffff161415611c48576040517f08c379a0000000000000000000000000000000000000000000000000000000008152600401611c3f90613817565b60405180910390fd5b6000611c526111b9565b9050611c72818787611c63886120e6565b611c6c886120e6565b87611e5d565b600060c9600086815260200190815260200160002060008873ffffffffffffffffffffffffffffffffffffffff1673ffffffffffffffffffffffffffffffffffffffff16815260200190815260200160002054905083811015611d0a576040517f08c379a0000000000000000000000000000000000000000000000000000000008152600401611d0190613897565b60405180910390fd5b83810360c9600087815260200190815260200160002060008973ffffffffffffffffffffffffffffffffffffffff1673ffffffffffffffffffffffffffffffffffffffff168152602001908152602001600020819055508360c9600087815260200190815260200160002060008873ffffffffffffffffffffffffffffffffffffffff1673ffffffffffffffffffffffffffffffffffffffff1681526020019081526020016000206000828254611dc19190613ac5565b925050819055508573ffffffffffffffffffffffffffffffffffffffff168773ffffffffffffffffffffffffffffffffffffffff168373ffffffffffffffffffffffffffffffffffffffff167fc3d58168c5ae7397731d063d5bbf3d657854427343f4c083240f7aacaa2d0f628888604051611e3e929190613972565b60405180910390a4611e548288888888886121ac565b50505050505050565b8060fc600085600081518110611e9c577f4e487b7100000000000000000000000000000000000000000000000000000000600052603260045260246000fd5b602002602001015181526020019081526020016000209080519060200190611ec592919061263e565b50611ece610984565b15611f0e576040517f08c379a0000000000000000000000000000000000000000000000000000000008152600401611f05906137b7565b60405180910390fd5b505050505050565b611f358473ffffffffffffffffffffffffffffffffffffffff16612611565b156120de578373ffffffffffffffffffffffffffffffffffffffff1663bc197c8187878686866040518663ffffffff1660e01b8152600401611f7b95949392919061359f565b602060405180830381600087803b158015611f9557600080fd5b505af1925050508015611fc657506040513d601f19601f82011682018060405250810190611fc39190612c73565b60015b61205557611fd2613cf7565b80611fdd575061201a565b806040517f08c379a000000000000000000000000000000000000000000000000000000000815260040161201191906136d5565b60405180910390fd5b6040517f08c379a000000000000000000000000000000000000000000000000000000000815260040161204c906136f7565b60405180910390fd5b63bc197c8160e01b7bffffffffffffffffffffffffffffffffffffffffffffffffffffffff1916817bffffffffffffffffffffffffffffffffffffffffffffffffffffffff1916146120dc576040517f08c379a00000000000000000000000000000000000000000000000000000000081526004016120d390613717565b60405180910390fd5b505b505050505050565b60606000600167ffffffffffffffff81111561212b577f4e487b7100000000000000000000000000000000000000000000000000000000600052604160045260246000fd5b6040519080825280602002602001820160405280156121595781602001602082028036833780820191505090505b5090508281600081518110612197577f4e487b7100000000000000000000000000000000000000000000000000000000600052603260045260246000fd5b60200260200101818152505080915050919050565b6121cb8473ffffffffffffffffffffffffffffffffffffffff16612611565b15612374578373ffffffffffffffffffffffffffffffffffffffff1663f23a6e6187878686866040518663ffffffff1660e01b8152600401612211959493929190613607565b602060405180830381600087803b15801561222b57600080fd5b505af192505050801561225c57506040513d601f19601f820116820180604052508101906122599190612c73565b60015b6122eb57612268613cf7565b8061227357506122b0565b806040517f08c379a00000000000000000000000000000000000000000000000000000000081526004016122a791906136d5565b60405180910390fd5b6040517f08c379a00000000000000000000000000000000000000000000000000000000081526004016122e2906136f7565b60405180910390fd5b63f23a6e6160e01b7bffffffffffffffffffffffffffffffffffffffffffffffffffffffff1916817bffffffffffffffffffffffffffffffffffffffffffffffffffffffff191614612372576040517f08c379a000000000000000000000000000000000000000000000000000000000815260040161236990613717565b60405180910390fd5b505b505050505050565b600060019054906101000a900460ff16806123a2575060008054906101000a900460ff16155b6123e1576040517f08c379a00000000000000000000000000000000000000000000000000000000081526004016123d890613857565b60405180910390fd5b60008060019054906101000a900460ff161590508015612431576001600060016101000a81548160ff02191690831515021790555060016000806101000a81548160ff0219169083151502179055505b80156124525760008060016101000a81548160ff0219169083151502179055505b50565b600060019054906101000a900460ff168061247b575060008054906101000a900460ff16155b6124ba576040517f08c379a00000000000000000000000000000000000000000000000000000000081526004016124b190613857565b60405180910390fd5b60008060019054906101000a900460ff16159050801561250a576001600060016101000a81548160ff02191690831515021790555060016000806101000a81548160ff0219169083151502179055505b801561252b5760008060016101000a81548160ff0219169083151502179055505b50565b600060019054906101000a900460ff1680612554575060008054906101000a900460ff16155b612593576040517f08c379a000000000000000000000000000000000000000000000000000000000815260040161258a90613857565b60405180910390fd5b60008060019054906101000a900460ff1615905080156125e3576001600060016101000a81548160ff02191690831515021790555060016000806101000a81548160ff0219169083151502179055505b6125ec82612624565b801561260d5760008060016101000a81548160ff0219169083151502179055505b5050565b600080823b905060008111915050919050565b8060cb908051906020019061263a9291906126c4565b5050565b82805461264a90613bd1565b90600052602060002090601f01602090048101928261266c57600085556126b3565b82601f1061268557805160ff19168380011785556126b3565b828001600101855582156126b3579182015b828111156126b2578251825591602001919060010190612697565b5b5090506126c0919061274a565b5090565b8280546126d090613bd1565b90600052602060002090601f0160209004810192826126f25760008555612739565b82601f1061270b57805160ff1916838001178555612739565b82800160010185558215612739579182015b8281111561273857825182559160200191906001019061271d565b5b509050612746919061274a565b5090565b5b8082111561276357600081600090555060010161274b565b5090565b600061277a612775846139cc565b61399b565b9050808382526020820190508285602086028201111561279957600080fd5b60005b858110156127c957816127af888261287d565b84526020840193506020830192505060018101905061279c565b5050509392505050565b60006127e66127e1846139f8565b61399b565b9050808382526020820190508285602086028201111561280557600080fd5b60005b85811015612835578161281b888261294f565b845260208401935060208301925050600181019050612808565b5050509392505050565b600061285261284d84613a24565b61399b565b90508281526020810184848401111561286a57600080fd5b612875848285613b8f565b509392505050565b60008135905061288c81613dad565b92915050565b600082601f8301126128a357600080fd5b81356128b3848260208601612767565b91505092915050565b600082601f8301126128cd57600080fd5b81356128dd8482602086016127d3565b91505092915050565b6000813590506128f581613dc4565b92915050565b60008135905061290a81613ddb565b92915050565b60008151905061291f81613ddb565b92915050565b600082601f83011261293657600080fd5b813561294684826020860161283f565b91505092915050565b60008135905061295e81613df2565b92915050565b60006020828403121561297657600080fd5b60006129848482850161287d565b91505092915050565b600080604083850312156129a057600080fd5b60006129ae8582860161287d565b92505060206129bf8582860161287d565b9150509250929050565b600080600080600060a086880312156129e157600080fd5b60006129ef8882890161287d565b9550506020612a008882890161287d565b945050604086013567ffffffffffffffff811115612a1d57600080fd5b612a29888289016128bc565b935050606086013567ffffffffffffffff811115612a4657600080fd5b612a52888289016128bc565b925050608086013567ffffffffffffffff811115612a6f57600080fd5b612a7b88828901612925565b9150509295509295909350565b600080600080600060a08688031215612aa057600080fd5b6000612aae8882890161287d565b9550506020612abf8882890161287d565b9450506040612ad08882890161294f565b9350506060612ae18882890161294f565b925050608086013567ffffffffffffffff811115612afe57600080fd5b612b0a88828901612925565b9150509295509295909350565b60008060408385031215612b2a57600080fd5b6000612b388582860161287d565b9250506020612b49858286016128e6565b9150509250929050565b60008060408385031215612b6657600080fd5b6000612b748582860161287d565b9250506020612b858582860161294f565b9150509250929050565b600080600060608486031215612ba457600080fd5b6000612bb28682870161287d565b9350506020612bc38682870161294f565b9250506040612bd48682870161294f565b9150509250925092565b60008060408385031215612bf157600080fd5b600083013567ffffffffffffffff811115612c0b57600080fd5b612c1785828601612892565b925050602083013567ffffffffffffffff811115612c3457600080fd5b612c40858286016128bc565b9150509250929050565b600060208284031215612c5c57600080fd5b6000612c6a848285016128fb565b91505092915050565b600060208284031215612c8557600080fd5b6000612c9384828501612910565b91505092915050565b600060208284031215612cae57600080fd5b6000612cbc8482850161294f565b91505092915050565b60008060008060808587031215612cdb57600080fd5b6000612ce98782880161294f565b9450506020612cfa8782880161287d565b9350506040612d0b8782880161294f565b925050606085013567ffffffffffffffff811115612d2857600080fd5b612d3487828801612925565b91505092959194509250565b6000612d4c8383613566565b60208301905092915050565b612d6181613b1b565b82525050565b6000612d7282613a64565b612d7c8185613a92565b9350612d8783613a54565b8060005b83811015612db8578151612d9f8882612d40565b9750612daa83613a85565b925050600181019050612d8b565b5085935050505092915050565b612dce81613b2d565b82525050565b6000612ddf82613a6f565b612de98185613aa3565b9350612df9818560208601613b9e565b612e0281613cd9565b840191505092915050565b6000612e1882613a7a565b612e228185613ab4565b9350612e32818560208601613b9e565b612e3b81613cd9565b840191505092915050565b6000612e53603483613ab4565b91507f455243313135353a207472616e7366657220746f206e6f6e204552433131353560008301527f526563656976657220696d706c656d656e7465720000000000000000000000006020830152604082019050919050565b6000612eb9602883613ab4565b91507f455243313135353a204552433131353552656365697665722072656a6563746560008301527f6420746f6b656e730000000000000000000000000000000000000000000000006020830152604082019050919050565b6000612f1f601483613ab4565b91507f5061757361626c653a206e6f74207061757365640000000000000000000000006000830152602082019050919050565b6000612f5f602b83613ab4565b91507f455243313135353a2062616c616e636520717565727920666f7220746865207a60008301527f65726f20616464726573730000000000000000000000000000000000000000006020830152604082019050919050565b6000612fc5602683613ab4565b91507f4f776e61626c653a206e6577206f776e657220697320746865207a65726f206160008301527f64647265737300000000000000000000000000000000000000000000000000006020830152604082019050919050565b600061302b602483613ab4565b91507f455243313135353a206275726e20616d6f756e7420657863656564732062616c60008301527f616e6365000000000000000000000000000000000000000000000000000000006020830152604082019050919050565b6000613091602c83613ab4565b91507f455243313135355061757361626c653a20746f6b656e207472616e736665722060008301527f7768696c652070617573656400000000000000000000000000000000000000006020830152604082019050919050565b60006130f7602983613ab4565b91507f455243313135353a2063616c6c6572206973206e6f74206f776e6572206e6f7260008301527f20617070726f76656400000000000000000000000000000000000000000000006020830152604082019050919050565b600061315d601083613ab4565b91507f5061757361626c653a20706175736564000000000000000000000000000000006000830152602082019050919050565b600061319d602583613ab4565b91507f455243313135353a207472616e7366657220746f20746865207a65726f20616460008301527f64726573730000000000000000000000000000000000000000000000000000006020830152604082019050919050565b6000613203603283613ab4565b91507f455243313135353a207472616e736665722063616c6c6572206973206e6f742060008301527f6f776e6572206e6f7220617070726f76656400000000000000000000000000006020830152604082019050919050565b6000613269602e83613ab4565b91507f496e697469616c697a61626c653a20636f6e747261637420697320616c72656160008301527f647920696e697469616c697a65640000000000000000000000000000000000006020830152604082019050919050565b60006132cf602383613ab4565b91507f455243313135353a206275726e2066726f6d20746865207a65726f206164647260008301527f65737300000000000000000000000000000000000000000000000000000000006020830152604082019050919050565b6000613335602a83613ab4565b91507f455243313135353a20696e73756666696369656e742062616c616e636520666f60008301527f72207472616e73666572000000000000000000000000000000000000000000006020830152604082019050919050565b600061339b602083613ab4565b91507f4f776e61626c653a2063616c6c6572206973206e6f7420746865206f776e65726000830152602082019050919050565b60006133db602983613ab4565b91507f455243313135353a2073657474696e6720617070726f76616c2073746174757360008301527f20666f722073656c6600000000000000000000000000000000000000000000006020830152604082019050919050565b6000613441602983613ab4565b91507f455243313135353a206163636f756e747320616e6420696473206c656e67746860008301527f206d69736d6174636800000000000000000000000000000000000000000000006020830152604082019050919050565b60006134a7602883613ab4565b91507f455243313135353a2069647320616e6420616d6f756e7473206c656e6774682060008301527f6d69736d617463680000000000000000000000000000000000000000000000006020830152604082019050919050565b600061350d602183613ab4565b91507f455243313135353a206d696e7420746f20746865207a65726f2061646472657360008301527f73000000000000000000000000000000000000000000000000000000000000006020830152604082019050919050565b61356f81613b85565b82525050565b61357e81613b85565b82525050565b60006020820190506135996000830184612d58565b92915050565b600060a0820190506135b46000830188612d58565b6135c16020830187612d58565b81810360408301526135d38186612d67565b905081810360608301526135e78185612d67565b905081810360808301526135fb8184612dd4565b90509695505050505050565b600060a08201905061361c6000830188612d58565b6136296020830187612d58565b6136366040830186613575565b6136436060830185613575565b81810360808301526136558184612dd4565b90509695505050505050565b6000602082019050818103600083015261367b8184612d67565b905092915050565b6000604082019050818103600083015261369d8185612d67565b905081810360208301526136b18184612d67565b90509392505050565b60006020820190506136cf6000830184612dc5565b92915050565b600060208201905081810360008301526136ef8184612e0d565b905092915050565b6000602082019050818103600083015261371081612e46565b9050919050565b6000602082019050818103600083015261373081612eac565b9050919050565b6000602082019050818103600083015261375081612f12565b9050919050565b6000602082019050818103600083015261377081612f52565b9050919050565b6000602082019050818103600083015261379081612fb8565b9050919050565b600060208201905081810360008301526137b08161301e565b9050919050565b600060208201905081810360008301526137d081613084565b9050919050565b600060208201905081810360008301526137f0816130ea565b9050919050565b6000602082019050818103600083015261381081613150565b9050919050565b6000602082019050818103600083015261383081613190565b9050919050565b60006020820190508181036000830152613850816131f6565b9050919050565b600060208201905081810360008301526138708161325c565b9050919050565b60006020820190508181036000830152613890816132c2565b9050919050565b600060208201905081810360008301526138b081613328565b9050919050565b600060208201905081810360008301526138d08161338e565b9050919050565b600060208201905081810360008301526138f0816133ce565b9050919050565b6000602082019050818103600083015261391081613434565b9050919050565b600060208201905081810360008301526139308161349a565b9050919050565b6000602082019050818103600083015261395081613500565b9050919050565b600060208201905061396c6000830184613575565b92915050565b60006040820190506139876000830185613575565b6139946020830184613575565b9392505050565b6000604051905081810181811067ffffffffffffffff821117156139c2576139c1613caa565b5b8060405250919050565b600067ffffffffffffffff8211156139e7576139e6613caa565b5b602082029050602081019050919050565b600067ffffffffffffffff821115613a1357613a12613caa565b5b602082029050602081019050919050565b600067ffffffffffffffff821115613a3f57613a3e613caa565b5b601f19601f8301169050602081019050919050565b6000819050602082019050919050565b600081519050919050565b600081519050919050565b600081519050919050565b6000602082019050919050565b600082825260208201905092915050565b600082825260208201905092915050565b600082825260208201905092915050565b6000613ad082613b85565b9150613adb83613b85565b9250827fffffffffffffffffffffffffffffffffffffffffffffffffffffffffffffffff03821115613b1057613b0f613c4c565b5b828201905092915050565b6000613b2682613b65565b9050919050565b60008115159050919050565b60007fffffffff0000000000000000000000000000000000000000000000000000000082169050919050565b600073ffffffffffffffffffffffffffffffffffffffff82169050919050565b6000819050919050565b82818337600083830152505050565b60005b83811015613bbc578082015181840152602081019050613ba1565b83811115613bcb576000848401525b50505050565b60006002820490506001821680613be957607f821691505b60208210811415613bfd57613bfc613c7b565b5b50919050565b6000613c0e82613b85565b91507fffffffffffffffffffffffffffffffffffffffffffffffffffffffffffffffff821415613c4157613c40613c4c565b5b600182019050919050565b7f4e487b7100000000000000000000000000000000000000000000000000000000600052601160045260246000fd5b7f4e487b7100000000000000000000000000000000000000000000000000000000600052602260045260246000fd5b7f4e487b7100000000000000000000000000000000000000000000000000000000600052604160045260246000fd5b6000601f19601f8301169050919050565b60008160e01c9050919050565b600060443d1015613d0757613daa565b60046000803e613d18600051613cea565b6308c379a08114613d295750613daa565b60405160043d036004823e80513d602482011167ffffffffffffffff82111715613d5557505050613daa565b808201805167ffffffffffffffff811115613d74575050505050613daa565b8060208301013d8501811115613d8f57505050505050613daa565b613d9882613cd9565b60208401016040528296505050505050505b90565b613db681613b1b565b8114613dc157600080fd5b50565b613dcd81613b2d565b8114613dd857600080fd5b50565b613de481613b39565b8114613def57600080fd5b50565b613dfb81613b85565b8114613e0657600080fd5b5056fe68747470733a2f2f7261772e67697468756275736572636f6e74656e742e636f6d2f5468652d576973652d4f72672f646f63756d656e742d6d6574612f6d61696e2f7b69647da264697066735822122048f0a86d770581cfe9c9696448f06715690551713e4308c2d845e17ac32f390064736f6c63430008000033",
  "immutableReferences": {},
  "source": "/*\n    * @dev Assume supply=1 everywhere when passing arguments.\n    * Sample bytes32: 0x6162636400000000000000000000000000000000000000000000000000000000\n*/\n\npragma solidity ^0.8.0;\n\n\nimport \"@openzeppelin/contracts-upgradeable/token/ERC1155/ERC1155Upgradeable.sol\";\nimport \"@openzeppelin/contracts-upgradeable/security/PausableUpgradeable.sol\";\nimport \"@openzeppelin/contracts-upgradeable/access/OwnableUpgradeable.sol\";\nimport \"@openzeppelin/contracts-upgradeable/proxy/utils/Initializable.sol\";\n\n\ncontract OnecV2 is Initializable,PausableUpgradeable, OwnableUpgradeable, ERC1155Upgradeable {\n\n    uint public totalRegisteredAssets;\n\n    mapping(uint256 => bytes) private metadataHash;\n    \n    function initialize() public initializer {\n        ERC1155Upgradeable.__ERC1155_init(\"https://raw.githubusercontent.com/The-Wise-Org/document-meta/main/{id}\");\n        totalRegisteredAssets = 0;\n    }\n    \n    \n    /*\n     * @dev Mint Assets to the address of _holder.\n     * Requirements:\n     * Can only be called by the deployer of the smart contract.\n     */\n    function mintAsset(uint _supply, address _holder, uint256 _id, bytes memory _data) public {\n        require(metadataHash[_id].length == 0);\n        _mint(_holder, _id, _supply, _data);\n        totalRegisteredAssets++;\n    }\n\n    /*\n     *@dev Called before every token transfer, maps the metadataHash of an asset with the token/asset id  \n     */\n    function _beforeTokenTransfer(address _operator, address _from, address _to, uint256[] memory ids, uint256[] memory amount, bytes memory data) override internal {\n        metadataHash[ids[0]] = data;\n        require(!paused(), \"ERC1155Pausable: token transfer while paused\");\n    }\n\n    /*\n     * @dev returns the metaDataHash for the token/asset ID\n     */\n\n    function getTokenMetadataHash(uint256 _id) view public returns(string memory) {\n        return string(metadataHash[_id]);\n    }\n\n     /*\n      * @dev returns the baseURI.\n      * Doesn't depends on the token-id and returns same thing.\n      */\n    function getBaseURI(uint256 _id) view public returns(string memory) {\n        return super.uri(_id);\n    }\n\n     /*\n      * @dev Tranfers the asset to new address.\n      * Can be called by the asset holder.\n      */\n    function transfer(address _from,address _to, uint256 _id, uint256 _amount, bytes memory _data) public {\n        super.safeTransferFrom(_from, _to, _id, _amount, _data);\n    }\n\n    /*\n     * @dev pause the onec contract.\n     */\n    function makePause() public onlyOwner {\n        super._pause();\n    }\n\n    /*\n     * @dev un-pause the onec contract.\n     */\n    function makeUnpause() public onlyOwner{\n        super._unpause();\n    } \n\n    /*\n     * @dev Burns the token/asset with the given tokenid.\n     */\n    function burnAsset(address account,uint256 id,uint256 amount) public{\n        super._burn(account,id,amount);\n        metadataHash[id]=bytes(\"0x0\");\n    }\n    \n    /*\n     * @dev Sets approval to the operator to manage assets held by the caller of the function.\n     */\n    function setApproval(address _operator, bool _approved) public {\n        super.setApprovalForAll(_operator,_approved);\n    }\n\n    /*\n     * @dev Give status of the approval rights, if the operator can manage assets held by the account.\n     */\n    function isApproved(address account, address operator) public view returns(bool){\n        return super.isApprovedForAll(account,operator);\n    }\n    \n    /*\n     * @dev Gives the balance of a particular asset of given id held by an account.\n     */\n    function getBalance(address account, uint256 id) public view returns(uint256){\n        return super.balanceOf(account,id);\n    }\n    \n\n}",
  "sourcePath": "/home/hrishabh/Projects/core-contract/contracts/OnecV2.sol",
  "compiler": {
    "name": "solc",
    "version": "0.8.0+commit.c7dfd78e.Emscripten.clang"
  },
  "schemaVersion": "3.4.3",
  "updatedAt": "2021-08-25T16:13:16.464Z",
  "networkType": "ethereum",
  "devdoc": {
    "kind": "dev",
    "methods": {
      "balanceOf(address,uint256)": {
        "details": "See {IERC1155-balanceOf}. Requirements: - `account` cannot be the zero address."
      },
      "balanceOfBatch(address[],uint256[])": {
        "details": "See {IERC1155-balanceOfBatch}. Requirements: - `accounts` and `ids` must have the same length."
      },
      "isApprovedForAll(address,address)": {
        "details": "See {IERC1155-isApprovedForAll}."
      },
      "owner()": {
        "details": "Returns the address of the current owner."
      },
      "paused()": {
        "details": "Returns true if the contract is paused, and false otherwise."
      },
      "renounceOwnership()": {
        "details": "Leaves the contract without owner. It will not be possible to call `onlyOwner` functions anymore. Can only be called by the current owner. NOTE: Renouncing ownership will leave the contract without an owner, thereby removing any functionality that is only available to the owner."
      },
      "safeBatchTransferFrom(address,address,uint256[],uint256[],bytes)": {
        "details": "See {IERC1155-safeBatchTransferFrom}."
      },
      "safeTransferFrom(address,address,uint256,uint256,bytes)": {
        "details": "See {IERC1155-safeTransferFrom}."
      },
      "setApprovalForAll(address,bool)": {
        "details": "See {IERC1155-setApprovalForAll}."
      },
      "supportsInterface(bytes4)": {
        "details": "See {IERC165-supportsInterface}."
      },
      "transferOwnership(address)": {
        "details": "Transfers ownership of the contract to a new account (`newOwner`). Can only be called by the current owner."
      },
      "uri(uint256)": {
        "details": "See {IERC1155MetadataURI-uri}. This implementation returns the same URI for *all* token types. It relies on the token type ID substitution mechanism https://eips.ethereum.org/EIPS/eip-1155#metadata[defined in the EIP]. Clients calling this function must replace the `\\{id\\}` substring with the actual token type ID."
      }
    },
    "version": 1
  },
  "userdoc": {
    "kind": "user",
    "methods": {},
    "version": 1
  }
}