{
  "contractName": "Onec1155",
  "abi": [
    {
      "anonymous": false,
      "inputs": [
        {
          "indexed": true,
          "internalType": "address",
          "name": "account",
          "type": "address"
        },
        {
          "indexed": true,
          "internalType": "address",
          "name": "operator",
          "type": "address"
        },
        {
          "indexed": false,
          "internalType": "bool",
          "name": "approved",
          "type": "bool"
        }
      ],
      "name": "ApprovalForAll",
      "type": "event"
    },
    {
      "anonymous": false,
      "inputs": [
        {
          "indexed": true,
          "internalType": "address",
          "name": "previousOwner",
          "type": "address"
        },
        {
          "indexed": true,
          "internalType": "address",
          "name": "newOwner",
          "type": "address"
        }
      ],
      "name": "OwnershipTransferred",
      "type": "event"
    },
    {
      "anonymous": false,
      "inputs": [
        {
          "indexed": false,
          "internalType": "address",
          "name": "account",
          "type": "address"
        }
      ],
      "name": "Paused",
      "type": "event"
    },
    {
      "anonymous": false,
      "inputs": [
        {
          "indexed": true,
          "internalType": "address",
          "name": "operator",
          "type": "address"
        },
        {
          "indexed": true,
          "internalType": "address",
          "name": "from",
          "type": "address"
        },
        {
          "indexed": true,
          "internalType": "address",
          "name": "to",
          "type": "address"
        },
        {
          "indexed": false,
          "internalType": "uint256[]",
          "name": "ids",
          "type": "uint256[]"
        },
        {
          "indexed": false,
          "internalType": "uint256[]",
          "name": "values",
          "type": "uint256[]"
        }
      ],
      "name": "TransferBatch",
      "type": "event"
    },
    {
      "anonymous": false,
      "inputs": [
        {
          "indexed": true,
          "internalType": "address",
          "name": "operator",
          "type": "address"
        },
        {
          "indexed": true,
          "internalType": "address",
          "name": "from",
          "type": "address"
        },
        {
          "indexed": true,
          "internalType": "address",
          "name": "to",
          "type": "address"
        },
        {
          "indexed": false,
          "internalType": "uint256",
          "name": "id",
          "type": "uint256"
        },
        {
          "indexed": false,
          "internalType": "uint256",
          "name": "value",
          "type": "uint256"
        }
      ],
      "name": "TransferSingle",
      "type": "event"
    },
    {
      "anonymous": false,
      "inputs": [
        {
          "indexed": false,
          "internalType": "string",
          "name": "value",
          "type": "string"
        },
        {
          "indexed": true,
          "internalType": "uint256",
          "name": "id",
          "type": "uint256"
        }
      ],
      "name": "URI",
      "type": "event"
    },
    {
      "anonymous": false,
      "inputs": [
        {
          "indexed": false,
          "internalType": "address",
          "name": "account",
          "type": "address"
        }
      ],
      "name": "Unpaused",
      "type": "event"
    },
    {
      "anonymous": false,
      "inputs": [
        {
          "indexed": true,
          "internalType": "address",
          "name": "owner",
          "type": "address"
        },
        {
          "indexed": true,
          "internalType": "address",
          "name": "real",
          "type": "address"
        }
      ],
      "name": "dummyEvent",
      "type": "event"
    },
    {
      "inputs": [
        {
          "internalType": "address",
          "name": "account",
          "type": "address"
        },
        {
          "internalType": "uint256",
          "name": "id",
          "type": "uint256"
        }
      ],
      "name": "balanceOf",
      "outputs": [
        {
          "internalType": "uint256",
          "name": "",
          "type": "uint256"
        }
      ],
      "stateMutability": "view",
      "type": "function"
    },
    {
      "inputs": [
        {
          "internalType": "address[]",
          "name": "accounts",
          "type": "address[]"
        },
        {
          "internalType": "uint256[]",
          "name": "ids",
          "type": "uint256[]"
        }
      ],
      "name": "balanceOfBatch",
      "outputs": [
        {
          "internalType": "uint256[]",
          "name": "",
          "type": "uint256[]"
        }
      ],
      "stateMutability": "view",
      "type": "function"
    },
    {
      "inputs": [
        {
          "internalType": "address",
          "name": "account",
          "type": "address"
        },
        {
          "internalType": "address",
          "name": "operator",
          "type": "address"
        }
      ],
      "name": "isApprovedForAll",
      "outputs": [
        {
          "internalType": "bool",
          "name": "",
          "type": "bool"
        }
      ],
      "stateMutability": "view",
      "type": "function"
    },
    {
      "inputs": [],
      "name": "owner",
      "outputs": [
        {
          "internalType": "address",
          "name": "",
          "type": "address"
        }
      ],
      "stateMutability": "view",
      "type": "function"
    },
    {
      "inputs": [],
      "name": "paused",
      "outputs": [
        {
          "internalType": "bool",
          "name": "",
          "type": "bool"
        }
      ],
      "stateMutability": "view",
      "type": "function"
    },
    {
      "inputs": [],
      "name": "renounceOwnership",
      "outputs": [],
      "stateMutability": "nonpayable",
      "type": "function"
    },
    {
      "inputs": [
        {
          "internalType": "address",
          "name": "from",
          "type": "address"
        },
        {
          "internalType": "address",
          "name": "to",
          "type": "address"
        },
        {
          "internalType": "uint256[]",
          "name": "ids",
          "type": "uint256[]"
        },
        {
          "internalType": "uint256[]",
          "name": "amounts",
          "type": "uint256[]"
        },
        {
          "internalType": "bytes",
          "name": "data",
          "type": "bytes"
        }
      ],
      "name": "safeBatchTransferFrom",
      "outputs": [],
      "stateMutability": "nonpayable",
      "type": "function"
    },
    {
      "inputs": [
        {
          "internalType": "address",
          "name": "from",
          "type": "address"
        },
        {
          "internalType": "address",
          "name": "to",
          "type": "address"
        },
        {
          "internalType": "uint256",
          "name": "id",
          "type": "uint256"
        },
        {
          "internalType": "uint256",
          "name": "amount",
          "type": "uint256"
        },
        {
          "internalType": "bytes",
          "name": "data",
          "type": "bytes"
        }
      ],
      "name": "safeTransferFrom",
      "outputs": [],
      "stateMutability": "nonpayable",
      "type": "function"
    },
    {
      "inputs": [
        {
          "internalType": "address",
          "name": "operator",
          "type": "address"
        },
        {
          "internalType": "bool",
          "name": "approved",
          "type": "bool"
        }
      ],
      "name": "setApprovalForAll",
      "outputs": [],
      "stateMutability": "nonpayable",
      "type": "function"
    },
    {
      "inputs": [
        {
          "internalType": "bytes4",
          "name": "interfaceId",
          "type": "bytes4"
        }
      ],
      "name": "supportsInterface",
      "outputs": [
        {
          "internalType": "bool",
          "name": "",
          "type": "bool"
        }
      ],
      "stateMutability": "view",
      "type": "function"
    },
    {
      "inputs": [
        {
          "internalType": "address",
          "name": "newOwner",
          "type": "address"
        }
      ],
      "name": "transferOwnership",
      "outputs": [],
      "stateMutability": "nonpayable",
      "type": "function"
    },
    {
      "inputs": [
        {
          "internalType": "string",
          "name": "_baseURI",
          "type": "string"
        },
        {
          "internalType": "string",
          "name": "_contractMetadata",
          "type": "string"
        }
      ],
      "name": "initialize",
      "outputs": [],
      "stateMutability": "nonpayable",
      "type": "function"
    },
    {
      "inputs": [
        {
          "internalType": "address",
          "name": "_newOwner",
          "type": "address"
        }
      ],
      "name": "transferOwn",
      "outputs": [],
      "stateMutability": "nonpayable",
      "type": "function"
    },
    {
      "inputs": [],
      "name": "contractURI",
      "outputs": [
        {
          "internalType": "string",
          "name": "",
          "type": "string"
        }
      ],
      "stateMutability": "view",
      "type": "function"
    },
    {
      "inputs": [
        {
          "internalType": "string",
          "name": "_metadata",
          "type": "string"
        }
      ],
      "name": "setContractMetadata",
      "outputs": [],
      "stateMutability": "nonpayable",
      "type": "function"
    },
    {
      "inputs": [
        {
          "internalType": "uint256",
          "name": "_supply",
          "type": "uint256"
        },
        {
          "internalType": "address",
          "name": "_holder",
          "type": "address"
        },
        {
          "internalType": "bytes",
          "name": "_data",
          "type": "bytes"
        }
      ],
      "name": "mintNFT",
      "outputs": [],
      "stateMutability": "nonpayable",
      "type": "function"
    },
    {
      "inputs": [
        {
          "internalType": "uint256",
          "name": "_supply",
          "type": "uint256"
        },
        {
          "internalType": "address",
          "name": "_holder",
          "type": "address"
        },
        {
          "internalType": "bytes",
          "name": "_data",
          "type": "bytes"
        },
        {
          "internalType": "uint256",
          "name": "_parentTokenId",
          "type": "uint256"
        }
      ],
      "name": "mintRefNFT",
      "outputs": [],
      "stateMutability": "nonpayable",
      "type": "function"
    },
    {
      "inputs": [
        {
          "internalType": "uint256",
          "name": "_supply",
          "type": "uint256"
        },
        {
          "internalType": "address",
          "name": "_holder",
          "type": "address"
        },
        {
          "internalType": "bytes",
          "name": "_data",
          "type": "bytes"
        }
      ],
      "name": "batchMintNFT",
      "outputs": [],
      "stateMutability": "nonpayable",
      "type": "function"
    },
    {
      "inputs": [
        {
          "internalType": "uint256",
          "name": "_supply",
          "type": "uint256"
        },
        {
          "internalType": "address",
          "name": "_holder",
          "type": "address"
        },
        {
          "internalType": "bytes",
          "name": "_data",
          "type": "bytes"
        },
        {
          "internalType": "uint256",
          "name": "_parentTokenId",
          "type": "uint256"
        }
      ],
      "name": "batchMintRefNFT",
      "outputs": [],
      "stateMutability": "nonpayable",
      "type": "function"
    },
    {
      "inputs": [
        {
          "internalType": "uint256",
          "name": "_id",
          "type": "uint256"
        }
      ],
      "name": "getReferences",
      "outputs": [
        {
          "internalType": "uint256[]",
          "name": "",
          "type": "uint256[]"
        }
      ],
      "stateMutability": "view",
      "type": "function"
    },
    {
      "inputs": [
        {
          "internalType": "uint256",
          "name": "_id",
          "type": "uint256"
        }
      ],
      "name": "getTokenMetadataHash",
      "outputs": [
        {
          "internalType": "string",
          "name": "",
          "type": "string"
        }
      ],
      "stateMutability": "view",
      "type": "function"
    },
    {
      "inputs": [
        {
          "internalType": "uint256",
          "name": "_id",
          "type": "uint256"
        }
      ],
      "name": "getBaseURI",
      "outputs": [
        {
          "internalType": "string",
          "name": "",
          "type": "string"
        }
      ],
      "stateMutability": "view",
      "type": "function"
    },
    {
      "inputs": [
        {
          "internalType": "string",
          "name": "_baseURI",
          "type": "string"
        }
      ],
      "name": "setBaseURI",
      "outputs": [],
      "stateMutability": "nonpayable",
      "type": "function"
    },
    {
      "inputs": [
        {
          "internalType": "uint256",
          "name": "_id",
          "type": "uint256"
        }
      ],
      "name": "uri",
      "outputs": [
        {
          "internalType": "string",
          "name": "",
          "type": "string"
        }
      ],
      "stateMutability": "view",
      "type": "function"
    },
    {
      "inputs": [
        {
          "internalType": "address",
          "name": "_from",
          "type": "address"
        },
        {
          "internalType": "address",
          "name": "_to",
          "type": "address"
        },
        {
          "internalType": "uint256",
          "name": "_id",
          "type": "uint256"
        },
        {
          "internalType": "uint256",
          "name": "_amount",
          "type": "uint256"
        },
        {
          "internalType": "bytes",
          "name": "_data",
          "type": "bytes"
        }
      ],
      "name": "transfer",
      "outputs": [],
      "stateMutability": "nonpayable",
      "type": "function"
    },
    {
      "inputs": [
        {
          "internalType": "address",
          "name": "_from",
          "type": "address"
        },
        {
          "internalType": "address",
          "name": "_to",
          "type": "address"
        },
        {
          "internalType": "uint256[]",
          "name": "_ids",
          "type": "uint256[]"
        },
        {
          "internalType": "uint256[]",
          "name": "_amounts",
          "type": "uint256[]"
        },
        {
          "internalType": "bytes",
          "name": "_data",
          "type": "bytes"
        }
      ],
      "name": "batchTransfer",
      "outputs": [],
      "stateMutability": "nonpayable",
      "type": "function"
    },
    {
      "inputs": [],
      "name": "makePause",
      "outputs": [],
      "stateMutability": "nonpayable",
      "type": "function"
    },
    {
      "inputs": [],
      "name": "makeUnpause",
      "outputs": [],
      "stateMutability": "nonpayable",
      "type": "function"
    },
    {
      "inputs": [
        {
          "internalType": "address",
          "name": "account",
          "type": "address"
        },
        {
          "internalType": "uint256",
          "name": "id",
          "type": "uint256"
        },
        {
          "internalType": "uint256",
          "name": "amount",
          "type": "uint256"
        }
      ],
      "name": "burnNFT",
      "outputs": [],
      "stateMutability": "nonpayable",
      "type": "function"
    },
    {
      "inputs": [
        {
          "internalType": "address",
          "name": "_operator",
          "type": "address"
        },
        {
          "internalType": "bool",
          "name": "_approved",
          "type": "bool"
        }
      ],
      "name": "setApproval",
      "outputs": [],
      "stateMutability": "nonpayable",
      "type": "function"
    },
    {
      "inputs": [
        {
          "internalType": "address",
          "name": "account",
          "type": "address"
        },
        {
          "internalType": "address",
          "name": "operator",
          "type": "address"
        }
      ],
      "name": "isApproved",
      "outputs": [
        {
          "internalType": "bool",
          "name": "",
          "type": "bool"
        }
      ],
      "stateMutability": "view",
      "type": "function"
    },
    {
      "inputs": [
        {
          "internalType": "address",
          "name": "account",
          "type": "address"
        },
        {
          "internalType": "uint256",
          "name": "id",
          "type": "uint256"
        }
      ],
      "name": "getBalance",
      "outputs": [
        {
          "internalType": "uint256",
          "name": "",
          "type": "uint256"
        }
      ],
      "stateMutability": "view",
      "type": "function"
    },
    {
      "inputs": [],
      "name": "getTotalMintedNFT",
      "outputs": [
        {
          "internalType": "uint256",
          "name": "",
          "type": "uint256"
        }
      ],
      "stateMutability": "view",
      "type": "function"
    }
  ],
  "bytecode": "0x608060405234801561001057600080fd5b5061569280620000216000396000f3fe608060405234801561001057600080fd5b50600436106101fa5760003560e01c8063837c59621161011a578063c92c9f14116100ad578063e985e9c51161007c578063e985e9c514610595578063f102ffe5146105c5578063f242432a146105e1578063f2fde38b146105fd578063fce5503714610619576101fa565b8063c92c9f1414610521578063cef8cb871461053d578063db9b71701461055b578063e8a3d48514610577576101fa565b8063a22cb465116100e9578063a22cb465146104af578063a389783e146104cb578063a90205a3146104fb578063b2cf2f1614610505576101fa565b8063837c59621461043b57806386838fb61461046b5780638da5cb5b146104755780639435a58714610493576101fa565b80634cd88b76116101925780635c975abb116101615780635c975abb146103c75780636877444f146103e5578063715018a614610401578063733763981461040b576101fa565b80634cd88b76146103435780634e1273f41461035f5780635374cf781461038f57806355f804b3146103ab576101fa565b80631cc509fd116101ce5780631cc509fd146102ab5780632b04e840146102c75780632eb2c2d6146102f75780633cfc7ae214610313576101fa565b8062fdd58e146101ff57806301ffc9a71461022f5780630e89341c1461025f578063127217d61461028f575b600080fd5b610219600480360381019061021491906141a2565b610635565b604051610226919061517a565b60405180910390f35b61024960048036038101906102449190614299565b6106ff565b6040516102569190614e9d565b60405180910390f35b61027960048036038101906102749190614398565b6107e1565b6040516102869190614eb8565b60405180910390f35b6102a960048036038101906102a491906140d7565b610863565b005b6102c560048036038101906102c091906141de565b610877565b005b6102e160048036038101906102dc91906141a2565b610960565b6040516102ee919061517a565b60405180910390f35b610311600480360381019061030c9190614018565b610974565b005b61032d60048036038101906103289190614398565b610a15565b60405161033a9190614e44565b60405180910390f35b61035d6004803603810190610358919061432c565b610a80565b005b6103796004803603810190610374919061422d565b610b93565b6040516103869190614e44565b60405180910390f35b6103a960048036038101906103a491906143c1565b610d44565b005b6103c560048036038101906103c091906142eb565b610deb565b005b6103cf610e73565b6040516103dc9190614e9d565b60405180910390f35b6103ff60048036038101906103fa9190614428565b610e8a565b005b610409610fb2565b005b61042560048036038101906104209190614398565b61103a565b6040516104329190614eb8565b60405180910390f35b61045560048036038101906104509190614398565b61104c565b6040516104629190614eb8565b60405180910390f35b6104736110f1565b005b61047d611177565b60405161048a9190614d67565b60405180910390f35b6104ad60048036038101906104a89190613f8a565b6111a1565b005b6104c960048036038101906104c49190614166565b61127b565b005b6104e560048036038101906104e09190613fdc565b6113fc565b6040516104f29190614e9d565b60405180910390f35b610503611410565b005b61051f600480360381019061051a9190614018565b611496565b005b61053b60048036038101906105369190614428565b6114aa565b005b61054561179b565b604051610552919061517a565b60405180910390f35b61057560048036038101906105709190614166565b6117a5565b005b61057f61182f565b60405161058c9190614eb8565b60405180910390f35b6105af60048036038101906105aa9190613fdc565b6118c1565b6040516105bc9190614e9d565b60405180910390f35b6105df60048036038101906105da91906143c1565b611955565b005b6105fb60048036038101906105f691906140d7565b611b9d565b005b61061760048036038101906106129190613f8a565b611c3e565b005b610633600480360381019061062e91906142eb565b611d36565b005b60008073ffffffffffffffffffffffffffffffffffffffff168373ffffffffffffffffffffffffffffffffffffffff1614156106a6576040517f08c379a000000000000000000000000000000000000000000000000000000000815260040161069d90614f5a565b60405180910390fd5b60c9600083815260200190815260200160002060008473ffffffffffffffffffffffffffffffffffffffff1673ffffffffffffffffffffffffffffffffffffffff16815260200190815260200160002054905092915050565b60007fd9b67a26000000000000000000000000000000000000000000000000000000007bffffffffffffffffffffffffffffffffffffffffffffffffffffffff1916827bffffffffffffffffffffffffffffffffffffffffffffffffffffffff191614806107ca57507f0e89341c000000000000000000000000000000000000000000000000000000007bffffffffffffffffffffffffffffffffffffffffffffffffffffffff1916827bffffffffffffffffffffffffffffffffffffffffffffffffffffffff1916145b806107da57506107d982611dcc565b5b9050919050565b60606107eb61179b565b82111561082d576040517f08c379a000000000000000000000000000000000000000000000000000000000815260040161082490614ffa565b60405180910390fd5b60006108388361103a565b905060006108458461104c565b905061085a8183611e3690919063ffffffff16565b92505050919050565b6108708585858585611b9d565b5050505050565b61087f61208f565b73ffffffffffffffffffffffffffffffffffffffff1661089d611177565b73ffffffffffffffffffffffffffffffffffffffff16146108f3576040517f08c379a00000000000000000000000000000000000000000000000000000000081526004016108ea906150da565b60405180910390fd5b6108fe838383612097565b6040518060400160405280600381526020017f307830000000000000000000000000000000000000000000000000000000000081525060fc6000848152602001908152602001600020908051906020019061095a929190613be7565b50505050565b600061096c8383610635565b905092915050565b61097c61208f565b73ffffffffffffffffffffffffffffffffffffffff168573ffffffffffffffffffffffffffffffffffffffff1614806109c257506109c1856109bc61208f565b6118c1565b5b610a01576040517f08c379a00000000000000000000000000000000000000000000000000000000081526004016109f89061505a565b60405180910390fd5b610a0e85858585856122b6565b5050505050565b606060fd6000838152602001908152602001600020805480602002602001604051908101604052809291908181526020018280548015610a7457602002820191906000526020600020905b815481526020019060010190808311610a60575b50505050509050919050565b600060019054906101000a900460ff1680610aa6575060008054906101000a900460ff16155b610ae5576040517f08c379a0000000000000000000000000000000000000000000000000000000008152600401610adc9061507a565b60405180910390fd5b60008060019054906101000a900460ff161590508015610b35576001600060016101000a81548160ff02191690831515021790555060016000806101000a81548160ff0219169083151502179055505b610b3e83612619565b610b4661270c565b610b4e6127f5565b600060fb819055508160fe9080519060200190610b6c929190613c6d565b508015610b8e5760008060016101000a81548160ff0219169083151502179055505b505050565b60608151835114610bd9576040517f08c379a0000000000000000000000000000000000000000000000000000000008152600401610bd09061511a565b60405180910390fd5b6000835167ffffffffffffffff811115610c1c577f4e487b7100000000000000000000000000000000000000000000000000000000600052604160045260246000fd5b604051908082528060200260200182016040528015610c4a5781602001602082028036833780820191505090505b50905060005b8451811015610d3957610ce3858281518110610c95577f4e487b7100000000000000000000000000000000000000000000000000000000600052603260045260246000fd5b6020026020010151858381518110610cd6577f4e487b7100000000000000000000000000000000000000000000000000000000600052603260045260246000fd5b6020026020010151610635565b828281518110610d1c577f4e487b7100000000000000000000000000000000000000000000000000000000600052603260045260246000fd5b60200260200101818152505080610d3290615456565b9050610c50565b508091505092915050565b610d4c61208f565b73ffffffffffffffffffffffffffffffffffffffff16610d6a611177565b73ffffffffffffffffffffffffffffffffffffffff1614610dc0576040517f08c379a0000000000000000000000000000000000000000000000000000000008152600401610db7906150da565b60405180910390fd5b610dce8260fb5485846128de565b60fb6000815480929190610de190615456565b9190505550505050565b610df361208f565b73ffffffffffffffffffffffffffffffffffffffff16610e11611177565b73ffffffffffffffffffffffffffffffffffffffff1614610e67576040517f08c379a0000000000000000000000000000000000000000000000000000000008152600401610e5e906150da565b60405180910390fd5b610e7081612a75565b50565b6000603360009054906101000a900460ff16905090565b610e9261208f565b73ffffffffffffffffffffffffffffffffffffffff16610eb0611177565b73ffffffffffffffffffffffffffffffffffffffff1614610f06576040517f08c379a0000000000000000000000000000000000000000000000000000000008152600401610efd906150da565b60405180910390fd5b60fb548110610f4a576040517f08c379a0000000000000000000000000000000000000000000000000000000008152600401610f4190614f1a565b60405180910390fd5b610f588360fb5486856128de565b60fd600082815260200190815260200160002060fb54908060018154018082558091505060019003906000526020600020016000909190919091505560fb6000815480929190610fa790615456565b919050555050505050565b610fba61208f565b73ffffffffffffffffffffffffffffffffffffffff16610fd8611177565b73ffffffffffffffffffffffffffffffffffffffff161461102e576040517f08c379a0000000000000000000000000000000000000000000000000000000008152600401611025906150da565b60405180910390fd5b6110386000612a8f565b565b606061104582612b55565b9050919050565b606060fc6000838152602001908152602001600020805461106c90615424565b80601f016020809104026020016040519081016040528092919081815260200182805461109890615424565b80156110e55780601f106110ba576101008083540402835291602001916110e5565b820191906000526020600020905b8154815290600101906020018083116110c857829003601f168201915b50505050509050919050565b6110f961208f565b73ffffffffffffffffffffffffffffffffffffffff16611117611177565b73ffffffffffffffffffffffffffffffffffffffff161461116d576040517f08c379a0000000000000000000000000000000000000000000000000000000008152600401611164906150da565b60405180910390fd5b611175612be9565b565b6000606560009054906101000a900473ffffffffffffffffffffffffffffffffffffffff16905090565b3073ffffffffffffffffffffffffffffffffffffffff16638da5cb5b6040518163ffffffff1660e01b815260040160206040518083038186803b1580156111e757600080fd5b505afa1580156111fb573d6000803e3d6000fd5b505050506040513d601f19601f8201168201806040525081019061121f9190613fb3565b73ffffffffffffffffffffffffffffffffffffffff163373ffffffffffffffffffffffffffffffffffffffff167f2b9e5d76382db4489c92cddfddcc312fd6a663ff0bffac3bd5d79ca62028af5e60405160405180910390a350565b8173ffffffffffffffffffffffffffffffffffffffff1661129a61208f565b73ffffffffffffffffffffffffffffffffffffffff1614156112f1576040517f08c379a00000000000000000000000000000000000000000000000000000000081526004016112e8906150fa565b60405180910390fd5b8060ca60006112fe61208f565b73ffffffffffffffffffffffffffffffffffffffff1673ffffffffffffffffffffffffffffffffffffffff16815260200190815260200160002060008473ffffffffffffffffffffffffffffffffffffffff1673ffffffffffffffffffffffffffffffffffffffff16815260200190815260200160002060006101000a81548160ff0219169083151502179055508173ffffffffffffffffffffffffffffffffffffffff166113ab61208f565b73ffffffffffffffffffffffffffffffffffffffff167f17307eab39ab6107e8899845ad3d59bd9653f200f220920489ca2b5937696c31836040516113f09190614e9d565b60405180910390a35050565b600061140883836118c1565b905092915050565b61141861208f565b73ffffffffffffffffffffffffffffffffffffffff16611436611177565b73ffffffffffffffffffffffffffffffffffffffff161461148c576040517f08c379a0000000000000000000000000000000000000000000000000000000008152600401611483906150da565b60405180910390fd5b611494612c8b565b565b6114a38585858585610974565b5050505050565b6114b261208f565b73ffffffffffffffffffffffffffffffffffffffff166114d0611177565b73ffffffffffffffffffffffffffffffffffffffff1614611526576040517f08c379a000000000000000000000000000000000000000000000000000000000815260040161151d906150da565b60405180910390fd5b60fb54811061153457600080fd5b60008467ffffffffffffffff811115611576577f4e487b7100000000000000000000000000000000000000000000000000000000600052604160045260246000fd5b6040519080825280602002602001820160405280156115a45781602001602082028036833780820191505090505b50905060008567ffffffffffffffff8111156115e9577f4e487b7100000000000000000000000000000000000000000000000000000000600052604160045260246000fd5b6040519080825280602002602001820160405280156116175781602001602082028036833780820191505090505b50905060005b868110156116d2578060fb546116339190615318565b83828151811061166c577f4e487b7100000000000000000000000000000000000000000000000000000000600052603260045260246000fd5b60200260200101818152505060018282815181106116b3577f4e487b7100000000000000000000000000000000000000000000000000000000600052603260045260246000fd5b60200260200101818152505080806116ca90615456565b91505061161d565b506116df85838387612d2e565b815160fb60008282546116f29190615318565b9250508190555060005b82518110156117925760fd6000858152602001908152602001600020838281518110611751577f4e487b7100000000000000000000000000000000000000000000000000000000600052603260045260246000fd5b60200260200101519080600181540180825580915050600190039060005260206000200160009091909190915055808061178a90615456565b9150506116fc565b50505050505050565b600060fb54905090565b6117ad61208f565b73ffffffffffffffffffffffffffffffffffffffff166117cb611177565b73ffffffffffffffffffffffffffffffffffffffff1614611821576040517f08c379a0000000000000000000000000000000000000000000000000000000008152600401611818906150da565b60405180910390fd5b61182b828261127b565b5050565b606060fe805461183e90615424565b80601f016020809104026020016040519081016040528092919081815260200182805461186a90615424565b80156118b75780601f1061188c576101008083540402835291602001916118b7565b820191906000526020600020905b81548152906001019060200180831161189a57829003601f168201915b5050505050905090565b600060ca60008473ffffffffffffffffffffffffffffffffffffffff1673ffffffffffffffffffffffffffffffffffffffff16815260200190815260200160002060008373ffffffffffffffffffffffffffffffffffffffff1673ffffffffffffffffffffffffffffffffffffffff16815260200190815260200160002060009054906101000a900460ff16905092915050565b61195d61208f565b73ffffffffffffffffffffffffffffffffffffffff1661197b611177565b73ffffffffffffffffffffffffffffffffffffffff16146119d1576040517f08c379a00000000000000000000000000000000000000000000000000000000081526004016119c8906150da565b60405180910390fd5b60008367ffffffffffffffff811115611a13577f4e487b7100000000000000000000000000000000000000000000000000000000600052604160045260246000fd5b604051908082528060200260200182016040528015611a415781602001602082028036833780820191505090505b50905060008467ffffffffffffffff811115611a86577f4e487b7100000000000000000000000000000000000000000000000000000000600052604160045260246000fd5b604051908082528060200260200182016040528015611ab45781602001602082028036833780820191505090505b50905060005b85811015611b6f578060fb54611ad09190615318565b838281518110611b09577f4e487b7100000000000000000000000000000000000000000000000000000000600052603260045260246000fd5b6020026020010181815250506001828281518110611b50577f4e487b7100000000000000000000000000000000000000000000000000000000600052603260045260246000fd5b6020026020010181815250508080611b6790615456565b915050611aba565b50611b7c84838386612d2e565b815160fb6000828254611b8f9190615318565b925050819055505050505050565b611ba561208f565b73ffffffffffffffffffffffffffffffffffffffff168573ffffffffffffffffffffffffffffffffffffffff161480611beb5750611bea85611be561208f565b6118c1565b5b611c2a576040517f08c379a0000000000000000000000000000000000000000000000000000000008152600401611c2190614fda565b60405180910390fd5b611c378585858585612f99565b5050505050565b611c4661208f565b73ffffffffffffffffffffffffffffffffffffffff16611c64611177565b73ffffffffffffffffffffffffffffffffffffffff1614611cba576040517f08c379a0000000000000000000000000000000000000000000000000000000008152600401611cb1906150da565b60405180910390fd5b600073ffffffffffffffffffffffffffffffffffffffff168173ffffffffffffffffffffffffffffffffffffffff161415611d2a576040517f08c379a0000000000000000000000000000000000000000000000000000000008152600401611d2190614f7a565b60405180910390fd5b611d3381612a8f565b50565b611d3e61208f565b73ffffffffffffffffffffffffffffffffffffffff16611d5c611177565b73ffffffffffffffffffffffffffffffffffffffff1614611db2576040517f08c379a0000000000000000000000000000000000000000000000000000000008152600401611da9906150da565b60405180910390fd5b8060fe9080519060200190611dc8929190613c6d565b5050565b60007f01ffc9a7000000000000000000000000000000000000000000000000000000007bffffffffffffffffffffffffffffffffffffffffffffffffffffffff1916827bffffffffffffffffffffffffffffffffffffffffffffffffffffffff1916149050919050565b606060008390506000839050600081518351611e529190615318565b67ffffffffffffffff811115611e91577f4e487b7100000000000000000000000000000000000000000000000000000000600052604160045260246000fd5b6040519080825280601f01601f191660200182016040528015611ec35781602001600182028036833780820191505090505b5090506000819050600080600091505b8551821015611fa757858281518110611f15577f4e487b7100000000000000000000000000000000000000000000000000000000600052603260045260246000fd5b602001015160f81c60f81b838280611f2c90615456565b935081518110611f65577f4e487b7100000000000000000000000000000000000000000000000000000000600052603260045260246000fd5b60200101907effffffffffffffffffffffffffffffffffffffffffffffffffffffffffffff1916908160001a9053508180611f9f90615456565b925050611ed3565b600091505b845182101561208057848281518110611fee577f4e487b7100000000000000000000000000000000000000000000000000000000600052603260045260246000fd5b602001015160f81c60f81b83828061200590615456565b93508151811061203e577f4e487b7100000000000000000000000000000000000000000000000000000000600052603260045260246000fd5b60200101907effffffffffffffffffffffffffffffffffffffffffffffffffffffffffffff1916908160001a905350818061207890615456565b925050611fac565b82965050505050505092915050565b600033905090565b600073ffffffffffffffffffffffffffffffffffffffff168373ffffffffffffffffffffffffffffffffffffffff161415612107576040517f08c379a00000000000000000000000000000000000000000000000000000000081526004016120fe9061509a565b60405180910390fd5b600061211161208f565b9050612141818560006121238761321e565b61212c8761321e565b604051806020016040528060008152506132e4565b600060c9600085815260200190815260200160002060008673ffffffffffffffffffffffffffffffffffffffff1673ffffffffffffffffffffffffffffffffffffffff168152602001908152602001600020549050828110156121d9576040517f08c379a00000000000000000000000000000000000000000000000000000000081526004016121d090614f9a565b60405180910390fd5b82810360c9600086815260200190815260200160002060008773ffffffffffffffffffffffffffffffffffffffff1673ffffffffffffffffffffffffffffffffffffffff16815260200190815260200160002081905550600073ffffffffffffffffffffffffffffffffffffffff168573ffffffffffffffffffffffffffffffffffffffff168373ffffffffffffffffffffffffffffffffffffffff167fc3d58168c5ae7397731d063d5bbf3d657854427343f4c083240f7aacaa2d0f6287876040516122a7929190615195565b60405180910390a45050505050565b81518351146122fa576040517f08c379a00000000000000000000000000000000000000000000000000000000081526004016122f19061513a565b60405180910390fd5b600073ffffffffffffffffffffffffffffffffffffffff168473ffffffffffffffffffffffffffffffffffffffff16141561236a576040517f08c379a00000000000000000000000000000000000000000000000000000000081526004016123619061503a565b60405180910390fd5b600061237461208f565b90506123848187878787876132e4565b60005b84518110156125845760008582815181106123cb577f4e487b7100000000000000000000000000000000000000000000000000000000600052603260045260246000fd5b602002602001015190506000858381518110612410577f4e487b7100000000000000000000000000000000000000000000000000000000600052603260045260246000fd5b60200260200101519050600060c9600084815260200190815260200160002060008b73ffffffffffffffffffffffffffffffffffffffff1673ffffffffffffffffffffffffffffffffffffffff168152602001908152602001600020549050818110156124b2576040517f08c379a00000000000000000000000000000000000000000000000000000000081526004016124a9906150ba565b60405180910390fd5b81810360c9600085815260200190815260200160002060008c73ffffffffffffffffffffffffffffffffffffffff1673ffffffffffffffffffffffffffffffffffffffff168152602001908152602001600020819055508160c9600085815260200190815260200160002060008b73ffffffffffffffffffffffffffffffffffffffff1673ffffffffffffffffffffffffffffffffffffffff16815260200190815260200160002060008282546125699190615318565b925050819055505050508061257d90615456565b9050612387565b508473ffffffffffffffffffffffffffffffffffffffff168673ffffffffffffffffffffffffffffffffffffffff168273ffffffffffffffffffffffffffffffffffffffff167f4a39dc06d4c0dbc64b70af90fd698a233a518aa5d07e595d983b8c0526c8f7fb87876040516125fb929190614e66565b60405180910390a46126118187878787876133c2565b505050505050565b600060019054906101000a900460ff168061263f575060008054906101000a900460ff16155b61267e576040517f08c379a00000000000000000000000000000000000000000000000000000000081526004016126759061507a565b60405180910390fd5b60008060019054906101000a900460ff1615905080156126ce576001600060016101000a81548160ff02191690831515021790555060016000806101000a81548160ff0219169083151502179055505b6126d6613592565b6126de61366b565b6126e782613744565b80156127085760008060016101000a81548160ff0219169083151502179055505b5050565b600060019054906101000a900460ff1680612732575060008054906101000a900460ff16155b612771576040517f08c379a00000000000000000000000000000000000000000000000000000000081526004016127689061507a565b60405180910390fd5b60008060019054906101000a900460ff1615905080156127c1576001600060016101000a81548160ff02191690831515021790555060016000806101000a81548160ff0219169083151502179055505b6127c9613592565b6127d1613827565b80156127f25760008060016101000a81548160ff0219169083151502179055505b50565b600060019054906101000a900460ff168061281b575060008054906101000a900460ff16155b61285a576040517f08c379a00000000000000000000000000000000000000000000000000000000081526004016128519061507a565b60405180910390fd5b60008060019054906101000a900460ff1615905080156128aa576001600060016101000a81548160ff02191690831515021790555060016000806101000a81548160ff0219169083151502179055505b6128b2613592565b6128ba613910565b80156128db5760008060016101000a81548160ff0219169083151502179055505b50565b600073ffffffffffffffffffffffffffffffffffffffff168473ffffffffffffffffffffffffffffffffffffffff16141561294e576040517f08c379a00000000000000000000000000000000000000000000000000000000081526004016129459061515a565b60405180910390fd5b600061295861208f565b90506129798160008761296a8861321e565b6129738861321e565b876132e4565b8260c9600086815260200190815260200160002060008773ffffffffffffffffffffffffffffffffffffffff1673ffffffffffffffffffffffffffffffffffffffff16815260200190815260200160002060008282546129d99190615318565b925050819055508473ffffffffffffffffffffffffffffffffffffffff16600073ffffffffffffffffffffffffffffffffffffffff168273ffffffffffffffffffffffffffffffffffffffff167fc3d58168c5ae7397731d063d5bbf3d657854427343f4c083240f7aacaa2d0f628787604051612a57929190615195565b60405180910390a4612a6e81600087878787613a04565b5050505050565b8060cb9080519060200190612a8b929190613c6d565b5050565b6000606560009054906101000a900473ffffffffffffffffffffffffffffffffffffffff16905081606560006101000a81548173ffffffffffffffffffffffffffffffffffffffff021916908373ffffffffffffffffffffffffffffffffffffffff1602179055508173ffffffffffffffffffffffffffffffffffffffff168173ffffffffffffffffffffffffffffffffffffffff167f8be0079c531659141344cd1fd0a4f28419497f9722a3daafe3b4186f6b6457e060405160405180910390a35050565b606060cb8054612b6490615424565b80601f0160208091040260200160405190810160405280929190818152602001828054612b9090615424565b8015612bdd5780601f10612bb257610100808354040283529160200191612bdd565b820191906000526020600020905b815481529060010190602001808311612bc057829003601f168201915b50505050509050919050565b612bf1610e73565b612c30576040517f08c379a0000000000000000000000000000000000000000000000000000000008152600401612c2790614f3a565b60405180910390fd5b6000603360006101000a81548160ff0219169083151502179055507f5db9ee0a495bf2e6ff9c91a7834c1ba4fdd244a5e8aa4e537bd38aeae4b073aa612c7461208f565b604051612c819190614d67565b60405180910390a1565b612c93610e73565b15612cd3576040517f08c379a0000000000000000000000000000000000000000000000000000000008152600401612cca9061501a565b60405180910390fd5b6001603360006101000a81548160ff0219169083151502179055507f62e78cea01bee320cd4e420270b5ea74000d11b0c9f74754ebdbfc544b05a258612d1761208f565b604051612d249190614d67565b60405180910390a1565b600073ffffffffffffffffffffffffffffffffffffffff168473ffffffffffffffffffffffffffffffffffffffff161415612d9e576040517f08c379a0000000000000000000000000000000000000000000000000000000008152600401612d959061515a565b60405180910390fd5b8151835114612de2576040517f08c379a0000000000000000000000000000000000000000000000000000000008152600401612dd99061513a565b60405180910390fd5b6000612dec61208f565b9050612dfd816000878787876132e4565b60005b8451811015612f0357838181518110612e42577f4e487b7100000000000000000000000000000000000000000000000000000000600052603260045260246000fd5b602002602001015160c96000878481518110612e87577f4e487b7100000000000000000000000000000000000000000000000000000000600052603260045260246000fd5b6020026020010151815260200190815260200160002060008873ffffffffffffffffffffffffffffffffffffffff1673ffffffffffffffffffffffffffffffffffffffff1681526020019081526020016000206000828254612ee99190615318565b925050819055508080612efb90615456565b915050612e00565b508473ffffffffffffffffffffffffffffffffffffffff16600073ffffffffffffffffffffffffffffffffffffffff168273ffffffffffffffffffffffffffffffffffffffff167f4a39dc06d4c0dbc64b70af90fd698a233a518aa5d07e595d983b8c0526c8f7fb8787604051612f7b929190614e66565b60405180910390a4612f92816000878787876133c2565b5050505050565b600073ffffffffffffffffffffffffffffffffffffffff168473ffffffffffffffffffffffffffffffffffffffff161415613009576040517f08c379a00000000000000000000000000000000000000000000000000000000081526004016130009061503a565b60405180910390fd5b600061301361208f565b90506130338187876130248861321e565b61302d8861321e565b876132e4565b600060c9600086815260200190815260200160002060008873ffffffffffffffffffffffffffffffffffffffff1673ffffffffffffffffffffffffffffffffffffffff168152602001908152602001600020549050838110156130cb576040517f08c379a00000000000000000000000000000000000000000000000000000000081526004016130c2906150ba565b60405180910390fd5b83810360c9600087815260200190815260200160002060008973ffffffffffffffffffffffffffffffffffffffff1673ffffffffffffffffffffffffffffffffffffffff168152602001908152602001600020819055508360c9600087815260200190815260200160002060008873ffffffffffffffffffffffffffffffffffffffff1673ffffffffffffffffffffffffffffffffffffffff16815260200190815260200160002060008282546131829190615318565b925050819055508573ffffffffffffffffffffffffffffffffffffffff168773ffffffffffffffffffffffffffffffffffffffff168373ffffffffffffffffffffffffffffffffffffffff167fc3d58168c5ae7397731d063d5bbf3d657854427343f4c083240f7aacaa2d0f6288886040516131ff929190615195565b60405180910390a4613215828888888888613a04565b50505050505050565b60606000600167ffffffffffffffff811115613263577f4e487b7100000000000000000000000000000000000000000000000000000000600052604160045260246000fd5b6040519080825280602002602001820160405280156132915781602001602082028036833780820191505090505b50905082816000815181106132cf577f4e487b7100000000000000000000000000000000000000000000000000000000600052603260045260246000fd5b60200260200101818152505080915050919050565b60008351905060005b81811015613370578260fc6000878481518110613333577f4e487b7100000000000000000000000000000000000000000000000000000000600052603260045260246000fd5b60200260200101518152602001908152602001600020908051906020019061335c929190613be7565b50808061336890615456565b9150506132ed565b50613379610e73565b156133b9576040517f08c379a00000000000000000000000000000000000000000000000000000000081526004016133b090614fba565b60405180910390fd5b50505050505050565b6133e18473ffffffffffffffffffffffffffffffffffffffff16613bd4565b1561358a578373ffffffffffffffffffffffffffffffffffffffff1663bc197c8187878686866040518663ffffffff1660e01b8152600401613427959493929190614d82565b602060405180830381600087803b15801561344157600080fd5b505af192505050801561347257506040513d601f19601f8201168201806040525081019061346f91906142c2565b60015b6135015761347e61554a565b8061348957506134c6565b806040517f08c379a00000000000000000000000000000000000000000000000000000000081526004016134bd9190614eb8565b60405180910390fd5b6040517f08c379a00000000000000000000000000000000000000000000000000000000081526004016134f890614eda565b60405180910390fd5b63bc197c8160e01b7bffffffffffffffffffffffffffffffffffffffffffffffffffffffff1916817bffffffffffffffffffffffffffffffffffffffffffffffffffffffff191614613588576040517f08c379a000000000000000000000000000000000000000000000000000000000815260040161357f90614efa565b60405180910390fd5b505b505050505050565b600060019054906101000a900460ff16806135b8575060008054906101000a900460ff16155b6135f7576040517f08c379a00000000000000000000000000000000000000000000000000000000081526004016135ee9061507a565b60405180910390fd5b60008060019054906101000a900460ff161590508015613647576001600060016101000a81548160ff02191690831515021790555060016000806101000a81548160ff0219169083151502179055505b80156136685760008060016101000a81548160ff0219169083151502179055505b50565b600060019054906101000a900460ff1680613691575060008054906101000a900460ff16155b6136d0576040517f08c379a00000000000000000000000000000000000000000000000000000000081526004016136c79061507a565b60405180910390fd5b60008060019054906101000a900460ff161590508015613720576001600060016101000a81548160ff02191690831515021790555060016000806101000a81548160ff0219169083151502179055505b80156137415760008060016101000a81548160ff0219169083151502179055505b50565b600060019054906101000a900460ff168061376a575060008054906101000a900460ff16155b6137a9576040517f08c379a00000000000000000000000000000000000000000000000000000000081526004016137a09061507a565b60405180910390fd5b60008060019054906101000a900460ff1615905080156137f9576001600060016101000a81548160ff02191690831515021790555060016000806101000a81548160ff0219169083151502179055505b61380282612a75565b80156138235760008060016101000a81548160ff0219169083151502179055505b5050565b600060019054906101000a900460ff168061384d575060008054906101000a900460ff16155b61388c576040517f08c379a00000000000000000000000000000000000000000000000000000000081526004016138839061507a565b60405180910390fd5b60008060019054906101000a900460ff1615905080156138dc576001600060016101000a81548160ff02191690831515021790555060016000806101000a81548160ff0219169083151502179055505b6138ec6138e761208f565b612a8f565b801561390d5760008060016101000a81548160ff0219169083151502179055505b50565b600060019054906101000a900460ff1680613936575060008054906101000a900460ff16155b613975576040517f08c379a000000000000000000000000000000000000000000000000000000000815260040161396c9061507a565b60405180910390fd5b60008060019054906101000a900460ff1615905080156139c5576001600060016101000a81548160ff02191690831515021790555060016000806101000a81548160ff0219169083151502179055505b6000603360006101000a81548160ff0219169083151502179055508015613a015760008060016101000a81548160ff0219169083151502179055505b50565b613a238473ffffffffffffffffffffffffffffffffffffffff16613bd4565b15613bcc578373ffffffffffffffffffffffffffffffffffffffff1663f23a6e6187878686866040518663ffffffff1660e01b8152600401613a69959493929190614dea565b602060405180830381600087803b158015613a8357600080fd5b505af1925050508015613ab457506040513d601f19601f82011682018060405250810190613ab191906142c2565b60015b613b4357613ac061554a565b80613acb5750613b08565b806040517f08c379a0000000000000000000000000000000000000000000000000000000008152600401613aff9190614eb8565b60405180910390fd5b6040517f08c379a0000000000000000000000000000000000000000000000000000000008152600401613b3a90614eda565b60405180910390fd5b63f23a6e6160e01b7bffffffffffffffffffffffffffffffffffffffffffffffffffffffff1916817bffffffffffffffffffffffffffffffffffffffffffffffffffffffff191614613bca576040517f08c379a0000000000000000000000000000000000000000000000000000000008152600401613bc190614efa565b60405180910390fd5b505b505050505050565b600080823b905060008111915050919050565b828054613bf390615424565b90600052602060002090601f016020900481019282613c155760008555613c5c565b82601f10613c2e57805160ff1916838001178555613c5c565b82800160010185558215613c5c579182015b82811115613c5b578251825591602001919060010190613c40565b5b509050613c699190613cf3565b5090565b828054613c7990615424565b90600052602060002090601f016020900481019282613c9b5760008555613ce2565b82601f10613cb457805160ff1916838001178555613ce2565b82800160010185558215613ce2579182015b82811115613ce1578251825591602001919060010190613cc6565b5b509050613cef9190613cf3565b5090565b5b80821115613d0c576000816000905550600101613cf4565b5090565b6000613d23613d1e846151ef565b6151be565b90508083825260208201905082856020860282011115613d4257600080fd5b60005b85811015613d725781613d588882613e64565b845260208401935060208301925050600181019050613d45565b5050509392505050565b6000613d8f613d8a8461521b565b6151be565b90508083825260208201905082856020860282011115613dae57600080fd5b60005b85811015613dde5781613dc48882613f75565b845260208401935060208301925050600181019050613db1565b5050509392505050565b6000613dfb613df684615247565b6151be565b905082815260208101848484011115613e1357600080fd5b613e1e8482856153e2565b509392505050565b6000613e39613e3484615277565b6151be565b905082815260208101848484011115613e5157600080fd5b613e5c8482856153e2565b509392505050565b600081359050613e7381615600565b92915050565b600081519050613e8881615600565b92915050565b600082601f830112613e9f57600080fd5b8135613eaf848260208601613d10565b91505092915050565b600082601f830112613ec957600080fd5b8135613ed9848260208601613d7c565b91505092915050565b600081359050613ef181615617565b92915050565b600081359050613f068161562e565b92915050565b600081519050613f1b8161562e565b92915050565b600082601f830112613f3257600080fd5b8135613f42848260208601613de8565b91505092915050565b600082601f830112613f5c57600080fd5b8135613f6c848260208601613e26565b91505092915050565b600081359050613f8481615645565b92915050565b600060208284031215613f9c57600080fd5b6000613faa84828501613e64565b91505092915050565b600060208284031215613fc557600080fd5b6000613fd384828501613e79565b91505092915050565b60008060408385031215613fef57600080fd5b6000613ffd85828601613e64565b925050602061400e85828601613e64565b9150509250929050565b600080600080600060a0868803121561403057600080fd5b600061403e88828901613e64565b955050602061404f88828901613e64565b945050604086013567ffffffffffffffff81111561406c57600080fd5b61407888828901613eb8565b935050606086013567ffffffffffffffff81111561409557600080fd5b6140a188828901613eb8565b925050608086013567ffffffffffffffff8111156140be57600080fd5b6140ca88828901613f21565b9150509295509295909350565b600080600080600060a086880312156140ef57600080fd5b60006140fd88828901613e64565b955050602061410e88828901613e64565b945050604061411f88828901613f75565b935050606061413088828901613f75565b925050608086013567ffffffffffffffff81111561414d57600080fd5b61415988828901613f21565b9150509295509295909350565b6000806040838503121561417957600080fd5b600061418785828601613e64565b925050602061419885828601613ee2565b9150509250929050565b600080604083850312156141b557600080fd5b60006141c385828601613e64565b92505060206141d485828601613f75565b9150509250929050565b6000806000606084860312156141f357600080fd5b600061420186828701613e64565b935050602061421286828701613f75565b925050604061422386828701613f75565b9150509250925092565b6000806040838503121561424057600080fd5b600083013567ffffffffffffffff81111561425a57600080fd5b61426685828601613e8e565b925050602083013567ffffffffffffffff81111561428357600080fd5b61428f85828601613eb8565b9150509250929050565b6000602082840312156142ab57600080fd5b60006142b984828501613ef7565b91505092915050565b6000602082840312156142d457600080fd5b60006142e284828501613f0c565b91505092915050565b6000602082840312156142fd57600080fd5b600082013567ffffffffffffffff81111561431757600080fd5b61432384828501613f4b565b91505092915050565b6000806040838503121561433f57600080fd5b600083013567ffffffffffffffff81111561435957600080fd5b61436585828601613f4b565b925050602083013567ffffffffffffffff81111561438257600080fd5b61438e85828601613f4b565b9150509250929050565b6000602082840312156143aa57600080fd5b60006143b884828501613f75565b91505092915050565b6000806000606084860312156143d657600080fd5b60006143e486828701613f75565b93505060206143f586828701613e64565b925050604084013567ffffffffffffffff81111561441257600080fd5b61441e86828701613f21565b9150509250925092565b6000806000806080858703121561443e57600080fd5b600061444c87828801613f75565b945050602061445d87828801613e64565b935050604085013567ffffffffffffffff81111561447a57600080fd5b61448687828801613f21565b925050606061449787828801613f75565b91505092959194509250565b60006144af8383614d49565b60208301905092915050565b6144c48161536e565b82525050565b60006144d5826152b7565b6144df81856152e5565b93506144ea836152a7565b8060005b8381101561451b57815161450288826144a3565b975061450d836152d8565b9250506001810190506144ee565b5085935050505092915050565b61453181615380565b82525050565b6000614542826152c2565b61454c81856152f6565b935061455c8185602086016153f1565b6145658161552c565b840191505092915050565b600061457b826152cd565b6145858185615307565b93506145958185602086016153f1565b61459e8161552c565b840191505092915050565b60006145b6603483615307565b91507f455243313135353a207472616e7366657220746f206e6f6e204552433131353560008301527f526563656976657220696d706c656d656e7465720000000000000000000000006020830152604082019050919050565b600061461c602883615307565b91507f455243313135353a204552433131353552656365697665722072656a6563746560008301527f6420746f6b656e730000000000000000000000000000000000000000000000006020830152604082019050919050565b6000614682601c83615307565b91507f506172656e7420746f6b656e206964206973206e6f742076616c6964000000006000830152602082019050919050565b60006146c2601483615307565b91507f5061757361626c653a206e6f74207061757365640000000000000000000000006000830152602082019050919050565b6000614702602b83615307565b91507f455243313135353a2062616c616e636520717565727920666f7220746865207a60008301527f65726f20616464726573730000000000000000000000000000000000000000006020830152604082019050919050565b6000614768602683615307565b91507f4f776e61626c653a206e6577206f776e657220697320746865207a65726f206160008301527f64647265737300000000000000000000000000000000000000000000000000006020830152604082019050919050565b60006147ce602483615307565b91507f455243313135353a206275726e20616d6f756e7420657863656564732062616c60008301527f616e6365000000000000000000000000000000000000000000000000000000006020830152604082019050919050565b6000614834602c83615307565b91507f455243313135355061757361626c653a20746f6b656e207472616e736665722060008301527f7768696c652070617573656400000000000000000000000000000000000000006020830152604082019050919050565b600061489a602983615307565b91507f455243313135353a2063616c6c6572206973206e6f74206f776e6572206e6f7260008301527f20617070726f76656400000000000000000000000000000000000000000000006020830152604082019050919050565b6000614900601783615307565b91507f237572693a204e4f4e4558495354454e545f544f4b454e0000000000000000006000830152602082019050919050565b6000614940601083615307565b91507f5061757361626c653a20706175736564000000000000000000000000000000006000830152602082019050919050565b6000614980602583615307565b91507f455243313135353a207472616e7366657220746f20746865207a65726f20616460008301527f64726573730000000000000000000000000000000000000000000000000000006020830152604082019050919050565b60006149e6603283615307565b91507f455243313135353a207472616e736665722063616c6c6572206973206e6f742060008301527f6f776e6572206e6f7220617070726f76656400000000000000000000000000006020830152604082019050919050565b6000614a4c602e83615307565b91507f496e697469616c697a61626c653a20636f6e747261637420697320616c72656160008301527f647920696e697469616c697a65640000000000000000000000000000000000006020830152604082019050919050565b6000614ab2602383615307565b91507f455243313135353a206275726e2066726f6d20746865207a65726f206164647260008301527f65737300000000000000000000000000000000000000000000000000000000006020830152604082019050919050565b6000614b18602a83615307565b91507f455243313135353a20696e73756666696369656e742062616c616e636520666f60008301527f72207472616e73666572000000000000000000000000000000000000000000006020830152604082019050919050565b6000614b7e602083615307565b91507f4f776e61626c653a2063616c6c6572206973206e6f7420746865206f776e65726000830152602082019050919050565b6000614bbe602983615307565b91507f455243313135353a2073657474696e6720617070726f76616c2073746174757360008301527f20666f722073656c6600000000000000000000000000000000000000000000006020830152604082019050919050565b6000614c24602983615307565b91507f455243313135353a206163636f756e747320616e6420696473206c656e67746860008301527f206d69736d6174636800000000000000000000000000000000000000000000006020830152604082019050919050565b6000614c8a602883615307565b91507f455243313135353a2069647320616e6420616d6f756e7473206c656e6774682060008301527f6d69736d617463680000000000000000000000000000000000000000000000006020830152604082019050919050565b6000614cf0602183615307565b91507f455243313135353a206d696e7420746f20746865207a65726f2061646472657360008301527f73000000000000000000000000000000000000000000000000000000000000006020830152604082019050919050565b614d52816153d8565b82525050565b614d61816153d8565b82525050565b6000602082019050614d7c60008301846144bb565b92915050565b600060a082019050614d9760008301886144bb565b614da460208301876144bb565b8181036040830152614db681866144ca565b90508181036060830152614dca81856144ca565b90508181036080830152614dde8184614537565b90509695505050505050565b600060a082019050614dff60008301886144bb565b614e0c60208301876144bb565b614e196040830186614d58565b614e266060830185614d58565b8181036080830152614e388184614537565b90509695505050505050565b60006020820190508181036000830152614e5e81846144ca565b905092915050565b60006040820190508181036000830152614e8081856144ca565b90508181036020830152614e9481846144ca565b90509392505050565b6000602082019050614eb26000830184614528565b92915050565b60006020820190508181036000830152614ed28184614570565b905092915050565b60006020820190508181036000830152614ef3816145a9565b9050919050565b60006020820190508181036000830152614f138161460f565b9050919050565b60006020820190508181036000830152614f3381614675565b9050919050565b60006020820190508181036000830152614f53816146b5565b9050919050565b60006020820190508181036000830152614f73816146f5565b9050919050565b60006020820190508181036000830152614f938161475b565b9050919050565b60006020820190508181036000830152614fb3816147c1565b9050919050565b60006020820190508181036000830152614fd381614827565b9050919050565b60006020820190508181036000830152614ff38161488d565b9050919050565b60006020820190508181036000830152615013816148f3565b9050919050565b6000602082019050818103600083015261503381614933565b9050919050565b6000602082019050818103600083015261505381614973565b9050919050565b60006020820190508181036000830152615073816149d9565b9050919050565b6000602082019050818103600083015261509381614a3f565b9050919050565b600060208201905081810360008301526150b381614aa5565b9050919050565b600060208201905081810360008301526150d381614b0b565b9050919050565b600060208201905081810360008301526150f381614b71565b9050919050565b6000602082019050818103600083015261511381614bb1565b9050919050565b6000602082019050818103600083015261513381614c17565b9050919050565b6000602082019050818103600083015261515381614c7d565b9050919050565b6000602082019050818103600083015261517381614ce3565b9050919050565b600060208201905061518f6000830184614d58565b92915050565b60006040820190506151aa6000830185614d58565b6151b76020830184614d58565b9392505050565b6000604051905081810181811067ffffffffffffffff821117156151e5576151e46154fd565b5b8060405250919050565b600067ffffffffffffffff82111561520a576152096154fd565b5b602082029050602081019050919050565b600067ffffffffffffffff821115615236576152356154fd565b5b602082029050602081019050919050565b600067ffffffffffffffff821115615262576152616154fd565b5b601f19601f8301169050602081019050919050565b600067ffffffffffffffff821115615292576152916154fd565b5b601f19601f8301169050602081019050919050565b6000819050602082019050919050565b600081519050919050565b600081519050919050565b600081519050919050565b6000602082019050919050565b600082825260208201905092915050565b600082825260208201905092915050565b600082825260208201905092915050565b6000615323826153d8565b915061532e836153d8565b9250827fffffffffffffffffffffffffffffffffffffffffffffffffffffffffffffffff038211156153635761536261549f565b5b828201905092915050565b6000615379826153b8565b9050919050565b60008115159050919050565b60007fffffffff0000000000000000000000000000000000000000000000000000000082169050919050565b600073ffffffffffffffffffffffffffffffffffffffff82169050919050565b6000819050919050565b82818337600083830152505050565b60005b8381101561540f5780820151818401526020810190506153f4565b8381111561541e576000848401525b50505050565b6000600282049050600182168061543c57607f821691505b602082108114156154505761544f6154ce565b5b50919050565b6000615461826153d8565b91507fffffffffffffffffffffffffffffffffffffffffffffffffffffffffffffffff8214156154945761549361549f565b5b600182019050919050565b7f4e487b7100000000000000000000000000000000000000000000000000000000600052601160045260246000fd5b7f4e487b7100000000000000000000000000000000000000000000000000000000600052602260045260246000fd5b7f4e487b7100000000000000000000000000000000000000000000000000000000600052604160045260246000fd5b6000601f19601f8301169050919050565b60008160e01c9050919050565b600060443d101561555a576155fd565b60046000803e61556b60005161553d565b6308c379a0811461557c57506155fd565b60405160043d036004823e80513d602482011167ffffffffffffffff821117156155a8575050506155fd565b808201805167ffffffffffffffff8111156155c75750505050506155fd565b8060208301013d85018111156155e2575050505050506155fd565b6155eb8261552c565b60208401016040528296505050505050505b90565b6156098161536e565b811461561457600080fd5b50565b61562081615380565b811461562b57600080fd5b50565b6156378161538c565b811461564257600080fd5b50565b61564e816153d8565b811461565957600080fd5b5056fea2646970667358221220619872828f8ead431bb95b9203e6783b261302af13dde8deb410d882f88e5e1f64736f6c63430008000033",
  "immutableReferences": {},
  "source": "// SPDX-License-Identifier: MIT\npragma solidity ^0.8.0;\n\n\nimport \"@openzeppelin/contracts-upgradeable/token/ERC1155/ERC1155Upgradeable.sol\";\nimport \"@openzeppelin/contracts-upgradeable/security/PausableUpgradeable.sol\";\nimport \"@openzeppelin/contracts-upgradeable/access/OwnableUpgradeable.sol\";\nimport \"@openzeppelin/contracts-upgradeable/proxy/utils/Initializable.sol\";\nimport \"./strings.sol\";\n\ncontract Onec1155 is Initializable,PausableUpgradeable, OwnableUpgradeable, ERC1155Upgradeable {\n\n    using StringsNative for string;\n\n    uint private NFTCounter;\n    // token-id to metadata hash\n    mapping(uint256 => bytes) private metadataHash;\n    // tokenIds to refTokenIds\n    mapping(uint256 => uint256[]) private references;\n\n    string private contractMetadata;\n    event dummyEvent(address indexed owner,address indexed real);\n    function initialize(string memory _baseURI,string memory _contractMetadata) public initializer {\n        ERC1155Upgradeable.__ERC1155_init(_baseURI);\n        OwnableUpgradeable.__Ownable_init();\n        PausableUpgradeable.__Pausable_init();\n        NFTCounter = 0;\n        contractMetadata = _contractMetadata;\n    }\n\n    function transferOwn(address _newOwner) public {\n        emit dummyEvent(msg.sender,this.owner());\n       // this.transferOwnership(_newOwner);\n    }\n\n     /*\n     * @dev Returns the contract URI to make it trackable at OpenSea.\n     */   \n    function contractURI() public view returns (string memory) {\n        return contractMetadata;\n    }\n\n     /*\n     * @dev Sets the contract URI to make it trackable at OpenSea.\n     @params _metadata: The URL for the contract's OpenSea metadata.\n     */  \n    function setContractMetadata(string memory _metadata) public onlyOwner {\n        contractMetadata = _metadata;\n    }\n\n    /*\n     * @dev Mints NFT to the address of _holder.\n     * @params _supply:total no. of NFTs to mint\n     * _holder:public address of the account to mint NFT on that.\n     * _data: metadata hash of the NFT.\n     * Requirements:\n     * Can only be called by the deployer of the smart contract.\n     */\n    function mintNFT(uint _supply, address _holder, bytes memory _data) public onlyOwner{\n        _mint(_holder, NFTCounter, _supply, _data);\n        NFTCounter++;        \n    }\n\n    /*\n     * @dev Mints Reference  to the address of _holder.\n     * @params _supply: total no. of NFTs to mint\n     * _holder: public address of the account to mint NFT on that.\n     * _data: metadata hash of the NFT.\n     * _parentTokenId: the token id of the NFT of which you are minting the references.\n     * Requirements:\n     * Can only be called by the deployer of the smart contract.\n     */\n    function mintRefNFT(uint256 _supply, address _holder, bytes memory _data,uint256 _parentTokenId) public onlyOwner {\n        require(_parentTokenId < NFTCounter, \"Parent token id is not valid\");\n        _mint(_holder, NFTCounter, _supply, _data);\n        references[_parentTokenId].push(NFTCounter);\n        NFTCounter++;\n    }\n\n    /*\n     * @dev Batch-Mints NFTs to the address of _holder.\n     * @params _supply:total no. of NFT to mint\n     * _holder:public address of the account to mint NFT on that.\n     * _data metadata hash of the NFT.\n     * Requirements:\n     * Can only be called by the deployer of the smart contract.\n     */\n    function batchMintNFT(uint _supply,address _holder, bytes memory _data) public onlyOwner {\n        //create ids array\n        uint[] memory _ids = new uint[](_supply);\n        uint[] memory _amounts = new uint[](_supply);\n        for(uint i=0;i<_supply;i++){\n            _ids[i]=NFTCounter+i;\n            _amounts[i]=1;\n        }\n        //create amount array\n        _mintBatch(_holder,_ids,_amounts,_data);\n        NFTCounter+=_ids.length;\n    }\n\n    /*\n     * @dev Batch Mints Reference NFTs to the address of _holder.\n     * @params _supply:total no. of NFT to mint\n     * _holder:public address of the account to mint NFT on that.\n     * _data: metadata hash of the NFT.\n     * _parentTokenId: the token id of the NFT of which you are minting the references.\n     * Requirements:\n     * Can only be called by the deployer of the smart contract.\n     */\n    function batchMintRefNFT(uint _supply,address _holder, bytes memory _data,uint _parentTokenId) public onlyOwner {\n        //create ids array\n        require(_parentTokenId < NFTCounter);\n        uint[] memory _ids = new uint[](_supply);\n        uint[] memory _amounts = new uint[](_supply);\n        for(uint i=0;i<_supply;i++){\n            _ids[i]=NFTCounter+i;\n            _amounts[i]=1;\n        }\n        //create amount array\n        _mintBatch(_holder,_ids,_amounts,_data);\n        NFTCounter+=_ids.length;\n        for(uint i=0;i<_ids.length;i++){\n            references[_parentTokenId].push(_ids[i]);\n        }\n    }\n    \n    /*\n     * @dev return the list of token-ids of all the reference service tokens\n     */\n    function getReferences(uint _id) public view returns(uint256[] memory) {\n        return references[_id];    \n    }\n    \n    /*\n     *@dev Called before every token transfer, maps the metadataHash of a NFT with the token id  \n     */\n    function _beforeTokenTransfer(address _operator, address _from, address _to, uint256[] memory ids, uint256[] memory amount, bytes memory data) override internal {\n        //save the metadata hash\n        uint arrayLength = ids.length;\n        for (uint i=0; i<arrayLength; i++) {\n            metadataHash[ids[i]] = data;\n        }\n        require(!paused(), \"ERC1155Pausable: token transfer while paused\");\n    }\n\n    /*\n     * @dev returns the metaDataHash for the token-ID\n     */\n\n    function getTokenMetadataHash(uint256 _id) view public returns(string memory) {\n        return string(metadataHash[_id]);\n    }\n\n     /*\n      * @dev returns the baseURI.\n      * Doesn't depends on the token-id and returns same thing.\n      */\n    function getBaseURI(uint256 _id) view public returns(string memory) {\n        return super.uri(_id);\n    }\n\n    function setBaseURI(string memory _baseURI) public onlyOwner{\n        super._setURI(_baseURI);\n    }\n\n     /*\n      * @dev returns the tokenURI.\n      * Depends on the token-id and returns same thing.\n      */\n    function uri(uint256 _id) public view override returns (string memory) {\n        require(_id<=getTotalMintedNFT(), \"#uri: NONEXISTENT_TOKEN\");\n        string memory baseURI = getBaseURI(_id);\n        string memory hash = getTokenMetadataHash(_id);\n        return baseURI.concat(string(hash));\n    }\n\n     /*\n      * @dev Tranfers the NFT to new address.\n      * Can be called by the NFT holder.\n      */\n    function transfer(address _from,address _to, uint256 _id, uint256 _amount, bytes memory _data) public {\n        super.safeTransferFrom(_from, _to, _id, _amount, _data);\n    }\n\n     /*\n      * @dev Batch tranfers the services/NFTs to new address.\n      * Can be called by the NFT holder.\n      */\n    function batchTransfer(address _from,address _to,uint256[] memory _ids,uint256[] memory _amounts,bytes memory _data) public {\n        super.safeBatchTransferFrom(_from,_to,_ids,_amounts,_data);\n    }\n\n    /*\n     * @dev pause the onec contract.\n     */\n    function makePause() public onlyOwner {\n        super._pause();\n    }\n\n    /*\n     * @dev un-pause the onec contract.\n     */\n    function makeUnpause() public onlyOwner{\n        super._unpause();\n    } \n\n    /*\n     * @dev Burns the token with the given tokenid.\n     */\n    function burnNFT(address account,uint256 id,uint256 amount) public onlyOwner{\n        super._burn(account,id,amount);\n        metadataHash[id]=bytes(\"0x0\");\n    }\n    \n    /*\n     * @dev Sets approval to the operator to manage NFT held by the caller of the function.\n     */\n    function setApproval(address _operator, bool _approved) public onlyOwner{\n        super.setApprovalForAll(_operator,_approved);\n    }\n\n    /*\n     * @dev Give status of the approval rights, if the operator can manage NFT held by the account.\n     */\n    function isApproved(address account, address operator) public view returns(bool){\n        return super.isApprovedForAll(account,operator);\n    }\n    \n    /*\n     * @dev Gives the balance of a particular NFT of given id held by an account.\n     */\n    function getBalance(address account, uint256 id) public view returns(uint256){\n        return super.balanceOf(account,id);\n    }\n\n    /*    \n     * @dev Returns the total minted NFTs by the contract.\n     */\n    function getTotalMintedNFT() public view returns(uint256){\n        return NFTCounter;\n    }\n    \n\n}",
  "sourcePath": "/Users/hrishabhsharma/Projects/core-contract/contracts/Onec1155.sol",
  "compiler": {
    "name": "solc",
    "version": "0.8.0+commit.c7dfd78e.Emscripten.clang"
  },
  "schemaVersion": "3.4.3",
  "updatedAt": "2022-01-27T05:55:01.050Z",
  "devdoc": {
    "kind": "dev",
    "methods": {
      "balanceOf(address,uint256)": {
        "details": "See {IERC1155-balanceOf}. Requirements: - `account` cannot be the zero address."
      },
      "balanceOfBatch(address[],uint256[])": {
        "details": "See {IERC1155-balanceOfBatch}. Requirements: - `accounts` and `ids` must have the same length."
      },
      "isApprovedForAll(address,address)": {
        "details": "See {IERC1155-isApprovedForAll}."
      },
      "owner()": {
        "details": "Returns the address of the current owner."
      },
      "paused()": {
        "details": "Returns true if the contract is paused, and false otherwise."
      },
      "renounceOwnership()": {
        "details": "Leaves the contract without owner. It will not be possible to call `onlyOwner` functions anymore. Can only be called by the current owner. NOTE: Renouncing ownership will leave the contract without an owner, thereby removing any functionality that is only available to the owner."
      },
      "safeBatchTransferFrom(address,address,uint256[],uint256[],bytes)": {
        "details": "See {IERC1155-safeBatchTransferFrom}."
      },
      "safeTransferFrom(address,address,uint256,uint256,bytes)": {
        "details": "See {IERC1155-safeTransferFrom}."
      },
      "setApprovalForAll(address,bool)": {
        "details": "See {IERC1155-setApprovalForAll}."
      },
      "supportsInterface(bytes4)": {
        "details": "See {IERC165-supportsInterface}."
      },
      "transferOwnership(address)": {
        "details": "Transfers ownership of the contract to a new account (`newOwner`). Can only be called by the current owner."
      }
    },
    "version": 1
  },
  "userdoc": {
    "kind": "user",
    "methods": {},
    "version": 1
  }
}