{
  "contractName": "Onec721Factory",
  "abi": [
    {
      "inputs": [],
      "stateMutability": "nonpayable",
      "type": "constructor"
    },
    {
      "anonymous": false,
      "inputs": [
        {
          "indexed": true,
          "internalType": "address",
          "name": "previousOwner",
          "type": "address"
        },
        {
          "indexed": true,
          "internalType": "address",
          "name": "newOwner",
          "type": "address"
        }
      ],
      "name": "OwnershipTransferred",
      "type": "event"
    },
    {
      "inputs": [],
      "name": "owner",
      "outputs": [
        {
          "internalType": "address",
          "name": "",
          "type": "address"
        }
      ],
      "stateMutability": "view",
      "type": "function",
      "constant": true
    },
    {
      "inputs": [],
      "name": "renounceOwnership",
      "outputs": [],
      "stateMutability": "nonpayable",
      "type": "function"
    },
    {
      "inputs": [
        {
          "internalType": "address",
          "name": "newOwner",
          "type": "address"
        }
      ],
      "name": "transferOwnership",
      "outputs": [],
      "stateMutability": "nonpayable",
      "type": "function"
    },
    {
      "inputs": [
        {
          "internalType": "string",
          "name": "_name",
          "type": "string"
        },
        {
          "internalType": "string",
          "name": "_symbol",
          "type": "string"
        },
        {
          "internalType": "string",
          "name": "_baseURI",
          "type": "string"
        },
        {
          "internalType": "string",
          "name": "_contractMetadata",
          "type": "string"
        },
        {
          "internalType": "address",
          "name": "_newOwner",
          "type": "address"
        }
      ],
      "name": "createOnec721",
      "outputs": [
        {
          "internalType": "address",
          "name": "",
          "type": "address"
        }
      ],
      "stateMutability": "nonpayable",
      "type": "function"
    }
  ],
  "bytecode": "0x608060405234801561001057600080fd5b5061002d61002261009b60201b60201c565b6100a360201b60201c565b60405161003990610167565b604051809103906000f080158015610055573d6000803e3d6000fd5b50600160006101000a81548173ffffffffffffffffffffffffffffffffffffffff021916908373ffffffffffffffffffffffffffffffffffffffff160217905550610174565b600033905090565b60008060009054906101000a900473ffffffffffffffffffffffffffffffffffffffff169050816000806101000a81548173ffffffffffffffffffffffffffffffffffffffff021916908373ffffffffffffffffffffffffffffffffffffffff1602179055508173ffffffffffffffffffffffffffffffffffffffff168173ffffffffffffffffffffffffffffffffffffffff167f8be0079c531659141344cd1fd0a4f28419497f9722a3daafe3b4186f6b6457e060405160405180910390a35050565b61474080610cd283390190565b610b4f806101836000396000f3fe608060405234801561001057600080fd5b506004361061004c5760003560e01c8063715018a6146100515780638da5cb5b1461005b578063f2fde38b14610079578063f51303d614610095575b600080fd5b6100596100c5565b005b61006361014d565b60405161007091906108f5565b60405180910390f35b610093600480360381019061008e91906106c7565b610176565b005b6100af60048036038101906100aa91906106f0565b61026e565b6040516100bc91906108f5565b60405180910390f35b6100cd6104a9565b73ffffffffffffffffffffffffffffffffffffffff166100eb61014d565b73ffffffffffffffffffffffffffffffffffffffff1614610141576040517f08c379a0000000000000000000000000000000000000000000000000000000008152600401610138906109b1565b60405180910390fd5b61014b60006104b1565b565b60008060009054906101000a900473ffffffffffffffffffffffffffffffffffffffff16905090565b61017e6104a9565b73ffffffffffffffffffffffffffffffffffffffff1661019c61014d565b73ffffffffffffffffffffffffffffffffffffffff16146101f2576040517f08c379a00000000000000000000000000000000000000000000000000000000081526004016101e9906109b1565b60405180910390fd5b600073ffffffffffffffffffffffffffffffffffffffff168173ffffffffffffffffffffffffffffffffffffffff161415610262576040517f08c379a000000000000000000000000000000000000000000000000000000000815260040161025990610971565b60405180910390fd5b61026b816104b1565b50565b60006102786104a9565b73ffffffffffffffffffffffffffffffffffffffff1661029661014d565b73ffffffffffffffffffffffffffffffffffffffff16146102ec576040517f08c379a00000000000000000000000000000000000000000000000000000000081526004016102e3906109b1565b60405180910390fd5b600073ffffffffffffffffffffffffffffffffffffffff168273ffffffffffffffffffffffffffffffffffffffff16141561032657600080fd5b6000610353600160009054906101000a900473ffffffffffffffffffffffffffffffffffffffff16610575565b90508073ffffffffffffffffffffffffffffffffffffffff1663a523d35e888888886040518563ffffffff1660e01b81526004016103949493929190610910565b600060405180830381600087803b1580156103ae57600080fd5b505af11580156103c2573d6000803e3d6000fd5b505050508073ffffffffffffffffffffffffffffffffffffffff1663f2fde38b846040518263ffffffff1660e01b81526004016103ff91906108f5565b600060405180830381600087803b15801561041957600080fd5b505af115801561042d573d6000803e3d6000fd5b505050508073ffffffffffffffffffffffffffffffffffffffff16639435a587846040518263ffffffff1660e01b815260040161046a91906108f5565b600060405180830381600087803b15801561048457600080fd5b505af1158015610498573d6000803e3d6000fd5b505050508091505095945050505050565b600033905090565b60008060009054906101000a900473ffffffffffffffffffffffffffffffffffffffff169050816000806101000a81548173ffffffffffffffffffffffffffffffffffffffff021916908373ffffffffffffffffffffffffffffffffffffffff1602179055508173ffffffffffffffffffffffffffffffffffffffff168173ffffffffffffffffffffffffffffffffffffffff167f8be0079c531659141344cd1fd0a4f28419497f9722a3daafe3b4186f6b6457e060405160405180910390a35050565b60006040517f3d602d80600a3d3981f3363d3d373d3d3d363d7300000000000000000000000081528260601b60148201527f5af43d82803e903d91602b57fd5bf3000000000000000000000000000000000060288201526037816000f0915050600073ffffffffffffffffffffffffffffffffffffffff168173ffffffffffffffffffffffffffffffffffffffff161415610645576040517f08c379a000000000000000000000000000000000000000000000000000000000815260040161063c90610991565b60405180910390fd5b919050565b600061065d61065884610a02565b6109d1565b90508281526020810184848401111561067557600080fd5b610680848285610a80565b509392505050565b60008135905061069781610b02565b92915050565b600082601f8301126106ae57600080fd5b81356106be84826020860161064a565b91505092915050565b6000602082840312156106d957600080fd5b60006106e784828501610688565b91505092915050565b600080600080600060a0868803121561070857600080fd5b600086013567ffffffffffffffff81111561072257600080fd5b61072e8882890161069d565b955050602086013567ffffffffffffffff81111561074b57600080fd5b6107578882890161069d565b945050604086013567ffffffffffffffff81111561077457600080fd5b6107808882890161069d565b935050606086013567ffffffffffffffff81111561079d57600080fd5b6107a98882890161069d565b92505060806107ba88828901610688565b9150509295509295909350565b6107d081610a4e565b82525050565b60006107e182610a32565b6107eb8185610a3d565b93506107fb818560208601610a8f565b61080481610af1565b840191505092915050565b600061081c602683610a3d565b91507f4f776e61626c653a206e6577206f776e657220697320746865207a65726f206160008301527f64647265737300000000000000000000000000000000000000000000000000006020830152604082019050919050565b6000610882601683610a3d565b91507f455243313136373a20637265617465206661696c6564000000000000000000006000830152602082019050919050565b60006108c2602083610a3d565b91507f4f776e61626c653a2063616c6c6572206973206e6f7420746865206f776e65726000830152602082019050919050565b600060208201905061090a60008301846107c7565b92915050565b6000608082019050818103600083015261092a81876107d6565b9050818103602083015261093e81866107d6565b9050818103604083015261095281856107d6565b9050818103606083015261096681846107d6565b905095945050505050565b6000602082019050818103600083015261098a8161080f565b9050919050565b600060208201905081810360008301526109aa81610875565b9050919050565b600060208201905081810360008301526109ca816108b5565b9050919050565b6000604051905081810181811067ffffffffffffffff821117156109f8576109f7610ac2565b5b8060405250919050565b600067ffffffffffffffff821115610a1d57610a1c610ac2565b5b601f19601f8301169050602081019050919050565b600081519050919050565b600082825260208201905092915050565b6000610a5982610a60565b9050919050565b600073ffffffffffffffffffffffffffffffffffffffff82169050919050565b82818337600083830152505050565b60005b83811015610aad578082015181840152602081019050610a92565b83811115610abc576000848401525b50505050565b7f4e487b7100000000000000000000000000000000000000000000000000000000600052604160045260246000fd5b6000601f19601f8301169050919050565b610b0b81610a4e565b8114610b1657600080fd5b5056fea2646970667358221220aafcbd045b161bfd15f128fdd159c3c0b53cd7913037c8f949ce2ff5f19b4ed464736f6c63430008000033608060405234801561001057600080fd5b50614720806100206000396000f3fe608060405234801561001057600080fd5b50600436106101e55760003560e01c8063837c59621161010f578063b88d4fde116100a2578063e985e9c511610071578063e985e9c514610540578063edb1019014610570578063f2fde38b1461058c578063fce55037146105a8576101e5565b8063b88d4fde146104ba578063c87b56dd146104d6578063e83b022714610506578063e8a3d48514610522576101e5565b806395d89b41116100de57806395d89b411461045a578063a22cb46514610478578063a523d35e14610494578063a90205a3146104b0576101e5565b8063837c5962146103e657806386838fb6146104165780638da5cb5b146104205780639435a5871461043e576101e5565b80633b9a65fa116101875780636352211e116101565780636352211e1461035e57806370a082311461038e578063714c5398146103be578063715018a6146103dc576101e5565b80633b9a65fa146102d85780633cfc7ae2146102f457806342842e0e146103245780635c975abb14610340576101e5565b8063095ea7b3116101c3578063095ea7b31461026857806312a837b41461028457806323b872dd146102a05780632890e0d7146102bc576101e5565b806301ffc9a7146101ea57806306fdde031461021a578063081812fc14610238575b600080fd5b61020460048036038101906101ff9190613567565b6105c4565b604051610211919061403b565b60405180910390f35b6102226106a6565b60405161022f9190614056565b60405180910390f35b610252600480360381019061024d91906136bd565b610738565b60405161025f9190613fb2565b60405180910390f35b610282600480360381019061027d919061352b565b6107bd565b005b61029e600480360381019061029991906133b9565b6108d5565b005b6102ba60048036038101906102b5919061336a565b610963565b005b6102d660048036038101906102d191906136bd565b6109c3565b005b6102f260048036038101906102ed91906136e6565b610a8c565b005b61030e600480360381019061030991906136bd565b610b34565b60405161031b9190614019565b60405180910390f35b61033e6004803603810190610339919061336a565b610b9f565b005b610348610bbf565b604051610355919061403b565b60405180910390f35b610378600480360381019061037391906136bd565b610bd6565b6040516103859190613fb2565b60405180910390f35b6103a860048036038101906103a391906132dc565b610c88565b6040516103b59190614318565b60405180910390f35b6103c6610d40565b6040516103d39190614056565b60405180910390f35b6103e4610dd2565b005b61040060048036038101906103fb91906136bd565b610e5a565b60405161040d9190614056565b60405180910390f35b61041e610eff565b005b610428610f85565b6040516104359190613fb2565b60405180910390f35b610458600480360381019061045391906132dc565b610faf565b005b610462611089565b60405161046f9190614056565b60405180910390f35b610492600480360381019061048d9190613434565b61111b565b005b6104ae60048036038101906104a991906135fa565b61129c565b005b6104b86113c9565b005b6104d460048036038101906104cf91906133b9565b61144f565b005b6104f060048036038101906104eb91906136bd565b6114b1565b6040516104fd9190614056565b60405180910390f35b610520600480360381019061051b9190613470565b6115ad565b005b61052a61165e565b6040516105379190614056565b60405180910390f35b61055a6004803603810190610555919061332e565b6116f0565b604051610567919061403b565b60405180910390f35b61058a600480360381019061058591906134c4565b611784565b005b6105a660048036038101906105a191906132dc565b6118b6565b005b6105c260048036038101906105bd91906135b9565b6119ae565b005b60007f80ac58cd000000000000000000000000000000000000000000000000000000007bffffffffffffffffffffffffffffffffffffffffffffffffffffffff1916827bffffffffffffffffffffffffffffffffffffffffffffffffffffffff1916148061068f57507f5b5e139f000000000000000000000000000000000000000000000000000000007bffffffffffffffffffffffffffffffffffffffffffffffffffffffff1916827bffffffffffffffffffffffffffffffffffffffffffffffffffffffff1916145b8061069f575061069e82611a44565b5b9050919050565b606060c980546106b590614575565b80601f01602080910402602001604051908101604052809291908181526020018280546106e190614575565b801561072e5780601f106107035761010080835404028352916020019161072e565b820191906000526020600020905b81548152906001019060200180831161071157829003601f168201915b5050505050905090565b600061074382611aae565b610782576040517f08c379a000000000000000000000000000000000000000000000000000000000815260040161077990614258565b60405180910390fd5b60cd600083815260200190815260200160002060009054906101000a900473ffffffffffffffffffffffffffffffffffffffff169050919050565b60006107c882610bd6565b90508073ffffffffffffffffffffffffffffffffffffffff168373ffffffffffffffffffffffffffffffffffffffff161415610839576040517f08c379a0000000000000000000000000000000000000000000000000000000008152600401610830906142d8565b60405180910390fd5b8073ffffffffffffffffffffffffffffffffffffffff16610858611b1a565b73ffffffffffffffffffffffffffffffffffffffff161480610887575061088681610881611b1a565b6116f0565b5b6108c6576040517f08c379a00000000000000000000000000000000000000000000000000000000081526004016108bd906141b8565b60405180910390fd5b6108d08383611b22565b505050565b6108dd611b1a565b73ffffffffffffffffffffffffffffffffffffffff166108fb610f85565b73ffffffffffffffffffffffffffffffffffffffff1614610951576040517f08c379a000000000000000000000000000000000000000000000000000000000815260040161094890614278565b60405180910390fd5b61095d8484848461144f565b50505050565b61097461096e611b1a565b82611bdb565b6109b3576040517f08c379a00000000000000000000000000000000000000000000000000000000081526004016109aa906142f8565b60405180910390fd5b6109be838383611cb9565b505050565b6109cb611b1a565b73ffffffffffffffffffffffffffffffffffffffff166109e9610f85565b73ffffffffffffffffffffffffffffffffffffffff1614610a3f576040517f08c379a0000000000000000000000000000000000000000000000000000000008152600401610a3690614278565b60405180910390fd5b610a4881611f15565b610a8960fb546040518060400160405280600381526020017f3078300000000000000000000000000000000000000000000000000000000000815250610a8c565b50565b610a94611b1a565b73ffffffffffffffffffffffffffffffffffffffff16610ab2610f85565b73ffffffffffffffffffffffffffffffffffffffff1614610b08576040517f08c379a0000000000000000000000000000000000000000000000000000000008152600401610aff90614278565b60405180910390fd5b8060fc60008481526020019081526020016000209080519060200190610b2f929190613065565b505050565b606060fd6000838152602001908152602001600020805480602002602001604051908101604052809291908181526020018280548015610b9357602002820191906000526020600020905b815481526020019060010190808311610b7f575b50505050509050919050565b610bba8383836040518060200160405280600081525061144f565b505050565b6000603360009054906101000a900460ff16905090565b60008060cb600084815260200190815260200160002060009054906101000a900473ffffffffffffffffffffffffffffffffffffffff169050600073ffffffffffffffffffffffffffffffffffffffff168173ffffffffffffffffffffffffffffffffffffffff161415610c7f576040517f08c379a0000000000000000000000000000000000000000000000000000000008152600401610c76906141f8565b60405180910390fd5b80915050919050565b60008073ffffffffffffffffffffffffffffffffffffffff168273ffffffffffffffffffffffffffffffffffffffff161415610cf9576040517f08c379a0000000000000000000000000000000000000000000000000000000008152600401610cf0906141d8565b60405180910390fd5b60cc60008373ffffffffffffffffffffffffffffffffffffffff1673ffffffffffffffffffffffffffffffffffffffff168152602001908152602001600020549050919050565b606060ff8054610d4f90614575565b80601f0160208091040260200160405190810160405280929190818152602001828054610d7b90614575565b8015610dc85780601f10610d9d57610100808354040283529160200191610dc8565b820191906000526020600020905b815481529060010190602001808311610dab57829003601f168201915b5050505050905090565b610dda611b1a565b73ffffffffffffffffffffffffffffffffffffffff16610df8610f85565b73ffffffffffffffffffffffffffffffffffffffff1614610e4e576040517f08c379a0000000000000000000000000000000000000000000000000000000008152600401610e4590614278565b60405180910390fd5b610e586000612026565b565b606060fc60008381526020019081526020016000208054610e7a90614575565b80601f0160208091040260200160405190810160405280929190818152602001828054610ea690614575565b8015610ef35780601f10610ec857610100808354040283529160200191610ef3565b820191906000526020600020905b815481529060010190602001808311610ed657829003601f168201915b50505050509050919050565b610f07611b1a565b73ffffffffffffffffffffffffffffffffffffffff16610f25610f85565b73ffffffffffffffffffffffffffffffffffffffff1614610f7b576040517f08c379a0000000000000000000000000000000000000000000000000000000008152600401610f7290614278565b60405180910390fd5b610f836120ec565b565b6000606560009054906101000a900473ffffffffffffffffffffffffffffffffffffffff16905090565b3073ffffffffffffffffffffffffffffffffffffffff16638da5cb5b6040518163ffffffff1660e01b815260040160206040518083038186803b158015610ff557600080fd5b505afa158015611009573d6000803e3d6000fd5b505050506040513d601f19601f8201168201806040525081019061102d9190613305565b73ffffffffffffffffffffffffffffffffffffffff163373ffffffffffffffffffffffffffffffffffffffff167f2b9e5d76382db4489c92cddfddcc312fd6a663ff0bffac3bd5d79ca62028af5e60405160405180910390a350565b606060ca805461109890614575565b80601f01602080910402602001604051908101604052809291908181526020018280546110c490614575565b80156111115780601f106110e657610100808354040283529160200191611111565b820191906000526020600020905b8154815290600101906020018083116110f457829003601f168201915b5050505050905090565b611123611b1a565b73ffffffffffffffffffffffffffffffffffffffff168273ffffffffffffffffffffffffffffffffffffffff161415611191576040517f08c379a000000000000000000000000000000000000000000000000000000000815260040161118890614158565b60405180910390fd5b8060ce600061119e611b1a565b73ffffffffffffffffffffffffffffffffffffffff1673ffffffffffffffffffffffffffffffffffffffff16815260200190815260200160002060008473ffffffffffffffffffffffffffffffffffffffff1673ffffffffffffffffffffffffffffffffffffffff16815260200190815260200160002060006101000a81548160ff0219169083151502179055508173ffffffffffffffffffffffffffffffffffffffff1661124b611b1a565b73ffffffffffffffffffffffffffffffffffffffff167f17307eab39ab6107e8899845ad3d59bd9653f200f220920489ca2b5937696c3183604051611290919061403b565b60405180910390a35050565b600060019054906101000a900460ff16806112c2575060008054906101000a900460ff16155b611301576040517f08c379a00000000000000000000000000000000000000000000000000000000081526004016112f890614218565b60405180910390fd5b60008060019054906101000a900460ff161590508015611351576001600060016101000a81548160ff02191690831515021790555060016000806101000a81548160ff0219169083151502179055505b61135b858561218e565b611363612283565b61136b61236c565b600060fb819055508160fe90805190602001906113899291906130eb565b508260ff90805190602001906113a09291906130eb565b5080156113c25760008060016101000a81548160ff0219169083151502179055505b5050505050565b6113d1611b1a565b73ffffffffffffffffffffffffffffffffffffffff166113ef610f85565b73ffffffffffffffffffffffffffffffffffffffff1614611445576040517f08c379a000000000000000000000000000000000000000000000000000000000815260040161143c90614278565b60405180910390fd5b61144d612455565b565b61146061145a611b1a565b83611bdb565b61149f576040517f08c379a0000000000000000000000000000000000000000000000000000000008152600401611496906142f8565b60405180910390fd5b6114ab848484846124f8565b50505050565b60606114bc82611aae565b6114fb576040517f08c379a00000000000000000000000000000000000000000000000000000000081526004016114f2906142b8565b60405180910390fd5b600061150683610e5a565b90506115a58160ff805461151990614575565b80601f016020809104026020016040519081016040528092919081815260200182805461154590614575565b80156115925780601f1061156757610100808354040283529160200191611592565b820191906000526020600020905b81548152906001019060200180831161157557829003601f168201915b505050505061255490919063ffffffff16565b915050919050565b6115b5611b1a565b73ffffffffffffffffffffffffffffffffffffffff166115d3610f85565b73ffffffffffffffffffffffffffffffffffffffff1614611629576040517f08c379a000000000000000000000000000000000000000000000000000000000815260040161162090614278565b60405180910390fd5b6116368260fb54836127ad565b61164260fb5482610a8c565b60fb6000815480929190611655906145a7565b91905055505050565b606060fe805461166d90614575565b80601f016020809104026020016040519081016040528092919081815260200182805461169990614575565b80156116e65780601f106116bb576101008083540402835291602001916116e6565b820191906000526020600020905b8154815290600101906020018083116116c957829003601f168201915b5050505050905090565b600060ce60008473ffffffffffffffffffffffffffffffffffffffff1673ffffffffffffffffffffffffffffffffffffffff16815260200190815260200160002060008373ffffffffffffffffffffffffffffffffffffffff1673ffffffffffffffffffffffffffffffffffffffff16815260200190815260200160002060009054906101000a900460ff16905092915050565b61178c611b1a565b73ffffffffffffffffffffffffffffffffffffffff166117aa610f85565b73ffffffffffffffffffffffffffffffffffffffff1614611800576040517f08c379a00000000000000000000000000000000000000000000000000000000081526004016117f790614278565b60405180910390fd5b60fb548110611844576040517f08c379a000000000000000000000000000000000000000000000000000000000815260040161183b90614078565b60405180910390fd5b6118518360fb54846127ad565b60fd600082815260200190815260200160002060fb54908060018154018082558091505060019003906000526020600020016000909190919091505561189960fb5483610a8c565b60fb60008154809291906118ac906145a7565b9190505550505050565b6118be611b1a565b73ffffffffffffffffffffffffffffffffffffffff166118dc610f85565b73ffffffffffffffffffffffffffffffffffffffff1614611932576040517f08c379a000000000000000000000000000000000000000000000000000000000815260040161192990614278565b60405180910390fd5b600073ffffffffffffffffffffffffffffffffffffffff168173ffffffffffffffffffffffffffffffffffffffff1614156119a2576040517f08c379a0000000000000000000000000000000000000000000000000000000008152600401611999906140d8565b60405180910390fd5b6119ab81612026565b50565b6119b6611b1a565b73ffffffffffffffffffffffffffffffffffffffff166119d4610f85565b73ffffffffffffffffffffffffffffffffffffffff1614611a2a576040517f08c379a0000000000000000000000000000000000000000000000000000000008152600401611a2190614278565b60405180910390fd5b8060fe9080519060200190611a409291906130eb565b5050565b60007f01ffc9a7000000000000000000000000000000000000000000000000000000007bffffffffffffffffffffffffffffffffffffffffffffffffffffffff1916827bffffffffffffffffffffffffffffffffffffffffffffffffffffffff1916149050919050565b60008073ffffffffffffffffffffffffffffffffffffffff1660cb600084815260200190815260200160002060009054906101000a900473ffffffffffffffffffffffffffffffffffffffff1673ffffffffffffffffffffffffffffffffffffffff1614159050919050565b600033905090565b8160cd600083815260200190815260200160002060006101000a81548173ffffffffffffffffffffffffffffffffffffffff021916908373ffffffffffffffffffffffffffffffffffffffff160217905550808273ffffffffffffffffffffffffffffffffffffffff16611b9583610bd6565b73ffffffffffffffffffffffffffffffffffffffff167f8c5be1e5ebec7d5bd14f71427d1e84f3dd0314c0f7b2291e5b200ac8c7c3b92560405160405180910390a45050565b6000611be682611aae565b611c25576040517f08c379a0000000000000000000000000000000000000000000000000000000008152600401611c1c90614178565b60405180910390fd5b6000611c3083610bd6565b90508073ffffffffffffffffffffffffffffffffffffffff168473ffffffffffffffffffffffffffffffffffffffff161480611c9f57508373ffffffffffffffffffffffffffffffffffffffff16611c8784610738565b73ffffffffffffffffffffffffffffffffffffffff16145b80611cb05750611caf81856116f0565b5b91505092915050565b8273ffffffffffffffffffffffffffffffffffffffff16611cd982610bd6565b73ffffffffffffffffffffffffffffffffffffffff1614611d2f576040517f08c379a0000000000000000000000000000000000000000000000000000000008152600401611d2690614298565b60405180910390fd5b600073ffffffffffffffffffffffffffffffffffffffff168273ffffffffffffffffffffffffffffffffffffffff161415611d9f576040517f08c379a0000000000000000000000000000000000000000000000000000000008152600401611d9690614138565b60405180910390fd5b611daa838383612808565b611db5600082611b22565b600160cc60008573ffffffffffffffffffffffffffffffffffffffff1673ffffffffffffffffffffffffffffffffffffffff1681526020019081526020016000206000828254611e05919061448b565b92505081905550600160cc60008473ffffffffffffffffffffffffffffffffffffffff1673ffffffffffffffffffffffffffffffffffffffff1681526020019081526020016000206000828254611e5c9190614435565b925050819055508160cb600083815260200190815260200160002060006101000a81548173ffffffffffffffffffffffffffffffffffffffff021916908373ffffffffffffffffffffffffffffffffffffffff160217905550808273ffffffffffffffffffffffffffffffffffffffff168473ffffffffffffffffffffffffffffffffffffffff167fddf252ad1be2c89b69c2b068fc378daa952ba7f163c4a11628f55a4df523b3ef60405160405180910390a4505050565b6000611f2082610bd6565b9050611f2e81600084612808565b611f39600083611b22565b600160cc60008373ffffffffffffffffffffffffffffffffffffffff1673ffffffffffffffffffffffffffffffffffffffff1681526020019081526020016000206000828254611f89919061448b565b9250508190555060cb600083815260200190815260200160002060006101000a81549073ffffffffffffffffffffffffffffffffffffffff021916905581600073ffffffffffffffffffffffffffffffffffffffff168273ffffffffffffffffffffffffffffffffffffffff167fddf252ad1be2c89b69c2b068fc378daa952ba7f163c4a11628f55a4df523b3ef60405160405180910390a45050565b6000606560009054906101000a900473ffffffffffffffffffffffffffffffffffffffff16905081606560006101000a81548173ffffffffffffffffffffffffffffffffffffffff021916908373ffffffffffffffffffffffffffffffffffffffff1602179055508173ffffffffffffffffffffffffffffffffffffffff168173ffffffffffffffffffffffffffffffffffffffff167f8be0079c531659141344cd1fd0a4f28419497f9722a3daafe3b4186f6b6457e060405160405180910390a35050565b6120f4610bbf565b612133576040517f08c379a000000000000000000000000000000000000000000000000000000000815260040161212a90614098565b60405180910390fd5b6000603360006101000a81548160ff0219169083151502179055507f5db9ee0a495bf2e6ff9c91a7834c1ba4fdd244a5e8aa4e537bd38aeae4b073aa612177611b1a565b6040516121849190613fb2565b60405180910390a1565b600060019054906101000a900460ff16806121b4575060008054906101000a900460ff16155b6121f3576040517f08c379a00000000000000000000000000000000000000000000000000000000081526004016121ea90614218565b60405180910390fd5b60008060019054906101000a900460ff161590508015612243576001600060016101000a81548160ff02191690831515021790555060016000806101000a81548160ff0219169083151502179055505b61224b612855565b61225361292e565b61225d8383612a07565b801561227e5760008060016101000a81548160ff0219169083151502179055505b505050565b600060019054906101000a900460ff16806122a9575060008054906101000a900460ff16155b6122e8576040517f08c379a00000000000000000000000000000000000000000000000000000000081526004016122df90614218565b60405180910390fd5b60008060019054906101000a900460ff161590508015612338576001600060016101000a81548160ff02191690831515021790555060016000806101000a81548160ff0219169083151502179055505b612340612855565b612348612b10565b80156123695760008060016101000a81548160ff0219169083151502179055505b50565b600060019054906101000a900460ff1680612392575060008054906101000a900460ff16155b6123d1576040517f08c379a00000000000000000000000000000000000000000000000000000000081526004016123c890614218565b60405180910390fd5b60008060019054906101000a900460ff161590508015612421576001600060016101000a81548160ff02191690831515021790555060016000806101000a81548160ff0219169083151502179055505b612429612855565b612431612bf9565b80156124525760008060016101000a81548160ff0219169083151502179055505b50565b61245d610bbf565b1561249d576040517f08c379a000000000000000000000000000000000000000000000000000000000815260040161249490614198565b60405180910390fd5b6001603360006101000a81548160ff0219169083151502179055507f62e78cea01bee320cd4e420270b5ea74000d11b0c9f74754ebdbfc544b05a2586124e1611b1a565b6040516124ee9190613fb2565b60405180910390a1565b612503848484611cb9565b61250f84848484612ced565b61254e576040517f08c379a0000000000000000000000000000000000000000000000000000000008152600401612545906140b8565b60405180910390fd5b50505050565b6060600083905060008390506000815183516125709190614435565b67ffffffffffffffff8111156125af577f4e487b7100000000000000000000000000000000000000000000000000000000600052604160045260246000fd5b6040519080825280601f01601f1916602001820160405280156125e15781602001600182028036833780820191505090505b5090506000819050600080600091505b85518210156126c557858281518110612633577f4e487b7100000000000000000000000000000000000000000000000000000000600052603260045260246000fd5b602001015160f81c60f81b83828061264a906145a7565b935081518110612683577f4e487b7100000000000000000000000000000000000000000000000000000000600052603260045260246000fd5b60200101907effffffffffffffffffffffffffffffffffffffffffffffffffffffffffffff1916908160001a90535081806126bd906145a7565b9250506125f1565b600091505b845182101561279e5784828151811061270c577f4e487b7100000000000000000000000000000000000000000000000000000000600052603260045260246000fd5b602001015160f81c60f81b838280612723906145a7565b93508151811061275c577f4e487b7100000000000000000000000000000000000000000000000000000000600052603260045260246000fd5b60200101907effffffffffffffffffffffffffffffffffffffffffffffffffffffffffffff1916908160001a9053508180612796906145a7565b9250506126ca565b82965050505050505092915050565b6127b78383612e84565b6127c46000848484612ced565b612803576040517f08c379a00000000000000000000000000000000000000000000000000000000081526004016127fa906140b8565b60405180910390fd5b505050565b612810610bbf565b15612850576040517f08c379a000000000000000000000000000000000000000000000000000000000815260040161284790614118565b60405180910390fd5b505050565b600060019054906101000a900460ff168061287b575060008054906101000a900460ff16155b6128ba576040517f08c379a00000000000000000000000000000000000000000000000000000000081526004016128b190614218565b60405180910390fd5b60008060019054906101000a900460ff16159050801561290a576001600060016101000a81548160ff02191690831515021790555060016000806101000a81548160ff0219169083151502179055505b801561292b5760008060016101000a81548160ff0219169083151502179055505b50565b600060019054906101000a900460ff1680612954575060008054906101000a900460ff16155b612993576040517f08c379a000000000000000000000000000000000000000000000000000000000815260040161298a90614218565b60405180910390fd5b60008060019054906101000a900460ff1615905080156129e3576001600060016101000a81548160ff02191690831515021790555060016000806101000a81548160ff0219169083151502179055505b8015612a045760008060016101000a81548160ff0219169083151502179055505b50565b600060019054906101000a900460ff1680612a2d575060008054906101000a900460ff16155b612a6c576040517f08c379a0000000000000000000000000000000000000000000000000000000008152600401612a6390614218565b60405180910390fd5b60008060019054906101000a900460ff161590508015612abc576001600060016101000a81548160ff02191690831515021790555060016000806101000a81548160ff0219169083151502179055505b8260c99080519060200190612ad29291906130eb565b508160ca9080519060200190612ae99291906130eb565b508015612b0b5760008060016101000a81548160ff0219169083151502179055505b505050565b600060019054906101000a900460ff1680612b36575060008054906101000a900460ff16155b612b75576040517f08c379a0000000000000000000000000000000000000000000000000000000008152600401612b6c90614218565b60405180910390fd5b60008060019054906101000a900460ff161590508015612bc5576001600060016101000a81548160ff02191690831515021790555060016000806101000a81548160ff0219169083151502179055505b612bd5612bd0611b1a565b612026565b8015612bf65760008060016101000a81548160ff0219169083151502179055505b50565b600060019054906101000a900460ff1680612c1f575060008054906101000a900460ff16155b612c5e576040517f08c379a0000000000000000000000000000000000000000000000000000000008152600401612c5590614218565b60405180910390fd5b60008060019054906101000a900460ff161590508015612cae576001600060016101000a81548160ff02191690831515021790555060016000806101000a81548160ff0219169083151502179055505b6000603360006101000a81548160ff0219169083151502179055508015612cea5760008060016101000a81548160ff0219169083151502179055505b50565b6000612d0e8473ffffffffffffffffffffffffffffffffffffffff16613052565b15612e77578373ffffffffffffffffffffffffffffffffffffffff1663150b7a02612d37611b1a565b8786866040518563ffffffff1660e01b8152600401612d599493929190613fcd565b602060405180830381600087803b158015612d7357600080fd5b505af1925050508015612da457506040513d601f19601f82011682018060405250810190612da19190613590565b60015b612e27573d8060008114612dd4576040519150601f19603f3d011682016040523d82523d6000602084013e612dd9565b606091505b50600081511415612e1f576040517f08c379a0000000000000000000000000000000000000000000000000000000008152600401612e16906140b8565b60405180910390fd5b805181602001fd5b63150b7a0260e01b7bffffffffffffffffffffffffffffffffffffffffffffffffffffffff1916817bffffffffffffffffffffffffffffffffffffffffffffffffffffffff191614915050612e7c565b600190505b949350505050565b600073ffffffffffffffffffffffffffffffffffffffff168273ffffffffffffffffffffffffffffffffffffffff161415612ef4576040517f08c379a0000000000000000000000000000000000000000000000000000000008152600401612eeb90614238565b60405180910390fd5b612efd81611aae565b15612f3d576040517f08c379a0000000000000000000000000000000000000000000000000000000008152600401612f34906140f8565b60405180910390fd5b612f4960008383612808565b600160cc60008473ffffffffffffffffffffffffffffffffffffffff1673ffffffffffffffffffffffffffffffffffffffff1681526020019081526020016000206000828254612f999190614435565b925050819055508160cb600083815260200190815260200160002060006101000a81548173ffffffffffffffffffffffffffffffffffffffff021916908373ffffffffffffffffffffffffffffffffffffffff160217905550808273ffffffffffffffffffffffffffffffffffffffff16600073ffffffffffffffffffffffffffffffffffffffff167fddf252ad1be2c89b69c2b068fc378daa952ba7f163c4a11628f55a4df523b3ef60405160405180910390a45050565b600080823b905060008111915050919050565b82805461307190614575565b90600052602060002090601f01602090048101928261309357600085556130da565b82601f106130ac57805160ff19168380011785556130da565b828001600101855582156130da579182015b828111156130d95782518255916020019190600101906130be565b5b5090506130e79190613171565b5090565b8280546130f790614575565b90600052602060002090601f0160209004810192826131195760008555613160565b82601f1061313257805160ff1916838001178555613160565b82800160010185558215613160579182015b8281111561315f578251825591602001919060010190613144565b5b50905061316d9190613171565b5090565b5b8082111561318a576000816000905550600101613172565b5090565b60006131a161319c84614364565b614333565b9050828152602081018484840111156131b957600080fd5b6131c4848285614533565b509392505050565b60006131df6131da84614394565b614333565b9050828152602081018484840111156131f757600080fd5b613202848285614533565b509392505050565b6000813590506132198161468e565b92915050565b60008151905061322e8161468e565b92915050565b600081359050613243816146a5565b92915050565b600081359050613258816146bc565b92915050565b60008151905061326d816146bc565b92915050565b600082601f83011261328457600080fd5b813561329484826020860161318e565b91505092915050565b600082601f8301126132ae57600080fd5b81356132be8482602086016131cc565b91505092915050565b6000813590506132d6816146d3565b92915050565b6000602082840312156132ee57600080fd5b60006132fc8482850161320a565b91505092915050565b60006020828403121561331757600080fd5b60006133258482850161321f565b91505092915050565b6000806040838503121561334157600080fd5b600061334f8582860161320a565b92505060206133608582860161320a565b9150509250929050565b60008060006060848603121561337f57600080fd5b600061338d8682870161320a565b935050602061339e8682870161320a565b92505060406133af868287016132c7565b9150509250925092565b600080600080608085870312156133cf57600080fd5b60006133dd8782880161320a565b94505060206133ee8782880161320a565b93505060406133ff878288016132c7565b925050606085013567ffffffffffffffff81111561341c57600080fd5b61342887828801613273565b91505092959194509250565b6000806040838503121561344757600080fd5b60006134558582860161320a565b925050602061346685828601613234565b9150509250929050565b6000806040838503121561348357600080fd5b60006134918582860161320a565b925050602083013567ffffffffffffffff8111156134ae57600080fd5b6134ba85828601613273565b9150509250929050565b6000806000606084860312156134d957600080fd5b60006134e78682870161320a565b935050602084013567ffffffffffffffff81111561350457600080fd5b61351086828701613273565b9250506040613521868287016132c7565b9150509250925092565b6000806040838503121561353e57600080fd5b600061354c8582860161320a565b925050602061355d858286016132c7565b9150509250929050565b60006020828403121561357957600080fd5b600061358784828501613249565b91505092915050565b6000602082840312156135a257600080fd5b60006135b08482850161325e565b91505092915050565b6000602082840312156135cb57600080fd5b600082013567ffffffffffffffff8111156135e557600080fd5b6135f18482850161329d565b91505092915050565b6000806000806080858703121561361057600080fd5b600085013567ffffffffffffffff81111561362a57600080fd5b6136368782880161329d565b945050602085013567ffffffffffffffff81111561365357600080fd5b61365f8782880161329d565b935050604085013567ffffffffffffffff81111561367c57600080fd5b6136888782880161329d565b925050606085013567ffffffffffffffff8111156136a557600080fd5b6136b18782880161329d565b91505092959194509250565b6000602082840312156136cf57600080fd5b60006136dd848285016132c7565b91505092915050565b600080604083850312156136f957600080fd5b6000613707858286016132c7565b925050602083013567ffffffffffffffff81111561372457600080fd5b61373085828601613273565b9150509250929050565b60006137468383613f94565b60208301905092915050565b61375b816144bf565b82525050565b600061376c826143d4565b6137768185614402565b9350613781836143c4565b8060005b838110156137b2578151613799888261373a565b97506137a4836143f5565b925050600181019050613785565b5085935050505092915050565b6137c8816144d1565b82525050565b60006137d9826143df565b6137e38185614413565b93506137f3818560208601614542565b6137fc8161467d565b840191505092915050565b6000613812826143ea565b61381c8185614424565b935061382c818560208601614542565b6138358161467d565b840191505092915050565b600061384d601c83614424565b91507f506172656e7420746f6b656e206964206973206e6f742076616c6964000000006000830152602082019050919050565b600061388d601483614424565b91507f5061757361626c653a206e6f74207061757365640000000000000000000000006000830152602082019050919050565b60006138cd603283614424565b91507f4552433732313a207472616e7366657220746f206e6f6e20455243373231526560008301527f63656976657220696d706c656d656e74657200000000000000000000000000006020830152604082019050919050565b6000613933602683614424565b91507f4f776e61626c653a206e6577206f776e657220697320746865207a65726f206160008301527f64647265737300000000000000000000000000000000000000000000000000006020830152604082019050919050565b6000613999601c83614424565b91507f4552433732313a20746f6b656e20616c7265616479206d696e746564000000006000830152602082019050919050565b60006139d9602c83614424565b91507f455243313135355061757361626c653a20746f6b656e207472616e736665722060008301527f7768696c652070617573656400000000000000000000000000000000000000006020830152604082019050919050565b6000613a3f602483614424565b91507f4552433732313a207472616e7366657220746f20746865207a65726f2061646460008301527f72657373000000000000000000000000000000000000000000000000000000006020830152604082019050919050565b6000613aa5601983614424565b91507f4552433732313a20617070726f766520746f2063616c6c6572000000000000006000830152602082019050919050565b6000613ae5602c83614424565b91507f4552433732313a206f70657261746f7220717565727920666f72206e6f6e657860008301527f697374656e7420746f6b656e00000000000000000000000000000000000000006020830152604082019050919050565b6000613b4b601083614424565b91507f5061757361626c653a20706175736564000000000000000000000000000000006000830152602082019050919050565b6000613b8b603883614424565b91507f4552433732313a20617070726f76652063616c6c6572206973206e6f74206f7760008301527f6e6572206e6f7220617070726f76656420666f7220616c6c00000000000000006020830152604082019050919050565b6000613bf1602a83614424565b91507f4552433732313a2062616c616e636520717565727920666f7220746865207a6560008301527f726f2061646472657373000000000000000000000000000000000000000000006020830152604082019050919050565b6000613c57602983614424565b91507f4552433732313a206f776e657220717565727920666f72206e6f6e657869737460008301527f656e7420746f6b656e00000000000000000000000000000000000000000000006020830152604082019050919050565b6000613cbd602e83614424565b91507f496e697469616c697a61626c653a20636f6e747261637420697320616c72656160008301527f647920696e697469616c697a65640000000000000000000000000000000000006020830152604082019050919050565b6000613d23602083614424565b91507f4552433732313a206d696e7420746f20746865207a65726f20616464726573736000830152602082019050919050565b6000613d63602c83614424565b91507f4552433732313a20617070726f76656420717565727920666f72206e6f6e657860008301527f697374656e7420746f6b656e00000000000000000000000000000000000000006020830152604082019050919050565b6000613dc9602083614424565b91507f4f776e61626c653a2063616c6c6572206973206e6f7420746865206f776e65726000830152602082019050919050565b6000613e09602983614424565b91507f4552433732313a207472616e73666572206f6620746f6b656e2074686174206960008301527f73206e6f74206f776e00000000000000000000000000000000000000000000006020830152604082019050919050565b6000613e6f602f83614424565b91507f4552433732314d657461646174613a2055524920717565727920666f72206e6f60008301527f6e6578697374656e7420746f6b656e00000000000000000000000000000000006020830152604082019050919050565b6000613ed5602183614424565b91507f4552433732313a20617070726f76616c20746f2063757272656e74206f776e6560008301527f72000000000000000000000000000000000000000000000000000000000000006020830152604082019050919050565b6000613f3b603183614424565b91507f4552433732313a207472616e736665722063616c6c6572206973206e6f74206f60008301527f776e6572206e6f7220617070726f7665640000000000000000000000000000006020830152604082019050919050565b613f9d81614529565b82525050565b613fac81614529565b82525050565b6000602082019050613fc76000830184613752565b92915050565b6000608082019050613fe26000830187613752565b613fef6020830186613752565b613ffc6040830185613fa3565b818103606083015261400e81846137ce565b905095945050505050565b600060208201905081810360008301526140338184613761565b905092915050565b600060208201905061405060008301846137bf565b92915050565b600060208201905081810360008301526140708184613807565b905092915050565b6000602082019050818103600083015261409181613840565b9050919050565b600060208201905081810360008301526140b181613880565b9050919050565b600060208201905081810360008301526140d1816138c0565b9050919050565b600060208201905081810360008301526140f181613926565b9050919050565b600060208201905081810360008301526141118161398c565b9050919050565b60006020820190508181036000830152614131816139cc565b9050919050565b6000602082019050818103600083015261415181613a32565b9050919050565b6000602082019050818103600083015261417181613a98565b9050919050565b6000602082019050818103600083015261419181613ad8565b9050919050565b600060208201905081810360008301526141b181613b3e565b9050919050565b600060208201905081810360008301526141d181613b7e565b9050919050565b600060208201905081810360008301526141f181613be4565b9050919050565b6000602082019050818103600083015261421181613c4a565b9050919050565b6000602082019050818103600083015261423181613cb0565b9050919050565b6000602082019050818103600083015261425181613d16565b9050919050565b6000602082019050818103600083015261427181613d56565b9050919050565b6000602082019050818103600083015261429181613dbc565b9050919050565b600060208201905081810360008301526142b181613dfc565b9050919050565b600060208201905081810360008301526142d181613e62565b9050919050565b600060208201905081810360008301526142f181613ec8565b9050919050565b6000602082019050818103600083015261431181613f2e565b9050919050565b600060208201905061432d6000830184613fa3565b92915050565b6000604051905081810181811067ffffffffffffffff8211171561435a5761435961464e565b5b8060405250919050565b600067ffffffffffffffff82111561437f5761437e61464e565b5b601f19601f8301169050602081019050919050565b600067ffffffffffffffff8211156143af576143ae61464e565b5b601f19601f8301169050602081019050919050565b6000819050602082019050919050565b600081519050919050565b600081519050919050565b600081519050919050565b6000602082019050919050565b600082825260208201905092915050565b600082825260208201905092915050565b600082825260208201905092915050565b600061444082614529565b915061444b83614529565b9250827fffffffffffffffffffffffffffffffffffffffffffffffffffffffffffffffff038211156144805761447f6145f0565b5b828201905092915050565b600061449682614529565b91506144a183614529565b9250828210156144b4576144b36145f0565b5b828203905092915050565b60006144ca82614509565b9050919050565b60008115159050919050565b60007fffffffff0000000000000000000000000000000000000000000000000000000082169050919050565b600073ffffffffffffffffffffffffffffffffffffffff82169050919050565b6000819050919050565b82818337600083830152505050565b60005b83811015614560578082015181840152602081019050614545565b8381111561456f576000848401525b50505050565b6000600282049050600182168061458d57607f821691505b602082108114156145a1576145a061461f565b5b50919050565b60006145b282614529565b91507fffffffffffffffffffffffffffffffffffffffffffffffffffffffffffffffff8214156145e5576145e46145f0565b5b600182019050919050565b7f4e487b7100000000000000000000000000000000000000000000000000000000600052601160045260246000fd5b7f4e487b7100000000000000000000000000000000000000000000000000000000600052602260045260246000fd5b7f4e487b7100000000000000000000000000000000000000000000000000000000600052604160045260246000fd5b6000601f19601f8301169050919050565b614697816144bf565b81146146a257600080fd5b50565b6146ae816144d1565b81146146b957600080fd5b50565b6146c5816144dd565b81146146d057600080fd5b50565b6146dc81614529565b81146146e757600080fd5b5056fea26469706673582212205e7393e5e1598218d69a8bf822dcb6211d1ebc4f55cda19b68fb7c0a04d961d664736f6c63430008000033",
  "immutableReferences": {},
  "source": "// SPDX-License-Identifier: MIT\npragma solidity ^0.8.0;\n\nimport \"@openzeppelin/contracts/proxy/Clones.sol\";\nimport \"@openzeppelin/contracts/access/Ownable.sol\";\nimport \"./Onec721.sol\";\n\ncontract Onec721Factory is Ownable {\n\n    address private tokenImplementation;\n    constructor(){\n        tokenImplementation = address(new Onec721());    \n    }\n    \n    function createOnec721(string memory _name,string memory _symbol,string memory _baseURI,string memory _contractMetadata,address _newOwner) external onlyOwner returns (address) {\n        require(_newOwner != address(0));\n        address clone = Clones.clone(tokenImplementation);\n        Onec721(clone).initialize(_name,_symbol,_baseURI, _contractMetadata);\n        Onec721(clone).transferOwnership(_newOwner);\n        Onec721(clone).transferOwn(_newOwner);\n        return clone;\n    }\n\n}",
  "sourcePath": "/Users/hrishabhsharma/Projects/core-contract/contracts/Onec721Factory.sol",
  "compiler": {
    "name": "solc",
    "version": "0.8.0+commit.c7dfd78e.Emscripten.clang"
  },
  "schemaVersion": "3.4.3",
  "updatedAt": "2022-01-27T05:55:10.439Z",
  "networkType": "ethereum",
  "devdoc": {
    "kind": "dev",
    "methods": {
      "owner()": {
        "details": "Returns the address of the current owner."
      },
      "renounceOwnership()": {
        "details": "Leaves the contract without owner. It will not be possible to call `onlyOwner` functions anymore. Can only be called by the current owner. NOTE: Renouncing ownership will leave the contract without an owner, thereby removing any functionality that is only available to the owner."
      },
      "transferOwnership(address)": {
        "details": "Transfers ownership of the contract to a new account (`newOwner`). Can only be called by the current owner."
      }
    },
    "version": 1
  },
  "userdoc": {
    "kind": "user",
    "methods": {},
    "version": 1
  }
}