{
  "contractName": "Onec",
  "abi": [
    {
      "anonymous": false,
      "inputs": [
        {
          "indexed": true,
          "internalType": "address",
          "name": "account",
          "type": "address"
        },
        {
          "indexed": true,
          "internalType": "address",
          "name": "operator",
          "type": "address"
        },
        {
          "indexed": false,
          "internalType": "bool",
          "name": "approved",
          "type": "bool"
        }
      ],
      "name": "ApprovalForAll",
      "type": "event"
    },
    {
      "anonymous": false,
      "inputs": [
        {
          "indexed": true,
          "internalType": "address",
          "name": "previousOwner",
          "type": "address"
        },
        {
          "indexed": true,
          "internalType": "address",
          "name": "newOwner",
          "type": "address"
        }
      ],
      "name": "OwnershipTransferred",
      "type": "event"
    },
    {
      "anonymous": false,
      "inputs": [
        {
          "indexed": false,
          "internalType": "address",
          "name": "account",
          "type": "address"
        }
      ],
      "name": "Paused",
      "type": "event"
    },
    {
      "anonymous": false,
      "inputs": [
        {
          "indexed": true,
          "internalType": "address",
          "name": "operator",
          "type": "address"
        },
        {
          "indexed": true,
          "internalType": "address",
          "name": "from",
          "type": "address"
        },
        {
          "indexed": true,
          "internalType": "address",
          "name": "to",
          "type": "address"
        },
        {
          "indexed": false,
          "internalType": "uint256[]",
          "name": "ids",
          "type": "uint256[]"
        },
        {
          "indexed": false,
          "internalType": "uint256[]",
          "name": "values",
          "type": "uint256[]"
        }
      ],
      "name": "TransferBatch",
      "type": "event"
    },
    {
      "anonymous": false,
      "inputs": [
        {
          "indexed": true,
          "internalType": "address",
          "name": "operator",
          "type": "address"
        },
        {
          "indexed": true,
          "internalType": "address",
          "name": "from",
          "type": "address"
        },
        {
          "indexed": true,
          "internalType": "address",
          "name": "to",
          "type": "address"
        },
        {
          "indexed": false,
          "internalType": "uint256",
          "name": "id",
          "type": "uint256"
        },
        {
          "indexed": false,
          "internalType": "uint256",
          "name": "value",
          "type": "uint256"
        }
      ],
      "name": "TransferSingle",
      "type": "event"
    },
    {
      "anonymous": false,
      "inputs": [
        {
          "indexed": false,
          "internalType": "string",
          "name": "value",
          "type": "string"
        },
        {
          "indexed": true,
          "internalType": "uint256",
          "name": "id",
          "type": "uint256"
        }
      ],
      "name": "URI",
      "type": "event"
    },
    {
      "anonymous": false,
      "inputs": [
        {
          "indexed": false,
          "internalType": "address",
          "name": "account",
          "type": "address"
        }
      ],
      "name": "Unpaused",
      "type": "event"
    },
    {
      "inputs": [
        {
          "internalType": "address",
          "name": "account",
          "type": "address"
        },
        {
          "internalType": "uint256",
          "name": "id",
          "type": "uint256"
        }
      ],
      "name": "balanceOf",
      "outputs": [
        {
          "internalType": "uint256",
          "name": "",
          "type": "uint256"
        }
      ],
      "stateMutability": "view",
      "type": "function",
      "constant": true
    },
    {
      "inputs": [
        {
          "internalType": "address[]",
          "name": "accounts",
          "type": "address[]"
        },
        {
          "internalType": "uint256[]",
          "name": "ids",
          "type": "uint256[]"
        }
      ],
      "name": "balanceOfBatch",
      "outputs": [
        {
          "internalType": "uint256[]",
          "name": "",
          "type": "uint256[]"
        }
      ],
      "stateMutability": "view",
      "type": "function",
      "constant": true
    },
    {
      "inputs": [
        {
          "internalType": "address",
          "name": "account",
          "type": "address"
        },
        {
          "internalType": "address",
          "name": "operator",
          "type": "address"
        }
      ],
      "name": "isApprovedForAll",
      "outputs": [
        {
          "internalType": "bool",
          "name": "",
          "type": "bool"
        }
      ],
      "stateMutability": "view",
      "type": "function",
      "constant": true
    },
    {
      "inputs": [],
      "name": "owner",
      "outputs": [
        {
          "internalType": "address",
          "name": "",
          "type": "address"
        }
      ],
      "stateMutability": "view",
      "type": "function",
      "constant": true
    },
    {
      "inputs": [],
      "name": "paused",
      "outputs": [
        {
          "internalType": "bool",
          "name": "",
          "type": "bool"
        }
      ],
      "stateMutability": "view",
      "type": "function",
      "constant": true
    },
    {
      "inputs": [],
      "name": "renounceOwnership",
      "outputs": [],
      "stateMutability": "nonpayable",
      "type": "function"
    },
    {
      "inputs": [
        {
          "internalType": "address",
          "name": "from",
          "type": "address"
        },
        {
          "internalType": "address",
          "name": "to",
          "type": "address"
        },
        {
          "internalType": "uint256[]",
          "name": "ids",
          "type": "uint256[]"
        },
        {
          "internalType": "uint256[]",
          "name": "amounts",
          "type": "uint256[]"
        },
        {
          "internalType": "bytes",
          "name": "data",
          "type": "bytes"
        }
      ],
      "name": "safeBatchTransferFrom",
      "outputs": [],
      "stateMutability": "nonpayable",
      "type": "function"
    },
    {
      "inputs": [
        {
          "internalType": "address",
          "name": "from",
          "type": "address"
        },
        {
          "internalType": "address",
          "name": "to",
          "type": "address"
        },
        {
          "internalType": "uint256",
          "name": "id",
          "type": "uint256"
        },
        {
          "internalType": "uint256",
          "name": "amount",
          "type": "uint256"
        },
        {
          "internalType": "bytes",
          "name": "data",
          "type": "bytes"
        }
      ],
      "name": "safeTransferFrom",
      "outputs": [],
      "stateMutability": "nonpayable",
      "type": "function"
    },
    {
      "inputs": [
        {
          "internalType": "address",
          "name": "operator",
          "type": "address"
        },
        {
          "internalType": "bool",
          "name": "approved",
          "type": "bool"
        }
      ],
      "name": "setApprovalForAll",
      "outputs": [],
      "stateMutability": "nonpayable",
      "type": "function"
    },
    {
      "inputs": [
        {
          "internalType": "bytes4",
          "name": "interfaceId",
          "type": "bytes4"
        }
      ],
      "name": "supportsInterface",
      "outputs": [
        {
          "internalType": "bool",
          "name": "",
          "type": "bool"
        }
      ],
      "stateMutability": "view",
      "type": "function",
      "constant": true
    },
    {
      "inputs": [
        {
          "internalType": "address",
          "name": "newOwner",
          "type": "address"
        }
      ],
      "name": "transferOwnership",
      "outputs": [],
      "stateMutability": "nonpayable",
      "type": "function"
    },
    {
      "inputs": [
        {
          "internalType": "uint256",
          "name": "",
          "type": "uint256"
        }
      ],
      "name": "uri",
      "outputs": [
        {
          "internalType": "string",
          "name": "",
          "type": "string"
        }
      ],
      "stateMutability": "view",
      "type": "function",
      "constant": true
    },
    {
      "inputs": [],
      "name": "initialize",
      "outputs": [],
      "stateMutability": "nonpayable",
      "type": "function"
    },
    {
      "inputs": [
        {
          "internalType": "uint256",
          "name": "_supply",
          "type": "uint256"
        },
        {
          "internalType": "address",
          "name": "_holder",
          "type": "address"
        },
        {
          "internalType": "uint256",
          "name": "_id",
          "type": "uint256"
        },
        {
          "internalType": "bytes",
          "name": "_data",
          "type": "bytes"
        }
      ],
      "name": "mintSid",
      "outputs": [],
      "stateMutability": "nonpayable",
      "type": "function"
    },
    {
      "inputs": [
        {
          "internalType": "uint256",
          "name": "_supply",
          "type": "uint256"
        },
        {
          "internalType": "address",
          "name": "_holder",
          "type": "address"
        },
        {
          "internalType": "uint256",
          "name": "_id",
          "type": "uint256"
        },
        {
          "internalType": "bytes",
          "name": "_data",
          "type": "bytes"
        },
        {
          "internalType": "uint256",
          "name": "_parentSid",
          "type": "uint256"
        }
      ],
      "name": "mintRefSid",
      "outputs": [],
      "stateMutability": "nonpayable",
      "type": "function"
    },
    {
      "inputs": [
        {
          "internalType": "uint256",
          "name": "_sid",
          "type": "uint256"
        }
      ],
      "name": "getReferences",
      "outputs": [
        {
          "internalType": "uint256[]",
          "name": "",
          "type": "uint256[]"
        }
      ],
      "stateMutability": "view",
      "type": "function",
      "constant": true
    },
    {
      "inputs": [
        {
          "internalType": "uint256",
          "name": "_id",
          "type": "uint256"
        }
      ],
      "name": "getTokenMetadataHash",
      "outputs": [
        {
          "internalType": "string",
          "name": "",
          "type": "string"
        }
      ],
      "stateMutability": "view",
      "type": "function",
      "constant": true
    },
    {
      "inputs": [
        {
          "internalType": "uint256",
          "name": "_id",
          "type": "uint256"
        }
      ],
      "name": "getBaseURI",
      "outputs": [
        {
          "internalType": "string",
          "name": "",
          "type": "string"
        }
      ],
      "stateMutability": "view",
      "type": "function",
      "constant": true
    },
    {
      "inputs": [
        {
          "internalType": "address",
          "name": "_from",
          "type": "address"
        },
        {
          "internalType": "address",
          "name": "_to",
          "type": "address"
        },
        {
          "internalType": "uint256",
          "name": "_id",
          "type": "uint256"
        },
        {
          "internalType": "uint256",
          "name": "_amount",
          "type": "uint256"
        },
        {
          "internalType": "bytes",
          "name": "_data",
          "type": "bytes"
        }
      ],
      "name": "transfer",
      "outputs": [],
      "stateMutability": "nonpayable",
      "type": "function"
    },
    {
      "inputs": [],
      "name": "makePause",
      "outputs": [],
      "stateMutability": "nonpayable",
      "type": "function"
    },
    {
      "inputs": [],
      "name": "makeUnpause",
      "outputs": [],
      "stateMutability": "nonpayable",
      "type": "function"
    },
    {
      "inputs": [
        {
          "internalType": "address",
          "name": "account",
          "type": "address"
        },
        {
          "internalType": "uint256",
          "name": "id",
          "type": "uint256"
        },
        {
          "internalType": "uint256",
          "name": "amount",
          "type": "uint256"
        }
      ],
      "name": "burnAsset",
      "outputs": [],
      "stateMutability": "nonpayable",
      "type": "function"
    },
    {
      "inputs": [
        {
          "internalType": "address",
          "name": "_operator",
          "type": "address"
        },
        {
          "internalType": "bool",
          "name": "_approved",
          "type": "bool"
        }
      ],
      "name": "setApproval",
      "outputs": [],
      "stateMutability": "nonpayable",
      "type": "function"
    },
    {
      "inputs": [
        {
          "internalType": "address",
          "name": "account",
          "type": "address"
        },
        {
          "internalType": "address",
          "name": "operator",
          "type": "address"
        }
      ],
      "name": "isApproved",
      "outputs": [
        {
          "internalType": "bool",
          "name": "",
          "type": "bool"
        }
      ],
      "stateMutability": "view",
      "type": "function",
      "constant": true
    },
    {
      "inputs": [
        {
          "internalType": "address",
          "name": "account",
          "type": "address"
        },
        {
          "internalType": "uint256",
          "name": "id",
          "type": "uint256"
        }
      ],
      "name": "getBalance",
      "outputs": [
        {
          "internalType": "uint256",
          "name": "",
          "type": "uint256"
        }
      ],
      "stateMutability": "view",
      "type": "function",
      "constant": true
    },
    {
      "inputs": [],
      "name": "getTotalMintedServices",
      "outputs": [
        {
          "internalType": "uint256",
          "name": "",
          "type": "uint256"
        }
      ],
      "stateMutability": "view",
      "type": "function",
      "constant": true
    }
  ],
  "bytecode": "0x608060405234801561001057600080fd5b5061406d806100206000396000f3fe608060405234801561001057600080fd5b506004361061018d5760003560e01c8063837c5962116100de578063a389783e11610097578063dd3d0f9311610071578063dd3d0f931461046c578063e985e9c514610488578063f242432a146104b8578063f2fde38b146104d45761018d565b8063a389783e14610416578063a90205a314610446578063db9b7170146104505761018d565b8063837c59621461036a57806386838fb61461039a57806388888b97146103a45780638da5cb5b146103c05780638ea6599d146103de578063a22cb465146103fa5761018d565b80633cfc7ae21161014b5780635c975abb116101255780635c975abb14610308578063715018a61461032657806373376398146103305780638129fc1c146103605761018d565b80633cfc7ae21461028a5780634a61d1b1146102ba5780634e1273f4146102d85761018d565b8062fdd58e1461019257806301ffc9a7146101c25780630e89341c146101f2578063127217d6146102225780632b04e8401461023e5780632eb2c2d61461026e575b600080fd5b6101ac60048036038101906101a79190612cf2565b6104f0565b6040516101b99190613b85565b60405180910390f35b6101dc60048036038101906101d79190612de9565b6105ba565b6040516101e991906138e8565b60405180910390f35b61020c60048036038101906102079190612e3b565b61069c565b6040516102199190613903565b60405180910390f35b61023c60048036038101906102379190612c27565b610730565b005b61025860048036038101906102539190612cf2565b610744565b6040516102659190613b85565b60405180910390f35b61028860048036038101906102839190612b68565b610758565b005b6102a4600480360381019061029f9190612e3b565b6107f9565b6040516102b1919061388f565b60405180910390f35b6102c2610864565b6040516102cf9190613b85565b60405180910390f35b6102f260048036038101906102ed9190612d7d565b61086e565b6040516102ff919061388f565b60405180910390f35b610310610a1f565b60405161031d91906138e8565b60405180910390f35b61032e610a36565b005b61034a60048036038101906103459190612e3b565b610abe565b6040516103579190613903565b60405180910390f35b610368610ad0565b005b610384600480360381019061037f9190612e3b565b610bef565b6040516103919190613903565b60405180910390f35b6103a2610c94565b005b6103be60048036038101906103b99190612edf565b610d1a565b005b6103c8610dab565b6040516103d591906137b2565b60405180910390f35b6103f860048036038101906103f39190612e64565b610dd5565b005b610414600480360381019061040f9190612cb6565b610e2b565b005b610430600480360381019061042b9190612b2c565b610fac565b60405161043d91906138e8565b60405180910390f35b61044e610fc0565b005b61046a60048036038101906104659190612cb6565b611046565b005b61048660048036038101906104819190612d2e565b611054565b005b6104a2600480360381019061049d9190612b2c565b6110c1565b6040516104af91906138e8565b60405180910390f35b6104d260048036038101906104cd9190612c27565b611155565b005b6104ee60048036038101906104e99190612b03565b6111f6565b005b60008073ffffffffffffffffffffffffffffffffffffffff168373ffffffffffffffffffffffffffffffffffffffff161415610561576040517f08c379a000000000000000000000000000000000000000000000000000000000815260040161055890613985565b60405180910390fd5b60c9600083815260200190815260200160002060008473ffffffffffffffffffffffffffffffffffffffff1673ffffffffffffffffffffffffffffffffffffffff16815260200190815260200160002054905092915050565b60007fd9b67a26000000000000000000000000000000000000000000000000000000007bffffffffffffffffffffffffffffffffffffffffffffffffffffffff1916827bffffffffffffffffffffffffffffffffffffffffffffffffffffffff1916148061068557507f0e89341c000000000000000000000000000000000000000000000000000000007bffffffffffffffffffffffffffffffffffffffffffffffffffffffff1916827bffffffffffffffffffffffffffffffffffffffffffffffffffffffff1916145b806106955750610694826112ee565b5b9050919050565b606060cb80546106ab90613dff565b80601f01602080910402602001604051908101604052809291908181526020018280546106d790613dff565b80156107245780601f106106f957610100808354040283529160200191610724565b820191906000526020600020905b81548152906001019060200180831161070757829003601f168201915b50505050509050919050565b61073d8585858585611155565b5050505050565b600061075083836104f0565b905092915050565b610760611358565b73ffffffffffffffffffffffffffffffffffffffff168573ffffffffffffffffffffffffffffffffffffffff1614806107a657506107a5856107a0611358565b6110c1565b5b6107e5576040517f08c379a00000000000000000000000000000000000000000000000000000000081526004016107dc90613a65565b60405180910390fd5b6107f28585858585611360565b5050505050565b606060fd600083815260200190815260200160002080548060200260200160405190810160405280929190818152602001828054801561085857602002820191906000526020600020905b815481526020019060010190808311610844575b50505050509050919050565b600060fb54905090565b606081518351146108b4576040517f08c379a00000000000000000000000000000000000000000000000000000000081526004016108ab90613b25565b60405180910390fd5b6000835167ffffffffffffffff8111156108f7577f4e487b7100000000000000000000000000000000000000000000000000000000600052604160045260246000fd5b6040519080825280602002602001820160405280156109255781602001602082028036833780820191505090505b50905060005b8451811015610a14576109be858281518110610970577f4e487b7100000000000000000000000000000000000000000000000000000000600052603260045260246000fd5b60200260200101518583815181106109b1577f4e487b7100000000000000000000000000000000000000000000000000000000600052603260045260246000fd5b60200260200101516104f0565b8282815181106109f7577f4e487b7100000000000000000000000000000000000000000000000000000000600052603260045260246000fd5b60200260200101818152505080610a0d90613e31565b905061092b565b508091505092915050565b6000603360009054906101000a900460ff16905090565b610a3e611358565b73ffffffffffffffffffffffffffffffffffffffff16610a5c610dab565b73ffffffffffffffffffffffffffffffffffffffff1614610ab2576040517f08c379a0000000000000000000000000000000000000000000000000000000008152600401610aa990613ae5565b60405180910390fd5b610abc60006116c3565b565b6060610ac98261069c565b9050919050565b600060019054906101000a900460ff1680610af6575060008054906101000a900460ff16155b610b35576040517f08c379a0000000000000000000000000000000000000000000000000000000008152600401610b2c90613a85565b60405180910390fd5b60008060019054906101000a900460ff161590508015610b85576001600060016101000a81548160ff02191690831515021790555060016000806101000a81548160ff0219169083151502179055505b610bc36040518060400160405280601581526020017f68747470733a2f2f697066732e6f6e65632e696e2f0000000000000000000000815250611789565b600060fb819055508015610bec5760008060016101000a81548160ff0219169083151502179055505b50565b606060fc60008381526020019081526020016000208054610c0f90613dff565b80601f0160208091040260200160405190810160405280929190818152602001828054610c3b90613dff565b8015610c885780601f10610c5d57610100808354040283529160200191610c88565b820191906000526020600020905b815481529060010190602001808311610c6b57829003601f168201915b50505050509050919050565b610c9c611358565b73ffffffffffffffffffffffffffffffffffffffff16610cba610dab565b73ffffffffffffffffffffffffffffffffffffffff1614610d10576040517f08c379a0000000000000000000000000000000000000000000000000000000008152600401610d0790613ae5565b60405180910390fd5b610d1861187c565b565b600060fc60008581526020019081526020016000208054610d3a90613dff565b905014610d4657600080fd5b610d528484878561191e565b60fd600082815260200190815260200160002083908060018154018082558091505060019003906000526020600020016000909190919091505560fb6000815480929190610d9f90613e31565b91905055505050505050565b6000606560009054906101000a900473ffffffffffffffffffffffffffffffffffffffff16905090565b600060fc60008481526020019081526020016000208054610df590613dff565b905014610e0157600080fd5b610e0d8383868461191e565b60fb6000815480929190610e2090613e31565b919050555050505050565b8173ffffffffffffffffffffffffffffffffffffffff16610e4a611358565b73ffffffffffffffffffffffffffffffffffffffff161415610ea1576040517f08c379a0000000000000000000000000000000000000000000000000000000008152600401610e9890613b05565b60405180910390fd5b8060ca6000610eae611358565b73ffffffffffffffffffffffffffffffffffffffff1673ffffffffffffffffffffffffffffffffffffffff16815260200190815260200160002060008473ffffffffffffffffffffffffffffffffffffffff1673ffffffffffffffffffffffffffffffffffffffff16815260200190815260200160002060006101000a81548160ff0219169083151502179055508173ffffffffffffffffffffffffffffffffffffffff16610f5b611358565b73ffffffffffffffffffffffffffffffffffffffff167f17307eab39ab6107e8899845ad3d59bd9653f200f220920489ca2b5937696c3183604051610fa091906138e8565b60405180910390a35050565b6000610fb883836110c1565b905092915050565b610fc8611358565b73ffffffffffffffffffffffffffffffffffffffff16610fe6610dab565b73ffffffffffffffffffffffffffffffffffffffff161461103c576040517f08c379a000000000000000000000000000000000000000000000000000000000815260040161103390613ae5565b60405180910390fd5b611044611ab5565b565b6110508282610e2b565b5050565b61105f838383611b58565b6040518060400160405280600381526020017f307830000000000000000000000000000000000000000000000000000000000081525060fc600084815260200190815260200160002090805190602001906110bb9291906127dd565b50505050565b600060ca60008473ffffffffffffffffffffffffffffffffffffffff1673ffffffffffffffffffffffffffffffffffffffff16815260200190815260200160002060008373ffffffffffffffffffffffffffffffffffffffff1673ffffffffffffffffffffffffffffffffffffffff16815260200190815260200160002060009054906101000a900460ff16905092915050565b61115d611358565b73ffffffffffffffffffffffffffffffffffffffff168573ffffffffffffffffffffffffffffffffffffffff1614806111a357506111a28561119d611358565b6110c1565b5b6111e2576040517f08c379a00000000000000000000000000000000000000000000000000000000081526004016111d990613a05565b60405180910390fd5b6111ef8585858585611d77565b5050505050565b6111fe611358565b73ffffffffffffffffffffffffffffffffffffffff1661121c610dab565b73ffffffffffffffffffffffffffffffffffffffff1614611272576040517f08c379a000000000000000000000000000000000000000000000000000000000815260040161126990613ae5565b60405180910390fd5b600073ffffffffffffffffffffffffffffffffffffffff168173ffffffffffffffffffffffffffffffffffffffff1614156112e2576040517f08c379a00000000000000000000000000000000000000000000000000000000081526004016112d9906139a5565b60405180910390fd5b6112eb816116c3565b50565b60007f01ffc9a7000000000000000000000000000000000000000000000000000000007bffffffffffffffffffffffffffffffffffffffffffffffffffffffff1916827bffffffffffffffffffffffffffffffffffffffffffffffffffffffff1916149050919050565b600033905090565b81518351146113a4576040517f08c379a000000000000000000000000000000000000000000000000000000000815260040161139b90613b45565b60405180910390fd5b600073ffffffffffffffffffffffffffffffffffffffff168473ffffffffffffffffffffffffffffffffffffffff161415611414576040517f08c379a000000000000000000000000000000000000000000000000000000000815260040161140b90613a45565b60405180910390fd5b600061141e611358565b905061142e818787878787611ffc565b60005b845181101561162e576000858281518110611475577f4e487b7100000000000000000000000000000000000000000000000000000000600052603260045260246000fd5b6020026020010151905060008583815181106114ba577f4e487b7100000000000000000000000000000000000000000000000000000000600052603260045260246000fd5b60200260200101519050600060c9600084815260200190815260200160002060008b73ffffffffffffffffffffffffffffffffffffffff1673ffffffffffffffffffffffffffffffffffffffff1681526020019081526020016000205490508181101561155c576040517f08c379a000000000000000000000000000000000000000000000000000000000815260040161155390613ac5565b60405180910390fd5b81810360c9600085815260200190815260200160002060008c73ffffffffffffffffffffffffffffffffffffffff1673ffffffffffffffffffffffffffffffffffffffff168152602001908152602001600020819055508160c9600085815260200190815260200160002060008b73ffffffffffffffffffffffffffffffffffffffff1673ffffffffffffffffffffffffffffffffffffffff16815260200190815260200160002060008282546116139190613cf3565b925050819055505050508061162790613e31565b9050611431565b508473ffffffffffffffffffffffffffffffffffffffff168673ffffffffffffffffffffffffffffffffffffffff168273ffffffffffffffffffffffffffffffffffffffff167f4a39dc06d4c0dbc64b70af90fd698a233a518aa5d07e595d983b8c0526c8f7fb87876040516116a59291906138b1565b60405180910390a46116bb8187878787876120b5565b505050505050565b6000606560009054906101000a900473ffffffffffffffffffffffffffffffffffffffff16905081606560006101000a81548173ffffffffffffffffffffffffffffffffffffffff021916908373ffffffffffffffffffffffffffffffffffffffff1602179055508173ffffffffffffffffffffffffffffffffffffffff168173ffffffffffffffffffffffffffffffffffffffff167f8be0079c531659141344cd1fd0a4f28419497f9722a3daafe3b4186f6b6457e060405160405180910390a35050565b600060019054906101000a900460ff16806117af575060008054906101000a900460ff16155b6117ee576040517f08c379a00000000000000000000000000000000000000000000000000000000081526004016117e590613a85565b60405180910390fd5b60008060019054906101000a900460ff16159050801561183e576001600060016101000a81548160ff02191690831515021790555060016000806101000a81548160ff0219169083151502179055505b611846612285565b61184e61235e565b61185782612437565b80156118785760008060016101000a81548160ff0219169083151502179055505b5050565b611884610a1f565b6118c3576040517f08c379a00000000000000000000000000000000000000000000000000000000081526004016118ba90613965565b60405180910390fd5b6000603360006101000a81548160ff0219169083151502179055507f5db9ee0a495bf2e6ff9c91a7834c1ba4fdd244a5e8aa4e537bd38aeae4b073aa611907611358565b60405161191491906137b2565b60405180910390a1565b600073ffffffffffffffffffffffffffffffffffffffff168473ffffffffffffffffffffffffffffffffffffffff16141561198e576040517f08c379a000000000000000000000000000000000000000000000000000000000815260040161198590613b65565b60405180910390fd5b6000611998611358565b90506119b9816000876119aa8861251a565b6119b38861251a565b87611ffc565b8260c9600086815260200190815260200160002060008773ffffffffffffffffffffffffffffffffffffffff1673ffffffffffffffffffffffffffffffffffffffff1681526020019081526020016000206000828254611a199190613cf3565b925050819055508473ffffffffffffffffffffffffffffffffffffffff16600073ffffffffffffffffffffffffffffffffffffffff168273ffffffffffffffffffffffffffffffffffffffff167fc3d58168c5ae7397731d063d5bbf3d657854427343f4c083240f7aacaa2d0f628787604051611a97929190613ba0565b60405180910390a4611aae816000878787876125e0565b5050505050565b611abd610a1f565b15611afd576040517f08c379a0000000000000000000000000000000000000000000000000000000008152600401611af490613a25565b60405180910390fd5b6001603360006101000a81548160ff0219169083151502179055507f62e78cea01bee320cd4e420270b5ea74000d11b0c9f74754ebdbfc544b05a258611b41611358565b604051611b4e91906137b2565b60405180910390a1565b600073ffffffffffffffffffffffffffffffffffffffff168373ffffffffffffffffffffffffffffffffffffffff161415611bc8576040517f08c379a0000000000000000000000000000000000000000000000000000000008152600401611bbf90613aa5565b60405180910390fd5b6000611bd2611358565b9050611c0281856000611be48761251a565b611bed8761251a565b60405180602001604052806000815250611ffc565b600060c9600085815260200190815260200160002060008673ffffffffffffffffffffffffffffffffffffffff1673ffffffffffffffffffffffffffffffffffffffff16815260200190815260200160002054905082811015611c9a576040517f08c379a0000000000000000000000000000000000000000000000000000000008152600401611c91906139c5565b60405180910390fd5b82810360c9600086815260200190815260200160002060008773ffffffffffffffffffffffffffffffffffffffff1673ffffffffffffffffffffffffffffffffffffffff16815260200190815260200160002081905550600073ffffffffffffffffffffffffffffffffffffffff168573ffffffffffffffffffffffffffffffffffffffff168373ffffffffffffffffffffffffffffffffffffffff167fc3d58168c5ae7397731d063d5bbf3d657854427343f4c083240f7aacaa2d0f628787604051611d68929190613ba0565b60405180910390a45050505050565b600073ffffffffffffffffffffffffffffffffffffffff168473ffffffffffffffffffffffffffffffffffffffff161415611de7576040517f08c379a0000000000000000000000000000000000000000000000000000000008152600401611dde90613a45565b60405180910390fd5b6000611df1611358565b9050611e11818787611e028861251a565b611e0b8861251a565b87611ffc565b600060c9600086815260200190815260200160002060008873ffffffffffffffffffffffffffffffffffffffff1673ffffffffffffffffffffffffffffffffffffffff16815260200190815260200160002054905083811015611ea9576040517f08c379a0000000000000000000000000000000000000000000000000000000008152600401611ea090613ac5565b60405180910390fd5b83810360c9600087815260200190815260200160002060008973ffffffffffffffffffffffffffffffffffffffff1673ffffffffffffffffffffffffffffffffffffffff168152602001908152602001600020819055508360c9600087815260200190815260200160002060008873ffffffffffffffffffffffffffffffffffffffff1673ffffffffffffffffffffffffffffffffffffffff1681526020019081526020016000206000828254611f609190613cf3565b925050819055508573ffffffffffffffffffffffffffffffffffffffff168773ffffffffffffffffffffffffffffffffffffffff168373ffffffffffffffffffffffffffffffffffffffff167fc3d58168c5ae7397731d063d5bbf3d657854427343f4c083240f7aacaa2d0f628888604051611fdd929190613ba0565b60405180910390a4611ff38288888888886125e0565b50505050505050565b8060fc60008560008151811061203b577f4e487b7100000000000000000000000000000000000000000000000000000000600052603260045260246000fd5b6020026020010151815260200190815260200160002090805190602001906120649291906127dd565b5061206d610a1f565b156120ad576040517f08c379a00000000000000000000000000000000000000000000000000000000081526004016120a4906139e5565b60405180910390fd5b505050505050565b6120d48473ffffffffffffffffffffffffffffffffffffffff166127b0565b1561227d578373ffffffffffffffffffffffffffffffffffffffff1663bc197c8187878686866040518663ffffffff1660e01b815260040161211a9594939291906137cd565b602060405180830381600087803b15801561213457600080fd5b505af192505050801561216557506040513d601f19601f820116820180604052508101906121629190612e12565b60015b6121f457612171613f25565b8061217c57506121b9565b806040517f08c379a00000000000000000000000000000000000000000000000000000000081526004016121b09190613903565b60405180910390fd5b6040517f08c379a00000000000000000000000000000000000000000000000000000000081526004016121eb90613925565b60405180910390fd5b63bc197c8160e01b7bffffffffffffffffffffffffffffffffffffffffffffffffffffffff1916817bffffffffffffffffffffffffffffffffffffffffffffffffffffffff19161461227b576040517f08c379a000000000000000000000000000000000000000000000000000000000815260040161227290613945565b60405180910390fd5b505b505050505050565b600060019054906101000a900460ff16806122ab575060008054906101000a900460ff16155b6122ea576040517f08c379a00000000000000000000000000000000000000000000000000000000081526004016122e190613a85565b60405180910390fd5b60008060019054906101000a900460ff16159050801561233a576001600060016101000a81548160ff02191690831515021790555060016000806101000a81548160ff0219169083151502179055505b801561235b5760008060016101000a81548160ff0219169083151502179055505b50565b600060019054906101000a900460ff1680612384575060008054906101000a900460ff16155b6123c3576040517f08c379a00000000000000000000000000000000000000000000000000000000081526004016123ba90613a85565b60405180910390fd5b60008060019054906101000a900460ff161590508015612413576001600060016101000a81548160ff02191690831515021790555060016000806101000a81548160ff0219169083151502179055505b80156124345760008060016101000a81548160ff0219169083151502179055505b50565b600060019054906101000a900460ff168061245d575060008054906101000a900460ff16155b61249c576040517f08c379a000000000000000000000000000000000000000000000000000000000815260040161249390613a85565b60405180910390fd5b60008060019054906101000a900460ff1615905080156124ec576001600060016101000a81548160ff02191690831515021790555060016000806101000a81548160ff0219169083151502179055505b6124f5826127c3565b80156125165760008060016101000a81548160ff0219169083151502179055505b5050565b60606000600167ffffffffffffffff81111561255f577f4e487b7100000000000000000000000000000000000000000000000000000000600052604160045260246000fd5b60405190808252806020026020018201604052801561258d5781602001602082028036833780820191505090505b50905082816000815181106125cb577f4e487b7100000000000000000000000000000000000000000000000000000000600052603260045260246000fd5b60200260200101818152505080915050919050565b6125ff8473ffffffffffffffffffffffffffffffffffffffff166127b0565b156127a8578373ffffffffffffffffffffffffffffffffffffffff1663f23a6e6187878686866040518663ffffffff1660e01b8152600401612645959493929190613835565b602060405180830381600087803b15801561265f57600080fd5b505af192505050801561269057506040513d601f19601f8201168201806040525081019061268d9190612e12565b60015b61271f5761269c613f25565b806126a757506126e4565b806040517f08c379a00000000000000000000000000000000000000000000000000000000081526004016126db9190613903565b60405180910390fd5b6040517f08c379a000000000000000000000000000000000000000000000000000000000815260040161271690613925565b60405180910390fd5b63f23a6e6160e01b7bffffffffffffffffffffffffffffffffffffffffffffffffffffffff1916817bffffffffffffffffffffffffffffffffffffffffffffffffffffffff1916146127a6576040517f08c379a000000000000000000000000000000000000000000000000000000000815260040161279d90613945565b60405180910390fd5b505b505050505050565b600080823b905060008111915050919050565b8060cb90805190602001906127d9929190612863565b5050565b8280546127e990613dff565b90600052602060002090601f01602090048101928261280b5760008555612852565b82601f1061282457805160ff1916838001178555612852565b82800160010185558215612852579182015b82811115612851578251825591602001919060010190612836565b5b50905061285f91906128e9565b5090565b82805461286f90613dff565b90600052602060002090601f01602090048101928261289157600085556128d8565b82601f106128aa57805160ff19168380011785556128d8565b828001600101855582156128d8579182015b828111156128d75782518255916020019190600101906128bc565b5b5090506128e591906128e9565b5090565b5b808211156129025760008160009055506001016128ea565b5090565b600061291961291484613bfa565b613bc9565b9050808382526020820190508285602086028201111561293857600080fd5b60005b85811015612968578161294e8882612a1c565b84526020840193506020830192505060018101905061293b565b5050509392505050565b600061298561298084613c26565b613bc9565b905080838252602082019050828560208602820111156129a457600080fd5b60005b858110156129d457816129ba8882612aee565b8452602084019350602083019250506001810190506129a7565b5050509392505050565b60006129f16129ec84613c52565b613bc9565b905082815260208101848484011115612a0957600080fd5b612a14848285613dbd565b509392505050565b600081359050612a2b81613fdb565b92915050565b600082601f830112612a4257600080fd5b8135612a52848260208601612906565b91505092915050565b600082601f830112612a6c57600080fd5b8135612a7c848260208601612972565b91505092915050565b600081359050612a9481613ff2565b92915050565b600081359050612aa981614009565b92915050565b600081519050612abe81614009565b92915050565b600082601f830112612ad557600080fd5b8135612ae58482602086016129de565b91505092915050565b600081359050612afd81614020565b92915050565b600060208284031215612b1557600080fd5b6000612b2384828501612a1c565b91505092915050565b60008060408385031215612b3f57600080fd5b6000612b4d85828601612a1c565b9250506020612b5e85828601612a1c565b9150509250929050565b600080600080600060a08688031215612b8057600080fd5b6000612b8e88828901612a1c565b9550506020612b9f88828901612a1c565b945050604086013567ffffffffffffffff811115612bbc57600080fd5b612bc888828901612a5b565b935050606086013567ffffffffffffffff811115612be557600080fd5b612bf188828901612a5b565b925050608086013567ffffffffffffffff811115612c0e57600080fd5b612c1a88828901612ac4565b9150509295509295909350565b600080600080600060a08688031215612c3f57600080fd5b6000612c4d88828901612a1c565b9550506020612c5e88828901612a1c565b9450506040612c6f88828901612aee565b9350506060612c8088828901612aee565b925050608086013567ffffffffffffffff811115612c9d57600080fd5b612ca988828901612ac4565b9150509295509295909350565b60008060408385031215612cc957600080fd5b6000612cd785828601612a1c565b9250506020612ce885828601612a85565b9150509250929050565b60008060408385031215612d0557600080fd5b6000612d1385828601612a1c565b9250506020612d2485828601612aee565b9150509250929050565b600080600060608486031215612d4357600080fd5b6000612d5186828701612a1c565b9350506020612d6286828701612aee565b9250506040612d7386828701612aee565b9150509250925092565b60008060408385031215612d9057600080fd5b600083013567ffffffffffffffff811115612daa57600080fd5b612db685828601612a31565b925050602083013567ffffffffffffffff811115612dd357600080fd5b612ddf85828601612a5b565b9150509250929050565b600060208284031215612dfb57600080fd5b6000612e0984828501612a9a565b91505092915050565b600060208284031215612e2457600080fd5b6000612e3284828501612aaf565b91505092915050565b600060208284031215612e4d57600080fd5b6000612e5b84828501612aee565b91505092915050565b60008060008060808587031215612e7a57600080fd5b6000612e8887828801612aee565b9450506020612e9987828801612a1c565b9350506040612eaa87828801612aee565b925050606085013567ffffffffffffffff811115612ec757600080fd5b612ed387828801612ac4565b91505092959194509250565b600080600080600060a08688031215612ef757600080fd5b6000612f0588828901612aee565b9550506020612f1688828901612a1c565b9450506040612f2788828901612aee565b935050606086013567ffffffffffffffff811115612f4457600080fd5b612f5088828901612ac4565b9250506080612f6188828901612aee565b9150509295509295909350565b6000612f7a8383613794565b60208301905092915050565b612f8f81613d49565b82525050565b6000612fa082613c92565b612faa8185613cc0565b9350612fb583613c82565b8060005b83811015612fe6578151612fcd8882612f6e565b9750612fd883613cb3565b925050600181019050612fb9565b5085935050505092915050565b612ffc81613d5b565b82525050565b600061300d82613c9d565b6130178185613cd1565b9350613027818560208601613dcc565b61303081613f07565b840191505092915050565b600061304682613ca8565b6130508185613ce2565b9350613060818560208601613dcc565b61306981613f07565b840191505092915050565b6000613081603483613ce2565b91507f455243313135353a207472616e7366657220746f206e6f6e204552433131353560008301527f526563656976657220696d706c656d656e7465720000000000000000000000006020830152604082019050919050565b60006130e7602883613ce2565b91507f455243313135353a204552433131353552656365697665722072656a6563746560008301527f6420746f6b656e730000000000000000000000000000000000000000000000006020830152604082019050919050565b600061314d601483613ce2565b91507f5061757361626c653a206e6f74207061757365640000000000000000000000006000830152602082019050919050565b600061318d602b83613ce2565b91507f455243313135353a2062616c616e636520717565727920666f7220746865207a60008301527f65726f20616464726573730000000000000000000000000000000000000000006020830152604082019050919050565b60006131f3602683613ce2565b91507f4f776e61626c653a206e6577206f776e657220697320746865207a65726f206160008301527f64647265737300000000000000000000000000000000000000000000000000006020830152604082019050919050565b6000613259602483613ce2565b91507f455243313135353a206275726e20616d6f756e7420657863656564732062616c60008301527f616e6365000000000000000000000000000000000000000000000000000000006020830152604082019050919050565b60006132bf602c83613ce2565b91507f455243313135355061757361626c653a20746f6b656e207472616e736665722060008301527f7768696c652070617573656400000000000000000000000000000000000000006020830152604082019050919050565b6000613325602983613ce2565b91507f455243313135353a2063616c6c6572206973206e6f74206f776e6572206e6f7260008301527f20617070726f76656400000000000000000000000000000000000000000000006020830152604082019050919050565b600061338b601083613ce2565b91507f5061757361626c653a20706175736564000000000000000000000000000000006000830152602082019050919050565b60006133cb602583613ce2565b91507f455243313135353a207472616e7366657220746f20746865207a65726f20616460008301527f64726573730000000000000000000000000000000000000000000000000000006020830152604082019050919050565b6000613431603283613ce2565b91507f455243313135353a207472616e736665722063616c6c6572206973206e6f742060008301527f6f776e6572206e6f7220617070726f76656400000000000000000000000000006020830152604082019050919050565b6000613497602e83613ce2565b91507f496e697469616c697a61626c653a20636f6e747261637420697320616c72656160008301527f647920696e697469616c697a65640000000000000000000000000000000000006020830152604082019050919050565b60006134fd602383613ce2565b91507f455243313135353a206275726e2066726f6d20746865207a65726f206164647260008301527f65737300000000000000000000000000000000000000000000000000000000006020830152604082019050919050565b6000613563602a83613ce2565b91507f455243313135353a20696e73756666696369656e742062616c616e636520666f60008301527f72207472616e73666572000000000000000000000000000000000000000000006020830152604082019050919050565b60006135c9602083613ce2565b91507f4f776e61626c653a2063616c6c6572206973206e6f7420746865206f776e65726000830152602082019050919050565b6000613609602983613ce2565b91507f455243313135353a2073657474696e6720617070726f76616c2073746174757360008301527f20666f722073656c6600000000000000000000000000000000000000000000006020830152604082019050919050565b600061366f602983613ce2565b91507f455243313135353a206163636f756e747320616e6420696473206c656e67746860008301527f206d69736d6174636800000000000000000000000000000000000000000000006020830152604082019050919050565b60006136d5602883613ce2565b91507f455243313135353a2069647320616e6420616d6f756e7473206c656e6774682060008301527f6d69736d617463680000000000000000000000000000000000000000000000006020830152604082019050919050565b600061373b602183613ce2565b91507f455243313135353a206d696e7420746f20746865207a65726f2061646472657360008301527f73000000000000000000000000000000000000000000000000000000000000006020830152604082019050919050565b61379d81613db3565b82525050565b6137ac81613db3565b82525050565b60006020820190506137c76000830184612f86565b92915050565b600060a0820190506137e26000830188612f86565b6137ef6020830187612f86565b81810360408301526138018186612f95565b905081810360608301526138158185612f95565b905081810360808301526138298184613002565b90509695505050505050565b600060a08201905061384a6000830188612f86565b6138576020830187612f86565b61386460408301866137a3565b61387160608301856137a3565b81810360808301526138838184613002565b90509695505050505050565b600060208201905081810360008301526138a98184612f95565b905092915050565b600060408201905081810360008301526138cb8185612f95565b905081810360208301526138df8184612f95565b90509392505050565b60006020820190506138fd6000830184612ff3565b92915050565b6000602082019050818103600083015261391d818461303b565b905092915050565b6000602082019050818103600083015261393e81613074565b9050919050565b6000602082019050818103600083015261395e816130da565b9050919050565b6000602082019050818103600083015261397e81613140565b9050919050565b6000602082019050818103600083015261399e81613180565b9050919050565b600060208201905081810360008301526139be816131e6565b9050919050565b600060208201905081810360008301526139de8161324c565b9050919050565b600060208201905081810360008301526139fe816132b2565b9050919050565b60006020820190508181036000830152613a1e81613318565b9050919050565b60006020820190508181036000830152613a3e8161337e565b9050919050565b60006020820190508181036000830152613a5e816133be565b9050919050565b60006020820190508181036000830152613a7e81613424565b9050919050565b60006020820190508181036000830152613a9e8161348a565b9050919050565b60006020820190508181036000830152613abe816134f0565b9050919050565b60006020820190508181036000830152613ade81613556565b9050919050565b60006020820190508181036000830152613afe816135bc565b9050919050565b60006020820190508181036000830152613b1e816135fc565b9050919050565b60006020820190508181036000830152613b3e81613662565b9050919050565b60006020820190508181036000830152613b5e816136c8565b9050919050565b60006020820190508181036000830152613b7e8161372e565b9050919050565b6000602082019050613b9a60008301846137a3565b92915050565b6000604082019050613bb560008301856137a3565b613bc260208301846137a3565b9392505050565b6000604051905081810181811067ffffffffffffffff82111715613bf057613bef613ed8565b5b8060405250919050565b600067ffffffffffffffff821115613c1557613c14613ed8565b5b602082029050602081019050919050565b600067ffffffffffffffff821115613c4157613c40613ed8565b5b602082029050602081019050919050565b600067ffffffffffffffff821115613c6d57613c6c613ed8565b5b601f19601f8301169050602081019050919050565b6000819050602082019050919050565b600081519050919050565b600081519050919050565b600081519050919050565b6000602082019050919050565b600082825260208201905092915050565b600082825260208201905092915050565b600082825260208201905092915050565b6000613cfe82613db3565b9150613d0983613db3565b9250827fffffffffffffffffffffffffffffffffffffffffffffffffffffffffffffffff03821115613d3e57613d3d613e7a565b5b828201905092915050565b6000613d5482613d93565b9050919050565b60008115159050919050565b60007fffffffff0000000000000000000000000000000000000000000000000000000082169050919050565b600073ffffffffffffffffffffffffffffffffffffffff82169050919050565b6000819050919050565b82818337600083830152505050565b60005b83811015613dea578082015181840152602081019050613dcf565b83811115613df9576000848401525b50505050565b60006002820490506001821680613e1757607f821691505b60208210811415613e2b57613e2a613ea9565b5b50919050565b6000613e3c82613db3565b91507fffffffffffffffffffffffffffffffffffffffffffffffffffffffffffffffff821415613e6f57613e6e613e7a565b5b600182019050919050565b7f4e487b7100000000000000000000000000000000000000000000000000000000600052601160045260246000fd5b7f4e487b7100000000000000000000000000000000000000000000000000000000600052602260045260246000fd5b7f4e487b7100000000000000000000000000000000000000000000000000000000600052604160045260246000fd5b6000601f19601f8301169050919050565b60008160e01c9050919050565b600060443d1015613f3557613fd8565b60046000803e613f46600051613f18565b6308c379a08114613f575750613fd8565b60405160043d036004823e80513d602482011167ffffffffffffffff82111715613f8357505050613fd8565b808201805167ffffffffffffffff811115613fa2575050505050613fd8565b8060208301013d8501811115613fbd57505050505050613fd8565b613fc682613f07565b60208401016040528296505050505050505b90565b613fe481613d49565b8114613fef57600080fd5b50565b613ffb81613d5b565b811461400657600080fd5b50565b61401281613d67565b811461401d57600080fd5b50565b61402981613db3565b811461403457600080fd5b5056fea2646970667358221220eb9a59abdc3584dabca649e071cc5175ea04f1a2d3fecbdb1a1e8682dc5e346b64736f6c63430008000033",
  "immutableReferences": {},
  "source": "// SPDX-License-Identifier: MIT\npragma solidity ^0.8.0;\n\n\nimport \"@openzeppelin/contracts-upgradeable/token/ERC1155/ERC1155Upgradeable.sol\";\nimport \"@openzeppelin/contracts-upgradeable/security/PausableUpgradeable.sol\";\nimport \"@openzeppelin/contracts-upgradeable/access/OwnableUpgradeable.sol\";\nimport \"@openzeppelin/contracts-upgradeable/proxy/utils/Initializable.sol\";\n\n\ncontract Onec is Initializable,PausableUpgradeable, OwnableUpgradeable, ERC1155Upgradeable {\n\n    uint private totalRegisteredNFTs;\n\n    // token-id to metadata hash\n    mapping(uint256 => bytes) private metadataHash;\n    // Sids to refSids\n    mapping(uint256 => uint256[]) private references;\n\n    function initialize() public initializer {\n        ERC1155Upgradeable.__ERC1155_init(\"https://ipfs.onec.in/\");\n        totalRegisteredNFTs = 0;\n    }\n    \n    /*\n     * @dev Mints Main Service to the address of _holder.\n     * Requirements:\n     * Can only be called by the deployer of the smart contract.\n     */\n    function mintSid(uint _supply, address _holder, uint256 _id, bytes memory _data) public {\n        require(metadataHash[_id].length == 0);\n        _mint(_holder, _id, _supply, _data);\n        totalRegisteredNFTs++;        \n    }\n\n    /*\n     * @dev Mints Rerference Service to the address of _holder.\n     * Requirements:\n     * Can only be called by the deployer of the smart contract.\n     */\n    \n    function mintRefSid(uint _supply, address _holder, uint256 _id, bytes memory _data,uint256 _parentSid) public {\n        require(metadataHash[_id].length == 0);\n        _mint(_holder, _id, _supply, _data);\n        references[_parentSid].push(_id);\n        totalRegisteredNFTs++;\n    }\n\n    /*\n     * @dev return the list of token-ids of all the reference service tokens\n     */\n    function getReferences(uint _sid) public view returns(uint256[] memory) {\n        return references[_sid];    \n    }\n    \n    /*\n     *@dev Called before every token transfer, maps the metadataHash of an asset with the token/asset id  \n     */\n    function _beforeTokenTransfer(address _operator, address _from, address _to, uint256[] memory ids, uint256[] memory amount, bytes memory data) override internal {\n        metadataHash[ids[0]] = data;\n        require(!paused(), \"ERC1155Pausable: token transfer while paused\");\n    }\n\n    /*\n     * @dev returns the metaDataHash for the token/asset ID\n     */\n\n    function getTokenMetadataHash(uint256 _id) view public returns(string memory) {\n        return string(metadataHash[_id]);\n    }\n\n     /*\n      * @dev returns the baseURI.\n      * Doesn't depends on the token-id and returns same thing.\n      */\n    function getBaseURI(uint256 _id) view public returns(string memory) {\n        return super.uri(_id);\n    }\n\n     /*\n      * @dev Tranfers the asset to new address.\n      * Can be called by the asset holder.\n      */\n    function transfer(address _from,address _to, uint256 _id, uint256 _amount, bytes memory _data) public {\n        super.safeTransferFrom(_from, _to, _id, _amount, _data);\n    }\n\n    /*\n     * @dev pause the onec contract.\n     */\n    function makePause() public onlyOwner {\n        super._pause();\n    }\n\n    /*\n     * @dev un-pause the onec contract.\n     */\n    function makeUnpause() public onlyOwner{\n        super._unpause();\n    } \n\n    /*\n     * @dev Burns the token/asset with the given tokenid.\n     */\n    function burnAsset(address account,uint256 id,uint256 amount) public{\n        super._burn(account,id,amount);\n        metadataHash[id]=bytes(\"0x0\");\n    }\n    \n    /*\n     * @dev Sets approval to the operator to manage assets held by the caller of the function.\n     */\n    function setApproval(address _operator, bool _approved) public {\n        super.setApprovalForAll(_operator,_approved);\n    }\n\n    /*\n     * @dev Give status of the approval rights, if the operator can manage assets held by the account.\n     */\n    function isApproved(address account, address operator) public view returns(bool){\n        return super.isApprovedForAll(account,operator);\n    }\n    \n    /*\n     * @dev Gives the balance of a particular asset of given id held by an account.\n     */\n    function getBalance(address account, uint256 id) public view returns(uint256){\n        return super.balanceOf(account,id);\n    }\n\n    /*\n     * @dev Returns the total minted NFTs/Services by the contract.\n     */\n    function getTotalMintedServices() public view returns(uint256){\n        return totalRegisteredNFTs;\n    }\n    \n\n}",
  "sourcePath": "/Users/hrishabhsharma/Projects/core-contract/contracts/Onec.sol",
  "compiler": {
    "name": "solc",
    "version": "0.8.0+commit.c7dfd78e.Emscripten.clang"
  },
  "schemaVersion": "3.4.3",
  "updatedAt": "2021-10-31T07:49:11.575Z",
  "networkType": "ethereum",
  "devdoc": {
    "kind": "dev",
    "methods": {
      "balanceOf(address,uint256)": {
        "details": "See {IERC1155-balanceOf}. Requirements: - `account` cannot be the zero address."
      },
      "balanceOfBatch(address[],uint256[])": {
        "details": "See {IERC1155-balanceOfBatch}. Requirements: - `accounts` and `ids` must have the same length."
      },
      "isApprovedForAll(address,address)": {
        "details": "See {IERC1155-isApprovedForAll}."
      },
      "owner()": {
        "details": "Returns the address of the current owner."
      },
      "paused()": {
        "details": "Returns true if the contract is paused, and false otherwise."
      },
      "renounceOwnership()": {
        "details": "Leaves the contract without owner. It will not be possible to call `onlyOwner` functions anymore. Can only be called by the current owner. NOTE: Renouncing ownership will leave the contract without an owner, thereby removing any functionality that is only available to the owner."
      },
      "safeBatchTransferFrom(address,address,uint256[],uint256[],bytes)": {
        "details": "See {IERC1155-safeBatchTransferFrom}."
      },
      "safeTransferFrom(address,address,uint256,uint256,bytes)": {
        "details": "See {IERC1155-safeTransferFrom}."
      },
      "setApprovalForAll(address,bool)": {
        "details": "See {IERC1155-setApprovalForAll}."
      },
      "supportsInterface(bytes4)": {
        "details": "See {IERC165-supportsInterface}."
      },
      "transferOwnership(address)": {
        "details": "Transfers ownership of the contract to a new account (`newOwner`). Can only be called by the current owner."
      },
      "uri(uint256)": {
        "details": "See {IERC1155MetadataURI-uri}. This implementation returns the same URI for *all* token types. It relies on the token type ID substitution mechanism https://eips.ethereum.org/EIPS/eip-1155#metadata[defined in the EIP]. Clients calling this function must replace the `\\{id\\}` substring with the actual token type ID."
      }
    },
    "version": 1
  },
  "userdoc": {
    "kind": "user",
    "methods": {},
    "version": 1
  }
}