{
  "contractName": "Onec",
  "abi": [
    {
      "anonymous": false,
      "inputs": [
        {
          "indexed": true,
          "internalType": "address",
          "name": "account",
          "type": "address"
        },
        {
          "indexed": true,
          "internalType": "address",
          "name": "operator",
          "type": "address"
        },
        {
          "indexed": false,
          "internalType": "bool",
          "name": "approved",
          "type": "bool"
        }
      ],
      "name": "ApprovalForAll",
      "type": "event"
    },
    {
      "anonymous": false,
      "inputs": [
        {
          "indexed": true,
          "internalType": "address",
          "name": "previousOwner",
          "type": "address"
        },
        {
          "indexed": true,
          "internalType": "address",
          "name": "newOwner",
          "type": "address"
        }
      ],
      "name": "OwnershipTransferred",
      "type": "event"
    },
    {
      "anonymous": false,
      "inputs": [
        {
          "indexed": false,
          "internalType": "address",
          "name": "account",
          "type": "address"
        }
      ],
      "name": "Paused",
      "type": "event"
    },
    {
      "anonymous": false,
      "inputs": [
        {
          "indexed": true,
          "internalType": "address",
          "name": "operator",
          "type": "address"
        },
        {
          "indexed": true,
          "internalType": "address",
          "name": "from",
          "type": "address"
        },
        {
          "indexed": true,
          "internalType": "address",
          "name": "to",
          "type": "address"
        },
        {
          "indexed": false,
          "internalType": "uint256[]",
          "name": "ids",
          "type": "uint256[]"
        },
        {
          "indexed": false,
          "internalType": "uint256[]",
          "name": "values",
          "type": "uint256[]"
        }
      ],
      "name": "TransferBatch",
      "type": "event"
    },
    {
      "anonymous": false,
      "inputs": [
        {
          "indexed": true,
          "internalType": "address",
          "name": "operator",
          "type": "address"
        },
        {
          "indexed": true,
          "internalType": "address",
          "name": "from",
          "type": "address"
        },
        {
          "indexed": true,
          "internalType": "address",
          "name": "to",
          "type": "address"
        },
        {
          "indexed": false,
          "internalType": "uint256",
          "name": "id",
          "type": "uint256"
        },
        {
          "indexed": false,
          "internalType": "uint256",
          "name": "value",
          "type": "uint256"
        }
      ],
      "name": "TransferSingle",
      "type": "event"
    },
    {
      "anonymous": false,
      "inputs": [
        {
          "indexed": false,
          "internalType": "string",
          "name": "value",
          "type": "string"
        },
        {
          "indexed": true,
          "internalType": "uint256",
          "name": "id",
          "type": "uint256"
        }
      ],
      "name": "URI",
      "type": "event"
    },
    {
      "anonymous": false,
      "inputs": [
        {
          "indexed": false,
          "internalType": "address",
          "name": "account",
          "type": "address"
        }
      ],
      "name": "Unpaused",
      "type": "event"
    },
    {
      "inputs": [
        {
          "internalType": "address",
          "name": "account",
          "type": "address"
        },
        {
          "internalType": "uint256",
          "name": "id",
          "type": "uint256"
        }
      ],
      "name": "balanceOf",
      "outputs": [
        {
          "internalType": "uint256",
          "name": "",
          "type": "uint256"
        }
      ],
      "stateMutability": "view",
      "type": "function",
      "constant": true
    },
    {
      "inputs": [
        {
          "internalType": "address[]",
          "name": "accounts",
          "type": "address[]"
        },
        {
          "internalType": "uint256[]",
          "name": "ids",
          "type": "uint256[]"
        }
      ],
      "name": "balanceOfBatch",
      "outputs": [
        {
          "internalType": "uint256[]",
          "name": "",
          "type": "uint256[]"
        }
      ],
      "stateMutability": "view",
      "type": "function",
      "constant": true
    },
    {
      "inputs": [
        {
          "internalType": "address",
          "name": "account",
          "type": "address"
        },
        {
          "internalType": "address",
          "name": "operator",
          "type": "address"
        }
      ],
      "name": "isApprovedForAll",
      "outputs": [
        {
          "internalType": "bool",
          "name": "",
          "type": "bool"
        }
      ],
      "stateMutability": "view",
      "type": "function",
      "constant": true
    },
    {
      "inputs": [],
      "name": "owner",
      "outputs": [
        {
          "internalType": "address",
          "name": "",
          "type": "address"
        }
      ],
      "stateMutability": "view",
      "type": "function",
      "constant": true
    },
    {
      "inputs": [],
      "name": "paused",
      "outputs": [
        {
          "internalType": "bool",
          "name": "",
          "type": "bool"
        }
      ],
      "stateMutability": "view",
      "type": "function",
      "constant": true
    },
    {
      "inputs": [],
      "name": "renounceOwnership",
      "outputs": [],
      "stateMutability": "nonpayable",
      "type": "function"
    },
    {
      "inputs": [
        {
          "internalType": "address",
          "name": "from",
          "type": "address"
        },
        {
          "internalType": "address",
          "name": "to",
          "type": "address"
        },
        {
          "internalType": "uint256[]",
          "name": "ids",
          "type": "uint256[]"
        },
        {
          "internalType": "uint256[]",
          "name": "amounts",
          "type": "uint256[]"
        },
        {
          "internalType": "bytes",
          "name": "data",
          "type": "bytes"
        }
      ],
      "name": "safeBatchTransferFrom",
      "outputs": [],
      "stateMutability": "nonpayable",
      "type": "function"
    },
    {
      "inputs": [
        {
          "internalType": "address",
          "name": "from",
          "type": "address"
        },
        {
          "internalType": "address",
          "name": "to",
          "type": "address"
        },
        {
          "internalType": "uint256",
          "name": "id",
          "type": "uint256"
        },
        {
          "internalType": "uint256",
          "name": "amount",
          "type": "uint256"
        },
        {
          "internalType": "bytes",
          "name": "data",
          "type": "bytes"
        }
      ],
      "name": "safeTransferFrom",
      "outputs": [],
      "stateMutability": "nonpayable",
      "type": "function"
    },
    {
      "inputs": [
        {
          "internalType": "address",
          "name": "operator",
          "type": "address"
        },
        {
          "internalType": "bool",
          "name": "approved",
          "type": "bool"
        }
      ],
      "name": "setApprovalForAll",
      "outputs": [],
      "stateMutability": "nonpayable",
      "type": "function"
    },
    {
      "inputs": [
        {
          "internalType": "bytes4",
          "name": "interfaceId",
          "type": "bytes4"
        }
      ],
      "name": "supportsInterface",
      "outputs": [
        {
          "internalType": "bool",
          "name": "",
          "type": "bool"
        }
      ],
      "stateMutability": "view",
      "type": "function",
      "constant": true
    },
    {
      "inputs": [
        {
          "internalType": "address",
          "name": "newOwner",
          "type": "address"
        }
      ],
      "name": "transferOwnership",
      "outputs": [],
      "stateMutability": "nonpayable",
      "type": "function"
    },
    {
      "inputs": [],
      "name": "initialize",
      "outputs": [],
      "stateMutability": "nonpayable",
      "type": "function"
    },
    {
      "inputs": [],
      "name": "contractURI",
      "outputs": [
        {
          "internalType": "string",
          "name": "",
          "type": "string"
        }
      ],
      "stateMutability": "pure",
      "type": "function",
      "constant": true
    },
    {
      "inputs": [
        {
          "internalType": "uint256",
          "name": "_supply",
          "type": "uint256"
        },
        {
          "internalType": "address",
          "name": "_holder",
          "type": "address"
        },
        {
          "internalType": "bytes",
          "name": "_data",
          "type": "bytes"
        }
      ],
      "name": "mintNFT",
      "outputs": [],
      "stateMutability": "nonpayable",
      "type": "function"
    },
    {
      "inputs": [
        {
          "internalType": "uint256",
          "name": "_supply",
          "type": "uint256"
        },
        {
          "internalType": "address",
          "name": "_holder",
          "type": "address"
        },
        {
          "internalType": "bytes",
          "name": "_data",
          "type": "bytes"
        },
        {
          "internalType": "uint256",
          "name": "_parentTokenId",
          "type": "uint256"
        }
      ],
      "name": "mintRefNFT",
      "outputs": [],
      "stateMutability": "nonpayable",
      "type": "function"
    },
    {
      "inputs": [
        {
          "internalType": "uint256",
          "name": "_supply",
          "type": "uint256"
        },
        {
          "internalType": "address",
          "name": "_holder",
          "type": "address"
        },
        {
          "internalType": "bytes",
          "name": "_data",
          "type": "bytes"
        }
      ],
      "name": "batchMintNFT",
      "outputs": [],
      "stateMutability": "nonpayable",
      "type": "function"
    },
    {
      "inputs": [
        {
          "internalType": "uint256",
          "name": "_supply",
          "type": "uint256"
        },
        {
          "internalType": "address",
          "name": "_holder",
          "type": "address"
        },
        {
          "internalType": "bytes",
          "name": "_data",
          "type": "bytes"
        },
        {
          "internalType": "uint256",
          "name": "_parentTokenId",
          "type": "uint256"
        }
      ],
      "name": "batchMintRefNFT",
      "outputs": [],
      "stateMutability": "nonpayable",
      "type": "function"
    },
    {
      "inputs": [
        {
          "internalType": "uint256",
          "name": "_id",
          "type": "uint256"
        }
      ],
      "name": "getReferences",
      "outputs": [
        {
          "internalType": "uint256[]",
          "name": "",
          "type": "uint256[]"
        }
      ],
      "stateMutability": "view",
      "type": "function",
      "constant": true
    },
    {
      "inputs": [
        {
          "internalType": "uint256",
          "name": "_id",
          "type": "uint256"
        }
      ],
      "name": "getTokenMetadataHash",
      "outputs": [
        {
          "internalType": "string",
          "name": "",
          "type": "string"
        }
      ],
      "stateMutability": "view",
      "type": "function",
      "constant": true
    },
    {
      "inputs": [
        {
          "internalType": "uint256",
          "name": "_id",
          "type": "uint256"
        }
      ],
      "name": "getBaseURI",
      "outputs": [
        {
          "internalType": "string",
          "name": "",
          "type": "string"
        }
      ],
      "stateMutability": "view",
      "type": "function",
      "constant": true
    },
    {
      "inputs": [
        {
          "internalType": "string",
          "name": "_baseURI",
          "type": "string"
        }
      ],
      "name": "setBaseURI",
      "outputs": [],
      "stateMutability": "nonpayable",
      "type": "function"
    },
    {
      "inputs": [
        {
          "internalType": "uint256",
          "name": "_id",
          "type": "uint256"
        }
      ],
      "name": "uri",
      "outputs": [
        {
          "internalType": "string",
          "name": "",
          "type": "string"
        }
      ],
      "stateMutability": "view",
      "type": "function",
      "constant": true
    },
    {
      "inputs": [
        {
          "internalType": "address",
          "name": "_from",
          "type": "address"
        },
        {
          "internalType": "address",
          "name": "_to",
          "type": "address"
        },
        {
          "internalType": "uint256",
          "name": "_id",
          "type": "uint256"
        },
        {
          "internalType": "uint256",
          "name": "_amount",
          "type": "uint256"
        },
        {
          "internalType": "bytes",
          "name": "_data",
          "type": "bytes"
        }
      ],
      "name": "transfer",
      "outputs": [],
      "stateMutability": "nonpayable",
      "type": "function"
    },
    {
      "inputs": [
        {
          "internalType": "address",
          "name": "_from",
          "type": "address"
        },
        {
          "internalType": "address",
          "name": "_to",
          "type": "address"
        },
        {
          "internalType": "uint256[]",
          "name": "_ids",
          "type": "uint256[]"
        },
        {
          "internalType": "uint256[]",
          "name": "_amounts",
          "type": "uint256[]"
        },
        {
          "internalType": "bytes",
          "name": "_data",
          "type": "bytes"
        }
      ],
      "name": "batchTransfer",
      "outputs": [],
      "stateMutability": "nonpayable",
      "type": "function"
    },
    {
      "inputs": [],
      "name": "makePause",
      "outputs": [],
      "stateMutability": "nonpayable",
      "type": "function"
    },
    {
      "inputs": [],
      "name": "makeUnpause",
      "outputs": [],
      "stateMutability": "nonpayable",
      "type": "function"
    },
    {
      "inputs": [
        {
          "internalType": "address",
          "name": "account",
          "type": "address"
        },
        {
          "internalType": "uint256",
          "name": "id",
          "type": "uint256"
        },
        {
          "internalType": "uint256",
          "name": "amount",
          "type": "uint256"
        }
      ],
      "name": "burnNFT",
      "outputs": [],
      "stateMutability": "nonpayable",
      "type": "function"
    },
    {
      "inputs": [
        {
          "internalType": "address",
          "name": "_operator",
          "type": "address"
        },
        {
          "internalType": "bool",
          "name": "_approved",
          "type": "bool"
        }
      ],
      "name": "setApproval",
      "outputs": [],
      "stateMutability": "nonpayable",
      "type": "function"
    },
    {
      "inputs": [
        {
          "internalType": "address",
          "name": "account",
          "type": "address"
        },
        {
          "internalType": "address",
          "name": "operator",
          "type": "address"
        }
      ],
      "name": "isApproved",
      "outputs": [
        {
          "internalType": "bool",
          "name": "",
          "type": "bool"
        }
      ],
      "stateMutability": "view",
      "type": "function",
      "constant": true
    },
    {
      "inputs": [
        {
          "internalType": "address",
          "name": "account",
          "type": "address"
        },
        {
          "internalType": "uint256",
          "name": "id",
          "type": "uint256"
        }
      ],
      "name": "getBalance",
      "outputs": [
        {
          "internalType": "uint256",
          "name": "",
          "type": "uint256"
        }
      ],
      "stateMutability": "view",
      "type": "function",
      "constant": true
    },
    {
      "inputs": [],
      "name": "getTotalMintedNFT",
      "outputs": [
        {
          "internalType": "uint256",
          "name": "",
          "type": "uint256"
        }
      ],
      "stateMutability": "view",
      "type": "function",
      "constant": true
    }
  ],
  "bytecode": "0x608060405234801561001057600080fd5b50615220806100206000396000f3fe608060405234801561001057600080fd5b50600436106101e45760003560e01c80638129fc1c1161010f578063c92c9f14116100a2578063e985e9c511610071578063e985e9c514610551578063f102ffe514610581578063f242432a1461059d578063f2fde38b146105b9576101e4565b8063c92c9f14146104dd578063cef8cb87146104f9578063db9b717014610517578063e8a3d48514610533576101e4565b8063a22cb465116100de578063a22cb4651461046b578063a389783e14610487578063a90205a3146104b7578063b2cf2f16146104c1576101e4565b80638129fc1c14610409578063837c59621461041357806386838fb6146104435780638da5cb5b1461044d576101e4565b80633cfc7ae2116101875780635c975abb116101565780635c975abb146103955780636877444f146103b3578063715018a6146103cf57806373376398146103d9576101e4565b80633cfc7ae2146102fd5780634e1273f41461032d5780635374cf781461035d57806355f804b314610379576101e4565b8063127217d6116101c3578063127217d6146102795780631cc509fd146102955780632b04e840146102b15780632eb2c2d6146102e1576101e4565b8062fdd58e146101e957806301ffc9a7146102195780630e89341c14610249575b600080fd5b61020360048036038101906101fe9190613d59565b6105d5565b6040516102109190614cc5565b60405180910390f35b610233600480360381019061022e9190613e50565b61069f565b60405161024091906149e8565b60405180910390f35b610263600480360381019061025e9190613ee3565b610781565b6040516102709190614a03565b60405180910390f35b610293600480360381019061028e9190613c8e565b610803565b005b6102af60048036038101906102aa9190613d95565b610817565b005b6102cb60048036038101906102c69190613d59565b610900565b6040516102d89190614cc5565b60405180910390f35b6102fb60048036038101906102f69190613bcf565b610914565b005b61031760048036038101906103129190613ee3565b6109b5565b604051610324919061498f565b60405180910390f35b61034760048036038101906103429190613de4565b610a20565b604051610354919061498f565b60405180910390f35b61037760048036038101906103729190613f0c565b610bd1565b005b610393600480360381019061038e9190613ea2565b610c78565b005b61039d610d00565b6040516103aa91906149e8565b60405180910390f35b6103cd60048036038101906103c89190613f73565b610d17565b005b6103d7610e3f565b005b6103f360048036038101906103ee9190613ee3565b610ec7565b6040516104009190614a03565b60405180910390f35b610411610ed9565b005b61042d60048036038101906104289190613ee3565b611000565b60405161043a9190614a03565b60405180910390f35b61044b6110a5565b005b61045561112b565b60405161046291906148b2565b60405180910390f35b61048560048036038101906104809190613d1d565b611155565b005b6104a1600480360381019061049c9190613b93565b6112d6565b6040516104ae91906149e8565b60405180910390f35b6104bf6112ea565b005b6104db60048036038101906104d69190613bcf565b611370565b005b6104f760048036038101906104f29190613f73565b611384565b005b610501611675565b60405161050e9190614cc5565b60405180910390f35b610531600480360381019061052c9190613d1d565b61167f565b005b61053b611709565b6040516105489190614a03565b60405180910390f35b61056b60048036038101906105669190613b93565b611729565b60405161057891906149e8565b60405180910390f35b61059b60048036038101906105969190613f0c565b6117bd565b005b6105b760048036038101906105b29190613c8e565b611a05565b005b6105d360048036038101906105ce9190613b6a565b611aa6565b005b60008073ffffffffffffffffffffffffffffffffffffffff168373ffffffffffffffffffffffffffffffffffffffff161415610646576040517f08c379a000000000000000000000000000000000000000000000000000000000815260040161063d90614aa5565b60405180910390fd5b60c9600083815260200190815260200160002060008473ffffffffffffffffffffffffffffffffffffffff1673ffffffffffffffffffffffffffffffffffffffff16815260200190815260200160002054905092915050565b60007fd9b67a26000000000000000000000000000000000000000000000000000000007bffffffffffffffffffffffffffffffffffffffffffffffffffffffff1916827bffffffffffffffffffffffffffffffffffffffffffffffffffffffff1916148061076a57507f0e89341c000000000000000000000000000000000000000000000000000000007bffffffffffffffffffffffffffffffffffffffffffffffffffffffff1916827bffffffffffffffffffffffffffffffffffffffffffffffffffffffff1916145b8061077a575061077982611b9e565b5b9050919050565b606061078b611675565b8211156107cd576040517f08c379a00000000000000000000000000000000000000000000000000000000081526004016107c490614b45565b60405180910390fd5b60006107d883610ec7565b905060006107e584611000565b90506107fa8183611c0890919063ffffffff16565b92505050919050565b6108108585858585611a05565b5050505050565b61081f611e61565b73ffffffffffffffffffffffffffffffffffffffff1661083d61112b565b73ffffffffffffffffffffffffffffffffffffffff1614610893576040517f08c379a000000000000000000000000000000000000000000000000000000000815260040161088a90614c25565b60405180910390fd5b61089e838383611e69565b6040518060400160405280600381526020017f307830000000000000000000000000000000000000000000000000000000000081525060fc600084815260200190815260200160002090805190602001906108fa9291906137dc565b50505050565b600061090c83836105d5565b905092915050565b61091c611e61565b73ffffffffffffffffffffffffffffffffffffffff168573ffffffffffffffffffffffffffffffffffffffff16148061096257506109618561095c611e61565b611729565b5b6109a1576040517f08c379a000000000000000000000000000000000000000000000000000000000815260040161099890614ba5565b60405180910390fd5b6109ae8585858585612088565b5050505050565b606060fd6000838152602001908152602001600020805480602002602001604051908101604052809291908181526020018280548015610a1457602002820191906000526020600020905b815481526020019060010190808311610a00575b50505050509050919050565b60608151835114610a66576040517f08c379a0000000000000000000000000000000000000000000000000000000008152600401610a5d90614c65565b60405180910390fd5b6000835167ffffffffffffffff811115610aa9577f4e487b7100000000000000000000000000000000000000000000000000000000600052604160045260246000fd5b604051908082528060200260200182016040528015610ad75781602001602082028036833780820191505090505b50905060005b8451811015610bc657610b70858281518110610b22577f4e487b7100000000000000000000000000000000000000000000000000000000600052603260045260246000fd5b6020026020010151858381518110610b63577f4e487b7100000000000000000000000000000000000000000000000000000000600052603260045260246000fd5b60200260200101516105d5565b828281518110610ba9577f4e487b7100000000000000000000000000000000000000000000000000000000600052603260045260246000fd5b60200260200101818152505080610bbf90614fa1565b9050610add565b508091505092915050565b610bd9611e61565b73ffffffffffffffffffffffffffffffffffffffff16610bf761112b565b73ffffffffffffffffffffffffffffffffffffffff1614610c4d576040517f08c379a0000000000000000000000000000000000000000000000000000000008152600401610c4490614c25565b60405180910390fd5b610c5b8260fb5485846123eb565b60fb6000815480929190610c6e90614fa1565b9190505550505050565b610c80611e61565b73ffffffffffffffffffffffffffffffffffffffff16610c9e61112b565b73ffffffffffffffffffffffffffffffffffffffff1614610cf4576040517f08c379a0000000000000000000000000000000000000000000000000000000008152600401610ceb90614c25565b60405180910390fd5b610cfd81612582565b50565b6000603360009054906101000a900460ff16905090565b610d1f611e61565b73ffffffffffffffffffffffffffffffffffffffff16610d3d61112b565b73ffffffffffffffffffffffffffffffffffffffff1614610d93576040517f08c379a0000000000000000000000000000000000000000000000000000000008152600401610d8a90614c25565b60405180910390fd5b60fb548110610dd7576040517f08c379a0000000000000000000000000000000000000000000000000000000008152600401610dce90614a65565b60405180910390fd5b610de58360fb5486856123eb565b60fd600082815260200190815260200160002060fb54908060018154018082558091505060019003906000526020600020016000909190919091505560fb6000815480929190610e3490614fa1565b919050555050505050565b610e47611e61565b73ffffffffffffffffffffffffffffffffffffffff16610e6561112b565b73ffffffffffffffffffffffffffffffffffffffff1614610ebb576040517f08c379a0000000000000000000000000000000000000000000000000000000008152600401610eb290614c25565b60405180910390fd5b610ec5600061259c565b565b6060610ed282612662565b9050919050565b600060019054906101000a900460ff1680610eff575060008054906101000a900460ff16155b610f3e576040517f08c379a0000000000000000000000000000000000000000000000000000000008152600401610f3590614bc5565b60405180910390fd5b60008060019054906101000a900460ff161590508015610f8e576001600060016101000a81548160ff02191690831515021790555060016000806101000a81548160ff0219169083151502179055505b610fcc6040518060400160405280601581526020017f68747470733a2f2f697066732e696f2f697066732f00000000000000000000008152506126f6565b610fd46127e9565b600060fb819055508015610ffd5760008060016101000a81548160ff0219169083151502179055505b50565b606060fc6000838152602001908152602001600020805461102090614f6f565b80601f016020809104026020016040519081016040528092919081815260200182805461104c90614f6f565b80156110995780601f1061106e57610100808354040283529160200191611099565b820191906000526020600020905b81548152906001019060200180831161107c57829003601f168201915b50505050509050919050565b6110ad611e61565b73ffffffffffffffffffffffffffffffffffffffff166110cb61112b565b73ffffffffffffffffffffffffffffffffffffffff1614611121576040517f08c379a000000000000000000000000000000000000000000000000000000000815260040161111890614c25565b60405180910390fd5b6111296128d2565b565b6000606560009054906101000a900473ffffffffffffffffffffffffffffffffffffffff16905090565b8173ffffffffffffffffffffffffffffffffffffffff16611174611e61565b73ffffffffffffffffffffffffffffffffffffffff1614156111cb576040517f08c379a00000000000000000000000000000000000000000000000000000000081526004016111c290614c45565b60405180910390fd5b8060ca60006111d8611e61565b73ffffffffffffffffffffffffffffffffffffffff1673ffffffffffffffffffffffffffffffffffffffff16815260200190815260200160002060008473ffffffffffffffffffffffffffffffffffffffff1673ffffffffffffffffffffffffffffffffffffffff16815260200190815260200160002060006101000a81548160ff0219169083151502179055508173ffffffffffffffffffffffffffffffffffffffff16611285611e61565b73ffffffffffffffffffffffffffffffffffffffff167f17307eab39ab6107e8899845ad3d59bd9653f200f220920489ca2b5937696c31836040516112ca91906149e8565b60405180910390a35050565b60006112e28383611729565b905092915050565b6112f2611e61565b73ffffffffffffffffffffffffffffffffffffffff1661131061112b565b73ffffffffffffffffffffffffffffffffffffffff1614611366576040517f08c379a000000000000000000000000000000000000000000000000000000000815260040161135d90614c25565b60405180910390fd5b61136e612974565b565b61137d8585858585610914565b5050505050565b61138c611e61565b73ffffffffffffffffffffffffffffffffffffffff166113aa61112b565b73ffffffffffffffffffffffffffffffffffffffff1614611400576040517f08c379a00000000000000000000000000000000000000000000000000000000081526004016113f790614c25565b60405180910390fd5b60fb54811061140e57600080fd5b60008467ffffffffffffffff811115611450577f4e487b7100000000000000000000000000000000000000000000000000000000600052604160045260246000fd5b60405190808252806020026020018201604052801561147e5781602001602082028036833780820191505090505b50905060008567ffffffffffffffff8111156114c3577f4e487b7100000000000000000000000000000000000000000000000000000000600052604160045260246000fd5b6040519080825280602002602001820160405280156114f15781602001602082028036833780820191505090505b50905060005b868110156115ac578060fb5461150d9190614e63565b838281518110611546577f4e487b7100000000000000000000000000000000000000000000000000000000600052603260045260246000fd5b602002602001018181525050600182828151811061158d577f4e487b7100000000000000000000000000000000000000000000000000000000600052603260045260246000fd5b60200260200101818152505080806115a490614fa1565b9150506114f7565b506115b985838387612a17565b815160fb60008282546115cc9190614e63565b9250508190555060005b825181101561166c5760fd600085815260200190815260200160002083828151811061162b577f4e487b7100000000000000000000000000000000000000000000000000000000600052603260045260246000fd5b60200260200101519080600181540180825580915050600190039060005260206000200160009091909190915055808061166490614fa1565b9150506115d6565b50505050505050565b600060fb54905090565b611687611e61565b73ffffffffffffffffffffffffffffffffffffffff166116a561112b565b73ffffffffffffffffffffffffffffffffffffffff16146116fb576040517f08c379a00000000000000000000000000000000000000000000000000000000081526004016116f290614c25565b60405180910390fd5b6117058282611155565b5050565b60606040518060800160405280604381526020016151a860439139905090565b600060ca60008473ffffffffffffffffffffffffffffffffffffffff1673ffffffffffffffffffffffffffffffffffffffff16815260200190815260200160002060008373ffffffffffffffffffffffffffffffffffffffff1673ffffffffffffffffffffffffffffffffffffffff16815260200190815260200160002060009054906101000a900460ff16905092915050565b6117c5611e61565b73ffffffffffffffffffffffffffffffffffffffff166117e361112b565b73ffffffffffffffffffffffffffffffffffffffff1614611839576040517f08c379a000000000000000000000000000000000000000000000000000000000815260040161183090614c25565b60405180910390fd5b60008367ffffffffffffffff81111561187b577f4e487b7100000000000000000000000000000000000000000000000000000000600052604160045260246000fd5b6040519080825280602002602001820160405280156118a95781602001602082028036833780820191505090505b50905060008467ffffffffffffffff8111156118ee577f4e487b7100000000000000000000000000000000000000000000000000000000600052604160045260246000fd5b60405190808252806020026020018201604052801561191c5781602001602082028036833780820191505090505b50905060005b858110156119d7578060fb546119389190614e63565b838281518110611971577f4e487b7100000000000000000000000000000000000000000000000000000000600052603260045260246000fd5b60200260200101818152505060018282815181106119b8577f4e487b7100000000000000000000000000000000000000000000000000000000600052603260045260246000fd5b60200260200101818152505080806119cf90614fa1565b915050611922565b506119e484838386612a17565b815160fb60008282546119f79190614e63565b925050819055505050505050565b611a0d611e61565b73ffffffffffffffffffffffffffffffffffffffff168573ffffffffffffffffffffffffffffffffffffffff161480611a535750611a5285611a4d611e61565b611729565b5b611a92576040517f08c379a0000000000000000000000000000000000000000000000000000000008152600401611a8990614b25565b60405180910390fd5b611a9f8585858585612c82565b5050505050565b611aae611e61565b73ffffffffffffffffffffffffffffffffffffffff16611acc61112b565b73ffffffffffffffffffffffffffffffffffffffff1614611b22576040517f08c379a0000000000000000000000000000000000000000000000000000000008152600401611b1990614c25565b60405180910390fd5b600073ffffffffffffffffffffffffffffffffffffffff168173ffffffffffffffffffffffffffffffffffffffff161415611b92576040517f08c379a0000000000000000000000000000000000000000000000000000000008152600401611b8990614ac5565b60405180910390fd5b611b9b8161259c565b50565b60007f01ffc9a7000000000000000000000000000000000000000000000000000000007bffffffffffffffffffffffffffffffffffffffffffffffffffffffff1916827bffffffffffffffffffffffffffffffffffffffffffffffffffffffff1916149050919050565b606060008390506000839050600081518351611c249190614e63565b67ffffffffffffffff811115611c63577f4e487b7100000000000000000000000000000000000000000000000000000000600052604160045260246000fd5b6040519080825280601f01601f191660200182016040528015611c955781602001600182028036833780820191505090505b5090506000819050600080600091505b8551821015611d7957858281518110611ce7577f4e487b7100000000000000000000000000000000000000000000000000000000600052603260045260246000fd5b602001015160f81c60f81b838280611cfe90614fa1565b935081518110611d37577f4e487b7100000000000000000000000000000000000000000000000000000000600052603260045260246000fd5b60200101907effffffffffffffffffffffffffffffffffffffffffffffffffffffffffffff1916908160001a9053508180611d7190614fa1565b925050611ca5565b600091505b8451821015611e5257848281518110611dc0577f4e487b7100000000000000000000000000000000000000000000000000000000600052603260045260246000fd5b602001015160f81c60f81b838280611dd790614fa1565b935081518110611e10577f4e487b7100000000000000000000000000000000000000000000000000000000600052603260045260246000fd5b60200101907effffffffffffffffffffffffffffffffffffffffffffffffffffffffffffff1916908160001a9053508180611e4a90614fa1565b925050611d7e565b82965050505050505092915050565b600033905090565b600073ffffffffffffffffffffffffffffffffffffffff168373ffffffffffffffffffffffffffffffffffffffff161415611ed9576040517f08c379a0000000000000000000000000000000000000000000000000000000008152600401611ed090614be5565b60405180910390fd5b6000611ee3611e61565b9050611f1381856000611ef587612f07565b611efe87612f07565b60405180602001604052806000815250612fcd565b600060c9600085815260200190815260200160002060008673ffffffffffffffffffffffffffffffffffffffff1673ffffffffffffffffffffffffffffffffffffffff16815260200190815260200160002054905082811015611fab576040517f08c379a0000000000000000000000000000000000000000000000000000000008152600401611fa290614ae5565b60405180910390fd5b82810360c9600086815260200190815260200160002060008773ffffffffffffffffffffffffffffffffffffffff1673ffffffffffffffffffffffffffffffffffffffff16815260200190815260200160002081905550600073ffffffffffffffffffffffffffffffffffffffff168573ffffffffffffffffffffffffffffffffffffffff168373ffffffffffffffffffffffffffffffffffffffff167fc3d58168c5ae7397731d063d5bbf3d657854427343f4c083240f7aacaa2d0f628787604051612079929190614ce0565b60405180910390a45050505050565b81518351146120cc576040517f08c379a00000000000000000000000000000000000000000000000000000000081526004016120c390614c85565b60405180910390fd5b600073ffffffffffffffffffffffffffffffffffffffff168473ffffffffffffffffffffffffffffffffffffffff16141561213c576040517f08c379a000000000000000000000000000000000000000000000000000000000815260040161213390614b85565b60405180910390fd5b6000612146611e61565b9050612156818787878787612fcd565b60005b845181101561235657600085828151811061219d577f4e487b7100000000000000000000000000000000000000000000000000000000600052603260045260246000fd5b6020026020010151905060008583815181106121e2577f4e487b7100000000000000000000000000000000000000000000000000000000600052603260045260246000fd5b60200260200101519050600060c9600084815260200190815260200160002060008b73ffffffffffffffffffffffffffffffffffffffff1673ffffffffffffffffffffffffffffffffffffffff16815260200190815260200160002054905081811015612284576040517f08c379a000000000000000000000000000000000000000000000000000000000815260040161227b90614c05565b60405180910390fd5b81810360c9600085815260200190815260200160002060008c73ffffffffffffffffffffffffffffffffffffffff1673ffffffffffffffffffffffffffffffffffffffff168152602001908152602001600020819055508160c9600085815260200190815260200160002060008b73ffffffffffffffffffffffffffffffffffffffff1673ffffffffffffffffffffffffffffffffffffffff168152602001908152602001600020600082825461233b9190614e63565b925050819055505050508061234f90614fa1565b9050612159565b508473ffffffffffffffffffffffffffffffffffffffff168673ffffffffffffffffffffffffffffffffffffffff168273ffffffffffffffffffffffffffffffffffffffff167f4a39dc06d4c0dbc64b70af90fd698a233a518aa5d07e595d983b8c0526c8f7fb87876040516123cd9291906149b1565b60405180910390a46123e38187878787876130ab565b505050505050565b600073ffffffffffffffffffffffffffffffffffffffff168473ffffffffffffffffffffffffffffffffffffffff16141561245b576040517f08c379a000000000000000000000000000000000000000000000000000000000815260040161245290614ca5565b60405180910390fd5b6000612465611e61565b90506124868160008761247788612f07565b61248088612f07565b87612fcd565b8260c9600086815260200190815260200160002060008773ffffffffffffffffffffffffffffffffffffffff1673ffffffffffffffffffffffffffffffffffffffff16815260200190815260200160002060008282546124e69190614e63565b925050819055508473ffffffffffffffffffffffffffffffffffffffff16600073ffffffffffffffffffffffffffffffffffffffff168273ffffffffffffffffffffffffffffffffffffffff167fc3d58168c5ae7397731d063d5bbf3d657854427343f4c083240f7aacaa2d0f628787604051612564929190614ce0565b60405180910390a461257b8160008787878761327b565b5050505050565b8060cb9080519060200190612598929190613862565b5050565b6000606560009054906101000a900473ffffffffffffffffffffffffffffffffffffffff16905081606560006101000a81548173ffffffffffffffffffffffffffffffffffffffff021916908373ffffffffffffffffffffffffffffffffffffffff1602179055508173ffffffffffffffffffffffffffffffffffffffff168173ffffffffffffffffffffffffffffffffffffffff167f8be0079c531659141344cd1fd0a4f28419497f9722a3daafe3b4186f6b6457e060405160405180910390a35050565b606060cb805461267190614f6f565b80601f016020809104026020016040519081016040528092919081815260200182805461269d90614f6f565b80156126ea5780601f106126bf576101008083540402835291602001916126ea565b820191906000526020600020905b8154815290600101906020018083116126cd57829003601f168201915b50505050509050919050565b600060019054906101000a900460ff168061271c575060008054906101000a900460ff16155b61275b576040517f08c379a000000000000000000000000000000000000000000000000000000000815260040161275290614bc5565b60405180910390fd5b60008060019054906101000a900460ff1615905080156127ab576001600060016101000a81548160ff02191690831515021790555060016000806101000a81548160ff0219169083151502179055505b6127b361344b565b6127bb613524565b6127c4826135fd565b80156127e55760008060016101000a81548160ff0219169083151502179055505b5050565b600060019054906101000a900460ff168061280f575060008054906101000a900460ff16155b61284e576040517f08c379a000000000000000000000000000000000000000000000000000000000815260040161284590614bc5565b60405180910390fd5b60008060019054906101000a900460ff16159050801561289e576001600060016101000a81548160ff02191690831515021790555060016000806101000a81548160ff0219169083151502179055505b6128a661344b565b6128ae6136e0565b80156128cf5760008060016101000a81548160ff0219169083151502179055505b50565b6128da610d00565b612919576040517f08c379a000000000000000000000000000000000000000000000000000000000815260040161291090614a85565b60405180910390fd5b6000603360006101000a81548160ff0219169083151502179055507f5db9ee0a495bf2e6ff9c91a7834c1ba4fdd244a5e8aa4e537bd38aeae4b073aa61295d611e61565b60405161296a91906148b2565b60405180910390a1565b61297c610d00565b156129bc576040517f08c379a00000000000000000000000000000000000000000000000000000000081526004016129b390614b65565b60405180910390fd5b6001603360006101000a81548160ff0219169083151502179055507f62e78cea01bee320cd4e420270b5ea74000d11b0c9f74754ebdbfc544b05a258612a00611e61565b604051612a0d91906148b2565b60405180910390a1565b600073ffffffffffffffffffffffffffffffffffffffff168473ffffffffffffffffffffffffffffffffffffffff161415612a87576040517f08c379a0000000000000000000000000000000000000000000000000000000008152600401612a7e90614ca5565b60405180910390fd5b8151835114612acb576040517f08c379a0000000000000000000000000000000000000000000000000000000008152600401612ac290614c85565b60405180910390fd5b6000612ad5611e61565b9050612ae681600087878787612fcd565b60005b8451811015612bec57838181518110612b2b577f4e487b7100000000000000000000000000000000000000000000000000000000600052603260045260246000fd5b602002602001015160c96000878481518110612b70577f4e487b7100000000000000000000000000000000000000000000000000000000600052603260045260246000fd5b6020026020010151815260200190815260200160002060008873ffffffffffffffffffffffffffffffffffffffff1673ffffffffffffffffffffffffffffffffffffffff1681526020019081526020016000206000828254612bd29190614e63565b925050819055508080612be490614fa1565b915050612ae9565b508473ffffffffffffffffffffffffffffffffffffffff16600073ffffffffffffffffffffffffffffffffffffffff168273ffffffffffffffffffffffffffffffffffffffff167f4a39dc06d4c0dbc64b70af90fd698a233a518aa5d07e595d983b8c0526c8f7fb8787604051612c649291906149b1565b60405180910390a4612c7b816000878787876130ab565b5050505050565b600073ffffffffffffffffffffffffffffffffffffffff168473ffffffffffffffffffffffffffffffffffffffff161415612cf2576040517f08c379a0000000000000000000000000000000000000000000000000000000008152600401612ce990614b85565b60405180910390fd5b6000612cfc611e61565b9050612d1c818787612d0d88612f07565b612d1688612f07565b87612fcd565b600060c9600086815260200190815260200160002060008873ffffffffffffffffffffffffffffffffffffffff1673ffffffffffffffffffffffffffffffffffffffff16815260200190815260200160002054905083811015612db4576040517f08c379a0000000000000000000000000000000000000000000000000000000008152600401612dab90614c05565b60405180910390fd5b83810360c9600087815260200190815260200160002060008973ffffffffffffffffffffffffffffffffffffffff1673ffffffffffffffffffffffffffffffffffffffff168152602001908152602001600020819055508360c9600087815260200190815260200160002060008873ffffffffffffffffffffffffffffffffffffffff1673ffffffffffffffffffffffffffffffffffffffff1681526020019081526020016000206000828254612e6b9190614e63565b925050819055508573ffffffffffffffffffffffffffffffffffffffff168773ffffffffffffffffffffffffffffffffffffffff168373ffffffffffffffffffffffffffffffffffffffff167fc3d58168c5ae7397731d063d5bbf3d657854427343f4c083240f7aacaa2d0f628888604051612ee8929190614ce0565b60405180910390a4612efe82888888888861327b565b50505050505050565b60606000600167ffffffffffffffff811115612f4c577f4e487b7100000000000000000000000000000000000000000000000000000000600052604160045260246000fd5b604051908082528060200260200182016040528015612f7a5781602001602082028036833780820191505090505b5090508281600081518110612fb8577f4e487b7100000000000000000000000000000000000000000000000000000000600052603260045260246000fd5b60200260200101818152505080915050919050565b60008351905060005b81811015613059578260fc600087848151811061301c577f4e487b7100000000000000000000000000000000000000000000000000000000600052603260045260246000fd5b6020026020010151815260200190815260200160002090805190602001906130459291906137dc565b50808061305190614fa1565b915050612fd6565b50613062610d00565b156130a2576040517f08c379a000000000000000000000000000000000000000000000000000000000815260040161309990614b05565b60405180910390fd5b50505050505050565b6130ca8473ffffffffffffffffffffffffffffffffffffffff166137c9565b15613273578373ffffffffffffffffffffffffffffffffffffffff1663bc197c8187878686866040518663ffffffff1660e01b81526004016131109594939291906148cd565b602060405180830381600087803b15801561312a57600080fd5b505af192505050801561315b57506040513d601f19601f820116820180604052508101906131589190613e79565b60015b6131ea57613167615095565b8061317257506131af565b806040517f08c379a00000000000000000000000000000000000000000000000000000000081526004016131a69190614a03565b60405180910390fd5b6040517f08c379a00000000000000000000000000000000000000000000000000000000081526004016131e190614a25565b60405180910390fd5b63bc197c8160e01b7bffffffffffffffffffffffffffffffffffffffffffffffffffffffff1916817bffffffffffffffffffffffffffffffffffffffffffffffffffffffff191614613271576040517f08c379a000000000000000000000000000000000000000000000000000000000815260040161326890614a45565b60405180910390fd5b505b505050505050565b61329a8473ffffffffffffffffffffffffffffffffffffffff166137c9565b15613443578373ffffffffffffffffffffffffffffffffffffffff1663f23a6e6187878686866040518663ffffffff1660e01b81526004016132e0959493929190614935565b602060405180830381600087803b1580156132fa57600080fd5b505af192505050801561332b57506040513d601f19601f820116820180604052508101906133289190613e79565b60015b6133ba57613337615095565b80613342575061337f565b806040517f08c379a00000000000000000000000000000000000000000000000000000000081526004016133769190614a03565b60405180910390fd5b6040517f08c379a00000000000000000000000000000000000000000000000000000000081526004016133b190614a25565b60405180910390fd5b63f23a6e6160e01b7bffffffffffffffffffffffffffffffffffffffffffffffffffffffff1916817bffffffffffffffffffffffffffffffffffffffffffffffffffffffff191614613441576040517f08c379a000000000000000000000000000000000000000000000000000000000815260040161343890614a45565b60405180910390fd5b505b505050505050565b600060019054906101000a900460ff1680613471575060008054906101000a900460ff16155b6134b0576040517f08c379a00000000000000000000000000000000000000000000000000000000081526004016134a790614bc5565b60405180910390fd5b60008060019054906101000a900460ff161590508015613500576001600060016101000a81548160ff02191690831515021790555060016000806101000a81548160ff0219169083151502179055505b80156135215760008060016101000a81548160ff0219169083151502179055505b50565b600060019054906101000a900460ff168061354a575060008054906101000a900460ff16155b613589576040517f08c379a000000000000000000000000000000000000000000000000000000000815260040161358090614bc5565b60405180910390fd5b60008060019054906101000a900460ff1615905080156135d9576001600060016101000a81548160ff02191690831515021790555060016000806101000a81548160ff0219169083151502179055505b80156135fa5760008060016101000a81548160ff0219169083151502179055505b50565b600060019054906101000a900460ff1680613623575060008054906101000a900460ff16155b613662576040517f08c379a000000000000000000000000000000000000000000000000000000000815260040161365990614bc5565b60405180910390fd5b60008060019054906101000a900460ff1615905080156136b2576001600060016101000a81548160ff02191690831515021790555060016000806101000a81548160ff0219169083151502179055505b6136bb82612582565b80156136dc5760008060016101000a81548160ff0219169083151502179055505b5050565b600060019054906101000a900460ff1680613706575060008054906101000a900460ff16155b613745576040517f08c379a000000000000000000000000000000000000000000000000000000000815260040161373c90614bc5565b60405180910390fd5b60008060019054906101000a900460ff161590508015613795576001600060016101000a81548160ff02191690831515021790555060016000806101000a81548160ff0219169083151502179055505b6137a56137a0611e61565b61259c565b80156137c65760008060016101000a81548160ff0219169083151502179055505b50565b600080823b905060008111915050919050565b8280546137e890614f6f565b90600052602060002090601f01602090048101928261380a5760008555613851565b82601f1061382357805160ff1916838001178555613851565b82800160010185558215613851579182015b82811115613850578251825591602001919060010190613835565b5b50905061385e91906138e8565b5090565b82805461386e90614f6f565b90600052602060002090601f01602090048101928261389057600085556138d7565b82601f106138a957805160ff19168380011785556138d7565b828001600101855582156138d7579182015b828111156138d65782518255916020019190600101906138bb565b5b5090506138e491906138e8565b5090565b5b808211156139015760008160009055506001016138e9565b5090565b600061391861391384614d3a565b614d09565b9050808382526020820190508285602086028201111561393757600080fd5b60005b85811015613967578161394d8882613a59565b84526020840193506020830192505060018101905061393a565b5050509392505050565b600061398461397f84614d66565b614d09565b905080838252602082019050828560208602820111156139a357600080fd5b60005b858110156139d357816139b98882613b55565b8452602084019350602083019250506001810190506139a6565b5050509392505050565b60006139f06139eb84614d92565b614d09565b905082815260208101848484011115613a0857600080fd5b613a13848285614f2d565b509392505050565b6000613a2e613a2984614dc2565b614d09565b905082815260208101848484011115613a4657600080fd5b613a51848285614f2d565b509392505050565b600081359050613a688161514b565b92915050565b600082601f830112613a7f57600080fd5b8135613a8f848260208601613905565b91505092915050565b600082601f830112613aa957600080fd5b8135613ab9848260208601613971565b91505092915050565b600081359050613ad181615162565b92915050565b600081359050613ae681615179565b92915050565b600081519050613afb81615179565b92915050565b600082601f830112613b1257600080fd5b8135613b228482602086016139dd565b91505092915050565b600082601f830112613b3c57600080fd5b8135613b4c848260208601613a1b565b91505092915050565b600081359050613b6481615190565b92915050565b600060208284031215613b7c57600080fd5b6000613b8a84828501613a59565b91505092915050565b60008060408385031215613ba657600080fd5b6000613bb485828601613a59565b9250506020613bc585828601613a59565b9150509250929050565b600080600080600060a08688031215613be757600080fd5b6000613bf588828901613a59565b9550506020613c0688828901613a59565b945050604086013567ffffffffffffffff811115613c2357600080fd5b613c2f88828901613a98565b935050606086013567ffffffffffffffff811115613c4c57600080fd5b613c5888828901613a98565b925050608086013567ffffffffffffffff811115613c7557600080fd5b613c8188828901613b01565b9150509295509295909350565b600080600080600060a08688031215613ca657600080fd5b6000613cb488828901613a59565b9550506020613cc588828901613a59565b9450506040613cd688828901613b55565b9350506060613ce788828901613b55565b925050608086013567ffffffffffffffff811115613d0457600080fd5b613d1088828901613b01565b9150509295509295909350565b60008060408385031215613d3057600080fd5b6000613d3e85828601613a59565b9250506020613d4f85828601613ac2565b9150509250929050565b60008060408385031215613d6c57600080fd5b6000613d7a85828601613a59565b9250506020613d8b85828601613b55565b9150509250929050565b600080600060608486031215613daa57600080fd5b6000613db886828701613a59565b9350506020613dc986828701613b55565b9250506040613dda86828701613b55565b9150509250925092565b60008060408385031215613df757600080fd5b600083013567ffffffffffffffff811115613e1157600080fd5b613e1d85828601613a6e565b925050602083013567ffffffffffffffff811115613e3a57600080fd5b613e4685828601613a98565b9150509250929050565b600060208284031215613e6257600080fd5b6000613e7084828501613ad7565b91505092915050565b600060208284031215613e8b57600080fd5b6000613e9984828501613aec565b91505092915050565b600060208284031215613eb457600080fd5b600082013567ffffffffffffffff811115613ece57600080fd5b613eda84828501613b2b565b91505092915050565b600060208284031215613ef557600080fd5b6000613f0384828501613b55565b91505092915050565b600080600060608486031215613f2157600080fd5b6000613f2f86828701613b55565b9350506020613f4086828701613a59565b925050604084013567ffffffffffffffff811115613f5d57600080fd5b613f6986828701613b01565b9150509250925092565b60008060008060808587031215613f8957600080fd5b6000613f9787828801613b55565b9450506020613fa887828801613a59565b935050604085013567ffffffffffffffff811115613fc557600080fd5b613fd187828801613b01565b9250506060613fe287828801613b55565b91505092959194509250565b6000613ffa8383614894565b60208301905092915050565b61400f81614eb9565b82525050565b600061402082614e02565b61402a8185614e30565b935061403583614df2565b8060005b8381101561406657815161404d8882613fee565b975061405883614e23565b925050600181019050614039565b5085935050505092915050565b61407c81614ecb565b82525050565b600061408d82614e0d565b6140978185614e41565b93506140a7818560208601614f3c565b6140b081615077565b840191505092915050565b60006140c682614e18565b6140d08185614e52565b93506140e0818560208601614f3c565b6140e981615077565b840191505092915050565b6000614101603483614e52565b91507f455243313135353a207472616e7366657220746f206e6f6e204552433131353560008301527f526563656976657220696d706c656d656e7465720000000000000000000000006020830152604082019050919050565b6000614167602883614e52565b91507f455243313135353a204552433131353552656365697665722072656a6563746560008301527f6420746f6b656e730000000000000000000000000000000000000000000000006020830152604082019050919050565b60006141cd601c83614e52565b91507f506172656e7420746f6b656e206964206973206e6f742076616c6964000000006000830152602082019050919050565b600061420d601483614e52565b91507f5061757361626c653a206e6f74207061757365640000000000000000000000006000830152602082019050919050565b600061424d602b83614e52565b91507f455243313135353a2062616c616e636520717565727920666f7220746865207a60008301527f65726f20616464726573730000000000000000000000000000000000000000006020830152604082019050919050565b60006142b3602683614e52565b91507f4f776e61626c653a206e6577206f776e657220697320746865207a65726f206160008301527f64647265737300000000000000000000000000000000000000000000000000006020830152604082019050919050565b6000614319602483614e52565b91507f455243313135353a206275726e20616d6f756e7420657863656564732062616c60008301527f616e6365000000000000000000000000000000000000000000000000000000006020830152604082019050919050565b600061437f602c83614e52565b91507f455243313135355061757361626c653a20746f6b656e207472616e736665722060008301527f7768696c652070617573656400000000000000000000000000000000000000006020830152604082019050919050565b60006143e5602983614e52565b91507f455243313135353a2063616c6c6572206973206e6f74206f776e6572206e6f7260008301527f20617070726f76656400000000000000000000000000000000000000000000006020830152604082019050919050565b600061444b601783614e52565b91507f237572693a204e4f4e4558495354454e545f544f4b454e0000000000000000006000830152602082019050919050565b600061448b601083614e52565b91507f5061757361626c653a20706175736564000000000000000000000000000000006000830152602082019050919050565b60006144cb602583614e52565b91507f455243313135353a207472616e7366657220746f20746865207a65726f20616460008301527f64726573730000000000000000000000000000000000000000000000000000006020830152604082019050919050565b6000614531603283614e52565b91507f455243313135353a207472616e736665722063616c6c6572206973206e6f742060008301527f6f776e6572206e6f7220617070726f76656400000000000000000000000000006020830152604082019050919050565b6000614597602e83614e52565b91507f496e697469616c697a61626c653a20636f6e747261637420697320616c72656160008301527f647920696e697469616c697a65640000000000000000000000000000000000006020830152604082019050919050565b60006145fd602383614e52565b91507f455243313135353a206275726e2066726f6d20746865207a65726f206164647260008301527f65737300000000000000000000000000000000000000000000000000000000006020830152604082019050919050565b6000614663602a83614e52565b91507f455243313135353a20696e73756666696369656e742062616c616e636520666f60008301527f72207472616e73666572000000000000000000000000000000000000000000006020830152604082019050919050565b60006146c9602083614e52565b91507f4f776e61626c653a2063616c6c6572206973206e6f7420746865206f776e65726000830152602082019050919050565b6000614709602983614e52565b91507f455243313135353a2073657474696e6720617070726f76616c2073746174757360008301527f20666f722073656c6600000000000000000000000000000000000000000000006020830152604082019050919050565b600061476f602983614e52565b91507f455243313135353a206163636f756e747320616e6420696473206c656e67746860008301527f206d69736d6174636800000000000000000000000000000000000000000000006020830152604082019050919050565b60006147d5602883614e52565b91507f455243313135353a2069647320616e6420616d6f756e7473206c656e6774682060008301527f6d69736d617463680000000000000000000000000000000000000000000000006020830152604082019050919050565b600061483b602183614e52565b91507f455243313135353a206d696e7420746f20746865207a65726f2061646472657360008301527f73000000000000000000000000000000000000000000000000000000000000006020830152604082019050919050565b61489d81614f23565b82525050565b6148ac81614f23565b82525050565b60006020820190506148c76000830184614006565b92915050565b600060a0820190506148e26000830188614006565b6148ef6020830187614006565b81810360408301526149018186614015565b905081810360608301526149158185614015565b905081810360808301526149298184614082565b90509695505050505050565b600060a08201905061494a6000830188614006565b6149576020830187614006565b61496460408301866148a3565b61497160608301856148a3565b81810360808301526149838184614082565b90509695505050505050565b600060208201905081810360008301526149a98184614015565b905092915050565b600060408201905081810360008301526149cb8185614015565b905081810360208301526149df8184614015565b90509392505050565b60006020820190506149fd6000830184614073565b92915050565b60006020820190508181036000830152614a1d81846140bb565b905092915050565b60006020820190508181036000830152614a3e816140f4565b9050919050565b60006020820190508181036000830152614a5e8161415a565b9050919050565b60006020820190508181036000830152614a7e816141c0565b9050919050565b60006020820190508181036000830152614a9e81614200565b9050919050565b60006020820190508181036000830152614abe81614240565b9050919050565b60006020820190508181036000830152614ade816142a6565b9050919050565b60006020820190508181036000830152614afe8161430c565b9050919050565b60006020820190508181036000830152614b1e81614372565b9050919050565b60006020820190508181036000830152614b3e816143d8565b9050919050565b60006020820190508181036000830152614b5e8161443e565b9050919050565b60006020820190508181036000830152614b7e8161447e565b9050919050565b60006020820190508181036000830152614b9e816144be565b9050919050565b60006020820190508181036000830152614bbe81614524565b9050919050565b60006020820190508181036000830152614bde8161458a565b9050919050565b60006020820190508181036000830152614bfe816145f0565b9050919050565b60006020820190508181036000830152614c1e81614656565b9050919050565b60006020820190508181036000830152614c3e816146bc565b9050919050565b60006020820190508181036000830152614c5e816146fc565b9050919050565b60006020820190508181036000830152614c7e81614762565b9050919050565b60006020820190508181036000830152614c9e816147c8565b9050919050565b60006020820190508181036000830152614cbe8161482e565b9050919050565b6000602082019050614cda60008301846148a3565b92915050565b6000604082019050614cf560008301856148a3565b614d0260208301846148a3565b9392505050565b6000604051905081810181811067ffffffffffffffff82111715614d3057614d2f615048565b5b8060405250919050565b600067ffffffffffffffff821115614d5557614d54615048565b5b602082029050602081019050919050565b600067ffffffffffffffff821115614d8157614d80615048565b5b602082029050602081019050919050565b600067ffffffffffffffff821115614dad57614dac615048565b5b601f19601f8301169050602081019050919050565b600067ffffffffffffffff821115614ddd57614ddc615048565b5b601f19601f8301169050602081019050919050565b6000819050602082019050919050565b600081519050919050565b600081519050919050565b600081519050919050565b6000602082019050919050565b600082825260208201905092915050565b600082825260208201905092915050565b600082825260208201905092915050565b6000614e6e82614f23565b9150614e7983614f23565b9250827fffffffffffffffffffffffffffffffffffffffffffffffffffffffffffffffff03821115614eae57614ead614fea565b5b828201905092915050565b6000614ec482614f03565b9050919050565b60008115159050919050565b60007fffffffff0000000000000000000000000000000000000000000000000000000082169050919050565b600073ffffffffffffffffffffffffffffffffffffffff82169050919050565b6000819050919050565b82818337600083830152505050565b60005b83811015614f5a578082015181840152602081019050614f3f565b83811115614f69576000848401525b50505050565b60006002820490506001821680614f8757607f821691505b60208210811415614f9b57614f9a615019565b5b50919050565b6000614fac82614f23565b91507fffffffffffffffffffffffffffffffffffffffffffffffffffffffffffffffff821415614fdf57614fde614fea565b5b600182019050919050565b7f4e487b7100000000000000000000000000000000000000000000000000000000600052601160045260246000fd5b7f4e487b7100000000000000000000000000000000000000000000000000000000600052602260045260246000fd5b7f4e487b7100000000000000000000000000000000000000000000000000000000600052604160045260246000fd5b6000601f19601f8301169050919050565b60008160e01c9050919050565b600060443d10156150a557615148565b60046000803e6150b6600051615088565b6308c379a081146150c75750615148565b60405160043d036004823e80513d602482011167ffffffffffffffff821117156150f357505050615148565b808201805167ffffffffffffffff811115615112575050505050615148565b8060208301013d850181111561512d57505050505050615148565b61513682615077565b60208401016040528296505050505050505b90565b61515481614eb9565b811461515f57600080fd5b50565b61516b81614ecb565b811461517657600080fd5b50565b61518281614ed7565b811461518d57600080fd5b50565b61519981614f23565b81146151a457600080fd5b5056fe68747470733a2f2f697066732e696f2f697066732f516d595653714a386951425157615334483132663672534a7456646e7156716167366a56613569624e6e58463862a26469706673582212208521e9f9553786ec6ce5491cf128b9160c079cabb25aee4efa7932416a4f830464736f6c63430008000033",
  "immutableReferences": {},
  "source": "// SPDX-License-Identifier: MIT\npragma solidity ^0.8.0;\n\n\nimport \"@openzeppelin/contracts-upgradeable/token/ERC1155/ERC1155Upgradeable.sol\";\nimport \"@openzeppelin/contracts-upgradeable/security/PausableUpgradeable.sol\";\nimport \"@openzeppelin/contracts-upgradeable/access/OwnableUpgradeable.sol\";\nimport \"@openzeppelin/contracts-upgradeable/proxy/utils/Initializable.sol\";\nimport \"./strings.sol\";\n\ncontract Onec is Initializable,PausableUpgradeable, OwnableUpgradeable, ERC1155Upgradeable {\n\n    using Strings for string;\n\n    uint private NFTCounter;\n    // token-id to metadata hash\n    mapping(uint256 => bytes) private metadataHash;\n    // tokenIds to refTokenIds\n    mapping(uint256 => uint256[]) private references;\n\n    function initialize() public initializer {\n        ERC1155Upgradeable.__ERC1155_init(\"https://ipfs.io/ipfs/\");\n        OwnableUpgradeable.__Ownable_init();\n        NFTCounter = 0;\n    }\n\n    function contractURI() public pure returns (string memory) {\n        return \"https://ipfs.io/ipfs/QmYVSqJ8iQBQWaS4H12f6rSJtVdnqVqag6jVa5ibNnXF8b\";\n    }\n    /*\n     * @dev Mints NFT to the address of _holder.\n     * @params _supply:total no. of NFTs to mint\n     * _holder:public address of the account to mint NFT on that.\n     * _data: metadata hash of the NFT.\n     * Requirements:\n     * Can only be called by the deployer of the smart contract.\n     */\n    function mintNFT(uint _supply, address _holder, bytes memory _data) public onlyOwner{\n        _mint(_holder, NFTCounter, _supply, _data);\n        NFTCounter++;        \n    }\n\n    /*\n     * @dev Mints Reference  to the address of _holder.\n     * @params _supply: total no. of NFTs to mint\n     * _holder: public address of the account to mint NFT on that.\n     * _data: metadata hash of the NFT.\n     * _parentTokenId: the token id of the NFT of which you are minting the references.\n     * Requirements:\n     * Can only be called by the deployer of the smart contract.\n     */\n    function mintRefNFT(uint256 _supply, address _holder, bytes memory _data,uint256 _parentTokenId) public onlyOwner {\n        require(_parentTokenId < NFTCounter, \"Parent token id is not valid\");\n        _mint(_holder, NFTCounter, _supply, _data);\n        references[_parentTokenId].push(NFTCounter);\n        NFTCounter++;\n    }\n\n    /*\n     * @dev Batch-Mints NFTs to the address of _holder.\n     * @params _supply:total no. of service/NFT to mint\n     * _holder:public address of the account to mint service/NFT on that.\n     * _data metadata hash of the service/NFT.\n     * Requirements:\n     * Can only be called by the deployer of the smart contract.\n     */\n    function batchMintNFT(uint _supply,address _holder, bytes memory _data) public onlyOwner {\n        //create ids array\n        uint[] memory _ids = new uint[](_supply);\n        uint[] memory _amounts = new uint[](_supply);\n        for(uint i=0;i<_supply;i++){\n            _ids[i]=NFTCounter+i;\n            _amounts[i]=1;\n        }\n        //create amount array\n        _mintBatch(_holder,_ids,_amounts,_data);\n        NFTCounter+=_ids.length;\n    }\n\n    /*\n     * @dev Batch Mints Reference NFTs to the address of _holder.\n     * @params _supply:total no. of service/NFT to mint\n     * _holder:public address of the account to mint service/NFT on that.\n     * _data: metadata hash of the service/NFT.\n     * _parentTokenId: the token id of the service/NFT of which you are minting the references.\n     * Requirements:\n     * Can only be called by the deployer of the smart contract.\n     */\n    function batchMintRefNFT(uint _supply,address _holder, bytes memory _data,uint _parentTokenId) public onlyOwner {\n        //create ids array\n        require(_parentTokenId < NFTCounter);\n        uint[] memory _ids = new uint[](_supply);\n        uint[] memory _amounts = new uint[](_supply);\n        for(uint i=0;i<_supply;i++){\n            _ids[i]=NFTCounter+i;\n            _amounts[i]=1;\n        }\n        //create amount array\n        _mintBatch(_holder,_ids,_amounts,_data);\n        NFTCounter+=_ids.length;\n        for(uint i=0;i<_ids.length;i++){\n            references[_parentTokenId].push(_ids[i]);\n        }\n    }\n    \n    /*\n     * @dev return the list of token-ids of all the reference service tokens\n     */\n    function getReferences(uint _id) public view returns(uint256[] memory) {\n        return references[_id];    \n    }\n    \n    /*\n     *@dev Called before every token transfer, maps the metadataHash of a service/NFT with the token id  \n     */\n    function _beforeTokenTransfer(address _operator, address _from, address _to, uint256[] memory ids, uint256[] memory amount, bytes memory data) override internal {\n        //save the metadata hash\n        uint arrayLength = ids.length;\n        for (uint i=0; i<arrayLength; i++) {\n            metadataHash[ids[i]] = data;\n        }\n        require(!paused(), \"ERC1155Pausable: token transfer while paused\");\n    }\n\n    /*\n     * @dev returns the metaDataHash for the token-ID\n     */\n\n    function getTokenMetadataHash(uint256 _id) view public returns(string memory) {\n        return string(metadataHash[_id]);\n    }\n\n     /*\n      * @dev returns the baseURI.\n      * Doesn't depends on the token-id and returns same thing.\n      */\n    function getBaseURI(uint256 _id) view public returns(string memory) {\n        return super.uri(_id);\n    }\n\n    function setBaseURI(string memory _baseURI) public onlyOwner{\n        super._setURI(_baseURI);\n    }\n\n     /*\n      * @dev returns the tokenURI.\n      * Depends on the token-id and returns same thing.\n      */\n    function uri(uint256 _id) public view override returns (string memory) {\n        require(_id<=getTotalMintedNFT(), \"#uri: NONEXISTENT_TOKEN\");\n        string memory baseURI = getBaseURI(_id);\n        string memory hash = getTokenMetadataHash(_id);\n        return baseURI.concat(string(hash));\n    }\n\n     /*\n      * @dev Tranfers the service/NFT to new address.\n      * Can be called by the service/NFT holder.\n      */\n    function transfer(address _from,address _to, uint256 _id, uint256 _amount, bytes memory _data) public {\n        super.safeTransferFrom(_from, _to, _id, _amount, _data);\n    }\n\n     /*\n      * @dev Batch tranfers the services/NFTs to new address.\n      * Can be called by the service/NFT holder.\n      */\n    function batchTransfer(address _from,address _to,uint256[] memory _ids,uint256[] memory _amounts,bytes memory _data) public {\n        super.safeBatchTransferFrom(_from,_to,_ids,_amounts,_data);\n    }\n\n    /*\n     * @dev pause the onec contract.\n     */\n    function makePause() public onlyOwner {\n        super._pause();\n    }\n\n    /*\n     * @dev un-pause the onec contract.\n     */\n    function makeUnpause() public onlyOwner{\n        super._unpause();\n    } \n\n    /*\n     * @dev Burns the token with the given tokenid.\n     */\n    function burnNFT(address account,uint256 id,uint256 amount) public onlyOwner{\n        super._burn(account,id,amount);\n        metadataHash[id]=bytes(\"0x0\");\n    }\n    \n    /*\n     * @dev Sets approval to the operator to manage service/NFT held by the caller of the function.\n     */\n    function setApproval(address _operator, bool _approved) public onlyOwner{\n        super.setApprovalForAll(_operator,_approved);\n    }\n\n    /*\n     * @dev Give status of the approval rights, if the operator can manage service/NFT held by the account.\n     */\n    function isApproved(address account, address operator) public view returns(bool){\n        return super.isApprovedForAll(account,operator);\n    }\n    \n    /*\n     * @dev Gives the balance of a particular service/NFT of given id held by an account.\n     */\n    function getBalance(address account, uint256 id) public view returns(uint256){\n        return super.balanceOf(account,id);\n    }\n\n    /*    \n     * @dev Returns the total minted NFTs by the contract.\n     */\n    function getTotalMintedNFT() public view returns(uint256){\n        return NFTCounter;\n    }\n    \n\n}",
  "sourcePath": "/Users/hrishabhsharma/Projects/core-contract/contracts/Onec.sol",
  "compiler": {
    "name": "solc",
    "version": "0.8.0+commit.c7dfd78e.Emscripten.clang"
  },
  "schemaVersion": "3.4.3",
  "updatedAt": "2022-01-05T19:15:46.925Z",
  "networkType": "ethereum",
  "devdoc": {
    "kind": "dev",
    "methods": {
      "balanceOf(address,uint256)": {
        "details": "See {IERC1155-balanceOf}. Requirements: - `account` cannot be the zero address."
      },
      "balanceOfBatch(address[],uint256[])": {
        "details": "See {IERC1155-balanceOfBatch}. Requirements: - `accounts` and `ids` must have the same length."
      },
      "isApprovedForAll(address,address)": {
        "details": "See {IERC1155-isApprovedForAll}."
      },
      "owner()": {
        "details": "Returns the address of the current owner."
      },
      "paused()": {
        "details": "Returns true if the contract is paused, and false otherwise."
      },
      "renounceOwnership()": {
        "details": "Leaves the contract without owner. It will not be possible to call `onlyOwner` functions anymore. Can only be called by the current owner. NOTE: Renouncing ownership will leave the contract without an owner, thereby removing any functionality that is only available to the owner."
      },
      "safeBatchTransferFrom(address,address,uint256[],uint256[],bytes)": {
        "details": "See {IERC1155-safeBatchTransferFrom}."
      },
      "safeTransferFrom(address,address,uint256,uint256,bytes)": {
        "details": "See {IERC1155-safeTransferFrom}."
      },
      "setApprovalForAll(address,bool)": {
        "details": "See {IERC1155-setApprovalForAll}."
      },
      "supportsInterface(bytes4)": {
        "details": "See {IERC165-supportsInterface}."
      },
      "transferOwnership(address)": {
        "details": "Transfers ownership of the contract to a new account (`newOwner`). Can only be called by the current owner."
      }
    },
    "version": 1
  },
  "userdoc": {
    "kind": "user",
    "methods": {},
    "version": 1
  }
}