{
  "contractName": "Onec1155",
  "abi": [
    {
      "anonymous": false,
      "inputs": [
        {
          "indexed": true,
          "internalType": "address",
          "name": "account",
          "type": "address"
        },
        {
          "indexed": true,
          "internalType": "address",
          "name": "operator",
          "type": "address"
        },
        {
          "indexed": false,
          "internalType": "bool",
          "name": "approved",
          "type": "bool"
        }
      ],
      "name": "ApprovalForAll",
      "type": "event"
    },
    {
      "anonymous": false,
      "inputs": [
        {
          "indexed": true,
          "internalType": "address",
          "name": "previousOwner",
          "type": "address"
        },
        {
          "indexed": true,
          "internalType": "address",
          "name": "newOwner",
          "type": "address"
        }
      ],
      "name": "OwnershipTransferred",
      "type": "event"
    },
    {
      "anonymous": false,
      "inputs": [
        {
          "indexed": false,
          "internalType": "address",
          "name": "account",
          "type": "address"
        }
      ],
      "name": "Paused",
      "type": "event"
    },
    {
      "anonymous": false,
      "inputs": [
        {
          "indexed": true,
          "internalType": "address",
          "name": "operator",
          "type": "address"
        },
        {
          "indexed": true,
          "internalType": "address",
          "name": "from",
          "type": "address"
        },
        {
          "indexed": true,
          "internalType": "address",
          "name": "to",
          "type": "address"
        },
        {
          "indexed": false,
          "internalType": "uint256[]",
          "name": "ids",
          "type": "uint256[]"
        },
        {
          "indexed": false,
          "internalType": "uint256[]",
          "name": "values",
          "type": "uint256[]"
        }
      ],
      "name": "TransferBatch",
      "type": "event"
    },
    {
      "anonymous": false,
      "inputs": [
        {
          "indexed": true,
          "internalType": "address",
          "name": "operator",
          "type": "address"
        },
        {
          "indexed": true,
          "internalType": "address",
          "name": "from",
          "type": "address"
        },
        {
          "indexed": true,
          "internalType": "address",
          "name": "to",
          "type": "address"
        },
        {
          "indexed": false,
          "internalType": "uint256",
          "name": "id",
          "type": "uint256"
        },
        {
          "indexed": false,
          "internalType": "uint256",
          "name": "value",
          "type": "uint256"
        }
      ],
      "name": "TransferSingle",
      "type": "event"
    },
    {
      "anonymous": false,
      "inputs": [
        {
          "indexed": false,
          "internalType": "string",
          "name": "value",
          "type": "string"
        },
        {
          "indexed": true,
          "internalType": "uint256",
          "name": "id",
          "type": "uint256"
        }
      ],
      "name": "URI",
      "type": "event"
    },
    {
      "anonymous": false,
      "inputs": [
        {
          "indexed": false,
          "internalType": "address",
          "name": "account",
          "type": "address"
        }
      ],
      "name": "Unpaused",
      "type": "event"
    },
    {
      "inputs": [
        {
          "internalType": "address",
          "name": "account",
          "type": "address"
        },
        {
          "internalType": "uint256",
          "name": "id",
          "type": "uint256"
        }
      ],
      "name": "balanceOf",
      "outputs": [
        {
          "internalType": "uint256",
          "name": "",
          "type": "uint256"
        }
      ],
      "stateMutability": "view",
      "type": "function"
    },
    {
      "inputs": [
        {
          "internalType": "address[]",
          "name": "accounts",
          "type": "address[]"
        },
        {
          "internalType": "uint256[]",
          "name": "ids",
          "type": "uint256[]"
        }
      ],
      "name": "balanceOfBatch",
      "outputs": [
        {
          "internalType": "uint256[]",
          "name": "",
          "type": "uint256[]"
        }
      ],
      "stateMutability": "view",
      "type": "function"
    },
    {
      "inputs": [
        {
          "internalType": "address",
          "name": "account",
          "type": "address"
        },
        {
          "internalType": "address",
          "name": "operator",
          "type": "address"
        }
      ],
      "name": "isApprovedForAll",
      "outputs": [
        {
          "internalType": "bool",
          "name": "",
          "type": "bool"
        }
      ],
      "stateMutability": "view",
      "type": "function"
    },
    {
      "inputs": [],
      "name": "owner",
      "outputs": [
        {
          "internalType": "address",
          "name": "",
          "type": "address"
        }
      ],
      "stateMutability": "view",
      "type": "function"
    },
    {
      "inputs": [],
      "name": "paused",
      "outputs": [
        {
          "internalType": "bool",
          "name": "",
          "type": "bool"
        }
      ],
      "stateMutability": "view",
      "type": "function"
    },
    {
      "inputs": [],
      "name": "renounceOwnership",
      "outputs": [],
      "stateMutability": "nonpayable",
      "type": "function"
    },
    {
      "inputs": [
        {
          "internalType": "address",
          "name": "from",
          "type": "address"
        },
        {
          "internalType": "address",
          "name": "to",
          "type": "address"
        },
        {
          "internalType": "uint256[]",
          "name": "ids",
          "type": "uint256[]"
        },
        {
          "internalType": "uint256[]",
          "name": "amounts",
          "type": "uint256[]"
        },
        {
          "internalType": "bytes",
          "name": "data",
          "type": "bytes"
        }
      ],
      "name": "safeBatchTransferFrom",
      "outputs": [],
      "stateMutability": "nonpayable",
      "type": "function"
    },
    {
      "inputs": [
        {
          "internalType": "address",
          "name": "from",
          "type": "address"
        },
        {
          "internalType": "address",
          "name": "to",
          "type": "address"
        },
        {
          "internalType": "uint256",
          "name": "id",
          "type": "uint256"
        },
        {
          "internalType": "uint256",
          "name": "amount",
          "type": "uint256"
        },
        {
          "internalType": "bytes",
          "name": "data",
          "type": "bytes"
        }
      ],
      "name": "safeTransferFrom",
      "outputs": [],
      "stateMutability": "nonpayable",
      "type": "function"
    },
    {
      "inputs": [
        {
          "internalType": "address",
          "name": "operator",
          "type": "address"
        },
        {
          "internalType": "bool",
          "name": "approved",
          "type": "bool"
        }
      ],
      "name": "setApprovalForAll",
      "outputs": [],
      "stateMutability": "nonpayable",
      "type": "function"
    },
    {
      "inputs": [
        {
          "internalType": "bytes4",
          "name": "interfaceId",
          "type": "bytes4"
        }
      ],
      "name": "supportsInterface",
      "outputs": [
        {
          "internalType": "bool",
          "name": "",
          "type": "bool"
        }
      ],
      "stateMutability": "view",
      "type": "function"
    },
    {
      "inputs": [
        {
          "internalType": "address",
          "name": "newOwner",
          "type": "address"
        }
      ],
      "name": "transferOwnership",
      "outputs": [],
      "stateMutability": "nonpayable",
      "type": "function"
    },
    {
      "inputs": [
        {
          "internalType": "string",
          "name": "_baseURI",
          "type": "string"
        },
        {
          "internalType": "string",
          "name": "_contractMetadata",
          "type": "string"
        }
      ],
      "name": "initialize",
      "outputs": [],
      "stateMutability": "nonpayable",
      "type": "function"
    },
    {
      "inputs": [],
      "name": "contractURI",
      "outputs": [
        {
          "internalType": "string",
          "name": "",
          "type": "string"
        }
      ],
      "stateMutability": "view",
      "type": "function"
    },
    {
      "inputs": [
        {
          "internalType": "string",
          "name": "_metadata",
          "type": "string"
        }
      ],
      "name": "setContractMetadata",
      "outputs": [],
      "stateMutability": "nonpayable",
      "type": "function"
    },
    {
      "inputs": [
        {
          "internalType": "uint256",
          "name": "_supply",
          "type": "uint256"
        },
        {
          "internalType": "address",
          "name": "_holder",
          "type": "address"
        },
        {
          "internalType": "bytes",
          "name": "_data",
          "type": "bytes"
        }
      ],
      "name": "mintNFT",
      "outputs": [],
      "stateMutability": "nonpayable",
      "type": "function"
    },
    {
      "inputs": [
        {
          "internalType": "uint256",
          "name": "_supply",
          "type": "uint256"
        },
        {
          "internalType": "address",
          "name": "_holder",
          "type": "address"
        },
        {
          "internalType": "bytes",
          "name": "_data",
          "type": "bytes"
        },
        {
          "internalType": "uint256",
          "name": "_parentTokenId",
          "type": "uint256"
        }
      ],
      "name": "mintRefNFT",
      "outputs": [],
      "stateMutability": "nonpayable",
      "type": "function"
    },
    {
      "inputs": [
        {
          "internalType": "uint256",
          "name": "_supply",
          "type": "uint256"
        },
        {
          "internalType": "address",
          "name": "_holder",
          "type": "address"
        },
        {
          "internalType": "bytes",
          "name": "_data",
          "type": "bytes"
        }
      ],
      "name": "batchMintNFT",
      "outputs": [],
      "stateMutability": "nonpayable",
      "type": "function"
    },
    {
      "inputs": [
        {
          "internalType": "uint256",
          "name": "_id",
          "type": "uint256"
        }
      ],
      "name": "getReferences",
      "outputs": [
        {
          "internalType": "uint256[]",
          "name": "",
          "type": "uint256[]"
        }
      ],
      "stateMutability": "view",
      "type": "function"
    },
    {
      "inputs": [
        {
          "internalType": "uint256",
          "name": "_id",
          "type": "uint256"
        }
      ],
      "name": "getTokenMetadataHash",
      "outputs": [
        {
          "internalType": "string",
          "name": "",
          "type": "string"
        }
      ],
      "stateMutability": "view",
      "type": "function"
    },
    {
      "inputs": [
        {
          "internalType": "uint256",
          "name": "_id",
          "type": "uint256"
        }
      ],
      "name": "getBaseURI",
      "outputs": [
        {
          "internalType": "string",
          "name": "",
          "type": "string"
        }
      ],
      "stateMutability": "view",
      "type": "function"
    },
    {
      "inputs": [
        {
          "internalType": "string",
          "name": "_baseURI",
          "type": "string"
        }
      ],
      "name": "setBaseURI",
      "outputs": [],
      "stateMutability": "nonpayable",
      "type": "function"
    },
    {
      "inputs": [
        {
          "internalType": "uint256",
          "name": "_id",
          "type": "uint256"
        }
      ],
      "name": "uri",
      "outputs": [
        {
          "internalType": "string",
          "name": "",
          "type": "string"
        }
      ],
      "stateMutability": "view",
      "type": "function"
    },
    {
      "inputs": [
        {
          "internalType": "address",
          "name": "_from",
          "type": "address"
        },
        {
          "internalType": "address",
          "name": "_to",
          "type": "address"
        },
        {
          "internalType": "uint256",
          "name": "_id",
          "type": "uint256"
        },
        {
          "internalType": "uint256",
          "name": "_amount",
          "type": "uint256"
        }
      ],
      "name": "transfer",
      "outputs": [],
      "stateMutability": "nonpayable",
      "type": "function"
    },
    {
      "inputs": [],
      "name": "makePause",
      "outputs": [],
      "stateMutability": "nonpayable",
      "type": "function"
    },
    {
      "inputs": [],
      "name": "makeUnpause",
      "outputs": [],
      "stateMutability": "nonpayable",
      "type": "function"
    },
    {
      "inputs": [
        {
          "internalType": "address",
          "name": "account",
          "type": "address"
        },
        {
          "internalType": "uint256",
          "name": "id",
          "type": "uint256"
        },
        {
          "internalType": "uint256",
          "name": "amount",
          "type": "uint256"
        }
      ],
      "name": "burnNFT",
      "outputs": [],
      "stateMutability": "nonpayable",
      "type": "function"
    },
    {
      "inputs": [
        {
          "internalType": "address",
          "name": "_operator",
          "type": "address"
        },
        {
          "internalType": "bool",
          "name": "_approved",
          "type": "bool"
        }
      ],
      "name": "setApproval",
      "outputs": [],
      "stateMutability": "nonpayable",
      "type": "function"
    },
    {
      "inputs": [
        {
          "internalType": "address",
          "name": "account",
          "type": "address"
        },
        {
          "internalType": "address",
          "name": "operator",
          "type": "address"
        }
      ],
      "name": "isApproved",
      "outputs": [
        {
          "internalType": "bool",
          "name": "",
          "type": "bool"
        }
      ],
      "stateMutability": "view",
      "type": "function"
    },
    {
      "inputs": [
        {
          "internalType": "address",
          "name": "account",
          "type": "address"
        },
        {
          "internalType": "uint256",
          "name": "id",
          "type": "uint256"
        }
      ],
      "name": "getBalance",
      "outputs": [
        {
          "internalType": "uint256",
          "name": "",
          "type": "uint256"
        }
      ],
      "stateMutability": "view",
      "type": "function"
    },
    {
      "inputs": [],
      "name": "getTotalMintedNFT",
      "outputs": [
        {
          "internalType": "uint256",
          "name": "",
          "type": "uint256"
        }
      ],
      "stateMutability": "view",
      "type": "function"
    }
  ],
  "bytecode": "0x608060405234801561001057600080fd5b50615081806100206000396000f3fe608060405234801561001057600080fd5b50600436106101d95760003560e01c80637337639811610104578063cef8cb87116100a2578063f102ffe511610071578063f102ffe514610550578063f242432a1461056c578063f2fde38b14610588578063fce55037146105a4576101d9565b8063cef8cb87146104c8578063db9b7170146104e6578063e8a3d48514610502578063e985e9c514610520576101d9565b80638da5cb5b116100de5780638da5cb5b14610454578063a22cb46514610472578063a389783e1461048e578063a90205a3146104be576101d9565b806373376398146103ea578063837c59621461041a57806386838fb61461044a576101d9565b80633cfc7ae21161017c57806355f804b31161014b57806355f804b31461038a5780635c975abb146103a65780636877444f146103c4578063715018a6146103e0576101d9565b80633cfc7ae2146102f25780634cd88b76146103225780634e1273f41461033e5780635374cf781461036e576101d9565b80630e89341c116101b85780630e89341c1461025a5780631cc509fd1461028a5780632b04e840146102a65780632eb2c2d6146102d6576101d9565b8062fdd58e146101de57806301ffc9a71461020e5780630411b2521461023e575b600080fd5b6101f860048036038101906101f39190613b91565b6105c0565b6040516102059190614b69565b60405180910390f35b61022860048036038101906102239190613c88565b61068a565b604051610235919061488c565b60405180910390f35b61025860048036038101906102539190613a63565b61076c565b005b610274600480360381019061026f9190613d87565b61078e565b60405161028191906148a7565b60405180910390f35b6102a4600480360381019061029f9190613bcd565b610810565b005b6102c060048036038101906102bb9190613b91565b61087d565b6040516102cd9190614b69565b60405180910390f35b6102f060048036038101906102eb91906139a4565b610891565b005b61030c60048036038101906103079190613d87565b610932565b6040516103199190614833565b60405180910390f35b61033c60048036038101906103379190613d1b565b61099d565b005b61035860048036038101906103539190613c1c565b610ab0565b6040516103659190614833565b60405180910390f35b61038860048036038101906103839190613db0565b610c61565b005b6103a4600480360381019061039f9190613cda565b610c8c565b005b6103ae610d14565b6040516103bb919061488c565b60405180910390f35b6103de60048036038101906103d99190613e17565b610d2b565b005b6103e8610dd7565b005b61040460048036038101906103ff9190613d87565b610e5f565b60405161041191906148a7565b60405180910390f35b610434600480360381019061042f9190613d87565b610e71565b60405161044191906148a7565b60405180910390f35b610452610f16565b005b61045c610f9c565b6040516104699190614756565b60405180910390f35b61048c60048036038101906104879190613b55565b610fc6565b005b6104a860048036038101906104a39190613968565b611147565b6040516104b5919061488c565b60405180910390f35b6104c661115b565b005b6104d06111e1565b6040516104dd9190614b69565b60405180910390f35b61050060048036038101906104fb9190613b55565b6111eb565b005b61050a611275565b60405161051791906148a7565b60405180910390f35b61053a60048036038101906105359190613968565b611307565b604051610547919061488c565b60405180910390f35b61056a60048036038101906105659190613db0565b61139b565b005b61058660048036038101906105819190613ac6565b611567565b005b6105a2600480360381019061059d919061393f565b611608565b005b6105be60048036038101906105b99190613cda565b611700565b005b60008073ffffffffffffffffffffffffffffffffffffffff168373ffffffffffffffffffffffffffffffffffffffff161415610631576040517f08c379a000000000000000000000000000000000000000000000000000000000815260040161062890614949565b60405180910390fd5b60c9600083815260200190815260200160002060008473ffffffffffffffffffffffffffffffffffffffff1673ffffffffffffffffffffffffffffffffffffffff16815260200190815260200160002054905092915050565b60007fd9b67a26000000000000000000000000000000000000000000000000000000007bffffffffffffffffffffffffffffffffffffffffffffffffffffffff1916827bffffffffffffffffffffffffffffffffffffffffffffffffffffffff1916148061075557507f0e89341c000000000000000000000000000000000000000000000000000000007bffffffffffffffffffffffffffffffffffffffffffffffffffffffff1916827bffffffffffffffffffffffffffffffffffffffffffffffffffffffff1916145b80610765575061076482611796565b5b9050919050565b6107888484848460405180602001604052806000815250611567565b50505050565b60606107986111e1565b8211156107da576040517f08c379a00000000000000000000000000000000000000000000000000000000081526004016107d1906149e9565b60405180910390fd5b60006107e583610e5f565b905060006107f284610e71565b9050610807818361180090919063ffffffff16565b92505050919050565b61081b838383611a59565b6040518060400160405280600381526020017f307830000000000000000000000000000000000000000000000000000000000081525060fc600084815260200190815260200160002090805190602001906108779291906135b1565b50505050565b600061088983836105c0565b905092915050565b610899611c78565b73ffffffffffffffffffffffffffffffffffffffff168573ffffffffffffffffffffffffffffffffffffffff1614806108df57506108de856108d9611c78565b611307565b5b61091e576040517f08c379a000000000000000000000000000000000000000000000000000000000815260040161091590614a49565b60405180910390fd5b61092b8585858585611c80565b5050505050565b606060fd600083815260200190815260200160002080548060200260200160405190810160405280929190818152602001828054801561099157602002820191906000526020600020905b81548152602001906001019080831161097d575b50505050509050919050565b600060019054906101000a900460ff16806109c3575060008054906101000a900460ff16155b610a02576040517f08c379a00000000000000000000000000000000000000000000000000000000081526004016109f990614a69565b60405180910390fd5b60008060019054906101000a900460ff161590508015610a52576001600060016101000a81548160ff02191690831515021790555060016000806101000a81548160ff0219169083151502179055505b610a5b83611fe3565b610a636120d6565b610a6b6121bf565b600060fb819055508160fe9080519060200190610a89929190613637565b508015610aab5760008060016101000a81548160ff0219169083151502179055505b505050565b60608151835114610af6576040517f08c379a0000000000000000000000000000000000000000000000000000000008152600401610aed90614b09565b60405180910390fd5b6000835167ffffffffffffffff811115610b39577f4e487b7100000000000000000000000000000000000000000000000000000000600052604160045260246000fd5b604051908082528060200260200182016040528015610b675781602001602082028036833780820191505090505b50905060005b8451811015610c5657610c00858281518110610bb2577f4e487b7100000000000000000000000000000000000000000000000000000000600052603260045260246000fd5b6020026020010151858381518110610bf3577f4e487b7100000000000000000000000000000000000000000000000000000000600052603260045260246000fd5b60200260200101516105c0565b828281518110610c39577f4e487b7100000000000000000000000000000000000000000000000000000000600052603260045260246000fd5b60200260200101818152505080610c4f90614e45565b9050610b6d565b508091505092915050565b610c6f8260fb5485846122a8565b60fb6000815480929190610c8290614e45565b9190505550505050565b610c94611c78565b73ffffffffffffffffffffffffffffffffffffffff16610cb2610f9c565b73ffffffffffffffffffffffffffffffffffffffff1614610d08576040517f08c379a0000000000000000000000000000000000000000000000000000000008152600401610cff90614ac9565b60405180910390fd5b610d118161243f565b50565b6000603360009054906101000a900460ff16905090565b60fb548110610d6f576040517f08c379a0000000000000000000000000000000000000000000000000000000008152600401610d6690614909565b60405180910390fd5b610d7d8360fb5486856122a8565b60fd600082815260200190815260200160002060fb54908060018154018082558091505060019003906000526020600020016000909190919091505560fb6000815480929190610dcc90614e45565b919050555050505050565b610ddf611c78565b73ffffffffffffffffffffffffffffffffffffffff16610dfd610f9c565b73ffffffffffffffffffffffffffffffffffffffff1614610e53576040517f08c379a0000000000000000000000000000000000000000000000000000000008152600401610e4a90614ac9565b60405180910390fd5b610e5d6000612459565b565b6060610e6a8261251f565b9050919050565b606060fc60008381526020019081526020016000208054610e9190614e13565b80601f0160208091040260200160405190810160405280929190818152602001828054610ebd90614e13565b8015610f0a5780601f10610edf57610100808354040283529160200191610f0a565b820191906000526020600020905b815481529060010190602001808311610eed57829003601f168201915b50505050509050919050565b610f1e611c78565b73ffffffffffffffffffffffffffffffffffffffff16610f3c610f9c565b73ffffffffffffffffffffffffffffffffffffffff1614610f92576040517f08c379a0000000000000000000000000000000000000000000000000000000008152600401610f8990614ac9565b60405180910390fd5b610f9a6125b3565b565b6000606560009054906101000a900473ffffffffffffffffffffffffffffffffffffffff16905090565b8173ffffffffffffffffffffffffffffffffffffffff16610fe5611c78565b73ffffffffffffffffffffffffffffffffffffffff16141561103c576040517f08c379a000000000000000000000000000000000000000000000000000000000815260040161103390614ae9565b60405180910390fd5b8060ca6000611049611c78565b73ffffffffffffffffffffffffffffffffffffffff1673ffffffffffffffffffffffffffffffffffffffff16815260200190815260200160002060008473ffffffffffffffffffffffffffffffffffffffff1673ffffffffffffffffffffffffffffffffffffffff16815260200190815260200160002060006101000a81548160ff0219169083151502179055508173ffffffffffffffffffffffffffffffffffffffff166110f6611c78565b73ffffffffffffffffffffffffffffffffffffffff167f17307eab39ab6107e8899845ad3d59bd9653f200f220920489ca2b5937696c318360405161113b919061488c565b60405180910390a35050565b60006111538383611307565b905092915050565b611163611c78565b73ffffffffffffffffffffffffffffffffffffffff16611181610f9c565b73ffffffffffffffffffffffffffffffffffffffff16146111d7576040517f08c379a00000000000000000000000000000000000000000000000000000000081526004016111ce90614ac9565b60405180910390fd5b6111df612655565b565b600060fb54905090565b6111f3611c78565b73ffffffffffffffffffffffffffffffffffffffff16611211610f9c565b73ffffffffffffffffffffffffffffffffffffffff1614611267576040517f08c379a000000000000000000000000000000000000000000000000000000000815260040161125e90614ac9565b60405180910390fd5b6112718282610fc6565b5050565b606060fe805461128490614e13565b80601f01602080910402602001604051908101604052809291908181526020018280546112b090614e13565b80156112fd5780601f106112d2576101008083540402835291602001916112fd565b820191906000526020600020905b8154815290600101906020018083116112e057829003601f168201915b5050505050905090565b600060ca60008473ffffffffffffffffffffffffffffffffffffffff1673ffffffffffffffffffffffffffffffffffffffff16815260200190815260200160002060008373ffffffffffffffffffffffffffffffffffffffff1673ffffffffffffffffffffffffffffffffffffffff16815260200190815260200160002060009054906101000a900460ff16905092915050565b60008367ffffffffffffffff8111156113dd577f4e487b7100000000000000000000000000000000000000000000000000000000600052604160045260246000fd5b60405190808252806020026020018201604052801561140b5781602001602082028036833780820191505090505b50905060008467ffffffffffffffff811115611450577f4e487b7100000000000000000000000000000000000000000000000000000000600052604160045260246000fd5b60405190808252806020026020018201604052801561147e5781602001602082028036833780820191505090505b50905060005b85811015611539578060fb5461149a9190614d07565b8382815181106114d3577f4e487b7100000000000000000000000000000000000000000000000000000000600052603260045260246000fd5b602002602001018181525050600182828151811061151a577f4e487b7100000000000000000000000000000000000000000000000000000000600052603260045260246000fd5b602002602001018181525050808061153190614e45565b915050611484565b50611546848383866126f8565b815160fb60008282546115599190614d07565b925050819055505050505050565b61156f611c78565b73ffffffffffffffffffffffffffffffffffffffff168573ffffffffffffffffffffffffffffffffffffffff1614806115b557506115b4856115af611c78565b611307565b5b6115f4576040517f08c379a00000000000000000000000000000000000000000000000000000000081526004016115eb906149c9565b60405180910390fd5b6116018585858585612963565b5050505050565b611610611c78565b73ffffffffffffffffffffffffffffffffffffffff1661162e610f9c565b73ffffffffffffffffffffffffffffffffffffffff1614611684576040517f08c379a000000000000000000000000000000000000000000000000000000000815260040161167b90614ac9565b60405180910390fd5b600073ffffffffffffffffffffffffffffffffffffffff168173ffffffffffffffffffffffffffffffffffffffff1614156116f4576040517f08c379a00000000000000000000000000000000000000000000000000000000081526004016116eb90614969565b60405180910390fd5b6116fd81612459565b50565b611708611c78565b73ffffffffffffffffffffffffffffffffffffffff16611726610f9c565b73ffffffffffffffffffffffffffffffffffffffff161461177c576040517f08c379a000000000000000000000000000000000000000000000000000000000815260040161177390614ac9565b60405180910390fd5b8060fe9080519060200190611792929190613637565b5050565b60007f01ffc9a7000000000000000000000000000000000000000000000000000000007bffffffffffffffffffffffffffffffffffffffffffffffffffffffff1916827bffffffffffffffffffffffffffffffffffffffffffffffffffffffff1916149050919050565b60606000839050600083905060008151835161181c9190614d07565b67ffffffffffffffff81111561185b577f4e487b7100000000000000000000000000000000000000000000000000000000600052604160045260246000fd5b6040519080825280601f01601f19166020018201604052801561188d5781602001600182028036833780820191505090505b5090506000819050600080600091505b8551821015611971578582815181106118df577f4e487b7100000000000000000000000000000000000000000000000000000000600052603260045260246000fd5b602001015160f81c60f81b8382806118f690614e45565b93508151811061192f577f4e487b7100000000000000000000000000000000000000000000000000000000600052603260045260246000fd5b60200101907effffffffffffffffffffffffffffffffffffffffffffffffffffffffffffff1916908160001a905350818061196990614e45565b92505061189d565b600091505b8451821015611a4a578482815181106119b8577f4e487b7100000000000000000000000000000000000000000000000000000000600052603260045260246000fd5b602001015160f81c60f81b8382806119cf90614e45565b935081518110611a08577f4e487b7100000000000000000000000000000000000000000000000000000000600052603260045260246000fd5b60200101907effffffffffffffffffffffffffffffffffffffffffffffffffffffffffffff1916908160001a9053508180611a4290614e45565b925050611976565b82965050505050505092915050565b600073ffffffffffffffffffffffffffffffffffffffff168373ffffffffffffffffffffffffffffffffffffffff161415611ac9576040517f08c379a0000000000000000000000000000000000000000000000000000000008152600401611ac090614a89565b60405180910390fd5b6000611ad3611c78565b9050611b0381856000611ae587612be8565b611aee87612be8565b60405180602001604052806000815250612cae565b600060c9600085815260200190815260200160002060008673ffffffffffffffffffffffffffffffffffffffff1673ffffffffffffffffffffffffffffffffffffffff16815260200190815260200160002054905082811015611b9b576040517f08c379a0000000000000000000000000000000000000000000000000000000008152600401611b9290614989565b60405180910390fd5b82810360c9600086815260200190815260200160002060008773ffffffffffffffffffffffffffffffffffffffff1673ffffffffffffffffffffffffffffffffffffffff16815260200190815260200160002081905550600073ffffffffffffffffffffffffffffffffffffffff168573ffffffffffffffffffffffffffffffffffffffff168373ffffffffffffffffffffffffffffffffffffffff167fc3d58168c5ae7397731d063d5bbf3d657854427343f4c083240f7aacaa2d0f628787604051611c69929190614b84565b60405180910390a45050505050565b600033905090565b8151835114611cc4576040517f08c379a0000000000000000000000000000000000000000000000000000000008152600401611cbb90614b29565b60405180910390fd5b600073ffffffffffffffffffffffffffffffffffffffff168473ffffffffffffffffffffffffffffffffffffffff161415611d34576040517f08c379a0000000000000000000000000000000000000000000000000000000008152600401611d2b90614a29565b60405180910390fd5b6000611d3e611c78565b9050611d4e818787878787612cae565b60005b8451811015611f4e576000858281518110611d95577f4e487b7100000000000000000000000000000000000000000000000000000000600052603260045260246000fd5b602002602001015190506000858381518110611dda577f4e487b7100000000000000000000000000000000000000000000000000000000600052603260045260246000fd5b60200260200101519050600060c9600084815260200190815260200160002060008b73ffffffffffffffffffffffffffffffffffffffff1673ffffffffffffffffffffffffffffffffffffffff16815260200190815260200160002054905081811015611e7c576040517f08c379a0000000000000000000000000000000000000000000000000000000008152600401611e7390614aa9565b60405180910390fd5b81810360c9600085815260200190815260200160002060008c73ffffffffffffffffffffffffffffffffffffffff1673ffffffffffffffffffffffffffffffffffffffff168152602001908152602001600020819055508160c9600085815260200190815260200160002060008b73ffffffffffffffffffffffffffffffffffffffff1673ffffffffffffffffffffffffffffffffffffffff1681526020019081526020016000206000828254611f339190614d07565b9250508190555050505080611f4790614e45565b9050611d51565b508473ffffffffffffffffffffffffffffffffffffffff168673ffffffffffffffffffffffffffffffffffffffff168273ffffffffffffffffffffffffffffffffffffffff167f4a39dc06d4c0dbc64b70af90fd698a233a518aa5d07e595d983b8c0526c8f7fb8787604051611fc5929190614855565b60405180910390a4611fdb818787878787612d8c565b505050505050565b600060019054906101000a900460ff1680612009575060008054906101000a900460ff16155b612048576040517f08c379a000000000000000000000000000000000000000000000000000000000815260040161203f90614a69565b60405180910390fd5b60008060019054906101000a900460ff161590508015612098576001600060016101000a81548160ff02191690831515021790555060016000806101000a81548160ff0219169083151502179055505b6120a0612f5c565b6120a8613035565b6120b18261310e565b80156120d25760008060016101000a81548160ff0219169083151502179055505b5050565b600060019054906101000a900460ff16806120fc575060008054906101000a900460ff16155b61213b576040517f08c379a000000000000000000000000000000000000000000000000000000000815260040161213290614a69565b60405180910390fd5b60008060019054906101000a900460ff16159050801561218b576001600060016101000a81548160ff02191690831515021790555060016000806101000a81548160ff0219169083151502179055505b612193612f5c565b61219b6131f1565b80156121bc5760008060016101000a81548160ff0219169083151502179055505b50565b600060019054906101000a900460ff16806121e5575060008054906101000a900460ff16155b612224576040517f08c379a000000000000000000000000000000000000000000000000000000000815260040161221b90614a69565b60405180910390fd5b60008060019054906101000a900460ff161590508015612274576001600060016101000a81548160ff02191690831515021790555060016000806101000a81548160ff0219169083151502179055505b61227c612f5c565b6122846132da565b80156122a55760008060016101000a81548160ff0219169083151502179055505b50565b600073ffffffffffffffffffffffffffffffffffffffff168473ffffffffffffffffffffffffffffffffffffffff161415612318576040517f08c379a000000000000000000000000000000000000000000000000000000000815260040161230f90614b49565b60405180910390fd5b6000612322611c78565b90506123438160008761233488612be8565b61233d88612be8565b87612cae565b8260c9600086815260200190815260200160002060008773ffffffffffffffffffffffffffffffffffffffff1673ffffffffffffffffffffffffffffffffffffffff16815260200190815260200160002060008282546123a39190614d07565b925050819055508473ffffffffffffffffffffffffffffffffffffffff16600073ffffffffffffffffffffffffffffffffffffffff168273ffffffffffffffffffffffffffffffffffffffff167fc3d58168c5ae7397731d063d5bbf3d657854427343f4c083240f7aacaa2d0f628787604051612421929190614b84565b60405180910390a4612438816000878787876133ce565b5050505050565b8060cb9080519060200190612455929190613637565b5050565b6000606560009054906101000a900473ffffffffffffffffffffffffffffffffffffffff16905081606560006101000a81548173ffffffffffffffffffffffffffffffffffffffff021916908373ffffffffffffffffffffffffffffffffffffffff1602179055508173ffffffffffffffffffffffffffffffffffffffff168173ffffffffffffffffffffffffffffffffffffffff167f8be0079c531659141344cd1fd0a4f28419497f9722a3daafe3b4186f6b6457e060405160405180910390a35050565b606060cb805461252e90614e13565b80601f016020809104026020016040519081016040528092919081815260200182805461255a90614e13565b80156125a75780601f1061257c576101008083540402835291602001916125a7565b820191906000526020600020905b81548152906001019060200180831161258a57829003601f168201915b50505050509050919050565b6125bb610d14565b6125fa576040517f08c379a00000000000000000000000000000000000000000000000000000000081526004016125f190614929565b60405180910390fd5b6000603360006101000a81548160ff0219169083151502179055507f5db9ee0a495bf2e6ff9c91a7834c1ba4fdd244a5e8aa4e537bd38aeae4b073aa61263e611c78565b60405161264b9190614756565b60405180910390a1565b61265d610d14565b1561269d576040517f08c379a000000000000000000000000000000000000000000000000000000000815260040161269490614a09565b60405180910390fd5b6001603360006101000a81548160ff0219169083151502179055507f62e78cea01bee320cd4e420270b5ea74000d11b0c9f74754ebdbfc544b05a2586126e1611c78565b6040516126ee9190614756565b60405180910390a1565b600073ffffffffffffffffffffffffffffffffffffffff168473ffffffffffffffffffffffffffffffffffffffff161415612768576040517f08c379a000000000000000000000000000000000000000000000000000000000815260040161275f90614b49565b60405180910390fd5b81518351146127ac576040517f08c379a00000000000000000000000000000000000000000000000000000000081526004016127a390614b29565b60405180910390fd5b60006127b6611c78565b90506127c781600087878787612cae565b60005b84518110156128cd5783818151811061280c577f4e487b7100000000000000000000000000000000000000000000000000000000600052603260045260246000fd5b602002602001015160c96000878481518110612851577f4e487b7100000000000000000000000000000000000000000000000000000000600052603260045260246000fd5b6020026020010151815260200190815260200160002060008873ffffffffffffffffffffffffffffffffffffffff1673ffffffffffffffffffffffffffffffffffffffff16815260200190815260200160002060008282546128b39190614d07565b9250508190555080806128c590614e45565b9150506127ca565b508473ffffffffffffffffffffffffffffffffffffffff16600073ffffffffffffffffffffffffffffffffffffffff168273ffffffffffffffffffffffffffffffffffffffff167f4a39dc06d4c0dbc64b70af90fd698a233a518aa5d07e595d983b8c0526c8f7fb8787604051612945929190614855565b60405180910390a461295c81600087878787612d8c565b5050505050565b600073ffffffffffffffffffffffffffffffffffffffff168473ffffffffffffffffffffffffffffffffffffffff1614156129d3576040517f08c379a00000000000000000000000000000000000000000000000000000000081526004016129ca90614a29565b60405180910390fd5b60006129dd611c78565b90506129fd8187876129ee88612be8565b6129f788612be8565b87612cae565b600060c9600086815260200190815260200160002060008873ffffffffffffffffffffffffffffffffffffffff1673ffffffffffffffffffffffffffffffffffffffff16815260200190815260200160002054905083811015612a95576040517f08c379a0000000000000000000000000000000000000000000000000000000008152600401612a8c90614aa9565b60405180910390fd5b83810360c9600087815260200190815260200160002060008973ffffffffffffffffffffffffffffffffffffffff1673ffffffffffffffffffffffffffffffffffffffff168152602001908152602001600020819055508360c9600087815260200190815260200160002060008873ffffffffffffffffffffffffffffffffffffffff1673ffffffffffffffffffffffffffffffffffffffff1681526020019081526020016000206000828254612b4c9190614d07565b925050819055508573ffffffffffffffffffffffffffffffffffffffff168773ffffffffffffffffffffffffffffffffffffffff168373ffffffffffffffffffffffffffffffffffffffff167fc3d58168c5ae7397731d063d5bbf3d657854427343f4c083240f7aacaa2d0f628888604051612bc9929190614b84565b60405180910390a4612bdf8288888888886133ce565b50505050505050565b60606000600167ffffffffffffffff811115612c2d577f4e487b7100000000000000000000000000000000000000000000000000000000600052604160045260246000fd5b604051908082528060200260200182016040528015612c5b5781602001602082028036833780820191505090505b5090508281600081518110612c99577f4e487b7100000000000000000000000000000000000000000000000000000000600052603260045260246000fd5b60200260200101818152505080915050919050565b60008351905060005b81811015612d3a578260fc6000878481518110612cfd577f4e487b7100000000000000000000000000000000000000000000000000000000600052603260045260246000fd5b602002602001015181526020019081526020016000209080519060200190612d269291906135b1565b508080612d3290614e45565b915050612cb7565b50612d43610d14565b15612d83576040517f08c379a0000000000000000000000000000000000000000000000000000000008152600401612d7a906149a9565b60405180910390fd5b50505050505050565b612dab8473ffffffffffffffffffffffffffffffffffffffff1661359e565b15612f54578373ffffffffffffffffffffffffffffffffffffffff1663bc197c8187878686866040518663ffffffff1660e01b8152600401612df1959493929190614771565b602060405180830381600087803b158015612e0b57600080fd5b505af1925050508015612e3c57506040513d601f19601f82011682018060405250810190612e399190613cb1565b60015b612ecb57612e48614f39565b80612e535750612e90565b806040517f08c379a0000000000000000000000000000000000000000000000000000000008152600401612e8791906148a7565b60405180910390fd5b6040517f08c379a0000000000000000000000000000000000000000000000000000000008152600401612ec2906148c9565b60405180910390fd5b63bc197c8160e01b7bffffffffffffffffffffffffffffffffffffffffffffffffffffffff1916817bffffffffffffffffffffffffffffffffffffffffffffffffffffffff191614612f52576040517f08c379a0000000000000000000000000000000000000000000000000000000008152600401612f49906148e9565b60405180910390fd5b505b505050505050565b600060019054906101000a900460ff1680612f82575060008054906101000a900460ff16155b612fc1576040517f08c379a0000000000000000000000000000000000000000000000000000000008152600401612fb890614a69565b60405180910390fd5b60008060019054906101000a900460ff161590508015613011576001600060016101000a81548160ff02191690831515021790555060016000806101000a81548160ff0219169083151502179055505b80156130325760008060016101000a81548160ff0219169083151502179055505b50565b600060019054906101000a900460ff168061305b575060008054906101000a900460ff16155b61309a576040517f08c379a000000000000000000000000000000000000000000000000000000000815260040161309190614a69565b60405180910390fd5b60008060019054906101000a900460ff1615905080156130ea576001600060016101000a81548160ff02191690831515021790555060016000806101000a81548160ff0219169083151502179055505b801561310b5760008060016101000a81548160ff0219169083151502179055505b50565b600060019054906101000a900460ff1680613134575060008054906101000a900460ff16155b613173576040517f08c379a000000000000000000000000000000000000000000000000000000000815260040161316a90614a69565b60405180910390fd5b60008060019054906101000a900460ff1615905080156131c3576001600060016101000a81548160ff02191690831515021790555060016000806101000a81548160ff0219169083151502179055505b6131cc8261243f565b80156131ed5760008060016101000a81548160ff0219169083151502179055505b5050565b600060019054906101000a900460ff1680613217575060008054906101000a900460ff16155b613256576040517f08c379a000000000000000000000000000000000000000000000000000000000815260040161324d90614a69565b60405180910390fd5b60008060019054906101000a900460ff1615905080156132a6576001600060016101000a81548160ff02191690831515021790555060016000806101000a81548160ff0219169083151502179055505b6132b66132b1611c78565b612459565b80156132d75760008060016101000a81548160ff0219169083151502179055505b50565b600060019054906101000a900460ff1680613300575060008054906101000a900460ff16155b61333f576040517f08c379a000000000000000000000000000000000000000000000000000000000815260040161333690614a69565b60405180910390fd5b60008060019054906101000a900460ff16159050801561338f576001600060016101000a81548160ff02191690831515021790555060016000806101000a81548160ff0219169083151502179055505b6000603360006101000a81548160ff02191690831515021790555080156133cb5760008060016101000a81548160ff0219169083151502179055505b50565b6133ed8473ffffffffffffffffffffffffffffffffffffffff1661359e565b15613596578373ffffffffffffffffffffffffffffffffffffffff1663f23a6e6187878686866040518663ffffffff1660e01b81526004016134339594939291906147d9565b602060405180830381600087803b15801561344d57600080fd5b505af192505050801561347e57506040513d601f19601f8201168201806040525081019061347b9190613cb1565b60015b61350d5761348a614f39565b8061349557506134d2565b806040517f08c379a00000000000000000000000000000000000000000000000000000000081526004016134c991906148a7565b60405180910390fd5b6040517f08c379a0000000000000000000000000000000000000000000000000000000008152600401613504906148c9565b60405180910390fd5b63f23a6e6160e01b7bffffffffffffffffffffffffffffffffffffffffffffffffffffffff1916817bffffffffffffffffffffffffffffffffffffffffffffffffffffffff191614613594576040517f08c379a000000000000000000000000000000000000000000000000000000000815260040161358b906148e9565b60405180910390fd5b505b505050505050565b600080823b905060008111915050919050565b8280546135bd90614e13565b90600052602060002090601f0160209004810192826135df5760008555613626565b82601f106135f857805160ff1916838001178555613626565b82800160010185558215613626579182015b8281111561362557825182559160200191906001019061360a565b5b50905061363391906136bd565b5090565b82805461364390614e13565b90600052602060002090601f01602090048101928261366557600085556136ac565b82601f1061367e57805160ff19168380011785556136ac565b828001600101855582156136ac579182015b828111156136ab578251825591602001919060010190613690565b5b5090506136b991906136bd565b5090565b5b808211156136d65760008160009055506001016136be565b5090565b60006136ed6136e884614bde565b614bad565b9050808382526020820190508285602086028201111561370c57600080fd5b60005b8581101561373c5781613722888261382e565b84526020840193506020830192505060018101905061370f565b5050509392505050565b600061375961375484614c0a565b614bad565b9050808382526020820190508285602086028201111561377857600080fd5b60005b858110156137a8578161378e888261392a565b84526020840193506020830192505060018101905061377b565b5050509392505050565b60006137c56137c084614c36565b614bad565b9050828152602081018484840111156137dd57600080fd5b6137e8848285614dd1565b509392505050565b60006138036137fe84614c66565b614bad565b90508281526020810184848401111561381b57600080fd5b613826848285614dd1565b509392505050565b60008135905061383d81614fef565b92915050565b600082601f83011261385457600080fd5b81356138648482602086016136da565b91505092915050565b600082601f83011261387e57600080fd5b813561388e848260208601613746565b91505092915050565b6000813590506138a681615006565b92915050565b6000813590506138bb8161501d565b92915050565b6000815190506138d08161501d565b92915050565b600082601f8301126138e757600080fd5b81356138f78482602086016137b2565b91505092915050565b600082601f83011261391157600080fd5b81356139218482602086016137f0565b91505092915050565b60008135905061393981615034565b92915050565b60006020828403121561395157600080fd5b600061395f8482850161382e565b91505092915050565b6000806040838503121561397b57600080fd5b60006139898582860161382e565b925050602061399a8582860161382e565b9150509250929050565b600080600080600060a086880312156139bc57600080fd5b60006139ca8882890161382e565b95505060206139db8882890161382e565b945050604086013567ffffffffffffffff8111156139f857600080fd5b613a048882890161386d565b935050606086013567ffffffffffffffff811115613a2157600080fd5b613a2d8882890161386d565b925050608086013567ffffffffffffffff811115613a4a57600080fd5b613a56888289016138d6565b9150509295509295909350565b60008060008060808587031215613a7957600080fd5b6000613a878782880161382e565b9450506020613a988782880161382e565b9350506040613aa98782880161392a565b9250506060613aba8782880161392a565b91505092959194509250565b600080600080600060a08688031215613ade57600080fd5b6000613aec8882890161382e565b9550506020613afd8882890161382e565b9450506040613b0e8882890161392a565b9350506060613b1f8882890161392a565b925050608086013567ffffffffffffffff811115613b3c57600080fd5b613b48888289016138d6565b9150509295509295909350565b60008060408385031215613b6857600080fd5b6000613b768582860161382e565b9250506020613b8785828601613897565b9150509250929050565b60008060408385031215613ba457600080fd5b6000613bb28582860161382e565b9250506020613bc38582860161392a565b9150509250929050565b600080600060608486031215613be257600080fd5b6000613bf08682870161382e565b9350506020613c018682870161392a565b9250506040613c128682870161392a565b9150509250925092565b60008060408385031215613c2f57600080fd5b600083013567ffffffffffffffff811115613c4957600080fd5b613c5585828601613843565b925050602083013567ffffffffffffffff811115613c7257600080fd5b613c7e8582860161386d565b9150509250929050565b600060208284031215613c9a57600080fd5b6000613ca8848285016138ac565b91505092915050565b600060208284031215613cc357600080fd5b6000613cd1848285016138c1565b91505092915050565b600060208284031215613cec57600080fd5b600082013567ffffffffffffffff811115613d0657600080fd5b613d1284828501613900565b91505092915050565b60008060408385031215613d2e57600080fd5b600083013567ffffffffffffffff811115613d4857600080fd5b613d5485828601613900565b925050602083013567ffffffffffffffff811115613d7157600080fd5b613d7d85828601613900565b9150509250929050565b600060208284031215613d9957600080fd5b6000613da78482850161392a565b91505092915050565b600080600060608486031215613dc557600080fd5b6000613dd38682870161392a565b9350506020613de48682870161382e565b925050604084013567ffffffffffffffff811115613e0157600080fd5b613e0d868287016138d6565b9150509250925092565b60008060008060808587031215613e2d57600080fd5b6000613e3b8782880161392a565b9450506020613e4c8782880161382e565b935050604085013567ffffffffffffffff811115613e6957600080fd5b613e75878288016138d6565b9250506060613e868782880161392a565b91505092959194509250565b6000613e9e8383614738565b60208301905092915050565b613eb381614d5d565b82525050565b6000613ec482614ca6565b613ece8185614cd4565b9350613ed983614c96565b8060005b83811015613f0a578151613ef18882613e92565b9750613efc83614cc7565b925050600181019050613edd565b5085935050505092915050565b613f2081614d6f565b82525050565b6000613f3182614cb1565b613f3b8185614ce5565b9350613f4b818560208601614de0565b613f5481614f1b565b840191505092915050565b6000613f6a82614cbc565b613f748185614cf6565b9350613f84818560208601614de0565b613f8d81614f1b565b840191505092915050565b6000613fa5603483614cf6565b91507f455243313135353a207472616e7366657220746f206e6f6e204552433131353560008301527f526563656976657220696d706c656d656e7465720000000000000000000000006020830152604082019050919050565b600061400b602883614cf6565b91507f455243313135353a204552433131353552656365697665722072656a6563746560008301527f6420746f6b656e730000000000000000000000000000000000000000000000006020830152604082019050919050565b6000614071601c83614cf6565b91507f506172656e7420746f6b656e206964206973206e6f742076616c6964000000006000830152602082019050919050565b60006140b1601483614cf6565b91507f5061757361626c653a206e6f74207061757365640000000000000000000000006000830152602082019050919050565b60006140f1602b83614cf6565b91507f455243313135353a2062616c616e636520717565727920666f7220746865207a60008301527f65726f20616464726573730000000000000000000000000000000000000000006020830152604082019050919050565b6000614157602683614cf6565b91507f4f776e61626c653a206e6577206f776e657220697320746865207a65726f206160008301527f64647265737300000000000000000000000000000000000000000000000000006020830152604082019050919050565b60006141bd602483614cf6565b91507f455243313135353a206275726e20616d6f756e7420657863656564732062616c60008301527f616e6365000000000000000000000000000000000000000000000000000000006020830152604082019050919050565b6000614223602c83614cf6565b91507f455243313135355061757361626c653a20746f6b656e207472616e736665722060008301527f7768696c652070617573656400000000000000000000000000000000000000006020830152604082019050919050565b6000614289602983614cf6565b91507f455243313135353a2063616c6c6572206973206e6f74206f776e6572206e6f7260008301527f20617070726f76656400000000000000000000000000000000000000000000006020830152604082019050919050565b60006142ef601783614cf6565b91507f237572693a204e4f4e4558495354454e545f544f4b454e0000000000000000006000830152602082019050919050565b600061432f601083614cf6565b91507f5061757361626c653a20706175736564000000000000000000000000000000006000830152602082019050919050565b600061436f602583614cf6565b91507f455243313135353a207472616e7366657220746f20746865207a65726f20616460008301527f64726573730000000000000000000000000000000000000000000000000000006020830152604082019050919050565b60006143d5603283614cf6565b91507f455243313135353a207472616e736665722063616c6c6572206973206e6f742060008301527f6f776e6572206e6f7220617070726f76656400000000000000000000000000006020830152604082019050919050565b600061443b602e83614cf6565b91507f496e697469616c697a61626c653a20636f6e747261637420697320616c72656160008301527f647920696e697469616c697a65640000000000000000000000000000000000006020830152604082019050919050565b60006144a1602383614cf6565b91507f455243313135353a206275726e2066726f6d20746865207a65726f206164647260008301527f65737300000000000000000000000000000000000000000000000000000000006020830152604082019050919050565b6000614507602a83614cf6565b91507f455243313135353a20696e73756666696369656e742062616c616e636520666f60008301527f72207472616e73666572000000000000000000000000000000000000000000006020830152604082019050919050565b600061456d602083614cf6565b91507f4f776e61626c653a2063616c6c6572206973206e6f7420746865206f776e65726000830152602082019050919050565b60006145ad602983614cf6565b91507f455243313135353a2073657474696e6720617070726f76616c2073746174757360008301527f20666f722073656c6600000000000000000000000000000000000000000000006020830152604082019050919050565b6000614613602983614cf6565b91507f455243313135353a206163636f756e747320616e6420696473206c656e67746860008301527f206d69736d6174636800000000000000000000000000000000000000000000006020830152604082019050919050565b6000614679602883614cf6565b91507f455243313135353a2069647320616e6420616d6f756e7473206c656e6774682060008301527f6d69736d617463680000000000000000000000000000000000000000000000006020830152604082019050919050565b60006146df602183614cf6565b91507f455243313135353a206d696e7420746f20746865207a65726f2061646472657360008301527f73000000000000000000000000000000000000000000000000000000000000006020830152604082019050919050565b61474181614dc7565b82525050565b61475081614dc7565b82525050565b600060208201905061476b6000830184613eaa565b92915050565b600060a0820190506147866000830188613eaa565b6147936020830187613eaa565b81810360408301526147a58186613eb9565b905081810360608301526147b98185613eb9565b905081810360808301526147cd8184613f26565b90509695505050505050565b600060a0820190506147ee6000830188613eaa565b6147fb6020830187613eaa565b6148086040830186614747565b6148156060830185614747565b81810360808301526148278184613f26565b90509695505050505050565b6000602082019050818103600083015261484d8184613eb9565b905092915050565b6000604082019050818103600083015261486f8185613eb9565b905081810360208301526148838184613eb9565b90509392505050565b60006020820190506148a16000830184613f17565b92915050565b600060208201905081810360008301526148c18184613f5f565b905092915050565b600060208201905081810360008301526148e281613f98565b9050919050565b6000602082019050818103600083015261490281613ffe565b9050919050565b6000602082019050818103600083015261492281614064565b9050919050565b60006020820190508181036000830152614942816140a4565b9050919050565b60006020820190508181036000830152614962816140e4565b9050919050565b600060208201905081810360008301526149828161414a565b9050919050565b600060208201905081810360008301526149a2816141b0565b9050919050565b600060208201905081810360008301526149c281614216565b9050919050565b600060208201905081810360008301526149e28161427c565b9050919050565b60006020820190508181036000830152614a02816142e2565b9050919050565b60006020820190508181036000830152614a2281614322565b9050919050565b60006020820190508181036000830152614a4281614362565b9050919050565b60006020820190508181036000830152614a62816143c8565b9050919050565b60006020820190508181036000830152614a828161442e565b9050919050565b60006020820190508181036000830152614aa281614494565b9050919050565b60006020820190508181036000830152614ac2816144fa565b9050919050565b60006020820190508181036000830152614ae281614560565b9050919050565b60006020820190508181036000830152614b02816145a0565b9050919050565b60006020820190508181036000830152614b2281614606565b9050919050565b60006020820190508181036000830152614b428161466c565b9050919050565b60006020820190508181036000830152614b62816146d2565b9050919050565b6000602082019050614b7e6000830184614747565b92915050565b6000604082019050614b996000830185614747565b614ba66020830184614747565b9392505050565b6000604051905081810181811067ffffffffffffffff82111715614bd457614bd3614eec565b5b8060405250919050565b600067ffffffffffffffff821115614bf957614bf8614eec565b5b602082029050602081019050919050565b600067ffffffffffffffff821115614c2557614c24614eec565b5b602082029050602081019050919050565b600067ffffffffffffffff821115614c5157614c50614eec565b5b601f19601f8301169050602081019050919050565b600067ffffffffffffffff821115614c8157614c80614eec565b5b601f19601f8301169050602081019050919050565b6000819050602082019050919050565b600081519050919050565b600081519050919050565b600081519050919050565b6000602082019050919050565b600082825260208201905092915050565b600082825260208201905092915050565b600082825260208201905092915050565b6000614d1282614dc7565b9150614d1d83614dc7565b9250827fffffffffffffffffffffffffffffffffffffffffffffffffffffffffffffffff03821115614d5257614d51614e8e565b5b828201905092915050565b6000614d6882614da7565b9050919050565b60008115159050919050565b60007fffffffff0000000000000000000000000000000000000000000000000000000082169050919050565b600073ffffffffffffffffffffffffffffffffffffffff82169050919050565b6000819050919050565b82818337600083830152505050565b60005b83811015614dfe578082015181840152602081019050614de3565b83811115614e0d576000848401525b50505050565b60006002820490506001821680614e2b57607f821691505b60208210811415614e3f57614e3e614ebd565b5b50919050565b6000614e5082614dc7565b91507fffffffffffffffffffffffffffffffffffffffffffffffffffffffffffffffff821415614e8357614e82614e8e565b5b600182019050919050565b7f4e487b7100000000000000000000000000000000000000000000000000000000600052601160045260246000fd5b7f4e487b7100000000000000000000000000000000000000000000000000000000600052602260045260246000fd5b7f4e487b7100000000000000000000000000000000000000000000000000000000600052604160045260246000fd5b6000601f19601f8301169050919050565b60008160e01c9050919050565b600060443d1015614f4957614fec565b60046000803e614f5a600051614f2c565b6308c379a08114614f6b5750614fec565b60405160043d036004823e80513d602482011167ffffffffffffffff82111715614f9757505050614fec565b808201805167ffffffffffffffff811115614fb6575050505050614fec565b8060208301013d8501811115614fd157505050505050614fec565b614fda82614f1b565b60208401016040528296505050505050505b90565b614ff881614d5d565b811461500357600080fd5b50565b61500f81614d6f565b811461501a57600080fd5b50565b61502681614d7b565b811461503157600080fd5b50565b61503d81614dc7565b811461504857600080fd5b5056fea264697066735822122020026f8edd65064689c511ec36947312c6ca290864b1b26b4ad00433f2a49d8864736f6c63430008000033",
  "immutableReferences": {},
  "source": "// SPDX-License-Identifier: MIT\npragma solidity ^0.8.0;\n\n\nimport \"@openzeppelin/contracts-upgradeable/token/ERC1155/ERC1155Upgradeable.sol\";\nimport \"@openzeppelin/contracts-upgradeable/security/PausableUpgradeable.sol\";\nimport \"@openzeppelin/contracts-upgradeable/access/OwnableUpgradeable.sol\";\nimport \"@openzeppelin/contracts-upgradeable/proxy/utils/Initializable.sol\";\nimport \"./strings.sol\";\n\ncontract Onec1155 is Initializable,PausableUpgradeable, OwnableUpgradeable, ERC1155Upgradeable {\n\n    using StringsNative for string;\n\n    uint private NFTCounter;\n    // token-id to metadata hash\n    mapping(uint256 => bytes) private metadataHash;\n    // tokenIds to refTokenIds\n    mapping(uint256 => uint256[]) private references;\n\n    string private contractMetadata;\n\n    function initialize(string memory _baseURI,string memory _contractMetadata) public initializer {\n        ERC1155Upgradeable.__ERC1155_init(_baseURI);\n        OwnableUpgradeable.__Ownable_init();\n        PausableUpgradeable.__Pausable_init();\n        NFTCounter = 0;\n        contractMetadata = _contractMetadata;\n    }\n\n     /*\n     * @dev Returns the contract URI to make it trackable at OpenSea.\n     */   \n    function contractURI() public view returns (string memory) {\n        return contractMetadata;\n    }\n\n     /*\n     * @dev Sets the contract URI to make it trackable at OpenSea.\n     @params _metadata: The URL for the contract's OpenSea metadata.\n     */  \n    function setContractMetadata(string memory _metadata) public onlyOwner {\n        contractMetadata = _metadata;\n    }\n\n    /*\n     * @dev Mints NFT to the address of _holder.\n     * @params _supply:total no. of NFTs to mint\n     * _holder:public address of the account to mint NFT on that.\n     * _data: metadata hash of the NFT.\n     * Requirements:\n     * Can only be called by the deployer of the smart contract.\n     */\n    function mintNFT(uint _supply, address _holder, bytes memory _data) public {\n        _mint(_holder, NFTCounter, _supply, _data);\n        NFTCounter++;        \n    }\n\n    /*\n     * @dev Mints Reference  to the address of _holder.\n     * @params _supply: total no. of NFTs to mint\n     * _holder: public address of the account to mint NFT on that.\n     * _data: metadata hash of the NFT.\n     * _parentTokenId: the token id of the NFT of which you are minting the references.\n     * Requirements:\n     * Can only be called by the deployer of the smart contract.\n     */\n    function mintRefNFT(uint256 _supply, address _holder, bytes memory _data,uint256 _parentTokenId) public  {\n        require(_parentTokenId < NFTCounter, \"Parent token id is not valid\");\n        _mint(_holder, NFTCounter, _supply, _data);\n        references[_parentTokenId].push(NFTCounter);\n        NFTCounter++;\n    }\n\n    /*\n     * @dev Batch-Mints NFTs to the address of _holder.\n     * @params _supply:total no. of NFT to mint\n     * _holder:public address of the account to mint NFT on that.\n     * _data metadata hash of the NFT.\n     * Requirements:\n     * Can only be called by the deployer of the smart contract.\n     */\n    function batchMintNFT(uint _supply,address _holder, bytes memory _data) public {\n        //create ids array\n        uint[] memory _ids = new uint[](_supply);\n        uint[] memory _amounts = new uint[](_supply);\n        for(uint i=0;i<_supply;i++){\n            _ids[i]=NFTCounter+i;\n            _amounts[i]=1;\n        }\n        //create amount array\n        _mintBatch(_holder,_ids,_amounts,_data);\n        NFTCounter+=_ids.length;\n    }\n    \n    /*\n     * @dev return the list of token-ids of all the reference service tokens\n     */\n    function getReferences(uint _id) public view returns(uint256[] memory) {\n        return references[_id];    \n    }\n    \n    /*\n     *@dev Called before every token transfer, maps the metadataHash of a NFT with the token id  \n     */\n    function _beforeTokenTransfer(address _operator, address _from, address _to, uint256[] memory ids, uint256[] memory amount, bytes memory data) override internal {\n        //save the metadata hash\n        uint arrayLength = ids.length;\n        for (uint i=0; i<arrayLength; i++) {\n            metadataHash[ids[i]] = data;\n        }\n        require(!paused(), \"ERC1155Pausable: token transfer while paused\");\n    }\n\n    /*\n     * @dev returns the metaDataHash for the token-ID\n     */\n\n    function getTokenMetadataHash(uint256 _id) view public returns(string memory) {\n        return string(metadataHash[_id]);\n    }\n\n\n     /*\n      * @dev returns the baseURI.\n      * Doesn't depends on the token-id and returns same thing.\n      */\n    function getBaseURI(uint256 _id) view public returns(string memory) {\n        return super.uri(_id);\n    }\n\n    function setBaseURI(string memory _baseURI) public onlyOwner{\n        super._setURI(_baseURI);\n    }\n\n     /*\n      * @dev returns the tokenURI.\n      * Depends on the token-id and returns same thing.\n      */\n    function uri(uint256 _id) public view override returns (string memory) {\n        require(_id<=getTotalMintedNFT(), \"#uri: NONEXISTENT_TOKEN\");\n        string memory baseURI = getBaseURI(_id);\n        string memory hash = getTokenMetadataHash(_id);\n        return baseURI.concat(string(hash));\n    }\n\n     /*\n      * @dev Tranfers the NFT to new address.\n      * Can be called by the NFT holder.\n      */\n    function transfer(address _from,address _to, uint256 _id, uint256 _amount) public {\n        super.safeTransferFrom(_from, _to, _id, _amount,\"\");\n    }\n\n    /*\n     * @dev pause the onec contract.\n     */\n    function makePause() public onlyOwner {\n        super._pause();\n    }\n\n    /*\n     * @dev un-pause the onec contract.\n     */\n    function makeUnpause() public onlyOwner{\n        super._unpause();\n    } \n\n    /*\n     * @dev Burns the token with the given tokenid.\n     */\n    function burnNFT(address account,uint256 id,uint256 amount) public{\n        super._burn(account,id,amount);\n        metadataHash[id]=bytes(\"0x0\");\n    }\n    \n    /*\n     * @dev Sets approval to the operator to manage NFT held by the caller of the function.\n     */\n    function setApproval(address _operator, bool _approved) public onlyOwner{\n        super.setApprovalForAll(_operator,_approved);\n    }\n\n    /*\n     * @dev Give status of the approval rights, if the operator can manage NFT held by the account.\n     */\n    function isApproved(address account, address operator) public view returns(bool){\n        return super.isApprovedForAll(account,operator);\n    }\n    \n    /*\n     * @dev Gives the balance of a particular NFT of given id held by an account.\n     */\n    function getBalance(address account, uint256 id) public view returns(uint256){\n        return super.balanceOf(account,id);\n    }\n\n    /*    \n     * @dev Returns the total minted NFTs by the contract.\n     */\n    function getTotalMintedNFT() public view returns(uint256){\n        return NFTCounter;\n    }\n    \n\n}",
  "sourcePath": "/Users/hrishabhsharma/Projects/core-contract/contracts/Onec1155.sol",
  "compiler": {
    "name": "solc",
    "version": "0.8.0+commit.c7dfd78e.Emscripten.clang"
  },
  "schemaVersion": "3.4.3",
  "updatedAt": "2022-02-13T09:36:21.956Z",
  "devdoc": {
    "kind": "dev",
    "methods": {
      "balanceOf(address,uint256)": {
        "details": "See {IERC1155-balanceOf}. Requirements: - `account` cannot be the zero address."
      },
      "balanceOfBatch(address[],uint256[])": {
        "details": "See {IERC1155-balanceOfBatch}. Requirements: - `accounts` and `ids` must have the same length."
      },
      "isApprovedForAll(address,address)": {
        "details": "See {IERC1155-isApprovedForAll}."
      },
      "owner()": {
        "details": "Returns the address of the current owner."
      },
      "paused()": {
        "details": "Returns true if the contract is paused, and false otherwise."
      },
      "renounceOwnership()": {
        "details": "Leaves the contract without owner. It will not be possible to call `onlyOwner` functions anymore. Can only be called by the current owner. NOTE: Renouncing ownership will leave the contract without an owner, thereby removing any functionality that is only available to the owner."
      },
      "safeBatchTransferFrom(address,address,uint256[],uint256[],bytes)": {
        "details": "See {IERC1155-safeBatchTransferFrom}."
      },
      "safeTransferFrom(address,address,uint256,uint256,bytes)": {
        "details": "See {IERC1155-safeTransferFrom}."
      },
      "setApprovalForAll(address,bool)": {
        "details": "See {IERC1155-setApprovalForAll}."
      },
      "supportsInterface(bytes4)": {
        "details": "See {IERC165-supportsInterface}."
      },
      "transferOwnership(address)": {
        "details": "Transfers ownership of the contract to a new account (`newOwner`). Can only be called by the current owner."
      }
    },
    "version": 1
  },
  "userdoc": {
    "kind": "user",
    "methods": {},
    "version": 1
  }
}