{
  "contractName": "Onec721",
  "abi": [
    {
      "anonymous": false,
      "inputs": [
        {
          "indexed": true,
          "internalType": "address",
          "name": "owner",
          "type": "address"
        },
        {
          "indexed": true,
          "internalType": "address",
          "name": "approved",
          "type": "address"
        },
        {
          "indexed": true,
          "internalType": "uint256",
          "name": "tokenId",
          "type": "uint256"
        }
      ],
      "name": "Approval",
      "type": "event"
    },
    {
      "anonymous": false,
      "inputs": [
        {
          "indexed": true,
          "internalType": "address",
          "name": "owner",
          "type": "address"
        },
        {
          "indexed": true,
          "internalType": "address",
          "name": "operator",
          "type": "address"
        },
        {
          "indexed": false,
          "internalType": "bool",
          "name": "approved",
          "type": "bool"
        }
      ],
      "name": "ApprovalForAll",
      "type": "event"
    },
    {
      "anonymous": false,
      "inputs": [
        {
          "indexed": true,
          "internalType": "address",
          "name": "previousOwner",
          "type": "address"
        },
        {
          "indexed": true,
          "internalType": "address",
          "name": "newOwner",
          "type": "address"
        }
      ],
      "name": "OwnershipTransferred",
      "type": "event"
    },
    {
      "anonymous": false,
      "inputs": [
        {
          "indexed": false,
          "internalType": "address",
          "name": "account",
          "type": "address"
        }
      ],
      "name": "Paused",
      "type": "event"
    },
    {
      "anonymous": false,
      "inputs": [
        {
          "indexed": true,
          "internalType": "address",
          "name": "from",
          "type": "address"
        },
        {
          "indexed": true,
          "internalType": "address",
          "name": "to",
          "type": "address"
        },
        {
          "indexed": true,
          "internalType": "uint256",
          "name": "tokenId",
          "type": "uint256"
        }
      ],
      "name": "Transfer",
      "type": "event"
    },
    {
      "anonymous": false,
      "inputs": [
        {
          "indexed": false,
          "internalType": "address",
          "name": "account",
          "type": "address"
        }
      ],
      "name": "Unpaused",
      "type": "event"
    },
    {
      "inputs": [
        {
          "internalType": "address",
          "name": "to",
          "type": "address"
        },
        {
          "internalType": "uint256",
          "name": "tokenId",
          "type": "uint256"
        }
      ],
      "name": "approve",
      "outputs": [],
      "stateMutability": "nonpayable",
      "type": "function"
    },
    {
      "inputs": [
        {
          "internalType": "address",
          "name": "owner",
          "type": "address"
        }
      ],
      "name": "balanceOf",
      "outputs": [
        {
          "internalType": "uint256",
          "name": "",
          "type": "uint256"
        }
      ],
      "stateMutability": "view",
      "type": "function"
    },
    {
      "inputs": [
        {
          "internalType": "uint256",
          "name": "tokenId",
          "type": "uint256"
        }
      ],
      "name": "getApproved",
      "outputs": [
        {
          "internalType": "address",
          "name": "",
          "type": "address"
        }
      ],
      "stateMutability": "view",
      "type": "function"
    },
    {
      "inputs": [
        {
          "internalType": "address",
          "name": "owner",
          "type": "address"
        },
        {
          "internalType": "address",
          "name": "operator",
          "type": "address"
        }
      ],
      "name": "isApprovedForAll",
      "outputs": [
        {
          "internalType": "bool",
          "name": "",
          "type": "bool"
        }
      ],
      "stateMutability": "view",
      "type": "function"
    },
    {
      "inputs": [],
      "name": "name",
      "outputs": [
        {
          "internalType": "string",
          "name": "",
          "type": "string"
        }
      ],
      "stateMutability": "view",
      "type": "function"
    },
    {
      "inputs": [],
      "name": "owner",
      "outputs": [
        {
          "internalType": "address",
          "name": "",
          "type": "address"
        }
      ],
      "stateMutability": "view",
      "type": "function"
    },
    {
      "inputs": [
        {
          "internalType": "uint256",
          "name": "tokenId",
          "type": "uint256"
        }
      ],
      "name": "ownerOf",
      "outputs": [
        {
          "internalType": "address",
          "name": "",
          "type": "address"
        }
      ],
      "stateMutability": "view",
      "type": "function"
    },
    {
      "inputs": [],
      "name": "paused",
      "outputs": [
        {
          "internalType": "bool",
          "name": "",
          "type": "bool"
        }
      ],
      "stateMutability": "view",
      "type": "function"
    },
    {
      "inputs": [],
      "name": "renounceOwnership",
      "outputs": [],
      "stateMutability": "nonpayable",
      "type": "function"
    },
    {
      "inputs": [
        {
          "internalType": "address",
          "name": "from",
          "type": "address"
        },
        {
          "internalType": "address",
          "name": "to",
          "type": "address"
        },
        {
          "internalType": "uint256",
          "name": "tokenId",
          "type": "uint256"
        }
      ],
      "name": "safeTransferFrom",
      "outputs": [],
      "stateMutability": "nonpayable",
      "type": "function"
    },
    {
      "inputs": [
        {
          "internalType": "address",
          "name": "from",
          "type": "address"
        },
        {
          "internalType": "address",
          "name": "to",
          "type": "address"
        },
        {
          "internalType": "uint256",
          "name": "tokenId",
          "type": "uint256"
        },
        {
          "internalType": "bytes",
          "name": "_data",
          "type": "bytes"
        }
      ],
      "name": "safeTransferFrom",
      "outputs": [],
      "stateMutability": "nonpayable",
      "type": "function"
    },
    {
      "inputs": [
        {
          "internalType": "address",
          "name": "operator",
          "type": "address"
        },
        {
          "internalType": "bool",
          "name": "approved",
          "type": "bool"
        }
      ],
      "name": "setApprovalForAll",
      "outputs": [],
      "stateMutability": "nonpayable",
      "type": "function"
    },
    {
      "inputs": [
        {
          "internalType": "bytes4",
          "name": "interfaceId",
          "type": "bytes4"
        }
      ],
      "name": "supportsInterface",
      "outputs": [
        {
          "internalType": "bool",
          "name": "",
          "type": "bool"
        }
      ],
      "stateMutability": "view",
      "type": "function"
    },
    {
      "inputs": [],
      "name": "symbol",
      "outputs": [
        {
          "internalType": "string",
          "name": "",
          "type": "string"
        }
      ],
      "stateMutability": "view",
      "type": "function"
    },
    {
      "inputs": [
        {
          "internalType": "address",
          "name": "from",
          "type": "address"
        },
        {
          "internalType": "address",
          "name": "to",
          "type": "address"
        },
        {
          "internalType": "uint256",
          "name": "tokenId",
          "type": "uint256"
        }
      ],
      "name": "transferFrom",
      "outputs": [],
      "stateMutability": "nonpayable",
      "type": "function"
    },
    {
      "inputs": [
        {
          "internalType": "address",
          "name": "newOwner",
          "type": "address"
        }
      ],
      "name": "transferOwnership",
      "outputs": [],
      "stateMutability": "nonpayable",
      "type": "function"
    },
    {
      "inputs": [
        {
          "internalType": "string",
          "name": "_name",
          "type": "string"
        },
        {
          "internalType": "string",
          "name": "_symbol",
          "type": "string"
        },
        {
          "internalType": "string",
          "name": "_baseURI",
          "type": "string"
        },
        {
          "internalType": "string",
          "name": "_contractMetadata",
          "type": "string"
        }
      ],
      "name": "initialize",
      "outputs": [],
      "stateMutability": "nonpayable",
      "type": "function"
    },
    {
      "inputs": [],
      "name": "contractURI",
      "outputs": [
        {
          "internalType": "string",
          "name": "",
          "type": "string"
        }
      ],
      "stateMutability": "view",
      "type": "function"
    },
    {
      "inputs": [
        {
          "internalType": "string",
          "name": "_metadata",
          "type": "string"
        }
      ],
      "name": "setContractMetadata",
      "outputs": [],
      "stateMutability": "nonpayable",
      "type": "function"
    },
    {
      "inputs": [],
      "name": "getBaseURI",
      "outputs": [
        {
          "internalType": "string",
          "name": "",
          "type": "string"
        }
      ],
      "stateMutability": "view",
      "type": "function"
    },
    {
      "inputs": [
        {
          "internalType": "uint256",
          "name": "tokenId",
          "type": "uint256"
        }
      ],
      "name": "tokenURI",
      "outputs": [
        {
          "internalType": "string",
          "name": "",
          "type": "string"
        }
      ],
      "stateMutability": "view",
      "type": "function"
    },
    {
      "inputs": [
        {
          "internalType": "address",
          "name": "_holder",
          "type": "address"
        },
        {
          "internalType": "bytes",
          "name": "_data",
          "type": "bytes"
        }
      ],
      "name": "mintNFT",
      "outputs": [],
      "stateMutability": "nonpayable",
      "type": "function"
    },
    {
      "inputs": [
        {
          "internalType": "address",
          "name": "_holder",
          "type": "address"
        },
        {
          "internalType": "bytes",
          "name": "_data",
          "type": "bytes"
        },
        {
          "internalType": "uint256",
          "name": "_parentTokenId",
          "type": "uint256"
        }
      ],
      "name": "mintRefNFT",
      "outputs": [],
      "stateMutability": "nonpayable",
      "type": "function"
    },
    {
      "inputs": [
        {
          "internalType": "uint256",
          "name": "_tokenId",
          "type": "uint256"
        }
      ],
      "name": "getTokenMetadataHash",
      "outputs": [
        {
          "internalType": "string",
          "name": "",
          "type": "string"
        }
      ],
      "stateMutability": "view",
      "type": "function"
    },
    {
      "inputs": [
        {
          "internalType": "uint256",
          "name": "_tokenId",
          "type": "uint256"
        },
        {
          "internalType": "bytes",
          "name": "_data",
          "type": "bytes"
        }
      ],
      "name": "updataMetadata",
      "outputs": [],
      "stateMutability": "nonpayable",
      "type": "function"
    },
    {
      "inputs": [
        {
          "internalType": "uint256",
          "name": "_id",
          "type": "uint256"
        }
      ],
      "name": "getReferences",
      "outputs": [
        {
          "internalType": "uint256[]",
          "name": "",
          "type": "uint256[]"
        }
      ],
      "stateMutability": "view",
      "type": "function"
    },
    {
      "inputs": [
        {
          "internalType": "address",
          "name": "_from",
          "type": "address"
        },
        {
          "internalType": "address",
          "name": "_to",
          "type": "address"
        },
        {
          "internalType": "uint256",
          "name": "_tokenId",
          "type": "uint256"
        }
      ],
      "name": "transfer",
      "outputs": [],
      "stateMutability": "nonpayable",
      "type": "function"
    },
    {
      "inputs": [],
      "name": "makePause",
      "outputs": [],
      "stateMutability": "nonpayable",
      "type": "function"
    },
    {
      "inputs": [],
      "name": "makeUnpause",
      "outputs": [],
      "stateMutability": "nonpayable",
      "type": "function"
    },
    {
      "inputs": [
        {
          "internalType": "uint256",
          "name": "_id",
          "type": "uint256"
        }
      ],
      "name": "burnNFT",
      "outputs": [],
      "stateMutability": "nonpayable",
      "type": "function"
    },
    {
      "inputs": [],
      "name": "getTotalMintedNFT",
      "outputs": [
        {
          "internalType": "uint256",
          "name": "",
          "type": "uint256"
        }
      ],
      "stateMutability": "view",
      "type": "function"
    }
  ],
  "bytecode": "0x608060405234801561001057600080fd5b506145c0806100206000396000f3fe608060405234801561001057600080fd5b50600436106101e55760003560e01c80638da5cb5b1161010f578063c87b56dd116100a2578063e985e9c511610071578063e985e9c514610542578063edb1019014610572578063f2fde38b1461058e578063fce55037146105aa576101e5565b8063c87b56dd146104ba578063cef8cb87146104ea578063e83b022714610508578063e8a3d48514610524576101e5565b8063a90205a3116100de578063a90205a31461045c578063b10f4ae414610466578063b88d4fde14610482578063beabacc81461049e576101e5565b80638da5cb5b146103e857806395d89b4114610406578063a22cb46514610424578063a523d35e14610440576101e5565b806342842e0e11610187578063714c539811610156578063714c539814610386578063715018a6146103a4578063837c5962146103ae57806386838fb6146103de576101e5565b806342842e0e146102ec5780635c975abb146103085780636352211e1461032657806370a0823114610356576101e5565b8063095ea7b3116101c3578063095ea7b31461026857806323b872dd146102845780632890e0d7146102a05780633cfc7ae2146102bc576101e5565b806301ffc9a7146101ea57806306fdde031461021a578063081812fc14610238575b600080fd5b61020460048036038101906101ff9190613381565b6105c6565b6040516102119190613ebb565b60405180910390f35b6102226106a8565b60405161022f9190613ed6565b60405180910390f35b610252600480360381019061024d91906134d7565b61073a565b60405161025f9190613e32565b60405180910390f35b610282600480360381019061027d9190613345565b6107bf565b005b61029e60048036038101906102999190613184565b6108d7565b005b6102ba60048036038101906102b591906134d7565b610937565b005b6102d660048036038101906102d191906134d7565b610a1e565b6040516102e39190613e99565b60405180910390f35b61030660048036038101906103019190613184565b610a89565b005b610310610aa9565b60405161031d9190613ebb565b60405180910390f35b610340600480360381019061033b91906134d7565b610ac0565b60405161034d9190613e32565b60405180910390f35b610370600480360381019061036b919061311f565b610b72565b60405161037d91906141b8565b60405180910390f35b61038e610c2a565b60405161039b9190613ed6565b60405180910390f35b6103ac610cbc565b005b6103c860048036038101906103c391906134d7565b610d44565b6040516103d59190613ed6565b60405180910390f35b6103e6610de9565b005b6103f0610e6f565b6040516103fd9190613e32565b60405180910390f35b61040e610e99565b60405161041b9190613ed6565b60405180910390f35b61043e6004803603810190610439919061324e565b610f2b565b005b61045a60048036038101906104559190613414565b6110ac565b005b6104646111d9565b005b610480600480360381019061047b9190613500565b61125f565b005b61049c600480360381019061049791906131d3565b611349565b005b6104b860048036038101906104b39190613184565b6113ab565b005b6104d460048036038101906104cf91906134d7565b6113bb565b6040516104e19190613ed6565b60405180910390f35b6104f26114b7565b6040516104ff91906141b8565b60405180910390f35b610522600480360381019061051d919061328a565b6114c1565b005b61052c611514565b6040516105399190613ed6565b60405180910390f35b61055c60048036038101906105579190613148565b6115a6565b6040516105699190613ebb565b60405180910390f35b61058c600480360381019061058791906132de565b61163a565b005b6105a860048036038101906105a3919061311f565b61170e565b005b6105c460048036038101906105bf91906133d3565b611806565b005b60007f80ac58cd000000000000000000000000000000000000000000000000000000007bffffffffffffffffffffffffffffffffffffffffffffffffffffffff1916827bffffffffffffffffffffffffffffffffffffffffffffffffffffffff1916148061069157507f5b5e139f000000000000000000000000000000000000000000000000000000007bffffffffffffffffffffffffffffffffffffffffffffffffffffffff1916827bffffffffffffffffffffffffffffffffffffffffffffffffffffffff1916145b806106a157506106a08261189c565b5b9050919050565b606060c980546106b790614415565b80601f01602080910402602001604051908101604052809291908181526020018280546106e390614415565b80156107305780601f1061070557610100808354040283529160200191610730565b820191906000526020600020905b81548152906001019060200180831161071357829003601f168201915b5050505050905090565b600061074582611906565b610784576040517f08c379a000000000000000000000000000000000000000000000000000000000815260040161077b906140f8565b60405180910390fd5b60cd600083815260200190815260200160002060009054906101000a900473ffffffffffffffffffffffffffffffffffffffff169050919050565b60006107ca82610ac0565b90508073ffffffffffffffffffffffffffffffffffffffff168373ffffffffffffffffffffffffffffffffffffffff16141561083b576040517f08c379a000000000000000000000000000000000000000000000000000000000815260040161083290614178565b60405180910390fd5b8073ffffffffffffffffffffffffffffffffffffffff1661085a611972565b73ffffffffffffffffffffffffffffffffffffffff161480610889575061088881610883611972565b6115a6565b5b6108c8576040517f08c379a00000000000000000000000000000000000000000000000000000000081526004016108bf90614058565b60405180910390fd5b6108d2838361197a565b505050565b6108e86108e2611972565b82611a33565b610927576040517f08c379a000000000000000000000000000000000000000000000000000000000815260040161091e90614198565b60405180910390fd5b610932838383611b11565b505050565b61093f611972565b73ffffffffffffffffffffffffffffffffffffffff1661095d610e6f565b73ffffffffffffffffffffffffffffffffffffffff16146109b3576040517f08c379a00000000000000000000000000000000000000000000000000000000081526004016109aa90614118565b60405180910390fd5b6109bc81611d6d565b6040518060400160405280600381526020017f307830000000000000000000000000000000000000000000000000000000000081525060fc600060fb5481526020019081526020016000209080519060200190610a1a929190612ebd565b5050565b606060fd6000838152602001908152602001600020805480602002602001604051908101604052809291908181526020018280548015610a7d57602002820191906000526020600020905b815481526020019060010190808311610a69575b50505050509050919050565b610aa483838360405180602001604052806000815250611349565b505050565b6000603360009054906101000a900460ff16905090565b60008060cb600084815260200190815260200160002060009054906101000a900473ffffffffffffffffffffffffffffffffffffffff169050600073ffffffffffffffffffffffffffffffffffffffff168173ffffffffffffffffffffffffffffffffffffffff161415610b69576040517f08c379a0000000000000000000000000000000000000000000000000000000008152600401610b6090614098565b60405180910390fd5b80915050919050565b60008073ffffffffffffffffffffffffffffffffffffffff168273ffffffffffffffffffffffffffffffffffffffff161415610be3576040517f08c379a0000000000000000000000000000000000000000000000000000000008152600401610bda90614078565b60405180910390fd5b60cc60008373ffffffffffffffffffffffffffffffffffffffff1673ffffffffffffffffffffffffffffffffffffffff168152602001908152602001600020549050919050565b606060ff8054610c3990614415565b80601f0160208091040260200160405190810160405280929190818152602001828054610c6590614415565b8015610cb25780601f10610c8757610100808354040283529160200191610cb2565b820191906000526020600020905b815481529060010190602001808311610c9557829003601f168201915b5050505050905090565b610cc4611972565b73ffffffffffffffffffffffffffffffffffffffff16610ce2610e6f565b73ffffffffffffffffffffffffffffffffffffffff1614610d38576040517f08c379a0000000000000000000000000000000000000000000000000000000008152600401610d2f90614118565b60405180910390fd5b610d426000611e7e565b565b606060fc60008381526020019081526020016000208054610d6490614415565b80601f0160208091040260200160405190810160405280929190818152602001828054610d9090614415565b8015610ddd5780601f10610db257610100808354040283529160200191610ddd565b820191906000526020600020905b815481529060010190602001808311610dc057829003601f168201915b50505050509050919050565b610df1611972565b73ffffffffffffffffffffffffffffffffffffffff16610e0f610e6f565b73ffffffffffffffffffffffffffffffffffffffff1614610e65576040517f08c379a0000000000000000000000000000000000000000000000000000000008152600401610e5c90614118565b60405180910390fd5b610e6d611f44565b565b6000606560009054906101000a900473ffffffffffffffffffffffffffffffffffffffff16905090565b606060ca8054610ea890614415565b80601f0160208091040260200160405190810160405280929190818152602001828054610ed490614415565b8015610f215780601f10610ef657610100808354040283529160200191610f21565b820191906000526020600020905b815481529060010190602001808311610f0457829003601f168201915b5050505050905090565b610f33611972565b73ffffffffffffffffffffffffffffffffffffffff168273ffffffffffffffffffffffffffffffffffffffff161415610fa1576040517f08c379a0000000000000000000000000000000000000000000000000000000008152600401610f9890613fd8565b60405180910390fd5b8060ce6000610fae611972565b73ffffffffffffffffffffffffffffffffffffffff1673ffffffffffffffffffffffffffffffffffffffff16815260200190815260200160002060008473ffffffffffffffffffffffffffffffffffffffff1673ffffffffffffffffffffffffffffffffffffffff16815260200190815260200160002060006101000a81548160ff0219169083151502179055508173ffffffffffffffffffffffffffffffffffffffff1661105b611972565b73ffffffffffffffffffffffffffffffffffffffff167f17307eab39ab6107e8899845ad3d59bd9653f200f220920489ca2b5937696c31836040516110a09190613ebb565b60405180910390a35050565b600060019054906101000a900460ff16806110d2575060008054906101000a900460ff16155b611111576040517f08c379a0000000000000000000000000000000000000000000000000000000008152600401611108906140b8565b60405180910390fd5b60008060019054906101000a900460ff161590508015611161576001600060016101000a81548160ff02191690831515021790555060016000806101000a81548160ff0219169083151502179055505b61116b8585611fe6565b6111736120db565b61117b6121c4565b600060fb819055508160fe9080519060200190611199929190612f43565b508260ff90805190602001906111b0929190612f43565b5080156111d25760008060016101000a81548160ff0219169083151502179055505b5050505050565b6111e1611972565b73ffffffffffffffffffffffffffffffffffffffff166111ff610e6f565b73ffffffffffffffffffffffffffffffffffffffff1614611255576040517f08c379a000000000000000000000000000000000000000000000000000000000815260040161124c90614118565b60405180910390fd5b61125d6122ad565b565b61126882611906565b6112a7576040517f08c379a000000000000000000000000000000000000000000000000000000000815260040161129e90614158565b60405180910390fd5b6112b082610ac0565b73ffffffffffffffffffffffffffffffffffffffff163373ffffffffffffffffffffffffffffffffffffffff161461131d576040517f08c379a000000000000000000000000000000000000000000000000000000000815260040161131490614038565b60405180910390fd5b8060fc60008481526020019081526020016000209080519060200190611344929190612ebd565b505050565b61135a611354611972565b83611a33565b611399576040517f08c379a000000000000000000000000000000000000000000000000000000000815260040161139090614198565b60405180910390fd5b6113a584848484612350565b50505050565b6113b6838383610a89565b505050565b60606113c682611906565b611405576040517f08c379a00000000000000000000000000000000000000000000000000000000081526004016113fc90614158565b60405180910390fd5b600061141083610d44565b90506114af8160ff805461142390614415565b80601f016020809104026020016040519081016040528092919081815260200182805461144f90614415565b801561149c5780601f106114715761010080835404028352916020019161149c565b820191906000526020600020905b81548152906001019060200180831161147f57829003601f168201915b50505050506123ac90919063ffffffff16565b915050919050565b600060fb54905090565b6114ce8260fb5483612605565b8060fc600060fb54815260200190815260200160002090805190602001906114f7929190612ebd565b5060fb600081548092919061150b90614447565b91905055505050565b606060fe805461152390614415565b80601f016020809104026020016040519081016040528092919081815260200182805461154f90614415565b801561159c5780601f106115715761010080835404028352916020019161159c565b820191906000526020600020905b81548152906001019060200180831161157f57829003601f168201915b5050505050905090565b600060ce60008473ffffffffffffffffffffffffffffffffffffffff1673ffffffffffffffffffffffffffffffffffffffff16815260200190815260200160002060008373ffffffffffffffffffffffffffffffffffffffff1673ffffffffffffffffffffffffffffffffffffffff16815260200190815260200160002060009054906101000a900460ff16905092915050565b60fb54811061167e576040517f08c379a000000000000000000000000000000000000000000000000000000000815260040161167590613ef8565b60405180910390fd5b61168b8360fb5484612605565b60fd600082815260200190815260200160002060fb5490806001815401808255809150506001900390600052602060002001600090919091909150558160fc600060fb54815260200190815260200160002090805190602001906116f0929190612ebd565b5060fb600081548092919061170490614447565b9190505550505050565b611716611972565b73ffffffffffffffffffffffffffffffffffffffff16611734610e6f565b73ffffffffffffffffffffffffffffffffffffffff161461178a576040517f08c379a000000000000000000000000000000000000000000000000000000000815260040161178190614118565b60405180910390fd5b600073ffffffffffffffffffffffffffffffffffffffff168173ffffffffffffffffffffffffffffffffffffffff1614156117fa576040517f08c379a00000000000000000000000000000000000000000000000000000000081526004016117f190613f58565b60405180910390fd5b61180381611e7e565b50565b61180e611972565b73ffffffffffffffffffffffffffffffffffffffff1661182c610e6f565b73ffffffffffffffffffffffffffffffffffffffff1614611882576040517f08c379a000000000000000000000000000000000000000000000000000000000815260040161187990614118565b60405180910390fd5b8060fe9080519060200190611898929190612f43565b5050565b60007f01ffc9a7000000000000000000000000000000000000000000000000000000007bffffffffffffffffffffffffffffffffffffffffffffffffffffffff1916827bffffffffffffffffffffffffffffffffffffffffffffffffffffffff1916149050919050565b60008073ffffffffffffffffffffffffffffffffffffffff1660cb600084815260200190815260200160002060009054906101000a900473ffffffffffffffffffffffffffffffffffffffff1673ffffffffffffffffffffffffffffffffffffffff1614159050919050565b600033905090565b8160cd600083815260200190815260200160002060006101000a81548173ffffffffffffffffffffffffffffffffffffffff021916908373ffffffffffffffffffffffffffffffffffffffff160217905550808273ffffffffffffffffffffffffffffffffffffffff166119ed83610ac0565b73ffffffffffffffffffffffffffffffffffffffff167f8c5be1e5ebec7d5bd14f71427d1e84f3dd0314c0f7b2291e5b200ac8c7c3b92560405160405180910390a45050565b6000611a3e82611906565b611a7d576040517f08c379a0000000000000000000000000000000000000000000000000000000008152600401611a7490613ff8565b60405180910390fd5b6000611a8883610ac0565b90508073ffffffffffffffffffffffffffffffffffffffff168473ffffffffffffffffffffffffffffffffffffffff161480611af757508373ffffffffffffffffffffffffffffffffffffffff16611adf8461073a565b73ffffffffffffffffffffffffffffffffffffffff16145b80611b085750611b0781856115a6565b5b91505092915050565b8273ffffffffffffffffffffffffffffffffffffffff16611b3182610ac0565b73ffffffffffffffffffffffffffffffffffffffff1614611b87576040517f08c379a0000000000000000000000000000000000000000000000000000000008152600401611b7e90614138565b60405180910390fd5b600073ffffffffffffffffffffffffffffffffffffffff168273ffffffffffffffffffffffffffffffffffffffff161415611bf7576040517f08c379a0000000000000000000000000000000000000000000000000000000008152600401611bee90613fb8565b60405180910390fd5b611c02838383612660565b611c0d60008261197a565b600160cc60008573ffffffffffffffffffffffffffffffffffffffff1673ffffffffffffffffffffffffffffffffffffffff1681526020019081526020016000206000828254611c5d919061432b565b92505081905550600160cc60008473ffffffffffffffffffffffffffffffffffffffff1673ffffffffffffffffffffffffffffffffffffffff1681526020019081526020016000206000828254611cb491906142d5565b925050819055508160cb600083815260200190815260200160002060006101000a81548173ffffffffffffffffffffffffffffffffffffffff021916908373ffffffffffffffffffffffffffffffffffffffff160217905550808273ffffffffffffffffffffffffffffffffffffffff168473ffffffffffffffffffffffffffffffffffffffff167fddf252ad1be2c89b69c2b068fc378daa952ba7f163c4a11628f55a4df523b3ef60405160405180910390a4505050565b6000611d7882610ac0565b9050611d8681600084612660565b611d9160008361197a565b600160cc60008373ffffffffffffffffffffffffffffffffffffffff1673ffffffffffffffffffffffffffffffffffffffff1681526020019081526020016000206000828254611de1919061432b565b9250508190555060cb600083815260200190815260200160002060006101000a81549073ffffffffffffffffffffffffffffffffffffffff021916905581600073ffffffffffffffffffffffffffffffffffffffff168273ffffffffffffffffffffffffffffffffffffffff167fddf252ad1be2c89b69c2b068fc378daa952ba7f163c4a11628f55a4df523b3ef60405160405180910390a45050565b6000606560009054906101000a900473ffffffffffffffffffffffffffffffffffffffff16905081606560006101000a81548173ffffffffffffffffffffffffffffffffffffffff021916908373ffffffffffffffffffffffffffffffffffffffff1602179055508173ffffffffffffffffffffffffffffffffffffffff168173ffffffffffffffffffffffffffffffffffffffff167f8be0079c531659141344cd1fd0a4f28419497f9722a3daafe3b4186f6b6457e060405160405180910390a35050565b611f4c610aa9565b611f8b576040517f08c379a0000000000000000000000000000000000000000000000000000000008152600401611f8290613f18565b60405180910390fd5b6000603360006101000a81548160ff0219169083151502179055507f5db9ee0a495bf2e6ff9c91a7834c1ba4fdd244a5e8aa4e537bd38aeae4b073aa611fcf611972565b604051611fdc9190613e32565b60405180910390a1565b600060019054906101000a900460ff168061200c575060008054906101000a900460ff16155b61204b576040517f08c379a0000000000000000000000000000000000000000000000000000000008152600401612042906140b8565b60405180910390fd5b60008060019054906101000a900460ff16159050801561209b576001600060016101000a81548160ff02191690831515021790555060016000806101000a81548160ff0219169083151502179055505b6120a36126ad565b6120ab612786565b6120b5838361285f565b80156120d65760008060016101000a81548160ff0219169083151502179055505b505050565b600060019054906101000a900460ff1680612101575060008054906101000a900460ff16155b612140576040517f08c379a0000000000000000000000000000000000000000000000000000000008152600401612137906140b8565b60405180910390fd5b60008060019054906101000a900460ff161590508015612190576001600060016101000a81548160ff02191690831515021790555060016000806101000a81548160ff0219169083151502179055505b6121986126ad565b6121a0612968565b80156121c15760008060016101000a81548160ff0219169083151502179055505b50565b600060019054906101000a900460ff16806121ea575060008054906101000a900460ff16155b612229576040517f08c379a0000000000000000000000000000000000000000000000000000000008152600401612220906140b8565b60405180910390fd5b60008060019054906101000a900460ff161590508015612279576001600060016101000a81548160ff02191690831515021790555060016000806101000a81548160ff0219169083151502179055505b6122816126ad565b612289612a51565b80156122aa5760008060016101000a81548160ff0219169083151502179055505b50565b6122b5610aa9565b156122f5576040517f08c379a00000000000000000000000000000000000000000000000000000000081526004016122ec90614018565b60405180910390fd5b6001603360006101000a81548160ff0219169083151502179055507f62e78cea01bee320cd4e420270b5ea74000d11b0c9f74754ebdbfc544b05a258612339611972565b6040516123469190613e32565b60405180910390a1565b61235b848484611b11565b61236784848484612b45565b6123a6576040517f08c379a000000000000000000000000000000000000000000000000000000000815260040161239d90613f38565b60405180910390fd5b50505050565b6060600083905060008390506000815183516123c891906142d5565b67ffffffffffffffff811115612407577f4e487b7100000000000000000000000000000000000000000000000000000000600052604160045260246000fd5b6040519080825280601f01601f1916602001820160405280156124395781602001600182028036833780820191505090505b5090506000819050600080600091505b855182101561251d5785828151811061248b577f4e487b7100000000000000000000000000000000000000000000000000000000600052603260045260246000fd5b602001015160f81c60f81b8382806124a290614447565b9350815181106124db577f4e487b7100000000000000000000000000000000000000000000000000000000600052603260045260246000fd5b60200101907effffffffffffffffffffffffffffffffffffffffffffffffffffffffffffff1916908160001a905350818061251590614447565b925050612449565b600091505b84518210156125f657848281518110612564577f4e487b7100000000000000000000000000000000000000000000000000000000600052603260045260246000fd5b602001015160f81c60f81b83828061257b90614447565b9350815181106125b4577f4e487b7100000000000000000000000000000000000000000000000000000000600052603260045260246000fd5b60200101907effffffffffffffffffffffffffffffffffffffffffffffffffffffffffffff1916908160001a90535081806125ee90614447565b925050612522565b82965050505050505092915050565b61260f8383612cdc565b61261c6000848484612b45565b61265b576040517f08c379a000000000000000000000000000000000000000000000000000000000815260040161265290613f38565b60405180910390fd5b505050565b612668610aa9565b156126a8576040517f08c379a000000000000000000000000000000000000000000000000000000000815260040161269f90613f98565b60405180910390fd5b505050565b600060019054906101000a900460ff16806126d3575060008054906101000a900460ff16155b612712576040517f08c379a0000000000000000000000000000000000000000000000000000000008152600401612709906140b8565b60405180910390fd5b60008060019054906101000a900460ff161590508015612762576001600060016101000a81548160ff02191690831515021790555060016000806101000a81548160ff0219169083151502179055505b80156127835760008060016101000a81548160ff0219169083151502179055505b50565b600060019054906101000a900460ff16806127ac575060008054906101000a900460ff16155b6127eb576040517f08c379a00000000000000000000000000000000000000000000000000000000081526004016127e2906140b8565b60405180910390fd5b60008060019054906101000a900460ff16159050801561283b576001600060016101000a81548160ff02191690831515021790555060016000806101000a81548160ff0219169083151502179055505b801561285c5760008060016101000a81548160ff0219169083151502179055505b50565b600060019054906101000a900460ff1680612885575060008054906101000a900460ff16155b6128c4576040517f08c379a00000000000000000000000000000000000000000000000000000000081526004016128bb906140b8565b60405180910390fd5b60008060019054906101000a900460ff161590508015612914576001600060016101000a81548160ff02191690831515021790555060016000806101000a81548160ff0219169083151502179055505b8260c9908051906020019061292a929190612f43565b508160ca9080519060200190612941929190612f43565b5080156129635760008060016101000a81548160ff0219169083151502179055505b505050565b600060019054906101000a900460ff168061298e575060008054906101000a900460ff16155b6129cd576040517f08c379a00000000000000000000000000000000000000000000000000000000081526004016129c4906140b8565b60405180910390fd5b60008060019054906101000a900460ff161590508015612a1d576001600060016101000a81548160ff02191690831515021790555060016000806101000a81548160ff0219169083151502179055505b612a2d612a28611972565b611e7e565b8015612a4e5760008060016101000a81548160ff0219169083151502179055505b50565b600060019054906101000a900460ff1680612a77575060008054906101000a900460ff16155b612ab6576040517f08c379a0000000000000000000000000000000000000000000000000000000008152600401612aad906140b8565b60405180910390fd5b60008060019054906101000a900460ff161590508015612b06576001600060016101000a81548160ff02191690831515021790555060016000806101000a81548160ff0219169083151502179055505b6000603360006101000a81548160ff0219169083151502179055508015612b425760008060016101000a81548160ff0219169083151502179055505b50565b6000612b668473ffffffffffffffffffffffffffffffffffffffff16612eaa565b15612ccf578373ffffffffffffffffffffffffffffffffffffffff1663150b7a02612b8f611972565b8786866040518563ffffffff1660e01b8152600401612bb19493929190613e4d565b602060405180830381600087803b158015612bcb57600080fd5b505af1925050508015612bfc57506040513d601f19601f82011682018060405250810190612bf991906133aa565b60015b612c7f573d8060008114612c2c576040519150601f19603f3d011682016040523d82523d6000602084013e612c31565b606091505b50600081511415612c77576040517f08c379a0000000000000000000000000000000000000000000000000000000008152600401612c6e90613f38565b60405180910390fd5b805181602001fd5b63150b7a0260e01b7bffffffffffffffffffffffffffffffffffffffffffffffffffffffff1916817bffffffffffffffffffffffffffffffffffffffffffffffffffffffff191614915050612cd4565b600190505b949350505050565b600073ffffffffffffffffffffffffffffffffffffffff168273ffffffffffffffffffffffffffffffffffffffff161415612d4c576040517f08c379a0000000000000000000000000000000000000000000000000000000008152600401612d43906140d8565b60405180910390fd5b612d5581611906565b15612d95576040517f08c379a0000000000000000000000000000000000000000000000000000000008152600401612d8c90613f78565b60405180910390fd5b612da160008383612660565b600160cc60008473ffffffffffffffffffffffffffffffffffffffff1673ffffffffffffffffffffffffffffffffffffffff1681526020019081526020016000206000828254612df191906142d5565b925050819055508160cb600083815260200190815260200160002060006101000a81548173ffffffffffffffffffffffffffffffffffffffff021916908373ffffffffffffffffffffffffffffffffffffffff160217905550808273ffffffffffffffffffffffffffffffffffffffff16600073ffffffffffffffffffffffffffffffffffffffff167fddf252ad1be2c89b69c2b068fc378daa952ba7f163c4a11628f55a4df523b3ef60405160405180910390a45050565b600080823b905060008111915050919050565b828054612ec990614415565b90600052602060002090601f016020900481019282612eeb5760008555612f32565b82601f10612f0457805160ff1916838001178555612f32565b82800160010185558215612f32579182015b82811115612f31578251825591602001919060010190612f16565b5b509050612f3f9190612fc9565b5090565b828054612f4f90614415565b90600052602060002090601f016020900481019282612f715760008555612fb8565b82601f10612f8a57805160ff1916838001178555612fb8565b82800160010185558215612fb8579182015b82811115612fb7578251825591602001919060010190612f9c565b5b509050612fc59190612fc9565b5090565b5b80821115612fe2576000816000905550600101612fca565b5090565b6000612ff9612ff484614204565b6141d3565b90508281526020810184848401111561301157600080fd5b61301c8482856143d3565b509392505050565b600061303761303284614234565b6141d3565b90508281526020810184848401111561304f57600080fd5b61305a8482856143d3565b509392505050565b6000813590506130718161452e565b92915050565b60008135905061308681614545565b92915050565b60008135905061309b8161455c565b92915050565b6000815190506130b08161455c565b92915050565b600082601f8301126130c757600080fd5b81356130d7848260208601612fe6565b91505092915050565b600082601f8301126130f157600080fd5b8135613101848260208601613024565b91505092915050565b60008135905061311981614573565b92915050565b60006020828403121561313157600080fd5b600061313f84828501613062565b91505092915050565b6000806040838503121561315b57600080fd5b600061316985828601613062565b925050602061317a85828601613062565b9150509250929050565b60008060006060848603121561319957600080fd5b60006131a786828701613062565b93505060206131b886828701613062565b92505060406131c98682870161310a565b9150509250925092565b600080600080608085870312156131e957600080fd5b60006131f787828801613062565b945050602061320887828801613062565b93505060406132198782880161310a565b925050606085013567ffffffffffffffff81111561323657600080fd5b613242878288016130b6565b91505092959194509250565b6000806040838503121561326157600080fd5b600061326f85828601613062565b925050602061328085828601613077565b9150509250929050565b6000806040838503121561329d57600080fd5b60006132ab85828601613062565b925050602083013567ffffffffffffffff8111156132c857600080fd5b6132d4858286016130b6565b9150509250929050565b6000806000606084860312156132f357600080fd5b600061330186828701613062565b935050602084013567ffffffffffffffff81111561331e57600080fd5b61332a868287016130b6565b925050604061333b8682870161310a565b9150509250925092565b6000806040838503121561335857600080fd5b600061336685828601613062565b92505060206133778582860161310a565b9150509250929050565b60006020828403121561339357600080fd5b60006133a18482850161308c565b91505092915050565b6000602082840312156133bc57600080fd5b60006133ca848285016130a1565b91505092915050565b6000602082840312156133e557600080fd5b600082013567ffffffffffffffff8111156133ff57600080fd5b61340b848285016130e0565b91505092915050565b6000806000806080858703121561342a57600080fd5b600085013567ffffffffffffffff81111561344457600080fd5b613450878288016130e0565b945050602085013567ffffffffffffffff81111561346d57600080fd5b613479878288016130e0565b935050604085013567ffffffffffffffff81111561349657600080fd5b6134a2878288016130e0565b925050606085013567ffffffffffffffff8111156134bf57600080fd5b6134cb878288016130e0565b91505092959194509250565b6000602082840312156134e957600080fd5b60006134f78482850161310a565b91505092915050565b6000806040838503121561351357600080fd5b60006135218582860161310a565b925050602083013567ffffffffffffffff81111561353e57600080fd5b61354a858286016130b6565b9150509250929050565b60006135608383613e14565b60208301905092915050565b6135758161435f565b82525050565b600061358682614274565b61359081856142a2565b935061359b83614264565b8060005b838110156135cc5781516135b38882613554565b97506135be83614295565b92505060018101905061359f565b5085935050505092915050565b6135e281614371565b82525050565b60006135f38261427f565b6135fd81856142b3565b935061360d8185602086016143e2565b6136168161451d565b840191505092915050565b600061362c8261428a565b61363681856142c4565b93506136468185602086016143e2565b61364f8161451d565b840191505092915050565b6000613667601c836142c4565b91507f506172656e7420746f6b656e206964206973206e6f742076616c6964000000006000830152602082019050919050565b60006136a76014836142c4565b91507f5061757361626c653a206e6f74207061757365640000000000000000000000006000830152602082019050919050565b60006136e76032836142c4565b91507f4552433732313a207472616e7366657220746f206e6f6e20455243373231526560008301527f63656976657220696d706c656d656e74657200000000000000000000000000006020830152604082019050919050565b600061374d6026836142c4565b91507f4f776e61626c653a206e6577206f776e657220697320746865207a65726f206160008301527f64647265737300000000000000000000000000000000000000000000000000006020830152604082019050919050565b60006137b3601c836142c4565b91507f4552433732313a20746f6b656e20616c7265616479206d696e746564000000006000830152602082019050919050565b60006137f3602c836142c4565b91507f455243313135355061757361626c653a20746f6b656e207472616e736665722060008301527f7768696c652070617573656400000000000000000000000000000000000000006020830152604082019050919050565b60006138596024836142c4565b91507f4552433732313a207472616e7366657220746f20746865207a65726f2061646460008301527f72657373000000000000000000000000000000000000000000000000000000006020830152604082019050919050565b60006138bf6019836142c4565b91507f4552433732313a20617070726f766520746f2063616c6c6572000000000000006000830152602082019050919050565b60006138ff602c836142c4565b91507f4552433732313a206f70657261746f7220717565727920666f72206e6f6e657860008301527f697374656e7420746f6b656e00000000000000000000000000000000000000006020830152604082019050919050565b60006139656010836142c4565b91507f5061757361626c653a20706175736564000000000000000000000000000000006000830152602082019050919050565b60006139a5602e836142c4565b91507f4552433732314d657461646174613a204f6e6c79206f776e65722063616e207560008301527f7064617465206d657461646174610000000000000000000000000000000000006020830152604082019050919050565b6000613a0b6038836142c4565b91507f4552433732313a20617070726f76652063616c6c6572206973206e6f74206f7760008301527f6e6572206e6f7220617070726f76656420666f7220616c6c00000000000000006020830152604082019050919050565b6000613a71602a836142c4565b91507f4552433732313a2062616c616e636520717565727920666f7220746865207a6560008301527f726f2061646472657373000000000000000000000000000000000000000000006020830152604082019050919050565b6000613ad76029836142c4565b91507f4552433732313a206f776e657220717565727920666f72206e6f6e657869737460008301527f656e7420746f6b656e00000000000000000000000000000000000000000000006020830152604082019050919050565b6000613b3d602e836142c4565b91507f496e697469616c697a61626c653a20636f6e747261637420697320616c72656160008301527f647920696e697469616c697a65640000000000000000000000000000000000006020830152604082019050919050565b6000613ba36020836142c4565b91507f4552433732313a206d696e7420746f20746865207a65726f20616464726573736000830152602082019050919050565b6000613be3602c836142c4565b91507f4552433732313a20617070726f76656420717565727920666f72206e6f6e657860008301527f697374656e7420746f6b656e00000000000000000000000000000000000000006020830152604082019050919050565b6000613c496020836142c4565b91507f4f776e61626c653a2063616c6c6572206973206e6f7420746865206f776e65726000830152602082019050919050565b6000613c896029836142c4565b91507f4552433732313a207472616e73666572206f6620746f6b656e2074686174206960008301527f73206e6f74206f776e00000000000000000000000000000000000000000000006020830152604082019050919050565b6000613cef602f836142c4565b91507f4552433732314d657461646174613a2055524920717565727920666f72206e6f60008301527f6e6578697374656e7420746f6b656e00000000000000000000000000000000006020830152604082019050919050565b6000613d556021836142c4565b91507f4552433732313a20617070726f76616c20746f2063757272656e74206f776e6560008301527f72000000000000000000000000000000000000000000000000000000000000006020830152604082019050919050565b6000613dbb6031836142c4565b91507f4552433732313a207472616e736665722063616c6c6572206973206e6f74206f60008301527f776e6572206e6f7220617070726f7665640000000000000000000000000000006020830152604082019050919050565b613e1d816143c9565b82525050565b613e2c816143c9565b82525050565b6000602082019050613e47600083018461356c565b92915050565b6000608082019050613e62600083018761356c565b613e6f602083018661356c565b613e7c6040830185613e23565b8181036060830152613e8e81846135e8565b905095945050505050565b60006020820190508181036000830152613eb3818461357b565b905092915050565b6000602082019050613ed060008301846135d9565b92915050565b60006020820190508181036000830152613ef08184613621565b905092915050565b60006020820190508181036000830152613f118161365a565b9050919050565b60006020820190508181036000830152613f318161369a565b9050919050565b60006020820190508181036000830152613f51816136da565b9050919050565b60006020820190508181036000830152613f7181613740565b9050919050565b60006020820190508181036000830152613f91816137a6565b9050919050565b60006020820190508181036000830152613fb1816137e6565b9050919050565b60006020820190508181036000830152613fd18161384c565b9050919050565b60006020820190508181036000830152613ff1816138b2565b9050919050565b60006020820190508181036000830152614011816138f2565b9050919050565b6000602082019050818103600083015261403181613958565b9050919050565b6000602082019050818103600083015261405181613998565b9050919050565b60006020820190508181036000830152614071816139fe565b9050919050565b6000602082019050818103600083015261409181613a64565b9050919050565b600060208201905081810360008301526140b181613aca565b9050919050565b600060208201905081810360008301526140d181613b30565b9050919050565b600060208201905081810360008301526140f181613b96565b9050919050565b6000602082019050818103600083015261411181613bd6565b9050919050565b6000602082019050818103600083015261413181613c3c565b9050919050565b6000602082019050818103600083015261415181613c7c565b9050919050565b6000602082019050818103600083015261417181613ce2565b9050919050565b6000602082019050818103600083015261419181613d48565b9050919050565b600060208201905081810360008301526141b181613dae565b9050919050565b60006020820190506141cd6000830184613e23565b92915050565b6000604051905081810181811067ffffffffffffffff821117156141fa576141f96144ee565b5b8060405250919050565b600067ffffffffffffffff82111561421f5761421e6144ee565b5b601f19601f8301169050602081019050919050565b600067ffffffffffffffff82111561424f5761424e6144ee565b5b601f19601f8301169050602081019050919050565b6000819050602082019050919050565b600081519050919050565b600081519050919050565b600081519050919050565b6000602082019050919050565b600082825260208201905092915050565b600082825260208201905092915050565b600082825260208201905092915050565b60006142e0826143c9565b91506142eb836143c9565b9250827fffffffffffffffffffffffffffffffffffffffffffffffffffffffffffffffff038211156143205761431f614490565b5b828201905092915050565b6000614336826143c9565b9150614341836143c9565b92508282101561435457614353614490565b5b828203905092915050565b600061436a826143a9565b9050919050565b60008115159050919050565b60007fffffffff0000000000000000000000000000000000000000000000000000000082169050919050565b600073ffffffffffffffffffffffffffffffffffffffff82169050919050565b6000819050919050565b82818337600083830152505050565b60005b838110156144005780820151818401526020810190506143e5565b8381111561440f576000848401525b50505050565b6000600282049050600182168061442d57607f821691505b60208210811415614441576144406144bf565b5b50919050565b6000614452826143c9565b91507fffffffffffffffffffffffffffffffffffffffffffffffffffffffffffffffff82141561448557614484614490565b5b600182019050919050565b7f4e487b7100000000000000000000000000000000000000000000000000000000600052601160045260246000fd5b7f4e487b7100000000000000000000000000000000000000000000000000000000600052602260045260246000fd5b7f4e487b7100000000000000000000000000000000000000000000000000000000600052604160045260246000fd5b6000601f19601f8301169050919050565b6145378161435f565b811461454257600080fd5b50565b61454e81614371565b811461455957600080fd5b50565b6145658161437d565b811461457057600080fd5b50565b61457c816143c9565b811461458757600080fd5b5056fea2646970667358221220424ab7a5bb7eed8ada5160f02fde6bfa1ee532ac6e3578eaadf12f2581b1827264736f6c63430008000033",
  "immutableReferences": {},
  "source": "// SPDX-License-Identifier: MIT\npragma solidity ^0.8.0;\n\nimport \"@openzeppelin/contracts-upgradeable/token/ERC721/ERC721Upgradeable.sol\";\nimport \"@openzeppelin/contracts-upgradeable/security/PausableUpgradeable.sol\";\nimport \"@openzeppelin/contracts-upgradeable/access/OwnableUpgradeable.sol\";\nimport \"@openzeppelin/contracts-upgradeable/proxy/utils/Initializable.sol\";\nimport \"./strings.sol\";\n\ncontract Onec721 is Initializable,PausableUpgradeable, OwnableUpgradeable,ERC721Upgradeable{\n\n    using StringsNative for string;\n\n    uint private NFTCounter;\n    // token-id to metadata hash\n    mapping(uint256 => bytes) private metadataHash;\n    // tokenIds to refTokenIds\n    mapping(uint256 => uint256[]) private references;\n\n    string private contractMetadata;\n\n    string private baseURI;\n\n    function initialize(string memory _name,string memory _symbol,string memory _baseURI,string memory _contractMetadata) public initializer {\n        ERC721Upgradeable.__ERC721_init(_name,_symbol);\n        OwnableUpgradeable.__Ownable_init();\n        PausableUpgradeable.__Pausable_init();\n        NFTCounter = 0;\n        contractMetadata = _contractMetadata;\n        baseURI=_baseURI;\n    }\n\n     /*\n     * @dev Returns the contract URI to make it trackable at OpenSea.\n     */   \n    function contractURI() public view returns (string memory) {\n        return contractMetadata;\n    }\n\n     /*\n     * @dev Sets the contract URI to make it trackable at OpenSea.\n     @params _metadata: The URL for the contract's OpenSea metadata.\n     */  \n    function setContractMetadata(string memory _metadata) public onlyOwner {\n        contractMetadata = _metadata;\n    }\n\n     /*\n     * @dev Returns the contract's base URI.\n     */\n    function getBaseURI() public view returns (string memory){\n        return baseURI;\n    }\n\n    function tokenURI(uint256 tokenId) public view virtual override returns (string memory) {\n        require(_exists(tokenId), \"ERC721Metadata: URI query for nonexistent token\");\n        string memory hash = getTokenMetadataHash(tokenId);\n        return baseURI.concat(string(hash));\n    }\n\n    /*\n     *@dev Called before every token transfer  \n     */\n\n    function _beforeTokenTransfer(\n        address from,\n        address to,\n        uint256 tokenId\n    ) internal override {\n        require(!paused(), \"ERC1155Pausable: token transfer while paused\");\n    }\n\n\n    /*\n     * @dev Mints NFT to the address of _holder.\n     * @params\n     * _holder:public address of the account to mint NFT on that.\n     * _data: metadata hash of the NFT.\n     */\n    function mintNFT(address _holder, bytes memory _data) public {\n        _safeMint(_holder, NFTCounter, _data);\n        metadataHash[NFTCounter] = _data;\n        NFTCounter++;        \n    }\n\n    /*\n     * @dev Mints Reference  to the address of _holder.\n     * @params\n     * _holder: public address of the account to mint NFT on that.\n     * _data: metadata hash of the NFT.\n     * _parentTokenId: the token id of the NFT of which you are minting the references.\n     */\n    function mintRefNFT(address _holder, bytes memory _data,uint256 _parentTokenId) public  {\n        require(_parentTokenId < NFTCounter, \"Parent token id is not valid\");\n        _safeMint(_holder, NFTCounter, _data);\n        references[_parentTokenId].push(NFTCounter);\n        metadataHash[NFTCounter] = _data;\n        NFTCounter++;\n    }\n\n    /*\n     * @dev Returns the metadata hash of the NFT.\n     * @params\n     * _tokenId: the token id of the NFT.\n     */\n    function getTokenMetadataHash(uint256 _tokenId) public view returns (string memory) {\n        return string(metadataHash[_tokenId]);\n    }\n\n    /*\n     * @dev Updates the metadata of the given tokenid.\n     * @params\n     * _from: the address of the owner of the NFT.\n     * _tokenId: token id of the NFT(already minted).\n     * _data: new metadata hash of the NFT.\n     */\n    function updataMetadata(uint256 _tokenId,bytes memory _data) public{\n        require(super._exists(_tokenId), \"ERC721Metadata: URI query for nonexistent token\");\n        require(msg.sender== super.ownerOf(_tokenId), \"ERC721Metadata: Only owner can update metadata\");\n        metadataHash[_tokenId] = _data;\n    }\n\n    /*\n     * @dev return the list of token-ids of all the reference service tokens\n     */\n    function getReferences(uint _id) public view returns(uint256[] memory) {\n        return references[_id];    \n    }\n\n     /*\n      * @dev Tranfers the NFT to new address.\n      * Can be called by the NFT holder.\n    */\n    function transfer(address _from,address _to, uint256 _tokenId) public  {\n        super.safeTransferFrom(_from,_to, _tokenId);\n    }\n\n    /*\n     * @dev pause the onec contract.\n     */\n    function makePause() public onlyOwner {\n        super._pause();\n    }\n\n    /*\n     * @dev un-pause the onec contract.\n     */\n    function makeUnpause() public onlyOwner{\n        super._unpause();\n    }\n\n    /*\n     * @dev Burns the token with the given tokenid.\n     */\n    function burnNFT(uint256 _id) public onlyOwner{\n        super._burn(_id);\n        metadataHash[NFTCounter] = bytes(\"0x0\");       \n    }\n\n    /*    \n     * @dev Returns the total minted NFTs by the contract.\n     */\n    function getTotalMintedNFT() public view returns(uint256){\n        return NFTCounter;\n    }\n}",
  "sourcePath": "/Users/hrishabhsharma/Projects/core-contract/contracts/Onec721.sol",
  "compiler": {
    "name": "solc",
    "version": "0.8.0+commit.c7dfd78e.Emscripten.clang"
  },
  "schemaVersion": "3.4.3",
  "updatedAt": "2022-04-02T16:23:30.536Z",
  "devdoc": {
    "kind": "dev",
    "methods": {
      "approve(address,uint256)": {
        "details": "See {IERC721-approve}."
      },
      "balanceOf(address)": {
        "details": "See {IERC721-balanceOf}."
      },
      "getApproved(uint256)": {
        "details": "See {IERC721-getApproved}."
      },
      "isApprovedForAll(address,address)": {
        "details": "See {IERC721-isApprovedForAll}."
      },
      "name()": {
        "details": "See {IERC721Metadata-name}."
      },
      "owner()": {
        "details": "Returns the address of the current owner."
      },
      "ownerOf(uint256)": {
        "details": "See {IERC721-ownerOf}."
      },
      "paused()": {
        "details": "Returns true if the contract is paused, and false otherwise."
      },
      "renounceOwnership()": {
        "details": "Leaves the contract without owner. It will not be possible to call `onlyOwner` functions anymore. Can only be called by the current owner. NOTE: Renouncing ownership will leave the contract without an owner, thereby removing any functionality that is only available to the owner."
      },
      "safeTransferFrom(address,address,uint256)": {
        "details": "See {IERC721-safeTransferFrom}."
      },
      "safeTransferFrom(address,address,uint256,bytes)": {
        "details": "See {IERC721-safeTransferFrom}."
      },
      "setApprovalForAll(address,bool)": {
        "details": "See {IERC721-setApprovalForAll}."
      },
      "supportsInterface(bytes4)": {
        "details": "See {IERC165-supportsInterface}."
      },
      "symbol()": {
        "details": "See {IERC721Metadata-symbol}."
      },
      "tokenURI(uint256)": {
        "details": "See {IERC721Metadata-tokenURI}."
      },
      "transferFrom(address,address,uint256)": {
        "details": "See {IERC721-transferFrom}."
      },
      "transferOwnership(address)": {
        "details": "Transfers ownership of the contract to a new account (`newOwner`). Can only be called by the current owner."
      }
    },
    "version": 1
  },
  "userdoc": {
    "kind": "user",
    "methods": {},
    "version": 1
  }
}