{
  "contractName": "Onec",
  "abi": [
    {
      "anonymous": false,
      "inputs": [
        {
          "indexed": true,
          "internalType": "address",
          "name": "account",
          "type": "address"
        },
        {
          "indexed": true,
          "internalType": "address",
          "name": "operator",
          "type": "address"
        },
        {
          "indexed": false,
          "internalType": "bool",
          "name": "approved",
          "type": "bool"
        }
      ],
      "name": "ApprovalForAll",
      "type": "event"
    },
    {
      "anonymous": false,
      "inputs": [
        {
          "indexed": true,
          "internalType": "address",
          "name": "previousOwner",
          "type": "address"
        },
        {
          "indexed": true,
          "internalType": "address",
          "name": "newOwner",
          "type": "address"
        }
      ],
      "name": "OwnershipTransferred",
      "type": "event"
    },
    {
      "anonymous": false,
      "inputs": [
        {
          "indexed": false,
          "internalType": "address",
          "name": "account",
          "type": "address"
        }
      ],
      "name": "Paused",
      "type": "event"
    },
    {
      "anonymous": false,
      "inputs": [
        {
          "indexed": true,
          "internalType": "address",
          "name": "operator",
          "type": "address"
        },
        {
          "indexed": true,
          "internalType": "address",
          "name": "from",
          "type": "address"
        },
        {
          "indexed": true,
          "internalType": "address",
          "name": "to",
          "type": "address"
        },
        {
          "indexed": false,
          "internalType": "uint256[]",
          "name": "ids",
          "type": "uint256[]"
        },
        {
          "indexed": false,
          "internalType": "uint256[]",
          "name": "values",
          "type": "uint256[]"
        }
      ],
      "name": "TransferBatch",
      "type": "event"
    },
    {
      "anonymous": false,
      "inputs": [
        {
          "indexed": true,
          "internalType": "address",
          "name": "operator",
          "type": "address"
        },
        {
          "indexed": true,
          "internalType": "address",
          "name": "from",
          "type": "address"
        },
        {
          "indexed": true,
          "internalType": "address",
          "name": "to",
          "type": "address"
        },
        {
          "indexed": false,
          "internalType": "uint256",
          "name": "id",
          "type": "uint256"
        },
        {
          "indexed": false,
          "internalType": "uint256",
          "name": "value",
          "type": "uint256"
        }
      ],
      "name": "TransferSingle",
      "type": "event"
    },
    {
      "anonymous": false,
      "inputs": [
        {
          "indexed": false,
          "internalType": "string",
          "name": "value",
          "type": "string"
        },
        {
          "indexed": true,
          "internalType": "uint256",
          "name": "id",
          "type": "uint256"
        }
      ],
      "name": "URI",
      "type": "event"
    },
    {
      "anonymous": false,
      "inputs": [
        {
          "indexed": false,
          "internalType": "address",
          "name": "account",
          "type": "address"
        }
      ],
      "name": "Unpaused",
      "type": "event"
    },
    {
      "inputs": [
        {
          "internalType": "address",
          "name": "account",
          "type": "address"
        },
        {
          "internalType": "uint256",
          "name": "id",
          "type": "uint256"
        }
      ],
      "name": "balanceOf",
      "outputs": [
        {
          "internalType": "uint256",
          "name": "",
          "type": "uint256"
        }
      ],
      "stateMutability": "view",
      "type": "function",
      "constant": true
    },
    {
      "inputs": [
        {
          "internalType": "address[]",
          "name": "accounts",
          "type": "address[]"
        },
        {
          "internalType": "uint256[]",
          "name": "ids",
          "type": "uint256[]"
        }
      ],
      "name": "balanceOfBatch",
      "outputs": [
        {
          "internalType": "uint256[]",
          "name": "",
          "type": "uint256[]"
        }
      ],
      "stateMutability": "view",
      "type": "function",
      "constant": true
    },
    {
      "inputs": [
        {
          "internalType": "address",
          "name": "account",
          "type": "address"
        },
        {
          "internalType": "address",
          "name": "operator",
          "type": "address"
        }
      ],
      "name": "isApprovedForAll",
      "outputs": [
        {
          "internalType": "bool",
          "name": "",
          "type": "bool"
        }
      ],
      "stateMutability": "view",
      "type": "function",
      "constant": true
    },
    {
      "inputs": [],
      "name": "owner",
      "outputs": [
        {
          "internalType": "address",
          "name": "",
          "type": "address"
        }
      ],
      "stateMutability": "view",
      "type": "function",
      "constant": true
    },
    {
      "inputs": [],
      "name": "paused",
      "outputs": [
        {
          "internalType": "bool",
          "name": "",
          "type": "bool"
        }
      ],
      "stateMutability": "view",
      "type": "function",
      "constant": true
    },
    {
      "inputs": [],
      "name": "renounceOwnership",
      "outputs": [],
      "stateMutability": "nonpayable",
      "type": "function"
    },
    {
      "inputs": [
        {
          "internalType": "address",
          "name": "from",
          "type": "address"
        },
        {
          "internalType": "address",
          "name": "to",
          "type": "address"
        },
        {
          "internalType": "uint256[]",
          "name": "ids",
          "type": "uint256[]"
        },
        {
          "internalType": "uint256[]",
          "name": "amounts",
          "type": "uint256[]"
        },
        {
          "internalType": "bytes",
          "name": "data",
          "type": "bytes"
        }
      ],
      "name": "safeBatchTransferFrom",
      "outputs": [],
      "stateMutability": "nonpayable",
      "type": "function"
    },
    {
      "inputs": [
        {
          "internalType": "address",
          "name": "from",
          "type": "address"
        },
        {
          "internalType": "address",
          "name": "to",
          "type": "address"
        },
        {
          "internalType": "uint256",
          "name": "id",
          "type": "uint256"
        },
        {
          "internalType": "uint256",
          "name": "amount",
          "type": "uint256"
        },
        {
          "internalType": "bytes",
          "name": "data",
          "type": "bytes"
        }
      ],
      "name": "safeTransferFrom",
      "outputs": [],
      "stateMutability": "nonpayable",
      "type": "function"
    },
    {
      "inputs": [
        {
          "internalType": "address",
          "name": "operator",
          "type": "address"
        },
        {
          "internalType": "bool",
          "name": "approved",
          "type": "bool"
        }
      ],
      "name": "setApprovalForAll",
      "outputs": [],
      "stateMutability": "nonpayable",
      "type": "function"
    },
    {
      "inputs": [
        {
          "internalType": "bytes4",
          "name": "interfaceId",
          "type": "bytes4"
        }
      ],
      "name": "supportsInterface",
      "outputs": [
        {
          "internalType": "bool",
          "name": "",
          "type": "bool"
        }
      ],
      "stateMutability": "view",
      "type": "function",
      "constant": true
    },
    {
      "inputs": [
        {
          "internalType": "address",
          "name": "newOwner",
          "type": "address"
        }
      ],
      "name": "transferOwnership",
      "outputs": [],
      "stateMutability": "nonpayable",
      "type": "function"
    },
    {
      "inputs": [
        {
          "internalType": "uint256",
          "name": "",
          "type": "uint256"
        }
      ],
      "name": "uri",
      "outputs": [
        {
          "internalType": "string",
          "name": "",
          "type": "string"
        }
      ],
      "stateMutability": "view",
      "type": "function",
      "constant": true
    },
    {
      "inputs": [],
      "name": "initialize",
      "outputs": [],
      "stateMutability": "nonpayable",
      "type": "function"
    },
    {
      "inputs": [
        {
          "internalType": "uint256",
          "name": "_supply",
          "type": "uint256"
        },
        {
          "internalType": "address",
          "name": "_holder",
          "type": "address"
        },
        {
          "internalType": "uint256",
          "name": "_id",
          "type": "uint256"
        },
        {
          "internalType": "bytes",
          "name": "_data",
          "type": "bytes"
        }
      ],
      "name": "mintAsset",
      "outputs": [],
      "stateMutability": "nonpayable",
      "type": "function"
    },
    {
      "inputs": [
        {
          "internalType": "uint256",
          "name": "_id",
          "type": "uint256"
        }
      ],
      "name": "getTokenMetadataHash",
      "outputs": [
        {
          "internalType": "string",
          "name": "",
          "type": "string"
        }
      ],
      "stateMutability": "view",
      "type": "function",
      "constant": true
    },
    {
      "inputs": [
        {
          "internalType": "uint256",
          "name": "_id",
          "type": "uint256"
        }
      ],
      "name": "getBaseURI",
      "outputs": [
        {
          "internalType": "string",
          "name": "",
          "type": "string"
        }
      ],
      "stateMutability": "view",
      "type": "function",
      "constant": true
    },
    {
      "inputs": [
        {
          "internalType": "address",
          "name": "_from",
          "type": "address"
        },
        {
          "internalType": "address",
          "name": "_to",
          "type": "address"
        },
        {
          "internalType": "uint256",
          "name": "_id",
          "type": "uint256"
        },
        {
          "internalType": "uint256",
          "name": "_amount",
          "type": "uint256"
        },
        {
          "internalType": "bytes",
          "name": "_data",
          "type": "bytes"
        }
      ],
      "name": "transfer",
      "outputs": [],
      "stateMutability": "nonpayable",
      "type": "function"
    },
    {
      "inputs": [],
      "name": "makePause",
      "outputs": [],
      "stateMutability": "nonpayable",
      "type": "function"
    },
    {
      "inputs": [],
      "name": "makeUnpause",
      "outputs": [],
      "stateMutability": "nonpayable",
      "type": "function"
    },
    {
      "inputs": [
        {
          "internalType": "address",
          "name": "account",
          "type": "address"
        },
        {
          "internalType": "uint256",
          "name": "id",
          "type": "uint256"
        },
        {
          "internalType": "uint256",
          "name": "amount",
          "type": "uint256"
        }
      ],
      "name": "burnAsset",
      "outputs": [],
      "stateMutability": "nonpayable",
      "type": "function"
    },
    {
      "inputs": [
        {
          "internalType": "address",
          "name": "_operator",
          "type": "address"
        },
        {
          "internalType": "bool",
          "name": "_approved",
          "type": "bool"
        }
      ],
      "name": "setApproval",
      "outputs": [],
      "stateMutability": "nonpayable",
      "type": "function"
    },
    {
      "inputs": [
        {
          "internalType": "address",
          "name": "account",
          "type": "address"
        },
        {
          "internalType": "address",
          "name": "operator",
          "type": "address"
        }
      ],
      "name": "isApproved",
      "outputs": [
        {
          "internalType": "bool",
          "name": "",
          "type": "bool"
        }
      ],
      "stateMutability": "view",
      "type": "function",
      "constant": true
    },
    {
      "inputs": [
        {
          "internalType": "address",
          "name": "account",
          "type": "address"
        },
        {
          "internalType": "uint256",
          "name": "id",
          "type": "uint256"
        }
      ],
      "name": "getBalance",
      "outputs": [
        {
          "internalType": "uint256",
          "name": "",
          "type": "uint256"
        }
      ],
      "stateMutability": "view",
      "type": "function",
      "constant": true
    }
  ],
  "bytecode": "0x608060405234801561001057600080fd5b50613e56806100206000396000f3fe608060405234801561001057600080fd5b506004361061014c5760003560e01c80638129fc1c116100c3578063a90205a31161007c578063a90205a31461039b578063db9b7170146103a5578063dd3d0f93146103c1578063e985e9c5146103dd578063f242432a1461040d578063f2fde38b146104295761014c565b80638129fc1c146102ed578063837c5962146102f757806386838fb6146103275780638da5cb5b14610331578063a22cb4651461034f578063a389783e1461036b5761014c565b80632eb2c2d6116101155780632eb2c2d61461022d578063411672ee146102495780634e1273f4146102655780635c975abb14610295578063715018a6146102b357806373376398146102bd5761014c565b8062fdd58e1461015157806301ffc9a7146101815780630e89341c146101b1578063127217d6146101e15780632b04e840146101fd575b600080fd5b61016b60048036038101906101669190612b24565b610445565b6040516101789190613928565b60405180910390f35b61019b60048036038101906101969190612c1b565b61050f565b6040516101a8919061368b565b60405180910390f35b6101cb60048036038101906101c69190612c6d565b6105f1565b6040516101d891906136a6565b60405180910390f35b6101fb60048036038101906101f69190612a59565b610685565b005b61021760048036038101906102129190612b24565b610699565b6040516102249190613928565b60405180910390f35b6102476004803603810190610242919061299a565b6106ad565b005b610263600480360381019061025e9190612c96565b61074e565b005b61027f600480360381019061027a9190612baf565b6107a4565b60405161028c9190613632565b60405180910390f35b61029d610955565b6040516102aa919061368b565b60405180910390f35b6102bb61096c565b005b6102d760048036038101906102d29190612c6d565b6109f4565b6040516102e491906136a6565b60405180910390f35b6102f5610a06565b005b610311600480360381019061030c9190612c6d565b610b08565b60405161031e91906136a6565b60405180910390f35b61032f610bad565b005b610339610c33565b6040516103469190613555565b60405180910390f35b61036960048036038101906103649190612ae8565b610c5d565b005b6103856004803603810190610380919061295e565b610dde565b604051610392919061368b565b60405180910390f35b6103a3610df2565b005b6103bf60048036038101906103ba9190612ae8565b610e78565b005b6103db60048036038101906103d69190612b60565b610e86565b005b6103f760048036038101906103f2919061295e565b610ef3565b604051610404919061368b565b60405180910390f35b61042760048036038101906104229190612a59565b610f87565b005b610443600480360381019061043e9190612935565b611028565b005b60008073ffffffffffffffffffffffffffffffffffffffff168373ffffffffffffffffffffffffffffffffffffffff1614156104b6576040517f08c379a00000000000000000000000000000000000000000000000000000000081526004016104ad90613728565b60405180910390fd5b60c9600083815260200190815260200160002060008473ffffffffffffffffffffffffffffffffffffffff1673ffffffffffffffffffffffffffffffffffffffff16815260200190815260200160002054905092915050565b60007fd9b67a26000000000000000000000000000000000000000000000000000000007bffffffffffffffffffffffffffffffffffffffffffffffffffffffff1916827bffffffffffffffffffffffffffffffffffffffffffffffffffffffff191614806105da57507f0e89341c000000000000000000000000000000000000000000000000000000007bffffffffffffffffffffffffffffffffffffffffffffffffffffffff1916827bffffffffffffffffffffffffffffffffffffffffffffffffffffffff1916145b806105ea57506105e982611120565b5b9050919050565b606060cb805461060090613ba2565b80601f016020809104026020016040519081016040528092919081815260200182805461062c90613ba2565b80156106795780601f1061064e57610100808354040283529160200191610679565b820191906000526020600020905b81548152906001019060200180831161065c57829003601f168201915b50505050509050919050565b6106928585858585610f87565b5050505050565b60006106a58383610445565b905092915050565b6106b561118a565b73ffffffffffffffffffffffffffffffffffffffff168573ffffffffffffffffffffffffffffffffffffffff1614806106fb57506106fa856106f561118a565b610ef3565b5b61073a576040517f08c379a000000000000000000000000000000000000000000000000000000000815260040161073190613808565b60405180910390fd5b6107478585858585611192565b5050505050565b600060fc6000848152602001908152602001600020805461076e90613ba2565b90501461077a57600080fd5b610786838386846114f5565b60fb600081548092919061079990613bd4565b919050555050505050565b606081518351146107ea576040517f08c379a00000000000000000000000000000000000000000000000000000000081526004016107e1906138c8565b60405180910390fd5b6000835167ffffffffffffffff81111561082d577f4e487b7100000000000000000000000000000000000000000000000000000000600052604160045260246000fd5b60405190808252806020026020018201604052801561085b5781602001602082028036833780820191505090505b50905060005b845181101561094a576108f48582815181106108a6577f4e487b7100000000000000000000000000000000000000000000000000000000600052603260045260246000fd5b60200260200101518583815181106108e7577f4e487b7100000000000000000000000000000000000000000000000000000000600052603260045260246000fd5b6020026020010151610445565b82828151811061092d577f4e487b7100000000000000000000000000000000000000000000000000000000600052603260045260246000fd5b6020026020010181815250508061094390613bd4565b9050610861565b508091505092915050565b6000603360009054906101000a900460ff16905090565b61097461118a565b73ffffffffffffffffffffffffffffffffffffffff16610992610c33565b73ffffffffffffffffffffffffffffffffffffffff16146109e8576040517f08c379a00000000000000000000000000000000000000000000000000000000081526004016109df90613888565b60405180910390fd5b6109f2600061168c565b565b60606109ff826105f1565b9050919050565b600060019054906101000a900460ff1680610a2c575060008054906101000a900460ff16155b610a6b576040517f08c379a0000000000000000000000000000000000000000000000000000000008152600401610a6290613828565b60405180910390fd5b60008060019054906101000a900460ff161590508015610abb576001600060016101000a81548160ff02191690831515021790555060016000806101000a81548160ff0219169083151502179055505b610adc604051806080016040528060468152602001613ddb60469139611752565b600060fb819055508015610b055760008060016101000a81548160ff0219169083151502179055505b50565b606060fc60008381526020019081526020016000208054610b2890613ba2565b80601f0160208091040260200160405190810160405280929190818152602001828054610b5490613ba2565b8015610ba15780601f10610b7657610100808354040283529160200191610ba1565b820191906000526020600020905b815481529060010190602001808311610b8457829003601f168201915b50505050509050919050565b610bb561118a565b73ffffffffffffffffffffffffffffffffffffffff16610bd3610c33565b73ffffffffffffffffffffffffffffffffffffffff1614610c29576040517f08c379a0000000000000000000000000000000000000000000000000000000008152600401610c2090613888565b60405180910390fd5b610c31611845565b565b6000606560009054906101000a900473ffffffffffffffffffffffffffffffffffffffff16905090565b8173ffffffffffffffffffffffffffffffffffffffff16610c7c61118a565b73ffffffffffffffffffffffffffffffffffffffff161415610cd3576040517f08c379a0000000000000000000000000000000000000000000000000000000008152600401610cca906138a8565b60405180910390fd5b8060ca6000610ce061118a565b73ffffffffffffffffffffffffffffffffffffffff1673ffffffffffffffffffffffffffffffffffffffff16815260200190815260200160002060008473ffffffffffffffffffffffffffffffffffffffff1673ffffffffffffffffffffffffffffffffffffffff16815260200190815260200160002060006101000a81548160ff0219169083151502179055508173ffffffffffffffffffffffffffffffffffffffff16610d8d61118a565b73ffffffffffffffffffffffffffffffffffffffff167f17307eab39ab6107e8899845ad3d59bd9653f200f220920489ca2b5937696c3183604051610dd2919061368b565b60405180910390a35050565b6000610dea8383610ef3565b905092915050565b610dfa61118a565b73ffffffffffffffffffffffffffffffffffffffff16610e18610c33565b73ffffffffffffffffffffffffffffffffffffffff1614610e6e576040517f08c379a0000000000000000000000000000000000000000000000000000000008152600401610e6590613888565b60405180910390fd5b610e766118e7565b565b610e828282610c5d565b5050565b610e9183838361198a565b6040518060400160405280600381526020017f307830000000000000000000000000000000000000000000000000000000000081525060fc60008481526020019081526020016000209080519060200190610eed92919061260f565b50505050565b600060ca60008473ffffffffffffffffffffffffffffffffffffffff1673ffffffffffffffffffffffffffffffffffffffff16815260200190815260200160002060008373ffffffffffffffffffffffffffffffffffffffff1673ffffffffffffffffffffffffffffffffffffffff16815260200190815260200160002060009054906101000a900460ff16905092915050565b610f8f61118a565b73ffffffffffffffffffffffffffffffffffffffff168573ffffffffffffffffffffffffffffffffffffffff161480610fd55750610fd485610fcf61118a565b610ef3565b5b611014576040517f08c379a000000000000000000000000000000000000000000000000000000000815260040161100b906137a8565b60405180910390fd5b6110218585858585611ba9565b5050505050565b61103061118a565b73ffffffffffffffffffffffffffffffffffffffff1661104e610c33565b73ffffffffffffffffffffffffffffffffffffffff16146110a4576040517f08c379a000000000000000000000000000000000000000000000000000000000815260040161109b90613888565b60405180910390fd5b600073ffffffffffffffffffffffffffffffffffffffff168173ffffffffffffffffffffffffffffffffffffffff161415611114576040517f08c379a000000000000000000000000000000000000000000000000000000000815260040161110b90613748565b60405180910390fd5b61111d8161168c565b50565b60007f01ffc9a7000000000000000000000000000000000000000000000000000000007bffffffffffffffffffffffffffffffffffffffffffffffffffffffff1916827bffffffffffffffffffffffffffffffffffffffffffffffffffffffff1916149050919050565b600033905090565b81518351146111d6576040517f08c379a00000000000000000000000000000000000000000000000000000000081526004016111cd906138e8565b60405180910390fd5b600073ffffffffffffffffffffffffffffffffffffffff168473ffffffffffffffffffffffffffffffffffffffff161415611246576040517f08c379a000000000000000000000000000000000000000000000000000000000815260040161123d906137e8565b60405180910390fd5b600061125061118a565b9050611260818787878787611e2e565b60005b84518110156114605760008582815181106112a7577f4e487b7100000000000000000000000000000000000000000000000000000000600052603260045260246000fd5b6020026020010151905060008583815181106112ec577f4e487b7100000000000000000000000000000000000000000000000000000000600052603260045260246000fd5b60200260200101519050600060c9600084815260200190815260200160002060008b73ffffffffffffffffffffffffffffffffffffffff1673ffffffffffffffffffffffffffffffffffffffff1681526020019081526020016000205490508181101561138e576040517f08c379a000000000000000000000000000000000000000000000000000000000815260040161138590613868565b60405180910390fd5b81810360c9600085815260200190815260200160002060008c73ffffffffffffffffffffffffffffffffffffffff1673ffffffffffffffffffffffffffffffffffffffff168152602001908152602001600020819055508160c9600085815260200190815260200160002060008b73ffffffffffffffffffffffffffffffffffffffff1673ffffffffffffffffffffffffffffffffffffffff16815260200190815260200160002060008282546114459190613a96565b925050819055505050508061145990613bd4565b9050611263565b508473ffffffffffffffffffffffffffffffffffffffff168673ffffffffffffffffffffffffffffffffffffffff168273ffffffffffffffffffffffffffffffffffffffff167f4a39dc06d4c0dbc64b70af90fd698a233a518aa5d07e595d983b8c0526c8f7fb87876040516114d7929190613654565b60405180910390a46114ed818787878787611ee7565b505050505050565b600073ffffffffffffffffffffffffffffffffffffffff168473ffffffffffffffffffffffffffffffffffffffff161415611565576040517f08c379a000000000000000000000000000000000000000000000000000000000815260040161155c90613908565b60405180910390fd5b600061156f61118a565b905061159081600087611581886120b7565b61158a886120b7565b87611e2e565b8260c9600086815260200190815260200160002060008773ffffffffffffffffffffffffffffffffffffffff1673ffffffffffffffffffffffffffffffffffffffff16815260200190815260200160002060008282546115f09190613a96565b925050819055508473ffffffffffffffffffffffffffffffffffffffff16600073ffffffffffffffffffffffffffffffffffffffff168273ffffffffffffffffffffffffffffffffffffffff167fc3d58168c5ae7397731d063d5bbf3d657854427343f4c083240f7aacaa2d0f62878760405161166e929190613943565b60405180910390a46116858160008787878761217d565b5050505050565b6000606560009054906101000a900473ffffffffffffffffffffffffffffffffffffffff16905081606560006101000a81548173ffffffffffffffffffffffffffffffffffffffff021916908373ffffffffffffffffffffffffffffffffffffffff1602179055508173ffffffffffffffffffffffffffffffffffffffff168173ffffffffffffffffffffffffffffffffffffffff167f8be0079c531659141344cd1fd0a4f28419497f9722a3daafe3b4186f6b6457e060405160405180910390a35050565b600060019054906101000a900460ff1680611778575060008054906101000a900460ff16155b6117b7576040517f08c379a00000000000000000000000000000000000000000000000000000000081526004016117ae90613828565b60405180910390fd5b60008060019054906101000a900460ff161590508015611807576001600060016101000a81548160ff02191690831515021790555060016000806101000a81548160ff0219169083151502179055505b61180f61234d565b611817612426565b611820826124ff565b80156118415760008060016101000a81548160ff0219169083151502179055505b5050565b61184d610955565b61188c576040517f08c379a000000000000000000000000000000000000000000000000000000000815260040161188390613708565b60405180910390fd5b6000603360006101000a81548160ff0219169083151502179055507f5db9ee0a495bf2e6ff9c91a7834c1ba4fdd244a5e8aa4e537bd38aeae4b073aa6118d061118a565b6040516118dd9190613555565b60405180910390a1565b6118ef610955565b1561192f576040517f08c379a0000000000000000000000000000000000000000000000000000000008152600401611926906137c8565b60405180910390fd5b6001603360006101000a81548160ff0219169083151502179055507f62e78cea01bee320cd4e420270b5ea74000d11b0c9f74754ebdbfc544b05a25861197361118a565b6040516119809190613555565b60405180910390a1565b600073ffffffffffffffffffffffffffffffffffffffff168373ffffffffffffffffffffffffffffffffffffffff1614156119fa576040517f08c379a00000000000000000000000000000000000000000000000000000000081526004016119f190613848565b60405180910390fd5b6000611a0461118a565b9050611a3481856000611a16876120b7565b611a1f876120b7565b60405180602001604052806000815250611e2e565b600060c9600085815260200190815260200160002060008673ffffffffffffffffffffffffffffffffffffffff1673ffffffffffffffffffffffffffffffffffffffff16815260200190815260200160002054905082811015611acc576040517f08c379a0000000000000000000000000000000000000000000000000000000008152600401611ac390613768565b60405180910390fd5b82810360c9600086815260200190815260200160002060008773ffffffffffffffffffffffffffffffffffffffff1673ffffffffffffffffffffffffffffffffffffffff16815260200190815260200160002081905550600073ffffffffffffffffffffffffffffffffffffffff168573ffffffffffffffffffffffffffffffffffffffff168373ffffffffffffffffffffffffffffffffffffffff167fc3d58168c5ae7397731d063d5bbf3d657854427343f4c083240f7aacaa2d0f628787604051611b9a929190613943565b60405180910390a45050505050565b600073ffffffffffffffffffffffffffffffffffffffff168473ffffffffffffffffffffffffffffffffffffffff161415611c19576040517f08c379a0000000000000000000000000000000000000000000000000000000008152600401611c10906137e8565b60405180910390fd5b6000611c2361118a565b9050611c43818787611c34886120b7565b611c3d886120b7565b87611e2e565b600060c9600086815260200190815260200160002060008873ffffffffffffffffffffffffffffffffffffffff1673ffffffffffffffffffffffffffffffffffffffff16815260200190815260200160002054905083811015611cdb576040517f08c379a0000000000000000000000000000000000000000000000000000000008152600401611cd290613868565b60405180910390fd5b83810360c9600087815260200190815260200160002060008973ffffffffffffffffffffffffffffffffffffffff1673ffffffffffffffffffffffffffffffffffffffff168152602001908152602001600020819055508360c9600087815260200190815260200160002060008873ffffffffffffffffffffffffffffffffffffffff1673ffffffffffffffffffffffffffffffffffffffff1681526020019081526020016000206000828254611d929190613a96565b925050819055508573ffffffffffffffffffffffffffffffffffffffff168773ffffffffffffffffffffffffffffffffffffffff168373ffffffffffffffffffffffffffffffffffffffff167fc3d58168c5ae7397731d063d5bbf3d657854427343f4c083240f7aacaa2d0f628888604051611e0f929190613943565b60405180910390a4611e2582888888888861217d565b50505050505050565b8060fc600085600081518110611e6d577f4e487b7100000000000000000000000000000000000000000000000000000000600052603260045260246000fd5b602002602001015181526020019081526020016000209080519060200190611e9692919061260f565b50611e9f610955565b15611edf576040517f08c379a0000000000000000000000000000000000000000000000000000000008152600401611ed690613788565b60405180910390fd5b505050505050565b611f068473ffffffffffffffffffffffffffffffffffffffff166125e2565b156120af578373ffffffffffffffffffffffffffffffffffffffff1663bc197c8187878686866040518663ffffffff1660e01b8152600401611f4c959493929190613570565b602060405180830381600087803b158015611f6657600080fd5b505af1925050508015611f9757506040513d601f19601f82011682018060405250810190611f949190612c44565b60015b61202657611fa3613cc8565b80611fae5750611feb565b806040517f08c379a0000000000000000000000000000000000000000000000000000000008152600401611fe291906136a6565b60405180910390fd5b6040517f08c379a000000000000000000000000000000000000000000000000000000000815260040161201d906136c8565b60405180910390fd5b63bc197c8160e01b7bffffffffffffffffffffffffffffffffffffffffffffffffffffffff1916817bffffffffffffffffffffffffffffffffffffffffffffffffffffffff1916146120ad576040517f08c379a00000000000000000000000000000000000000000000000000000000081526004016120a4906136e8565b60405180910390fd5b505b505050505050565b60606000600167ffffffffffffffff8111156120fc577f4e487b7100000000000000000000000000000000000000000000000000000000600052604160045260246000fd5b60405190808252806020026020018201604052801561212a5781602001602082028036833780820191505090505b5090508281600081518110612168577f4e487b7100000000000000000000000000000000000000000000000000000000600052603260045260246000fd5b60200260200101818152505080915050919050565b61219c8473ffffffffffffffffffffffffffffffffffffffff166125e2565b15612345578373ffffffffffffffffffffffffffffffffffffffff1663f23a6e6187878686866040518663ffffffff1660e01b81526004016121e29594939291906135d8565b602060405180830381600087803b1580156121fc57600080fd5b505af192505050801561222d57506040513d601f19601f8201168201806040525081019061222a9190612c44565b60015b6122bc57612239613cc8565b806122445750612281565b806040517f08c379a000000000000000000000000000000000000000000000000000000000815260040161227891906136a6565b60405180910390fd5b6040517f08c379a00000000000000000000000000000000000000000000000000000000081526004016122b3906136c8565b60405180910390fd5b63f23a6e6160e01b7bffffffffffffffffffffffffffffffffffffffffffffffffffffffff1916817bffffffffffffffffffffffffffffffffffffffffffffffffffffffff191614612343576040517f08c379a000000000000000000000000000000000000000000000000000000000815260040161233a906136e8565b60405180910390fd5b505b505050505050565b600060019054906101000a900460ff1680612373575060008054906101000a900460ff16155b6123b2576040517f08c379a00000000000000000000000000000000000000000000000000000000081526004016123a990613828565b60405180910390fd5b60008060019054906101000a900460ff161590508015612402576001600060016101000a81548160ff02191690831515021790555060016000806101000a81548160ff0219169083151502179055505b80156124235760008060016101000a81548160ff0219169083151502179055505b50565b600060019054906101000a900460ff168061244c575060008054906101000a900460ff16155b61248b576040517f08c379a000000000000000000000000000000000000000000000000000000000815260040161248290613828565b60405180910390fd5b60008060019054906101000a900460ff1615905080156124db576001600060016101000a81548160ff02191690831515021790555060016000806101000a81548160ff0219169083151502179055505b80156124fc5760008060016101000a81548160ff0219169083151502179055505b50565b600060019054906101000a900460ff1680612525575060008054906101000a900460ff16155b612564576040517f08c379a000000000000000000000000000000000000000000000000000000000815260040161255b90613828565b60405180910390fd5b60008060019054906101000a900460ff1615905080156125b4576001600060016101000a81548160ff02191690831515021790555060016000806101000a81548160ff0219169083151502179055505b6125bd826125f5565b80156125de5760008060016101000a81548160ff0219169083151502179055505b5050565b600080823b905060008111915050919050565b8060cb908051906020019061260b929190612695565b5050565b82805461261b90613ba2565b90600052602060002090601f01602090048101928261263d5760008555612684565b82601f1061265657805160ff1916838001178555612684565b82800160010185558215612684579182015b82811115612683578251825591602001919060010190612668565b5b509050612691919061271b565b5090565b8280546126a190613ba2565b90600052602060002090601f0160209004810192826126c3576000855561270a565b82601f106126dc57805160ff191683800117855561270a565b8280016001018555821561270a579182015b828111156127095782518255916020019190600101906126ee565b5b509050612717919061271b565b5090565b5b8082111561273457600081600090555060010161271c565b5090565b600061274b6127468461399d565b61396c565b9050808382526020820190508285602086028201111561276a57600080fd5b60005b8581101561279a5781612780888261284e565b84526020840193506020830192505060018101905061276d565b5050509392505050565b60006127b76127b2846139c9565b61396c565b905080838252602082019050828560208602820111156127d657600080fd5b60005b8581101561280657816127ec8882612920565b8452602084019350602083019250506001810190506127d9565b5050509392505050565b600061282361281e846139f5565b61396c565b90508281526020810184848401111561283b57600080fd5b612846848285613b60565b509392505050565b60008135905061285d81613d7e565b92915050565b600082601f83011261287457600080fd5b8135612884848260208601612738565b91505092915050565b600082601f83011261289e57600080fd5b81356128ae8482602086016127a4565b91505092915050565b6000813590506128c681613d95565b92915050565b6000813590506128db81613dac565b92915050565b6000815190506128f081613dac565b92915050565b600082601f83011261290757600080fd5b8135612917848260208601612810565b91505092915050565b60008135905061292f81613dc3565b92915050565b60006020828403121561294757600080fd5b60006129558482850161284e565b91505092915050565b6000806040838503121561297157600080fd5b600061297f8582860161284e565b92505060206129908582860161284e565b9150509250929050565b600080600080600060a086880312156129b257600080fd5b60006129c08882890161284e565b95505060206129d18882890161284e565b945050604086013567ffffffffffffffff8111156129ee57600080fd5b6129fa8882890161288d565b935050606086013567ffffffffffffffff811115612a1757600080fd5b612a238882890161288d565b925050608086013567ffffffffffffffff811115612a4057600080fd5b612a4c888289016128f6565b9150509295509295909350565b600080600080600060a08688031215612a7157600080fd5b6000612a7f8882890161284e565b9550506020612a908882890161284e565b9450506040612aa188828901612920565b9350506060612ab288828901612920565b925050608086013567ffffffffffffffff811115612acf57600080fd5b612adb888289016128f6565b9150509295509295909350565b60008060408385031215612afb57600080fd5b6000612b098582860161284e565b9250506020612b1a858286016128b7565b9150509250929050565b60008060408385031215612b3757600080fd5b6000612b458582860161284e565b9250506020612b5685828601612920565b9150509250929050565b600080600060608486031215612b7557600080fd5b6000612b838682870161284e565b9350506020612b9486828701612920565b9250506040612ba586828701612920565b9150509250925092565b60008060408385031215612bc257600080fd5b600083013567ffffffffffffffff811115612bdc57600080fd5b612be885828601612863565b925050602083013567ffffffffffffffff811115612c0557600080fd5b612c118582860161288d565b9150509250929050565b600060208284031215612c2d57600080fd5b6000612c3b848285016128cc565b91505092915050565b600060208284031215612c5657600080fd5b6000612c64848285016128e1565b91505092915050565b600060208284031215612c7f57600080fd5b6000612c8d84828501612920565b91505092915050565b60008060008060808587031215612cac57600080fd5b6000612cba87828801612920565b9450506020612ccb8782880161284e565b9350506040612cdc87828801612920565b925050606085013567ffffffffffffffff811115612cf957600080fd5b612d05878288016128f6565b91505092959194509250565b6000612d1d8383613537565b60208301905092915050565b612d3281613aec565b82525050565b6000612d4382613a35565b612d4d8185613a63565b9350612d5883613a25565b8060005b83811015612d89578151612d708882612d11565b9750612d7b83613a56565b925050600181019050612d5c565b5085935050505092915050565b612d9f81613afe565b82525050565b6000612db082613a40565b612dba8185613a74565b9350612dca818560208601613b6f565b612dd381613caa565b840191505092915050565b6000612de982613a4b565b612df38185613a85565b9350612e03818560208601613b6f565b612e0c81613caa565b840191505092915050565b6000612e24603483613a85565b91507f455243313135353a207472616e7366657220746f206e6f6e204552433131353560008301527f526563656976657220696d706c656d656e7465720000000000000000000000006020830152604082019050919050565b6000612e8a602883613a85565b91507f455243313135353a204552433131353552656365697665722072656a6563746560008301527f6420746f6b656e730000000000000000000000000000000000000000000000006020830152604082019050919050565b6000612ef0601483613a85565b91507f5061757361626c653a206e6f74207061757365640000000000000000000000006000830152602082019050919050565b6000612f30602b83613a85565b91507f455243313135353a2062616c616e636520717565727920666f7220746865207a60008301527f65726f20616464726573730000000000000000000000000000000000000000006020830152604082019050919050565b6000612f96602683613a85565b91507f4f776e61626c653a206e6577206f776e657220697320746865207a65726f206160008301527f64647265737300000000000000000000000000000000000000000000000000006020830152604082019050919050565b6000612ffc602483613a85565b91507f455243313135353a206275726e20616d6f756e7420657863656564732062616c60008301527f616e6365000000000000000000000000000000000000000000000000000000006020830152604082019050919050565b6000613062602c83613a85565b91507f455243313135355061757361626c653a20746f6b656e207472616e736665722060008301527f7768696c652070617573656400000000000000000000000000000000000000006020830152604082019050919050565b60006130c8602983613a85565b91507f455243313135353a2063616c6c6572206973206e6f74206f776e6572206e6f7260008301527f20617070726f76656400000000000000000000000000000000000000000000006020830152604082019050919050565b600061312e601083613a85565b91507f5061757361626c653a20706175736564000000000000000000000000000000006000830152602082019050919050565b600061316e602583613a85565b91507f455243313135353a207472616e7366657220746f20746865207a65726f20616460008301527f64726573730000000000000000000000000000000000000000000000000000006020830152604082019050919050565b60006131d4603283613a85565b91507f455243313135353a207472616e736665722063616c6c6572206973206e6f742060008301527f6f776e6572206e6f7220617070726f76656400000000000000000000000000006020830152604082019050919050565b600061323a602e83613a85565b91507f496e697469616c697a61626c653a20636f6e747261637420697320616c72656160008301527f647920696e697469616c697a65640000000000000000000000000000000000006020830152604082019050919050565b60006132a0602383613a85565b91507f455243313135353a206275726e2066726f6d20746865207a65726f206164647260008301527f65737300000000000000000000000000000000000000000000000000000000006020830152604082019050919050565b6000613306602a83613a85565b91507f455243313135353a20696e73756666696369656e742062616c616e636520666f60008301527f72207472616e73666572000000000000000000000000000000000000000000006020830152604082019050919050565b600061336c602083613a85565b91507f4f776e61626c653a2063616c6c6572206973206e6f7420746865206f776e65726000830152602082019050919050565b60006133ac602983613a85565b91507f455243313135353a2073657474696e6720617070726f76616c2073746174757360008301527f20666f722073656c6600000000000000000000000000000000000000000000006020830152604082019050919050565b6000613412602983613a85565b91507f455243313135353a206163636f756e747320616e6420696473206c656e67746860008301527f206d69736d6174636800000000000000000000000000000000000000000000006020830152604082019050919050565b6000613478602883613a85565b91507f455243313135353a2069647320616e6420616d6f756e7473206c656e6774682060008301527f6d69736d617463680000000000000000000000000000000000000000000000006020830152604082019050919050565b60006134de602183613a85565b91507f455243313135353a206d696e7420746f20746865207a65726f2061646472657360008301527f73000000000000000000000000000000000000000000000000000000000000006020830152604082019050919050565b61354081613b56565b82525050565b61354f81613b56565b82525050565b600060208201905061356a6000830184612d29565b92915050565b600060a0820190506135856000830188612d29565b6135926020830187612d29565b81810360408301526135a48186612d38565b905081810360608301526135b88185612d38565b905081810360808301526135cc8184612da5565b90509695505050505050565b600060a0820190506135ed6000830188612d29565b6135fa6020830187612d29565b6136076040830186613546565b6136146060830185613546565b81810360808301526136268184612da5565b90509695505050505050565b6000602082019050818103600083015261364c8184612d38565b905092915050565b6000604082019050818103600083015261366e8185612d38565b905081810360208301526136828184612d38565b90509392505050565b60006020820190506136a06000830184612d96565b92915050565b600060208201905081810360008301526136c08184612dde565b905092915050565b600060208201905081810360008301526136e181612e17565b9050919050565b6000602082019050818103600083015261370181612e7d565b9050919050565b6000602082019050818103600083015261372181612ee3565b9050919050565b6000602082019050818103600083015261374181612f23565b9050919050565b6000602082019050818103600083015261376181612f89565b9050919050565b6000602082019050818103600083015261378181612fef565b9050919050565b600060208201905081810360008301526137a181613055565b9050919050565b600060208201905081810360008301526137c1816130bb565b9050919050565b600060208201905081810360008301526137e181613121565b9050919050565b6000602082019050818103600083015261380181613161565b9050919050565b60006020820190508181036000830152613821816131c7565b9050919050565b600060208201905081810360008301526138418161322d565b9050919050565b6000602082019050818103600083015261386181613293565b9050919050565b60006020820190508181036000830152613881816132f9565b9050919050565b600060208201905081810360008301526138a18161335f565b9050919050565b600060208201905081810360008301526138c18161339f565b9050919050565b600060208201905081810360008301526138e181613405565b9050919050565b600060208201905081810360008301526139018161346b565b9050919050565b60006020820190508181036000830152613921816134d1565b9050919050565b600060208201905061393d6000830184613546565b92915050565b60006040820190506139586000830185613546565b6139656020830184613546565b9392505050565b6000604051905081810181811067ffffffffffffffff8211171561399357613992613c7b565b5b8060405250919050565b600067ffffffffffffffff8211156139b8576139b7613c7b565b5b602082029050602081019050919050565b600067ffffffffffffffff8211156139e4576139e3613c7b565b5b602082029050602081019050919050565b600067ffffffffffffffff821115613a1057613a0f613c7b565b5b601f19601f8301169050602081019050919050565b6000819050602082019050919050565b600081519050919050565b600081519050919050565b600081519050919050565b6000602082019050919050565b600082825260208201905092915050565b600082825260208201905092915050565b600082825260208201905092915050565b6000613aa182613b56565b9150613aac83613b56565b9250827fffffffffffffffffffffffffffffffffffffffffffffffffffffffffffffffff03821115613ae157613ae0613c1d565b5b828201905092915050565b6000613af782613b36565b9050919050565b60008115159050919050565b60007fffffffff0000000000000000000000000000000000000000000000000000000082169050919050565b600073ffffffffffffffffffffffffffffffffffffffff82169050919050565b6000819050919050565b82818337600083830152505050565b60005b83811015613b8d578082015181840152602081019050613b72565b83811115613b9c576000848401525b50505050565b60006002820490506001821680613bba57607f821691505b60208210811415613bce57613bcd613c4c565b5b50919050565b6000613bdf82613b56565b91507fffffffffffffffffffffffffffffffffffffffffffffffffffffffffffffffff821415613c1257613c11613c1d565b5b600182019050919050565b7f4e487b7100000000000000000000000000000000000000000000000000000000600052601160045260246000fd5b7f4e487b7100000000000000000000000000000000000000000000000000000000600052602260045260246000fd5b7f4e487b7100000000000000000000000000000000000000000000000000000000600052604160045260246000fd5b6000601f19601f8301169050919050565b60008160e01c9050919050565b600060443d1015613cd857613d7b565b60046000803e613ce9600051613cbb565b6308c379a08114613cfa5750613d7b565b60405160043d036004823e80513d602482011167ffffffffffffffff82111715613d2657505050613d7b565b808201805167ffffffffffffffff811115613d45575050505050613d7b565b8060208301013d8501811115613d6057505050505050613d7b565b613d6982613caa565b60208401016040528296505050505050505b90565b613d8781613aec565b8114613d9257600080fd5b50565b613d9e81613afe565b8114613da957600080fd5b50565b613db581613b0a565b8114613dc057600080fd5b50565b613dcc81613b56565b8114613dd757600080fd5b5056fe68747470733a2f2f7261772e67697468756275736572636f6e74656e742e636f6d2f5468652d576973652d4f72672f646f63756d656e742d6d6574612f6d61696e2f7b69647da264697066735822122075c155b0733db79cc7aef3456b19754ba4707d035c149e3a49a3b464d52b342564736f6c63430008000033",
  "immutableReferences": {},
  "source": "/*\n    * @dev Assume supply=1 everywhere when passing arguments.\n    * Sample bytes32: 0x6162636400000000000000000000000000000000000000000000000000000000\n*/\n\npragma solidity ^0.8.0;\n\n\nimport \"@openzeppelin/contracts-upgradeable/token/ERC1155/ERC1155Upgradeable.sol\";\nimport \"@openzeppelin/contracts-upgradeable/security/PausableUpgradeable.sol\";\nimport \"@openzeppelin/contracts-upgradeable/access/OwnableUpgradeable.sol\";\nimport \"@openzeppelin/contracts-upgradeable/proxy/utils/Initializable.sol\";\n\n\ncontract Onec is Initializable,PausableUpgradeable, OwnableUpgradeable, ERC1155Upgradeable {\n\n    uint private totalRegisteredAssets;\n\n    mapping(uint256 => bytes) private metadataHash;\n    \n    function initialize() public initializer {\n        ERC1155Upgradeable.__ERC1155_init(\"https://raw.githubusercontent.com/The-Wise-Org/document-meta/main/{id}\");\n        totalRegisteredAssets = 0;\n    }\n    \n    \n    /*\n     * @dev Mint Assets to the address of _holder.\n     * Requirements:\n     * Can only be called by the deployer of the smart contract.\n     */\n    function mintAsset(uint _supply, address _holder, uint256 _id, bytes memory _data) public {\n        require(metadataHash[_id].length == 0);\n        _mint(_holder, _id, _supply, _data);\n        totalRegisteredAssets++;\n    }\n\n    /*\n     *@dev Called before every token transfer, maps the metadataHash of an asset with the token/asset id  \n     */\n    function _beforeTokenTransfer(address _operator, address _from, address _to, uint256[] memory ids, uint256[] memory amount, bytes memory data) override internal {\n        metadataHash[ids[0]] = data;\n        require(!paused(), \"ERC1155Pausable: token transfer while paused\");\n    }\n\n    /*\n     * @dev returns the metaDataHash for the token/asset ID\n     */\n\n    function getTokenMetadataHash(uint256 _id) view public returns(string memory) {\n        return string(metadataHash[_id]);\n    }\n\n     /*\n      * @dev returns the baseURI.\n      * Doesn't depends on the token-id and returns same thing.\n      */\n    function getBaseURI(uint256 _id) view public returns(string memory) {\n        return super.uri(_id);\n    }\n\n     /*\n      * @dev Tranfers the asset to new address.\n      * Can be called by the asset holder.\n      */\n    function transfer(address _from,address _to, uint256 _id, uint256 _amount, bytes memory _data) public {\n        super.safeTransferFrom(_from, _to, _id, _amount, _data);\n    }\n\n    /*\n     * @dev pause the onec contract.\n     */\n    function makePause() public onlyOwner {\n        super._pause();\n    }\n\n    /*\n     * @dev un-pause the onec contract.\n     */\n    function makeUnpause() public onlyOwner{\n        super._unpause();\n    } \n\n    /*\n     * @dev Burns the token/asset with the given tokenid.\n     */\n    function burnAsset(address account,uint256 id,uint256 amount) public{\n        super._burn(account,id,amount);\n        metadataHash[id]=bytes(\"0x0\");\n    }\n    \n    /*\n     * @dev Sets approval to the operator to manage assets held by the caller of the function.\n     */\n    function setApproval(address _operator, bool _approved) public {\n        super.setApprovalForAll(_operator,_approved);\n    }\n\n    /*\n     * @dev Give status of the approval rights, if the operator can manage assets held by the account.\n     */\n    function isApproved(address account, address operator) public view returns(bool){\n        return super.isApprovedForAll(account,operator);\n    }\n    \n    /*\n     * @dev Gives the balance of a particular asset of given id held by an account.\n     */\n    function getBalance(address account, uint256 id) public view returns(uint256){\n        return super.balanceOf(account,id);\n    }\n    \n\n}",
  "sourcePath": "/home/hrishabh/Projects/core-contract/contracts/Onec.sol",
  "compiler": {
    "name": "solc",
    "version": "0.8.0+commit.c7dfd78e.Emscripten.clang"
  },
  "schemaVersion": "3.4.3",
  "updatedAt": "2021-08-25T16:13:16.437Z",
  "networkType": "ethereum",
  "devdoc": {
    "kind": "dev",
    "methods": {
      "balanceOf(address,uint256)": {
        "details": "See {IERC1155-balanceOf}. Requirements: - `account` cannot be the zero address."
      },
      "balanceOfBatch(address[],uint256[])": {
        "details": "See {IERC1155-balanceOfBatch}. Requirements: - `accounts` and `ids` must have the same length."
      },
      "isApprovedForAll(address,address)": {
        "details": "See {IERC1155-isApprovedForAll}."
      },
      "owner()": {
        "details": "Returns the address of the current owner."
      },
      "paused()": {
        "details": "Returns true if the contract is paused, and false otherwise."
      },
      "renounceOwnership()": {
        "details": "Leaves the contract without owner. It will not be possible to call `onlyOwner` functions anymore. Can only be called by the current owner. NOTE: Renouncing ownership will leave the contract without an owner, thereby removing any functionality that is only available to the owner."
      },
      "safeBatchTransferFrom(address,address,uint256[],uint256[],bytes)": {
        "details": "See {IERC1155-safeBatchTransferFrom}."
      },
      "safeTransferFrom(address,address,uint256,uint256,bytes)": {
        "details": "See {IERC1155-safeTransferFrom}."
      },
      "setApprovalForAll(address,bool)": {
        "details": "See {IERC1155-setApprovalForAll}."
      },
      "supportsInterface(bytes4)": {
        "details": "See {IERC165-supportsInterface}."
      },
      "transferOwnership(address)": {
        "details": "Transfers ownership of the contract to a new account (`newOwner`). Can only be called by the current owner."
      },
      "uri(uint256)": {
        "details": "See {IERC1155MetadataURI-uri}. This implementation returns the same URI for *all* token types. It relies on the token type ID substitution mechanism https://eips.ethereum.org/EIPS/eip-1155#metadata[defined in the EIP]. Clients calling this function must replace the `\\{id\\}` substring with the actual token type ID."
      }
    },
    "version": 1
  },
  "userdoc": {
    "kind": "user",
    "methods": {},
    "version": 1
  }
}