{
  "contractName": "Onec",
  "abi": [
    {
      "anonymous": false,
      "inputs": [
        {
          "indexed": true,
          "internalType": "address",
          "name": "account",
          "type": "address"
        },
        {
          "indexed": true,
          "internalType": "address",
          "name": "operator",
          "type": "address"
        },
        {
          "indexed": false,
          "internalType": "bool",
          "name": "approved",
          "type": "bool"
        }
      ],
      "name": "ApprovalForAll",
      "type": "event"
    },
    {
      "anonymous": false,
      "inputs": [
        {
          "indexed": true,
          "internalType": "address",
          "name": "previousOwner",
          "type": "address"
        },
        {
          "indexed": true,
          "internalType": "address",
          "name": "newOwner",
          "type": "address"
        }
      ],
      "name": "OwnershipTransferred",
      "type": "event"
    },
    {
      "anonymous": false,
      "inputs": [
        {
          "indexed": false,
          "internalType": "address",
          "name": "account",
          "type": "address"
        }
      ],
      "name": "Paused",
      "type": "event"
    },
    {
      "anonymous": false,
      "inputs": [
        {
          "indexed": true,
          "internalType": "address",
          "name": "operator",
          "type": "address"
        },
        {
          "indexed": true,
          "internalType": "address",
          "name": "from",
          "type": "address"
        },
        {
          "indexed": true,
          "internalType": "address",
          "name": "to",
          "type": "address"
        },
        {
          "indexed": false,
          "internalType": "uint256[]",
          "name": "ids",
          "type": "uint256[]"
        },
        {
          "indexed": false,
          "internalType": "uint256[]",
          "name": "values",
          "type": "uint256[]"
        }
      ],
      "name": "TransferBatch",
      "type": "event"
    },
    {
      "anonymous": false,
      "inputs": [
        {
          "indexed": true,
          "internalType": "address",
          "name": "operator",
          "type": "address"
        },
        {
          "indexed": true,
          "internalType": "address",
          "name": "from",
          "type": "address"
        },
        {
          "indexed": true,
          "internalType": "address",
          "name": "to",
          "type": "address"
        },
        {
          "indexed": false,
          "internalType": "uint256",
          "name": "id",
          "type": "uint256"
        },
        {
          "indexed": false,
          "internalType": "uint256",
          "name": "value",
          "type": "uint256"
        }
      ],
      "name": "TransferSingle",
      "type": "event"
    },
    {
      "anonymous": false,
      "inputs": [
        {
          "indexed": false,
          "internalType": "string",
          "name": "value",
          "type": "string"
        },
        {
          "indexed": true,
          "internalType": "uint256",
          "name": "id",
          "type": "uint256"
        }
      ],
      "name": "URI",
      "type": "event"
    },
    {
      "anonymous": false,
      "inputs": [
        {
          "indexed": false,
          "internalType": "address",
          "name": "account",
          "type": "address"
        }
      ],
      "name": "Unpaused",
      "type": "event"
    },
    {
      "inputs": [
        {
          "internalType": "address",
          "name": "account",
          "type": "address"
        },
        {
          "internalType": "uint256",
          "name": "id",
          "type": "uint256"
        }
      ],
      "name": "balanceOf",
      "outputs": [
        {
          "internalType": "uint256",
          "name": "",
          "type": "uint256"
        }
      ],
      "stateMutability": "view",
      "type": "function",
      "constant": true
    },
    {
      "inputs": [
        {
          "internalType": "address[]",
          "name": "accounts",
          "type": "address[]"
        },
        {
          "internalType": "uint256[]",
          "name": "ids",
          "type": "uint256[]"
        }
      ],
      "name": "balanceOfBatch",
      "outputs": [
        {
          "internalType": "uint256[]",
          "name": "",
          "type": "uint256[]"
        }
      ],
      "stateMutability": "view",
      "type": "function",
      "constant": true
    },
    {
      "inputs": [
        {
          "internalType": "address",
          "name": "account",
          "type": "address"
        },
        {
          "internalType": "address",
          "name": "operator",
          "type": "address"
        }
      ],
      "name": "isApprovedForAll",
      "outputs": [
        {
          "internalType": "bool",
          "name": "",
          "type": "bool"
        }
      ],
      "stateMutability": "view",
      "type": "function",
      "constant": true
    },
    {
      "inputs": [],
      "name": "owner",
      "outputs": [
        {
          "internalType": "address",
          "name": "",
          "type": "address"
        }
      ],
      "stateMutability": "view",
      "type": "function",
      "constant": true
    },
    {
      "inputs": [],
      "name": "paused",
      "outputs": [
        {
          "internalType": "bool",
          "name": "",
          "type": "bool"
        }
      ],
      "stateMutability": "view",
      "type": "function",
      "constant": true
    },
    {
      "inputs": [],
      "name": "renounceOwnership",
      "outputs": [],
      "stateMutability": "nonpayable",
      "type": "function"
    },
    {
      "inputs": [
        {
          "internalType": "address",
          "name": "from",
          "type": "address"
        },
        {
          "internalType": "address",
          "name": "to",
          "type": "address"
        },
        {
          "internalType": "uint256[]",
          "name": "ids",
          "type": "uint256[]"
        },
        {
          "internalType": "uint256[]",
          "name": "amounts",
          "type": "uint256[]"
        },
        {
          "internalType": "bytes",
          "name": "data",
          "type": "bytes"
        }
      ],
      "name": "safeBatchTransferFrom",
      "outputs": [],
      "stateMutability": "nonpayable",
      "type": "function"
    },
    {
      "inputs": [
        {
          "internalType": "address",
          "name": "from",
          "type": "address"
        },
        {
          "internalType": "address",
          "name": "to",
          "type": "address"
        },
        {
          "internalType": "uint256",
          "name": "id",
          "type": "uint256"
        },
        {
          "internalType": "uint256",
          "name": "amount",
          "type": "uint256"
        },
        {
          "internalType": "bytes",
          "name": "data",
          "type": "bytes"
        }
      ],
      "name": "safeTransferFrom",
      "outputs": [],
      "stateMutability": "nonpayable",
      "type": "function"
    },
    {
      "inputs": [
        {
          "internalType": "address",
          "name": "operator",
          "type": "address"
        },
        {
          "internalType": "bool",
          "name": "approved",
          "type": "bool"
        }
      ],
      "name": "setApprovalForAll",
      "outputs": [],
      "stateMutability": "nonpayable",
      "type": "function"
    },
    {
      "inputs": [
        {
          "internalType": "bytes4",
          "name": "interfaceId",
          "type": "bytes4"
        }
      ],
      "name": "supportsInterface",
      "outputs": [
        {
          "internalType": "bool",
          "name": "",
          "type": "bool"
        }
      ],
      "stateMutability": "view",
      "type": "function",
      "constant": true
    },
    {
      "inputs": [
        {
          "internalType": "address",
          "name": "newOwner",
          "type": "address"
        }
      ],
      "name": "transferOwnership",
      "outputs": [],
      "stateMutability": "nonpayable",
      "type": "function"
    },
    {
      "inputs": [],
      "name": "initialize",
      "outputs": [],
      "stateMutability": "nonpayable",
      "type": "function"
    },
    {
      "inputs": [],
      "name": "contractURI",
      "outputs": [
        {
          "internalType": "string",
          "name": "",
          "type": "string"
        }
      ],
      "stateMutability": "view",
      "type": "function",
      "constant": true
    },
    {
      "inputs": [
        {
          "internalType": "string",
          "name": "_metadata",
          "type": "string"
        }
      ],
      "name": "setContractMetadata",
      "outputs": [],
      "stateMutability": "nonpayable",
      "type": "function"
    },
    {
      "inputs": [
        {
          "internalType": "uint256",
          "name": "_supply",
          "type": "uint256"
        },
        {
          "internalType": "address",
          "name": "_holder",
          "type": "address"
        },
        {
          "internalType": "bytes",
          "name": "_data",
          "type": "bytes"
        }
      ],
      "name": "mintNFT",
      "outputs": [],
      "stateMutability": "nonpayable",
      "type": "function"
    },
    {
      "inputs": [
        {
          "internalType": "uint256",
          "name": "_supply",
          "type": "uint256"
        },
        {
          "internalType": "address",
          "name": "_holder",
          "type": "address"
        },
        {
          "internalType": "bytes",
          "name": "_data",
          "type": "bytes"
        },
        {
          "internalType": "uint256",
          "name": "_parentTokenId",
          "type": "uint256"
        }
      ],
      "name": "mintRefNFT",
      "outputs": [],
      "stateMutability": "nonpayable",
      "type": "function"
    },
    {
      "inputs": [
        {
          "internalType": "uint256",
          "name": "_supply",
          "type": "uint256"
        },
        {
          "internalType": "address",
          "name": "_holder",
          "type": "address"
        },
        {
          "internalType": "bytes",
          "name": "_data",
          "type": "bytes"
        }
      ],
      "name": "batchMintNFT",
      "outputs": [],
      "stateMutability": "nonpayable",
      "type": "function"
    },
    {
      "inputs": [
        {
          "internalType": "uint256",
          "name": "_supply",
          "type": "uint256"
        },
        {
          "internalType": "address",
          "name": "_holder",
          "type": "address"
        },
        {
          "internalType": "bytes",
          "name": "_data",
          "type": "bytes"
        },
        {
          "internalType": "uint256",
          "name": "_parentTokenId",
          "type": "uint256"
        }
      ],
      "name": "batchMintRefNFT",
      "outputs": [],
      "stateMutability": "nonpayable",
      "type": "function"
    },
    {
      "inputs": [
        {
          "internalType": "uint256",
          "name": "_id",
          "type": "uint256"
        }
      ],
      "name": "getReferences",
      "outputs": [
        {
          "internalType": "uint256[]",
          "name": "",
          "type": "uint256[]"
        }
      ],
      "stateMutability": "view",
      "type": "function",
      "constant": true
    },
    {
      "inputs": [
        {
          "internalType": "uint256",
          "name": "_id",
          "type": "uint256"
        }
      ],
      "name": "getTokenMetadataHash",
      "outputs": [
        {
          "internalType": "string",
          "name": "",
          "type": "string"
        }
      ],
      "stateMutability": "view",
      "type": "function",
      "constant": true
    },
    {
      "inputs": [
        {
          "internalType": "uint256",
          "name": "_id",
          "type": "uint256"
        }
      ],
      "name": "getBaseURI",
      "outputs": [
        {
          "internalType": "string",
          "name": "",
          "type": "string"
        }
      ],
      "stateMutability": "view",
      "type": "function",
      "constant": true
    },
    {
      "inputs": [
        {
          "internalType": "string",
          "name": "_baseURI",
          "type": "string"
        }
      ],
      "name": "setBaseURI",
      "outputs": [],
      "stateMutability": "nonpayable",
      "type": "function"
    },
    {
      "inputs": [
        {
          "internalType": "uint256",
          "name": "_id",
          "type": "uint256"
        }
      ],
      "name": "uri",
      "outputs": [
        {
          "internalType": "string",
          "name": "",
          "type": "string"
        }
      ],
      "stateMutability": "view",
      "type": "function",
      "constant": true
    },
    {
      "inputs": [
        {
          "internalType": "address",
          "name": "_from",
          "type": "address"
        },
        {
          "internalType": "address",
          "name": "_to",
          "type": "address"
        },
        {
          "internalType": "uint256",
          "name": "_id",
          "type": "uint256"
        },
        {
          "internalType": "uint256",
          "name": "_amount",
          "type": "uint256"
        },
        {
          "internalType": "bytes",
          "name": "_data",
          "type": "bytes"
        }
      ],
      "name": "transfer",
      "outputs": [],
      "stateMutability": "nonpayable",
      "type": "function"
    },
    {
      "inputs": [
        {
          "internalType": "address",
          "name": "_from",
          "type": "address"
        },
        {
          "internalType": "address",
          "name": "_to",
          "type": "address"
        },
        {
          "internalType": "uint256[]",
          "name": "_ids",
          "type": "uint256[]"
        },
        {
          "internalType": "uint256[]",
          "name": "_amounts",
          "type": "uint256[]"
        },
        {
          "internalType": "bytes",
          "name": "_data",
          "type": "bytes"
        }
      ],
      "name": "batchTransfer",
      "outputs": [],
      "stateMutability": "nonpayable",
      "type": "function"
    },
    {
      "inputs": [],
      "name": "makePause",
      "outputs": [],
      "stateMutability": "nonpayable",
      "type": "function"
    },
    {
      "inputs": [],
      "name": "makeUnpause",
      "outputs": [],
      "stateMutability": "nonpayable",
      "type": "function"
    },
    {
      "inputs": [
        {
          "internalType": "address",
          "name": "account",
          "type": "address"
        },
        {
          "internalType": "uint256",
          "name": "id",
          "type": "uint256"
        },
        {
          "internalType": "uint256",
          "name": "amount",
          "type": "uint256"
        }
      ],
      "name": "burnNFT",
      "outputs": [],
      "stateMutability": "nonpayable",
      "type": "function"
    },
    {
      "inputs": [
        {
          "internalType": "address",
          "name": "_operator",
          "type": "address"
        },
        {
          "internalType": "bool",
          "name": "_approved",
          "type": "bool"
        }
      ],
      "name": "setApproval",
      "outputs": [],
      "stateMutability": "nonpayable",
      "type": "function"
    },
    {
      "inputs": [
        {
          "internalType": "address",
          "name": "account",
          "type": "address"
        },
        {
          "internalType": "address",
          "name": "operator",
          "type": "address"
        }
      ],
      "name": "isApproved",
      "outputs": [
        {
          "internalType": "bool",
          "name": "",
          "type": "bool"
        }
      ],
      "stateMutability": "view",
      "type": "function",
      "constant": true
    },
    {
      "inputs": [
        {
          "internalType": "address",
          "name": "account",
          "type": "address"
        },
        {
          "internalType": "uint256",
          "name": "id",
          "type": "uint256"
        }
      ],
      "name": "getBalance",
      "outputs": [
        {
          "internalType": "uint256",
          "name": "",
          "type": "uint256"
        }
      ],
      "stateMutability": "view",
      "type": "function",
      "constant": true
    },
    {
      "inputs": [],
      "name": "getTotalMintedNFT",
      "outputs": [
        {
          "internalType": "uint256",
          "name": "",
          "type": "uint256"
        }
      ],
      "stateMutability": "view",
      "type": "function",
      "constant": true
    }
  ],
  "bytecode": "0x608060405234801561001057600080fd5b50615563806100206000396000f3fe608060405234801561001057600080fd5b50600436106101ef5760003560e01c8063837c59621161010f578063cef8cb87116100a2578063f102ffe511610071578063f102ffe51461058c578063f242432a146105a8578063f2fde38b146105c4578063fce55037146105e0576101ef565b8063cef8cb8714610504578063db9b717014610522578063e8a3d4851461053e578063e985e9c51461055c576101ef565b8063a389783e116100de578063a389783e14610492578063a90205a3146104c2578063b2cf2f16146104cc578063c92c9f14146104e8576101ef565b8063837c59621461041e57806386838fb61461044e5780638da5cb5b14610458578063a22cb46514610476576101ef565b80634e1273f4116101875780636877444f116101565780636877444f146103be578063715018a6146103da57806373376398146103e45780638129fc1c14610414576101ef565b80634e1273f4146103385780635374cf781461036857806355f804b3146103845780635c975abb146103a0576101ef565b80631cc509fd116101c35780631cc509fd146102a05780632b04e840146102bc5780632eb2c2d6146102ec5780633cfc7ae214610308576101ef565b8062fdd58e146101f457806301ffc9a7146102245780630e89341c14610254578063127217d614610284575b600080fd5b61020e6004803603810190610209919061409c565b6105fc565b60405161021b9190615008565b60405180910390f35b61023e60048036038101906102399190614193565b6106c6565b60405161024b9190614d2b565b60405180910390f35b61026e60048036038101906102699190614226565b6107a8565b60405161027b9190614d46565b60405180910390f35b61029e60048036038101906102999190613fd1565b61082a565b005b6102ba60048036038101906102b591906140d8565b61083e565b005b6102d660048036038101906102d1919061409c565b610927565b6040516102e39190615008565b60405180910390f35b61030660048036038101906103019190613f12565b61093b565b005b610322600480360381019061031d9190614226565b6109dc565b60405161032f9190614cd2565b60405180910390f35b610352600480360381019061034d9190614127565b610a47565b60405161035f9190614cd2565b60405180910390f35b610382600480360381019061037d919061424f565b610bf8565b005b61039e600480360381019061039991906141e5565b610c9f565b005b6103a8610d27565b6040516103b59190614d2b565b60405180910390f35b6103d860048036038101906103d391906142b6565b610d3e565b005b6103e2610e66565b005b6103fe60048036038101906103f99190614226565b610eee565b60405161040b9190614d46565b60405180910390f35b61041c610f00565b005b61043860048036038101906104339190614226565b61105e565b6040516104459190614d46565b60405180910390f35b610456611103565b005b610460611189565b60405161046d9190614bf5565b60405180910390f35b610490600480360381019061048b9190614060565b6111b3565b005b6104ac60048036038101906104a79190613ed6565b611334565b6040516104b99190614d2b565b60405180910390f35b6104ca611348565b005b6104e660048036038101906104e19190613f12565b6113ce565b005b61050260048036038101906104fd91906142b6565b6113e2565b005b61050c6116d3565b6040516105199190615008565b60405180910390f35b61053c60048036038101906105379190614060565b6116dd565b005b610546611767565b6040516105539190614d46565b60405180910390f35b61057660048036038101906105719190613ed6565b6117f9565b6040516105839190614d2b565b60405180910390f35b6105a660048036038101906105a1919061424f565b61188d565b005b6105c260048036038101906105bd9190613fd1565b611ad5565b005b6105de60048036038101906105d99190613ead565b611b76565b005b6105fa60048036038101906105f591906141e5565b611c6e565b005b60008073ffffffffffffffffffffffffffffffffffffffff168373ffffffffffffffffffffffffffffffffffffffff16141561066d576040517f08c379a000000000000000000000000000000000000000000000000000000000815260040161066490614de8565b60405180910390fd5b60c9600083815260200190815260200160002060008473ffffffffffffffffffffffffffffffffffffffff1673ffffffffffffffffffffffffffffffffffffffff16815260200190815260200160002054905092915050565b60007fd9b67a26000000000000000000000000000000000000000000000000000000007bffffffffffffffffffffffffffffffffffffffffffffffffffffffff1916827bffffffffffffffffffffffffffffffffffffffffffffffffffffffff1916148061079157507f0e89341c000000000000000000000000000000000000000000000000000000007bffffffffffffffffffffffffffffffffffffffffffffffffffffffff1916827bffffffffffffffffffffffffffffffffffffffffffffffffffffffff1916145b806107a157506107a082611d04565b5b9050919050565b60606107b26116d3565b8211156107f4576040517f08c379a00000000000000000000000000000000000000000000000000000000081526004016107eb90614e88565b60405180910390fd5b60006107ff83610eee565b9050600061080c8461105e565b90506108218183611d6e90919063ffffffff16565b92505050919050565b6108378585858585611ad5565b5050505050565b610846611fc7565b73ffffffffffffffffffffffffffffffffffffffff16610864611189565b73ffffffffffffffffffffffffffffffffffffffff16146108ba576040517f08c379a00000000000000000000000000000000000000000000000000000000081526004016108b190614f68565b60405180910390fd5b6108c5838383611fcf565b6040518060400160405280600381526020017f307830000000000000000000000000000000000000000000000000000000000081525060fc60008481526020019081526020016000209080519060200190610921929190613b1f565b50505050565b600061093383836105fc565b905092915050565b610943611fc7565b73ffffffffffffffffffffffffffffffffffffffff168573ffffffffffffffffffffffffffffffffffffffff161480610989575061098885610983611fc7565b6117f9565b5b6109c8576040517f08c379a00000000000000000000000000000000000000000000000000000000081526004016109bf90614ee8565b60405180910390fd5b6109d585858585856121ee565b5050505050565b606060fd6000838152602001908152602001600020805480602002602001604051908101604052809291908181526020018280548015610a3b57602002820191906000526020600020905b815481526020019060010190808311610a27575b50505050509050919050565b60608151835114610a8d576040517f08c379a0000000000000000000000000000000000000000000000000000000008152600401610a8490614fa8565b60405180910390fd5b6000835167ffffffffffffffff811115610ad0577f4e487b7100000000000000000000000000000000000000000000000000000000600052604160045260246000fd5b604051908082528060200260200182016040528015610afe5781602001602082028036833780820191505090505b50905060005b8451811015610bed57610b97858281518110610b49577f4e487b7100000000000000000000000000000000000000000000000000000000600052603260045260246000fd5b6020026020010151858381518110610b8a577f4e487b7100000000000000000000000000000000000000000000000000000000600052603260045260246000fd5b60200260200101516105fc565b828281518110610bd0577f4e487b7100000000000000000000000000000000000000000000000000000000600052603260045260246000fd5b60200260200101818152505080610be6906152e4565b9050610b04565b508091505092915050565b610c00611fc7565b73ffffffffffffffffffffffffffffffffffffffff16610c1e611189565b73ffffffffffffffffffffffffffffffffffffffff1614610c74576040517f08c379a0000000000000000000000000000000000000000000000000000000008152600401610c6b90614f68565b60405180910390fd5b610c828260fb548584612551565b60fb6000815480929190610c95906152e4565b9190505550505050565b610ca7611fc7565b73ffffffffffffffffffffffffffffffffffffffff16610cc5611189565b73ffffffffffffffffffffffffffffffffffffffff1614610d1b576040517f08c379a0000000000000000000000000000000000000000000000000000000008152600401610d1290614f68565b60405180910390fd5b610d24816126e8565b50565b6000603360009054906101000a900460ff16905090565b610d46611fc7565b73ffffffffffffffffffffffffffffffffffffffff16610d64611189565b73ffffffffffffffffffffffffffffffffffffffff1614610dba576040517f08c379a0000000000000000000000000000000000000000000000000000000008152600401610db190614f68565b60405180910390fd5b60fb548110610dfe576040517f08c379a0000000000000000000000000000000000000000000000000000000008152600401610df590614da8565b60405180910390fd5b610e0c8360fb548685612551565b60fd600082815260200190815260200160002060fb54908060018154018082558091505060019003906000526020600020016000909190919091505560fb6000815480929190610e5b906152e4565b919050555050505050565b610e6e611fc7565b73ffffffffffffffffffffffffffffffffffffffff16610e8c611189565b73ffffffffffffffffffffffffffffffffffffffff1614610ee2576040517f08c379a0000000000000000000000000000000000000000000000000000000008152600401610ed990614f68565b60405180910390fd5b610eec6000612702565b565b6060610ef9826127c8565b9050919050565b600060019054906101000a900460ff1680610f26575060008054906101000a900460ff16155b610f65576040517f08c379a0000000000000000000000000000000000000000000000000000000008152600401610f5c90614f08565b60405180910390fd5b60008060019054906101000a900460ff161590508015610fb5576001600060016101000a81548160ff02191690831515021790555060016000806101000a81548160ff0219169083151502179055505b610ff36040518060400160405280601581526020017f68747470733a2f2f697066732e696f2f697066732f000000000000000000000081525061285c565b610ffb61294f565b611003612a38565b600060fb819055506040518060800160405280604381526020016154eb6043913960fe9080519060200190611039929190613ba5565b50801561105b5760008060016101000a81548160ff0219169083151502179055505b50565b606060fc6000838152602001908152602001600020805461107e906152b2565b80601f01602080910402602001604051908101604052809291908181526020018280546110aa906152b2565b80156110f75780601f106110cc576101008083540402835291602001916110f7565b820191906000526020600020905b8154815290600101906020018083116110da57829003601f168201915b50505050509050919050565b61110b611fc7565b73ffffffffffffffffffffffffffffffffffffffff16611129611189565b73ffffffffffffffffffffffffffffffffffffffff161461117f576040517f08c379a000000000000000000000000000000000000000000000000000000000815260040161117690614f68565b60405180910390fd5b611187612b21565b565b6000606560009054906101000a900473ffffffffffffffffffffffffffffffffffffffff16905090565b8173ffffffffffffffffffffffffffffffffffffffff166111d2611fc7565b73ffffffffffffffffffffffffffffffffffffffff161415611229576040517f08c379a000000000000000000000000000000000000000000000000000000000815260040161122090614f88565b60405180910390fd5b8060ca6000611236611fc7565b73ffffffffffffffffffffffffffffffffffffffff1673ffffffffffffffffffffffffffffffffffffffff16815260200190815260200160002060008473ffffffffffffffffffffffffffffffffffffffff1673ffffffffffffffffffffffffffffffffffffffff16815260200190815260200160002060006101000a81548160ff0219169083151502179055508173ffffffffffffffffffffffffffffffffffffffff166112e3611fc7565b73ffffffffffffffffffffffffffffffffffffffff167f17307eab39ab6107e8899845ad3d59bd9653f200f220920489ca2b5937696c31836040516113289190614d2b565b60405180910390a35050565b600061134083836117f9565b905092915050565b611350611fc7565b73ffffffffffffffffffffffffffffffffffffffff1661136e611189565b73ffffffffffffffffffffffffffffffffffffffff16146113c4576040517f08c379a00000000000000000000000000000000000000000000000000000000081526004016113bb90614f68565b60405180910390fd5b6113cc612bc3565b565b6113db858585858561093b565b5050505050565b6113ea611fc7565b73ffffffffffffffffffffffffffffffffffffffff16611408611189565b73ffffffffffffffffffffffffffffffffffffffff161461145e576040517f08c379a000000000000000000000000000000000000000000000000000000000815260040161145590614f68565b60405180910390fd5b60fb54811061146c57600080fd5b60008467ffffffffffffffff8111156114ae577f4e487b7100000000000000000000000000000000000000000000000000000000600052604160045260246000fd5b6040519080825280602002602001820160405280156114dc5781602001602082028036833780820191505090505b50905060008567ffffffffffffffff811115611521577f4e487b7100000000000000000000000000000000000000000000000000000000600052604160045260246000fd5b60405190808252806020026020018201604052801561154f5781602001602082028036833780820191505090505b50905060005b8681101561160a578060fb5461156b91906151a6565b8382815181106115a4577f4e487b7100000000000000000000000000000000000000000000000000000000600052603260045260246000fd5b60200260200101818152505060018282815181106115eb577f4e487b7100000000000000000000000000000000000000000000000000000000600052603260045260246000fd5b6020026020010181815250508080611602906152e4565b915050611555565b5061161785838387612c66565b815160fb600082825461162a91906151a6565b9250508190555060005b82518110156116ca5760fd6000858152602001908152602001600020838281518110611689577f4e487b7100000000000000000000000000000000000000000000000000000000600052603260045260246000fd5b6020026020010151908060018154018082558091505060019003906000526020600020016000909190919091505580806116c2906152e4565b915050611634565b50505050505050565b600060fb54905090565b6116e5611fc7565b73ffffffffffffffffffffffffffffffffffffffff16611703611189565b73ffffffffffffffffffffffffffffffffffffffff1614611759576040517f08c379a000000000000000000000000000000000000000000000000000000000815260040161175090614f68565b60405180910390fd5b61176382826111b3565b5050565b606060fe8054611776906152b2565b80601f01602080910402602001604051908101604052809291908181526020018280546117a2906152b2565b80156117ef5780601f106117c4576101008083540402835291602001916117ef565b820191906000526020600020905b8154815290600101906020018083116117d257829003601f168201915b5050505050905090565b600060ca60008473ffffffffffffffffffffffffffffffffffffffff1673ffffffffffffffffffffffffffffffffffffffff16815260200190815260200160002060008373ffffffffffffffffffffffffffffffffffffffff1673ffffffffffffffffffffffffffffffffffffffff16815260200190815260200160002060009054906101000a900460ff16905092915050565b611895611fc7565b73ffffffffffffffffffffffffffffffffffffffff166118b3611189565b73ffffffffffffffffffffffffffffffffffffffff1614611909576040517f08c379a000000000000000000000000000000000000000000000000000000000815260040161190090614f68565b60405180910390fd5b60008367ffffffffffffffff81111561194b577f4e487b7100000000000000000000000000000000000000000000000000000000600052604160045260246000fd5b6040519080825280602002602001820160405280156119795781602001602082028036833780820191505090505b50905060008467ffffffffffffffff8111156119be577f4e487b7100000000000000000000000000000000000000000000000000000000600052604160045260246000fd5b6040519080825280602002602001820160405280156119ec5781602001602082028036833780820191505090505b50905060005b85811015611aa7578060fb54611a0891906151a6565b838281518110611a41577f4e487b7100000000000000000000000000000000000000000000000000000000600052603260045260246000fd5b6020026020010181815250506001828281518110611a88577f4e487b7100000000000000000000000000000000000000000000000000000000600052603260045260246000fd5b6020026020010181815250508080611a9f906152e4565b9150506119f2565b50611ab484838386612c66565b815160fb6000828254611ac791906151a6565b925050819055505050505050565b611add611fc7565b73ffffffffffffffffffffffffffffffffffffffff168573ffffffffffffffffffffffffffffffffffffffff161480611b235750611b2285611b1d611fc7565b6117f9565b5b611b62576040517f08c379a0000000000000000000000000000000000000000000000000000000008152600401611b5990614e68565b60405180910390fd5b611b6f8585858585612ed1565b5050505050565b611b7e611fc7565b73ffffffffffffffffffffffffffffffffffffffff16611b9c611189565b73ffffffffffffffffffffffffffffffffffffffff1614611bf2576040517f08c379a0000000000000000000000000000000000000000000000000000000008152600401611be990614f68565b60405180910390fd5b600073ffffffffffffffffffffffffffffffffffffffff168173ffffffffffffffffffffffffffffffffffffffff161415611c62576040517f08c379a0000000000000000000000000000000000000000000000000000000008152600401611c5990614e08565b60405180910390fd5b611c6b81612702565b50565b611c76611fc7565b73ffffffffffffffffffffffffffffffffffffffff16611c94611189565b73ffffffffffffffffffffffffffffffffffffffff1614611cea576040517f08c379a0000000000000000000000000000000000000000000000000000000008152600401611ce190614f68565b60405180910390fd5b8060fe9080519060200190611d00929190613ba5565b5050565b60007f01ffc9a7000000000000000000000000000000000000000000000000000000007bffffffffffffffffffffffffffffffffffffffffffffffffffffffff1916827bffffffffffffffffffffffffffffffffffffffffffffffffffffffff1916149050919050565b606060008390506000839050600081518351611d8a91906151a6565b67ffffffffffffffff811115611dc9577f4e487b7100000000000000000000000000000000000000000000000000000000600052604160045260246000fd5b6040519080825280601f01601f191660200182016040528015611dfb5781602001600182028036833780820191505090505b5090506000819050600080600091505b8551821015611edf57858281518110611e4d577f4e487b7100000000000000000000000000000000000000000000000000000000600052603260045260246000fd5b602001015160f81c60f81b838280611e64906152e4565b935081518110611e9d577f4e487b7100000000000000000000000000000000000000000000000000000000600052603260045260246000fd5b60200101907effffffffffffffffffffffffffffffffffffffffffffffffffffffffffffff1916908160001a9053508180611ed7906152e4565b925050611e0b565b600091505b8451821015611fb857848281518110611f26577f4e487b7100000000000000000000000000000000000000000000000000000000600052603260045260246000fd5b602001015160f81c60f81b838280611f3d906152e4565b935081518110611f76577f4e487b7100000000000000000000000000000000000000000000000000000000600052603260045260246000fd5b60200101907effffffffffffffffffffffffffffffffffffffffffffffffffffffffffffff1916908160001a9053508180611fb0906152e4565b925050611ee4565b82965050505050505092915050565b600033905090565b600073ffffffffffffffffffffffffffffffffffffffff168373ffffffffffffffffffffffffffffffffffffffff16141561203f576040517f08c379a000000000000000000000000000000000000000000000000000000000815260040161203690614f28565b60405180910390fd5b6000612049611fc7565b90506120798185600061205b87613156565b61206487613156565b6040518060200160405280600081525061321c565b600060c9600085815260200190815260200160002060008673ffffffffffffffffffffffffffffffffffffffff1673ffffffffffffffffffffffffffffffffffffffff16815260200190815260200160002054905082811015612111576040517f08c379a000000000000000000000000000000000000000000000000000000000815260040161210890614e28565b60405180910390fd5b82810360c9600086815260200190815260200160002060008773ffffffffffffffffffffffffffffffffffffffff1673ffffffffffffffffffffffffffffffffffffffff16815260200190815260200160002081905550600073ffffffffffffffffffffffffffffffffffffffff168573ffffffffffffffffffffffffffffffffffffffff168373ffffffffffffffffffffffffffffffffffffffff167fc3d58168c5ae7397731d063d5bbf3d657854427343f4c083240f7aacaa2d0f6287876040516121df929190615023565b60405180910390a45050505050565b8151835114612232576040517f08c379a000000000000000000000000000000000000000000000000000000000815260040161222990614fc8565b60405180910390fd5b600073ffffffffffffffffffffffffffffffffffffffff168473ffffffffffffffffffffffffffffffffffffffff1614156122a2576040517f08c379a000000000000000000000000000000000000000000000000000000000815260040161229990614ec8565b60405180910390fd5b60006122ac611fc7565b90506122bc81878787878761321c565b60005b84518110156124bc576000858281518110612303577f4e487b7100000000000000000000000000000000000000000000000000000000600052603260045260246000fd5b602002602001015190506000858381518110612348577f4e487b7100000000000000000000000000000000000000000000000000000000600052603260045260246000fd5b60200260200101519050600060c9600084815260200190815260200160002060008b73ffffffffffffffffffffffffffffffffffffffff1673ffffffffffffffffffffffffffffffffffffffff168152602001908152602001600020549050818110156123ea576040517f08c379a00000000000000000000000000000000000000000000000000000000081526004016123e190614f48565b60405180910390fd5b81810360c9600085815260200190815260200160002060008c73ffffffffffffffffffffffffffffffffffffffff1673ffffffffffffffffffffffffffffffffffffffff168152602001908152602001600020819055508160c9600085815260200190815260200160002060008b73ffffffffffffffffffffffffffffffffffffffff1673ffffffffffffffffffffffffffffffffffffffff16815260200190815260200160002060008282546124a191906151a6565b92505081905550505050806124b5906152e4565b90506122bf565b508473ffffffffffffffffffffffffffffffffffffffff168673ffffffffffffffffffffffffffffffffffffffff168273ffffffffffffffffffffffffffffffffffffffff167f4a39dc06d4c0dbc64b70af90fd698a233a518aa5d07e595d983b8c0526c8f7fb8787604051612533929190614cf4565b60405180910390a46125498187878787876132fa565b505050505050565b600073ffffffffffffffffffffffffffffffffffffffff168473ffffffffffffffffffffffffffffffffffffffff1614156125c1576040517f08c379a00000000000000000000000000000000000000000000000000000000081526004016125b890614fe8565b60405180910390fd5b60006125cb611fc7565b90506125ec816000876125dd88613156565b6125e688613156565b8761321c565b8260c9600086815260200190815260200160002060008773ffffffffffffffffffffffffffffffffffffffff1673ffffffffffffffffffffffffffffffffffffffff168152602001908152602001600020600082825461264c91906151a6565b925050819055508473ffffffffffffffffffffffffffffffffffffffff16600073ffffffffffffffffffffffffffffffffffffffff168273ffffffffffffffffffffffffffffffffffffffff167fc3d58168c5ae7397731d063d5bbf3d657854427343f4c083240f7aacaa2d0f6287876040516126ca929190615023565b60405180910390a46126e1816000878787876134ca565b5050505050565b8060cb90805190602001906126fe929190613ba5565b5050565b6000606560009054906101000a900473ffffffffffffffffffffffffffffffffffffffff16905081606560006101000a81548173ffffffffffffffffffffffffffffffffffffffff021916908373ffffffffffffffffffffffffffffffffffffffff1602179055508173ffffffffffffffffffffffffffffffffffffffff168173ffffffffffffffffffffffffffffffffffffffff167f8be0079c531659141344cd1fd0a4f28419497f9722a3daafe3b4186f6b6457e060405160405180910390a35050565b606060cb80546127d7906152b2565b80601f0160208091040260200160405190810160405280929190818152602001828054612803906152b2565b80156128505780601f1061282557610100808354040283529160200191612850565b820191906000526020600020905b81548152906001019060200180831161283357829003601f168201915b50505050509050919050565b600060019054906101000a900460ff1680612882575060008054906101000a900460ff16155b6128c1576040517f08c379a00000000000000000000000000000000000000000000000000000000081526004016128b890614f08565b60405180910390fd5b60008060019054906101000a900460ff161590508015612911576001600060016101000a81548160ff02191690831515021790555060016000806101000a81548160ff0219169083151502179055505b61291961369a565b612921613773565b61292a8261384c565b801561294b5760008060016101000a81548160ff0219169083151502179055505b5050565b600060019054906101000a900460ff1680612975575060008054906101000a900460ff16155b6129b4576040517f08c379a00000000000000000000000000000000000000000000000000000000081526004016129ab90614f08565b60405180910390fd5b60008060019054906101000a900460ff161590508015612a04576001600060016101000a81548160ff02191690831515021790555060016000806101000a81548160ff0219169083151502179055505b612a0c61369a565b612a1461392f565b8015612a355760008060016101000a81548160ff0219169083151502179055505b50565b600060019054906101000a900460ff1680612a5e575060008054906101000a900460ff16155b612a9d576040517f08c379a0000000000000000000000000000000000000000000000000000000008152600401612a9490614f08565b60405180910390fd5b60008060019054906101000a900460ff161590508015612aed576001600060016101000a81548160ff02191690831515021790555060016000806101000a81548160ff0219169083151502179055505b612af561369a565b612afd613a18565b8015612b1e5760008060016101000a81548160ff0219169083151502179055505b50565b612b29610d27565b612b68576040517f08c379a0000000000000000000000000000000000000000000000000000000008152600401612b5f90614dc8565b60405180910390fd5b6000603360006101000a81548160ff0219169083151502179055507f5db9ee0a495bf2e6ff9c91a7834c1ba4fdd244a5e8aa4e537bd38aeae4b073aa612bac611fc7565b604051612bb99190614bf5565b60405180910390a1565b612bcb610d27565b15612c0b576040517f08c379a0000000000000000000000000000000000000000000000000000000008152600401612c0290614ea8565b60405180910390fd5b6001603360006101000a81548160ff0219169083151502179055507f62e78cea01bee320cd4e420270b5ea74000d11b0c9f74754ebdbfc544b05a258612c4f611fc7565b604051612c5c9190614bf5565b60405180910390a1565b600073ffffffffffffffffffffffffffffffffffffffff168473ffffffffffffffffffffffffffffffffffffffff161415612cd6576040517f08c379a0000000000000000000000000000000000000000000000000000000008152600401612ccd90614fe8565b60405180910390fd5b8151835114612d1a576040517f08c379a0000000000000000000000000000000000000000000000000000000008152600401612d1190614fc8565b60405180910390fd5b6000612d24611fc7565b9050612d358160008787878761321c565b60005b8451811015612e3b57838181518110612d7a577f4e487b7100000000000000000000000000000000000000000000000000000000600052603260045260246000fd5b602002602001015160c96000878481518110612dbf577f4e487b7100000000000000000000000000000000000000000000000000000000600052603260045260246000fd5b6020026020010151815260200190815260200160002060008873ffffffffffffffffffffffffffffffffffffffff1673ffffffffffffffffffffffffffffffffffffffff1681526020019081526020016000206000828254612e2191906151a6565b925050819055508080612e33906152e4565b915050612d38565b508473ffffffffffffffffffffffffffffffffffffffff16600073ffffffffffffffffffffffffffffffffffffffff168273ffffffffffffffffffffffffffffffffffffffff167f4a39dc06d4c0dbc64b70af90fd698a233a518aa5d07e595d983b8c0526c8f7fb8787604051612eb3929190614cf4565b60405180910390a4612eca816000878787876132fa565b5050505050565b600073ffffffffffffffffffffffffffffffffffffffff168473ffffffffffffffffffffffffffffffffffffffff161415612f41576040517f08c379a0000000000000000000000000000000000000000000000000000000008152600401612f3890614ec8565b60405180910390fd5b6000612f4b611fc7565b9050612f6b818787612f5c88613156565b612f6588613156565b8761321c565b600060c9600086815260200190815260200160002060008873ffffffffffffffffffffffffffffffffffffffff1673ffffffffffffffffffffffffffffffffffffffff16815260200190815260200160002054905083811015613003576040517f08c379a0000000000000000000000000000000000000000000000000000000008152600401612ffa90614f48565b60405180910390fd5b83810360c9600087815260200190815260200160002060008973ffffffffffffffffffffffffffffffffffffffff1673ffffffffffffffffffffffffffffffffffffffff168152602001908152602001600020819055508360c9600087815260200190815260200160002060008873ffffffffffffffffffffffffffffffffffffffff1673ffffffffffffffffffffffffffffffffffffffff16815260200190815260200160002060008282546130ba91906151a6565b925050819055508573ffffffffffffffffffffffffffffffffffffffff168773ffffffffffffffffffffffffffffffffffffffff168373ffffffffffffffffffffffffffffffffffffffff167fc3d58168c5ae7397731d063d5bbf3d657854427343f4c083240f7aacaa2d0f628888604051613137929190615023565b60405180910390a461314d8288888888886134ca565b50505050505050565b60606000600167ffffffffffffffff81111561319b577f4e487b7100000000000000000000000000000000000000000000000000000000600052604160045260246000fd5b6040519080825280602002602001820160405280156131c95781602001602082028036833780820191505090505b5090508281600081518110613207577f4e487b7100000000000000000000000000000000000000000000000000000000600052603260045260246000fd5b60200260200101818152505080915050919050565b60008351905060005b818110156132a8578260fc600087848151811061326b577f4e487b7100000000000000000000000000000000000000000000000000000000600052603260045260246000fd5b602002602001015181526020019081526020016000209080519060200190613294929190613b1f565b5080806132a0906152e4565b915050613225565b506132b1610d27565b156132f1576040517f08c379a00000000000000000000000000000000000000000000000000000000081526004016132e890614e48565b60405180910390fd5b50505050505050565b6133198473ffffffffffffffffffffffffffffffffffffffff16613b0c565b156134c2578373ffffffffffffffffffffffffffffffffffffffff1663bc197c8187878686866040518663ffffffff1660e01b815260040161335f959493929190614c10565b602060405180830381600087803b15801561337957600080fd5b505af19250505080156133aa57506040513d601f19601f820116820180604052508101906133a791906141bc565b60015b613439576133b66153d8565b806133c157506133fe565b806040517f08c379a00000000000000000000000000000000000000000000000000000000081526004016133f59190614d46565b60405180910390fd5b6040517f08c379a000000000000000000000000000000000000000000000000000000000815260040161343090614d68565b60405180910390fd5b63bc197c8160e01b7bffffffffffffffffffffffffffffffffffffffffffffffffffffffff1916817bffffffffffffffffffffffffffffffffffffffffffffffffffffffff1916146134c0576040517f08c379a00000000000000000000000000000000000000000000000000000000081526004016134b790614d88565b60405180910390fd5b505b505050505050565b6134e98473ffffffffffffffffffffffffffffffffffffffff16613b0c565b15613692578373ffffffffffffffffffffffffffffffffffffffff1663f23a6e6187878686866040518663ffffffff1660e01b815260040161352f959493929190614c78565b602060405180830381600087803b15801561354957600080fd5b505af192505050801561357a57506040513d601f19601f8201168201806040525081019061357791906141bc565b60015b613609576135866153d8565b8061359157506135ce565b806040517f08c379a00000000000000000000000000000000000000000000000000000000081526004016135c59190614d46565b60405180910390fd5b6040517f08c379a000000000000000000000000000000000000000000000000000000000815260040161360090614d68565b60405180910390fd5b63f23a6e6160e01b7bffffffffffffffffffffffffffffffffffffffffffffffffffffffff1916817bffffffffffffffffffffffffffffffffffffffffffffffffffffffff191614613690576040517f08c379a000000000000000000000000000000000000000000000000000000000815260040161368790614d88565b60405180910390fd5b505b505050505050565b600060019054906101000a900460ff16806136c0575060008054906101000a900460ff16155b6136ff576040517f08c379a00000000000000000000000000000000000000000000000000000000081526004016136f690614f08565b60405180910390fd5b60008060019054906101000a900460ff16159050801561374f576001600060016101000a81548160ff02191690831515021790555060016000806101000a81548160ff0219169083151502179055505b80156137705760008060016101000a81548160ff0219169083151502179055505b50565b600060019054906101000a900460ff1680613799575060008054906101000a900460ff16155b6137d8576040517f08c379a00000000000000000000000000000000000000000000000000000000081526004016137cf90614f08565b60405180910390fd5b60008060019054906101000a900460ff161590508015613828576001600060016101000a81548160ff02191690831515021790555060016000806101000a81548160ff0219169083151502179055505b80156138495760008060016101000a81548160ff0219169083151502179055505b50565b600060019054906101000a900460ff1680613872575060008054906101000a900460ff16155b6138b1576040517f08c379a00000000000000000000000000000000000000000000000000000000081526004016138a890614f08565b60405180910390fd5b60008060019054906101000a900460ff161590508015613901576001600060016101000a81548160ff02191690831515021790555060016000806101000a81548160ff0219169083151502179055505b61390a826126e8565b801561392b5760008060016101000a81548160ff0219169083151502179055505b5050565b600060019054906101000a900460ff1680613955575060008054906101000a900460ff16155b613994576040517f08c379a000000000000000000000000000000000000000000000000000000000815260040161398b90614f08565b60405180910390fd5b60008060019054906101000a900460ff1615905080156139e4576001600060016101000a81548160ff02191690831515021790555060016000806101000a81548160ff0219169083151502179055505b6139f46139ef611fc7565b612702565b8015613a155760008060016101000a81548160ff0219169083151502179055505b50565b600060019054906101000a900460ff1680613a3e575060008054906101000a900460ff16155b613a7d576040517f08c379a0000000000000000000000000000000000000000000000000000000008152600401613a7490614f08565b60405180910390fd5b60008060019054906101000a900460ff161590508015613acd576001600060016101000a81548160ff02191690831515021790555060016000806101000a81548160ff0219169083151502179055505b6000603360006101000a81548160ff0219169083151502179055508015613b095760008060016101000a81548160ff0219169083151502179055505b50565b600080823b905060008111915050919050565b828054613b2b906152b2565b90600052602060002090601f016020900481019282613b4d5760008555613b94565b82601f10613b6657805160ff1916838001178555613b94565b82800160010185558215613b94579182015b82811115613b93578251825591602001919060010190613b78565b5b509050613ba19190613c2b565b5090565b828054613bb1906152b2565b90600052602060002090601f016020900481019282613bd35760008555613c1a565b82601f10613bec57805160ff1916838001178555613c1a565b82800160010185558215613c1a579182015b82811115613c19578251825591602001919060010190613bfe565b5b509050613c279190613c2b565b5090565b5b80821115613c44576000816000905550600101613c2c565b5090565b6000613c5b613c568461507d565b61504c565b90508083825260208201905082856020860282011115613c7a57600080fd5b60005b85811015613caa5781613c908882613d9c565b845260208401935060208301925050600181019050613c7d565b5050509392505050565b6000613cc7613cc2846150a9565b61504c565b90508083825260208201905082856020860282011115613ce657600080fd5b60005b85811015613d165781613cfc8882613e98565b845260208401935060208301925050600181019050613ce9565b5050509392505050565b6000613d33613d2e846150d5565b61504c565b905082815260208101848484011115613d4b57600080fd5b613d56848285615270565b509392505050565b6000613d71613d6c84615105565b61504c565b905082815260208101848484011115613d8957600080fd5b613d94848285615270565b509392505050565b600081359050613dab8161548e565b92915050565b600082601f830112613dc257600080fd5b8135613dd2848260208601613c48565b91505092915050565b600082601f830112613dec57600080fd5b8135613dfc848260208601613cb4565b91505092915050565b600081359050613e14816154a5565b92915050565b600081359050613e29816154bc565b92915050565b600081519050613e3e816154bc565b92915050565b600082601f830112613e5557600080fd5b8135613e65848260208601613d20565b91505092915050565b600082601f830112613e7f57600080fd5b8135613e8f848260208601613d5e565b91505092915050565b600081359050613ea7816154d3565b92915050565b600060208284031215613ebf57600080fd5b6000613ecd84828501613d9c565b91505092915050565b60008060408385031215613ee957600080fd5b6000613ef785828601613d9c565b9250506020613f0885828601613d9c565b9150509250929050565b600080600080600060a08688031215613f2a57600080fd5b6000613f3888828901613d9c565b9550506020613f4988828901613d9c565b945050604086013567ffffffffffffffff811115613f6657600080fd5b613f7288828901613ddb565b935050606086013567ffffffffffffffff811115613f8f57600080fd5b613f9b88828901613ddb565b925050608086013567ffffffffffffffff811115613fb857600080fd5b613fc488828901613e44565b9150509295509295909350565b600080600080600060a08688031215613fe957600080fd5b6000613ff788828901613d9c565b955050602061400888828901613d9c565b945050604061401988828901613e98565b935050606061402a88828901613e98565b925050608086013567ffffffffffffffff81111561404757600080fd5b61405388828901613e44565b9150509295509295909350565b6000806040838503121561407357600080fd5b600061408185828601613d9c565b925050602061409285828601613e05565b9150509250929050565b600080604083850312156140af57600080fd5b60006140bd85828601613d9c565b92505060206140ce85828601613e98565b9150509250929050565b6000806000606084860312156140ed57600080fd5b60006140fb86828701613d9c565b935050602061410c86828701613e98565b925050604061411d86828701613e98565b9150509250925092565b6000806040838503121561413a57600080fd5b600083013567ffffffffffffffff81111561415457600080fd5b61416085828601613db1565b925050602083013567ffffffffffffffff81111561417d57600080fd5b61418985828601613ddb565b9150509250929050565b6000602082840312156141a557600080fd5b60006141b384828501613e1a565b91505092915050565b6000602082840312156141ce57600080fd5b60006141dc84828501613e2f565b91505092915050565b6000602082840312156141f757600080fd5b600082013567ffffffffffffffff81111561421157600080fd5b61421d84828501613e6e565b91505092915050565b60006020828403121561423857600080fd5b600061424684828501613e98565b91505092915050565b60008060006060848603121561426457600080fd5b600061427286828701613e98565b935050602061428386828701613d9c565b925050604084013567ffffffffffffffff8111156142a057600080fd5b6142ac86828701613e44565b9150509250925092565b600080600080608085870312156142cc57600080fd5b60006142da87828801613e98565b94505060206142eb87828801613d9c565b935050604085013567ffffffffffffffff81111561430857600080fd5b61431487828801613e44565b925050606061432587828801613e98565b91505092959194509250565b600061433d8383614bd7565b60208301905092915050565b614352816151fc565b82525050565b600061436382615145565b61436d8185615173565b935061437883615135565b8060005b838110156143a95781516143908882614331565b975061439b83615166565b92505060018101905061437c565b5085935050505092915050565b6143bf8161520e565b82525050565b60006143d082615150565b6143da8185615184565b93506143ea81856020860161527f565b6143f3816153ba565b840191505092915050565b60006144098261515b565b6144138185615195565b935061442381856020860161527f565b61442c816153ba565b840191505092915050565b6000614444603483615195565b91507f455243313135353a207472616e7366657220746f206e6f6e204552433131353560008301527f526563656976657220696d706c656d656e7465720000000000000000000000006020830152604082019050919050565b60006144aa602883615195565b91507f455243313135353a204552433131353552656365697665722072656a6563746560008301527f6420746f6b656e730000000000000000000000000000000000000000000000006020830152604082019050919050565b6000614510601c83615195565b91507f506172656e7420746f6b656e206964206973206e6f742076616c6964000000006000830152602082019050919050565b6000614550601483615195565b91507f5061757361626c653a206e6f74207061757365640000000000000000000000006000830152602082019050919050565b6000614590602b83615195565b91507f455243313135353a2062616c616e636520717565727920666f7220746865207a60008301527f65726f20616464726573730000000000000000000000000000000000000000006020830152604082019050919050565b60006145f6602683615195565b91507f4f776e61626c653a206e6577206f776e657220697320746865207a65726f206160008301527f64647265737300000000000000000000000000000000000000000000000000006020830152604082019050919050565b600061465c602483615195565b91507f455243313135353a206275726e20616d6f756e7420657863656564732062616c60008301527f616e6365000000000000000000000000000000000000000000000000000000006020830152604082019050919050565b60006146c2602c83615195565b91507f455243313135355061757361626c653a20746f6b656e207472616e736665722060008301527f7768696c652070617573656400000000000000000000000000000000000000006020830152604082019050919050565b6000614728602983615195565b91507f455243313135353a2063616c6c6572206973206e6f74206f776e6572206e6f7260008301527f20617070726f76656400000000000000000000000000000000000000000000006020830152604082019050919050565b600061478e601783615195565b91507f237572693a204e4f4e4558495354454e545f544f4b454e0000000000000000006000830152602082019050919050565b60006147ce601083615195565b91507f5061757361626c653a20706175736564000000000000000000000000000000006000830152602082019050919050565b600061480e602583615195565b91507f455243313135353a207472616e7366657220746f20746865207a65726f20616460008301527f64726573730000000000000000000000000000000000000000000000000000006020830152604082019050919050565b6000614874603283615195565b91507f455243313135353a207472616e736665722063616c6c6572206973206e6f742060008301527f6f776e6572206e6f7220617070726f76656400000000000000000000000000006020830152604082019050919050565b60006148da602e83615195565b91507f496e697469616c697a61626c653a20636f6e747261637420697320616c72656160008301527f647920696e697469616c697a65640000000000000000000000000000000000006020830152604082019050919050565b6000614940602383615195565b91507f455243313135353a206275726e2066726f6d20746865207a65726f206164647260008301527f65737300000000000000000000000000000000000000000000000000000000006020830152604082019050919050565b60006149a6602a83615195565b91507f455243313135353a20696e73756666696369656e742062616c616e636520666f60008301527f72207472616e73666572000000000000000000000000000000000000000000006020830152604082019050919050565b6000614a0c602083615195565b91507f4f776e61626c653a2063616c6c6572206973206e6f7420746865206f776e65726000830152602082019050919050565b6000614a4c602983615195565b91507f455243313135353a2073657474696e6720617070726f76616c2073746174757360008301527f20666f722073656c6600000000000000000000000000000000000000000000006020830152604082019050919050565b6000614ab2602983615195565b91507f455243313135353a206163636f756e747320616e6420696473206c656e67746860008301527f206d69736d6174636800000000000000000000000000000000000000000000006020830152604082019050919050565b6000614b18602883615195565b91507f455243313135353a2069647320616e6420616d6f756e7473206c656e6774682060008301527f6d69736d617463680000000000000000000000000000000000000000000000006020830152604082019050919050565b6000614b7e602183615195565b91507f455243313135353a206d696e7420746f20746865207a65726f2061646472657360008301527f73000000000000000000000000000000000000000000000000000000000000006020830152604082019050919050565b614be081615266565b82525050565b614bef81615266565b82525050565b6000602082019050614c0a6000830184614349565b92915050565b600060a082019050614c256000830188614349565b614c326020830187614349565b8181036040830152614c448186614358565b90508181036060830152614c588185614358565b90508181036080830152614c6c81846143c5565b90509695505050505050565b600060a082019050614c8d6000830188614349565b614c9a6020830187614349565b614ca76040830186614be6565b614cb46060830185614be6565b8181036080830152614cc681846143c5565b90509695505050505050565b60006020820190508181036000830152614cec8184614358565b905092915050565b60006040820190508181036000830152614d0e8185614358565b90508181036020830152614d228184614358565b90509392505050565b6000602082019050614d4060008301846143b6565b92915050565b60006020820190508181036000830152614d6081846143fe565b905092915050565b60006020820190508181036000830152614d8181614437565b9050919050565b60006020820190508181036000830152614da18161449d565b9050919050565b60006020820190508181036000830152614dc181614503565b9050919050565b60006020820190508181036000830152614de181614543565b9050919050565b60006020820190508181036000830152614e0181614583565b9050919050565b60006020820190508181036000830152614e21816145e9565b9050919050565b60006020820190508181036000830152614e418161464f565b9050919050565b60006020820190508181036000830152614e61816146b5565b9050919050565b60006020820190508181036000830152614e818161471b565b9050919050565b60006020820190508181036000830152614ea181614781565b9050919050565b60006020820190508181036000830152614ec1816147c1565b9050919050565b60006020820190508181036000830152614ee181614801565b9050919050565b60006020820190508181036000830152614f0181614867565b9050919050565b60006020820190508181036000830152614f21816148cd565b9050919050565b60006020820190508181036000830152614f4181614933565b9050919050565b60006020820190508181036000830152614f6181614999565b9050919050565b60006020820190508181036000830152614f81816149ff565b9050919050565b60006020820190508181036000830152614fa181614a3f565b9050919050565b60006020820190508181036000830152614fc181614aa5565b9050919050565b60006020820190508181036000830152614fe181614b0b565b9050919050565b6000602082019050818103600083015261500181614b71565b9050919050565b600060208201905061501d6000830184614be6565b92915050565b60006040820190506150386000830185614be6565b6150456020830184614be6565b9392505050565b6000604051905081810181811067ffffffffffffffff821117156150735761507261538b565b5b8060405250919050565b600067ffffffffffffffff8211156150985761509761538b565b5b602082029050602081019050919050565b600067ffffffffffffffff8211156150c4576150c361538b565b5b602082029050602081019050919050565b600067ffffffffffffffff8211156150f0576150ef61538b565b5b601f19601f8301169050602081019050919050565b600067ffffffffffffffff8211156151205761511f61538b565b5b601f19601f8301169050602081019050919050565b6000819050602082019050919050565b600081519050919050565b600081519050919050565b600081519050919050565b6000602082019050919050565b600082825260208201905092915050565b600082825260208201905092915050565b600082825260208201905092915050565b60006151b182615266565b91506151bc83615266565b9250827fffffffffffffffffffffffffffffffffffffffffffffffffffffffffffffffff038211156151f1576151f061532d565b5b828201905092915050565b600061520782615246565b9050919050565b60008115159050919050565b60007fffffffff0000000000000000000000000000000000000000000000000000000082169050919050565b600073ffffffffffffffffffffffffffffffffffffffff82169050919050565b6000819050919050565b82818337600083830152505050565b60005b8381101561529d578082015181840152602081019050615282565b838111156152ac576000848401525b50505050565b600060028204905060018216806152ca57607f821691505b602082108114156152de576152dd61535c565b5b50919050565b60006152ef82615266565b91507fffffffffffffffffffffffffffffffffffffffffffffffffffffffffffffffff8214156153225761532161532d565b5b600182019050919050565b7f4e487b7100000000000000000000000000000000000000000000000000000000600052601160045260246000fd5b7f4e487b7100000000000000000000000000000000000000000000000000000000600052602260045260246000fd5b7f4e487b7100000000000000000000000000000000000000000000000000000000600052604160045260246000fd5b6000601f19601f8301169050919050565b60008160e01c9050919050565b600060443d10156153e85761548b565b60046000803e6153f96000516153cb565b6308c379a0811461540a575061548b565b60405160043d036004823e80513d602482011167ffffffffffffffff821117156154365750505061548b565b808201805167ffffffffffffffff81111561545557505050505061548b565b8060208301013d85018111156154705750505050505061548b565b615479826153ba565b60208401016040528296505050505050505b90565b615497816151fc565b81146154a257600080fd5b50565b6154ae8161520e565b81146154b957600080fd5b50565b6154c58161521a565b81146154d057600080fd5b50565b6154dc81615266565b81146154e757600080fd5b5056fe68747470733a2f2f697066732e696f2f697066732f516d5533474c373447435774586a7277454446756d5670764656324b7944717a3965624e36646339454554417135a26469706673582212205b8bbca0867164a773a75a36bba6e3eab0031333d98b01e6884f6b8544a6ad7164736f6c63430008000033",
  "immutableReferences": {},
  "source": "// SPDX-License-Identifier: MIT\npragma solidity ^0.8.0;\n\n\nimport \"@openzeppelin/contracts-upgradeable/token/ERC1155/ERC1155Upgradeable.sol\";\nimport \"@openzeppelin/contracts-upgradeable/security/PausableUpgradeable.sol\";\nimport \"@openzeppelin/contracts-upgradeable/access/OwnableUpgradeable.sol\";\nimport \"@openzeppelin/contracts-upgradeable/proxy/utils/Initializable.sol\";\nimport \"./strings.sol\";\n\ncontract Onec is Initializable,PausableUpgradeable, OwnableUpgradeable, ERC1155Upgradeable {\n\n    using Strings for string;\n\n    uint private NFTCounter;\n    // token-id to metadata hash\n    mapping(uint256 => bytes) private metadataHash;\n    // tokenIds to refTokenIds\n    mapping(uint256 => uint256[]) private references;\n\n    string private contractMetadata;\n\n    function initialize() public initializer {\n        ERC1155Upgradeable.__ERC1155_init(\"https://ipfs.io/ipfs/\");\n        OwnableUpgradeable.__Ownable_init();\n        PausableUpgradeable.__Pausable_init();\n        NFTCounter = 0;\n        contractMetadata = \"https://ipfs.io/ipfs/QmU3GL74GCWtXjrwEDFumVpvFV2KyDqz9ebN6dc9EETAq5\";\n    }\n\n     /*\n     * @dev Returns the contract URI to make it trackable at OpenSea.\n     */   \n    function contractURI() public view returns (string memory) {\n        return contractMetadata;\n    }\n\n     /*\n     * @dev Sets the contract URI to make it trackable at OpenSea.\n     @params _metadata: The URL for the contract's OpenSea metadata.\n     */  \n    function setContractMetadata(string memory _metadata) public onlyOwner {\n        contractMetadata = _metadata;\n    }\n\n    /*\n     * @dev Mints NFT to the address of _holder.\n     * @params _supply:total no. of NFTs to mint\n     * _holder:public address of the account to mint NFT on that.\n     * _data: metadata hash of the NFT.\n     * Requirements:\n     * Can only be called by the deployer of the smart contract.\n     */\n    function mintNFT(uint _supply, address _holder, bytes memory _data) public onlyOwner{\n        _mint(_holder, NFTCounter, _supply, _data);\n        NFTCounter++;        \n    }\n\n    /*\n     * @dev Mints Reference  to the address of _holder.\n     * @params _supply: total no. of NFTs to mint\n     * _holder: public address of the account to mint NFT on that.\n     * _data: metadata hash of the NFT.\n     * _parentTokenId: the token id of the NFT of which you are minting the references.\n     * Requirements:\n     * Can only be called by the deployer of the smart contract.\n     */\n    function mintRefNFT(uint256 _supply, address _holder, bytes memory _data,uint256 _parentTokenId) public onlyOwner {\n        require(_parentTokenId < NFTCounter, \"Parent token id is not valid\");\n        _mint(_holder, NFTCounter, _supply, _data);\n        references[_parentTokenId].push(NFTCounter);\n        NFTCounter++;\n    }\n\n    /*\n     * @dev Batch-Mints NFTs to the address of _holder.\n     * @params _supply:total no. of service/NFT to mint\n     * _holder:public address of the account to mint service/NFT on that.\n     * _data metadata hash of the service/NFT.\n     * Requirements:\n     * Can only be called by the deployer of the smart contract.\n     */\n    function batchMintNFT(uint _supply,address _holder, bytes memory _data) public onlyOwner {\n        //create ids array\n        uint[] memory _ids = new uint[](_supply);\n        uint[] memory _amounts = new uint[](_supply);\n        for(uint i=0;i<_supply;i++){\n            _ids[i]=NFTCounter+i;\n            _amounts[i]=1;\n        }\n        //create amount array\n        _mintBatch(_holder,_ids,_amounts,_data);\n        NFTCounter+=_ids.length;\n    }\n\n    /*\n     * @dev Batch Mints Reference NFTs to the address of _holder.\n     * @params _supply:total no. of service/NFT to mint\n     * _holder:public address of the account to mint service/NFT on that.\n     * _data: metadata hash of the service/NFT.\n     * _parentTokenId: the token id of the service/NFT of which you are minting the references.\n     * Requirements:\n     * Can only be called by the deployer of the smart contract.\n     */\n    function batchMintRefNFT(uint _supply,address _holder, bytes memory _data,uint _parentTokenId) public onlyOwner {\n        //create ids array\n        require(_parentTokenId < NFTCounter);\n        uint[] memory _ids = new uint[](_supply);\n        uint[] memory _amounts = new uint[](_supply);\n        for(uint i=0;i<_supply;i++){\n            _ids[i]=NFTCounter+i;\n            _amounts[i]=1;\n        }\n        //create amount array\n        _mintBatch(_holder,_ids,_amounts,_data);\n        NFTCounter+=_ids.length;\n        for(uint i=0;i<_ids.length;i++){\n            references[_parentTokenId].push(_ids[i]);\n        }\n    }\n    \n    /*\n     * @dev return the list of token-ids of all the reference service tokens\n     */\n    function getReferences(uint _id) public view returns(uint256[] memory) {\n        return references[_id];    \n    }\n    \n    /*\n     *@dev Called before every token transfer, maps the metadataHash of a service/NFT with the token id  \n     */\n    function _beforeTokenTransfer(address _operator, address _from, address _to, uint256[] memory ids, uint256[] memory amount, bytes memory data) override internal {\n        //save the metadata hash\n        uint arrayLength = ids.length;\n        for (uint i=0; i<arrayLength; i++) {\n            metadataHash[ids[i]] = data;\n        }\n        require(!paused(), \"ERC1155Pausable: token transfer while paused\");\n    }\n\n    /*\n     * @dev returns the metaDataHash for the token-ID\n     */\n\n    function getTokenMetadataHash(uint256 _id) view public returns(string memory) {\n        return string(metadataHash[_id]);\n    }\n\n     /*\n      * @dev returns the baseURI.\n      * Doesn't depends on the token-id and returns same thing.\n      */\n    function getBaseURI(uint256 _id) view public returns(string memory) {\n        return super.uri(_id);\n    }\n\n    function setBaseURI(string memory _baseURI) public onlyOwner{\n        super._setURI(_baseURI);\n    }\n\n     /*\n      * @dev returns the tokenURI.\n      * Depends on the token-id and returns same thing.\n      */\n    function uri(uint256 _id) public view override returns (string memory) {\n        require(_id<=getTotalMintedNFT(), \"#uri: NONEXISTENT_TOKEN\");\n        string memory baseURI = getBaseURI(_id);\n        string memory hash = getTokenMetadataHash(_id);\n        return baseURI.concat(string(hash));\n    }\n\n     /*\n      * @dev Tranfers the service/NFT to new address.\n      * Can be called by the service/NFT holder.\n      */\n    function transfer(address _from,address _to, uint256 _id, uint256 _amount, bytes memory _data) public {\n        super.safeTransferFrom(_from, _to, _id, _amount, _data);\n    }\n\n     /*\n      * @dev Batch tranfers the services/NFTs to new address.\n      * Can be called by the service/NFT holder.\n      */\n    function batchTransfer(address _from,address _to,uint256[] memory _ids,uint256[] memory _amounts,bytes memory _data) public {\n        super.safeBatchTransferFrom(_from,_to,_ids,_amounts,_data);\n    }\n\n    /*\n     * @dev pause the onec contract.\n     */\n    function makePause() public onlyOwner {\n        super._pause();\n    }\n\n    /*\n     * @dev un-pause the onec contract.\n     */\n    function makeUnpause() public onlyOwner{\n        super._unpause();\n    } \n\n    /*\n     * @dev Burns the token with the given tokenid.\n     */\n    function burnNFT(address account,uint256 id,uint256 amount) public onlyOwner{\n        super._burn(account,id,amount);\n        metadataHash[id]=bytes(\"0x0\");\n    }\n    \n    /*\n     * @dev Sets approval to the operator to manage service/NFT held by the caller of the function.\n     */\n    function setApproval(address _operator, bool _approved) public onlyOwner{\n        super.setApprovalForAll(_operator,_approved);\n    }\n\n    /*\n     * @dev Give status of the approval rights, if the operator can manage service/NFT held by the account.\n     */\n    function isApproved(address account, address operator) public view returns(bool){\n        return super.isApprovedForAll(account,operator);\n    }\n    \n    /*\n     * @dev Gives the balance of a particular service/NFT of given id held by an account.\n     */\n    function getBalance(address account, uint256 id) public view returns(uint256){\n        return super.balanceOf(account,id);\n    }\n\n    /*    \n     * @dev Returns the total minted NFTs by the contract.\n     */\n    function getTotalMintedNFT() public view returns(uint256){\n        return NFTCounter;\n    }\n    \n\n}",
  "sourcePath": "/Users/hrishabhsharma/Projects/core-contract/contracts/Onec.sol",
  "compiler": {
    "name": "solc",
    "version": "0.8.0+commit.c7dfd78e.Emscripten.clang"
  },
  "schemaVersion": "3.4.3",
  "updatedAt": "2022-01-06T19:01:21.129Z",
  "networkType": "ethereum",
  "devdoc": {
    "kind": "dev",
    "methods": {
      "balanceOf(address,uint256)": {
        "details": "See {IERC1155-balanceOf}. Requirements: - `account` cannot be the zero address."
      },
      "balanceOfBatch(address[],uint256[])": {
        "details": "See {IERC1155-balanceOfBatch}. Requirements: - `accounts` and `ids` must have the same length."
      },
      "isApprovedForAll(address,address)": {
        "details": "See {IERC1155-isApprovedForAll}."
      },
      "owner()": {
        "details": "Returns the address of the current owner."
      },
      "paused()": {
        "details": "Returns true if the contract is paused, and false otherwise."
      },
      "renounceOwnership()": {
        "details": "Leaves the contract without owner. It will not be possible to call `onlyOwner` functions anymore. Can only be called by the current owner. NOTE: Renouncing ownership will leave the contract without an owner, thereby removing any functionality that is only available to the owner."
      },
      "safeBatchTransferFrom(address,address,uint256[],uint256[],bytes)": {
        "details": "See {IERC1155-safeBatchTransferFrom}."
      },
      "safeTransferFrom(address,address,uint256,uint256,bytes)": {
        "details": "See {IERC1155-safeTransferFrom}."
      },
      "setApprovalForAll(address,bool)": {
        "details": "See {IERC1155-setApprovalForAll}."
      },
      "supportsInterface(bytes4)": {
        "details": "See {IERC165-supportsInterface}."
      },
      "transferOwnership(address)": {
        "details": "Transfers ownership of the contract to a new account (`newOwner`). Can only be called by the current owner."
      }
    },
    "version": 1
  },
  "userdoc": {
    "kind": "user",
    "methods": {},
    "version": 1
  }
}