{
  "contractName": "Onec",
  "abi": [
    {
      "anonymous": false,
      "inputs": [
        {
          "indexed": true,
          "internalType": "address",
          "name": "account",
          "type": "address"
        },
        {
          "indexed": true,
          "internalType": "address",
          "name": "operator",
          "type": "address"
        },
        {
          "indexed": false,
          "internalType": "bool",
          "name": "approved",
          "type": "bool"
        }
      ],
      "name": "ApprovalForAll",
      "type": "event"
    },
    {
      "anonymous": false,
      "inputs": [
        {
          "indexed": true,
          "internalType": "address",
          "name": "previousOwner",
          "type": "address"
        },
        {
          "indexed": true,
          "internalType": "address",
          "name": "newOwner",
          "type": "address"
        }
      ],
      "name": "OwnershipTransferred",
      "type": "event"
    },
    {
      "anonymous": false,
      "inputs": [
        {
          "indexed": false,
          "internalType": "address",
          "name": "account",
          "type": "address"
        }
      ],
      "name": "Paused",
      "type": "event"
    },
    {
      "anonymous": false,
      "inputs": [
        {
          "indexed": true,
          "internalType": "address",
          "name": "operator",
          "type": "address"
        },
        {
          "indexed": true,
          "internalType": "address",
          "name": "from",
          "type": "address"
        },
        {
          "indexed": true,
          "internalType": "address",
          "name": "to",
          "type": "address"
        },
        {
          "indexed": false,
          "internalType": "uint256[]",
          "name": "ids",
          "type": "uint256[]"
        },
        {
          "indexed": false,
          "internalType": "uint256[]",
          "name": "values",
          "type": "uint256[]"
        }
      ],
      "name": "TransferBatch",
      "type": "event"
    },
    {
      "anonymous": false,
      "inputs": [
        {
          "indexed": true,
          "internalType": "address",
          "name": "operator",
          "type": "address"
        },
        {
          "indexed": true,
          "internalType": "address",
          "name": "from",
          "type": "address"
        },
        {
          "indexed": true,
          "internalType": "address",
          "name": "to",
          "type": "address"
        },
        {
          "indexed": false,
          "internalType": "uint256",
          "name": "id",
          "type": "uint256"
        },
        {
          "indexed": false,
          "internalType": "uint256",
          "name": "value",
          "type": "uint256"
        }
      ],
      "name": "TransferSingle",
      "type": "event"
    },
    {
      "anonymous": false,
      "inputs": [
        {
          "indexed": false,
          "internalType": "string",
          "name": "value",
          "type": "string"
        },
        {
          "indexed": true,
          "internalType": "uint256",
          "name": "id",
          "type": "uint256"
        }
      ],
      "name": "URI",
      "type": "event"
    },
    {
      "anonymous": false,
      "inputs": [
        {
          "indexed": false,
          "internalType": "address",
          "name": "account",
          "type": "address"
        }
      ],
      "name": "Unpaused",
      "type": "event"
    },
    {
      "inputs": [
        {
          "internalType": "address",
          "name": "account",
          "type": "address"
        },
        {
          "internalType": "uint256",
          "name": "id",
          "type": "uint256"
        }
      ],
      "name": "balanceOf",
      "outputs": [
        {
          "internalType": "uint256",
          "name": "",
          "type": "uint256"
        }
      ],
      "stateMutability": "view",
      "type": "function",
      "constant": true
    },
    {
      "inputs": [
        {
          "internalType": "address[]",
          "name": "accounts",
          "type": "address[]"
        },
        {
          "internalType": "uint256[]",
          "name": "ids",
          "type": "uint256[]"
        }
      ],
      "name": "balanceOfBatch",
      "outputs": [
        {
          "internalType": "uint256[]",
          "name": "",
          "type": "uint256[]"
        }
      ],
      "stateMutability": "view",
      "type": "function",
      "constant": true
    },
    {
      "inputs": [
        {
          "internalType": "address",
          "name": "account",
          "type": "address"
        },
        {
          "internalType": "address",
          "name": "operator",
          "type": "address"
        }
      ],
      "name": "isApprovedForAll",
      "outputs": [
        {
          "internalType": "bool",
          "name": "",
          "type": "bool"
        }
      ],
      "stateMutability": "view",
      "type": "function",
      "constant": true
    },
    {
      "inputs": [],
      "name": "owner",
      "outputs": [
        {
          "internalType": "address",
          "name": "",
          "type": "address"
        }
      ],
      "stateMutability": "view",
      "type": "function",
      "constant": true
    },
    {
      "inputs": [],
      "name": "paused",
      "outputs": [
        {
          "internalType": "bool",
          "name": "",
          "type": "bool"
        }
      ],
      "stateMutability": "view",
      "type": "function",
      "constant": true
    },
    {
      "inputs": [],
      "name": "renounceOwnership",
      "outputs": [],
      "stateMutability": "nonpayable",
      "type": "function"
    },
    {
      "inputs": [
        {
          "internalType": "address",
          "name": "from",
          "type": "address"
        },
        {
          "internalType": "address",
          "name": "to",
          "type": "address"
        },
        {
          "internalType": "uint256[]",
          "name": "ids",
          "type": "uint256[]"
        },
        {
          "internalType": "uint256[]",
          "name": "amounts",
          "type": "uint256[]"
        },
        {
          "internalType": "bytes",
          "name": "data",
          "type": "bytes"
        }
      ],
      "name": "safeBatchTransferFrom",
      "outputs": [],
      "stateMutability": "nonpayable",
      "type": "function"
    },
    {
      "inputs": [
        {
          "internalType": "address",
          "name": "from",
          "type": "address"
        },
        {
          "internalType": "address",
          "name": "to",
          "type": "address"
        },
        {
          "internalType": "uint256",
          "name": "id",
          "type": "uint256"
        },
        {
          "internalType": "uint256",
          "name": "amount",
          "type": "uint256"
        },
        {
          "internalType": "bytes",
          "name": "data",
          "type": "bytes"
        }
      ],
      "name": "safeTransferFrom",
      "outputs": [],
      "stateMutability": "nonpayable",
      "type": "function"
    },
    {
      "inputs": [
        {
          "internalType": "address",
          "name": "operator",
          "type": "address"
        },
        {
          "internalType": "bool",
          "name": "approved",
          "type": "bool"
        }
      ],
      "name": "setApprovalForAll",
      "outputs": [],
      "stateMutability": "nonpayable",
      "type": "function"
    },
    {
      "inputs": [
        {
          "internalType": "bytes4",
          "name": "interfaceId",
          "type": "bytes4"
        }
      ],
      "name": "supportsInterface",
      "outputs": [
        {
          "internalType": "bool",
          "name": "",
          "type": "bool"
        }
      ],
      "stateMutability": "view",
      "type": "function",
      "constant": true
    },
    {
      "inputs": [
        {
          "internalType": "address",
          "name": "newOwner",
          "type": "address"
        }
      ],
      "name": "transferOwnership",
      "outputs": [],
      "stateMutability": "nonpayable",
      "type": "function"
    },
    {
      "inputs": [
        {
          "internalType": "uint256",
          "name": "",
          "type": "uint256"
        }
      ],
      "name": "uri",
      "outputs": [
        {
          "internalType": "string",
          "name": "",
          "type": "string"
        }
      ],
      "stateMutability": "view",
      "type": "function",
      "constant": true
    },
    {
      "inputs": [],
      "name": "initialize",
      "outputs": [],
      "stateMutability": "nonpayable",
      "type": "function"
    },
    {
      "inputs": [
        {
          "internalType": "uint256",
          "name": "_supply",
          "type": "uint256"
        },
        {
          "internalType": "address",
          "name": "_holder",
          "type": "address"
        },
        {
          "internalType": "bytes",
          "name": "_data",
          "type": "bytes"
        }
      ],
      "name": "mintSid",
      "outputs": [],
      "stateMutability": "nonpayable",
      "type": "function"
    },
    {
      "inputs": [
        {
          "internalType": "uint256",
          "name": "_supply",
          "type": "uint256"
        },
        {
          "internalType": "address",
          "name": "_holder",
          "type": "address"
        },
        {
          "internalType": "bytes",
          "name": "_data",
          "type": "bytes"
        },
        {
          "internalType": "uint256",
          "name": "_parentSid",
          "type": "uint256"
        }
      ],
      "name": "mintRefSid",
      "outputs": [],
      "stateMutability": "nonpayable",
      "type": "function"
    },
    {
      "inputs": [
        {
          "internalType": "uint256",
          "name": "_supply",
          "type": "uint256"
        },
        {
          "internalType": "address",
          "name": "_holder",
          "type": "address"
        },
        {
          "internalType": "bytes",
          "name": "_data",
          "type": "bytes"
        }
      ],
      "name": "batchMintSid",
      "outputs": [],
      "stateMutability": "nonpayable",
      "type": "function"
    },
    {
      "inputs": [
        {
          "internalType": "uint256",
          "name": "_supply",
          "type": "uint256"
        },
        {
          "internalType": "address",
          "name": "_holder",
          "type": "address"
        },
        {
          "internalType": "bytes",
          "name": "_data",
          "type": "bytes"
        },
        {
          "internalType": "uint256",
          "name": "_parentSid",
          "type": "uint256"
        }
      ],
      "name": "batchMintRefSid",
      "outputs": [],
      "stateMutability": "nonpayable",
      "type": "function"
    },
    {
      "inputs": [
        {
          "internalType": "uint256",
          "name": "_sid",
          "type": "uint256"
        }
      ],
      "name": "getReferences",
      "outputs": [
        {
          "internalType": "uint256[]",
          "name": "",
          "type": "uint256[]"
        }
      ],
      "stateMutability": "view",
      "type": "function",
      "constant": true
    },
    {
      "inputs": [
        {
          "internalType": "uint256",
          "name": "_id",
          "type": "uint256"
        }
      ],
      "name": "getTokenMetadataHash",
      "outputs": [
        {
          "internalType": "string",
          "name": "",
          "type": "string"
        }
      ],
      "stateMutability": "view",
      "type": "function",
      "constant": true
    },
    {
      "inputs": [
        {
          "internalType": "uint256",
          "name": "_id",
          "type": "uint256"
        }
      ],
      "name": "getBaseURI",
      "outputs": [
        {
          "internalType": "string",
          "name": "",
          "type": "string"
        }
      ],
      "stateMutability": "view",
      "type": "function",
      "constant": true
    },
    {
      "inputs": [
        {
          "internalType": "address",
          "name": "_from",
          "type": "address"
        },
        {
          "internalType": "address",
          "name": "_to",
          "type": "address"
        },
        {
          "internalType": "uint256",
          "name": "_id",
          "type": "uint256"
        },
        {
          "internalType": "uint256",
          "name": "_amount",
          "type": "uint256"
        },
        {
          "internalType": "bytes",
          "name": "_data",
          "type": "bytes"
        }
      ],
      "name": "transfer",
      "outputs": [],
      "stateMutability": "nonpayable",
      "type": "function"
    },
    {
      "inputs": [
        {
          "internalType": "address",
          "name": "_from",
          "type": "address"
        },
        {
          "internalType": "address",
          "name": "_to",
          "type": "address"
        },
        {
          "internalType": "uint256[]",
          "name": "_ids",
          "type": "uint256[]"
        },
        {
          "internalType": "uint256[]",
          "name": "_amounts",
          "type": "uint256[]"
        },
        {
          "internalType": "bytes",
          "name": "_data",
          "type": "bytes"
        }
      ],
      "name": "batchTransfer",
      "outputs": [],
      "stateMutability": "nonpayable",
      "type": "function"
    },
    {
      "inputs": [],
      "name": "makePause",
      "outputs": [],
      "stateMutability": "nonpayable",
      "type": "function"
    },
    {
      "inputs": [],
      "name": "makeUnpause",
      "outputs": [],
      "stateMutability": "nonpayable",
      "type": "function"
    },
    {
      "inputs": [
        {
          "internalType": "address",
          "name": "account",
          "type": "address"
        },
        {
          "internalType": "uint256",
          "name": "id",
          "type": "uint256"
        },
        {
          "internalType": "uint256",
          "name": "amount",
          "type": "uint256"
        }
      ],
      "name": "burnService",
      "outputs": [],
      "stateMutability": "nonpayable",
      "type": "function"
    },
    {
      "inputs": [
        {
          "internalType": "address",
          "name": "_operator",
          "type": "address"
        },
        {
          "internalType": "bool",
          "name": "_approved",
          "type": "bool"
        }
      ],
      "name": "setApproval",
      "outputs": [],
      "stateMutability": "nonpayable",
      "type": "function"
    },
    {
      "inputs": [
        {
          "internalType": "address",
          "name": "account",
          "type": "address"
        },
        {
          "internalType": "address",
          "name": "operator",
          "type": "address"
        }
      ],
      "name": "isApproved",
      "outputs": [
        {
          "internalType": "bool",
          "name": "",
          "type": "bool"
        }
      ],
      "stateMutability": "view",
      "type": "function",
      "constant": true
    },
    {
      "inputs": [
        {
          "internalType": "address",
          "name": "account",
          "type": "address"
        },
        {
          "internalType": "uint256",
          "name": "id",
          "type": "uint256"
        }
      ],
      "name": "getBalance",
      "outputs": [
        {
          "internalType": "uint256",
          "name": "",
          "type": "uint256"
        }
      ],
      "stateMutability": "view",
      "type": "function",
      "constant": true
    },
    {
      "inputs": [],
      "name": "getTotalMintedServices",
      "outputs": [
        {
          "internalType": "uint256",
          "name": "",
          "type": "uint256"
        }
      ],
      "stateMutability": "view",
      "type": "function",
      "constant": true
    }
  ],
  "bytecode": "0x608060405234801561001057600080fd5b5061475d806100206000396000f3fe608060405234801561001057600080fd5b50600436106101ce5760003560e01c8063837c596211610104578063a90205a3116100a2578063e985e9c511610071578063e985e9c514610501578063f242432a14610531578063f2fde38b1461054d578063f35bbc3914610569576101ce565b8063a90205a3146104a3578063a9081e4b146104ad578063b2cf2f16146104c9578063db9b7170146104e5576101ce565b806393f37800116100de57806393f378001461041f578063955cdeac1461043b578063a22cb46514610457578063a389783e14610473576101ce565b8063837c5962146103c757806386838fb6146103f75780638da5cb5b14610401576101ce565b80633cfc7ae2116101715780635c975abb1161014b5780635c975abb14610365578063715018a614610383578063733763981461038d5780638129fc1c146103bd576101ce565b80633cfc7ae2146102e75780634a61d1b1146103175780634e1273f414610335576101ce565b80630e89341c116101ad5780630e89341c1461024f578063127217d61461027f5780632b04e8401461029b5780632eb2c2d6146102cb576101ce565b8062fdd58e146101d357806301ffc9a7146102035780630b4fd06e14610233575b600080fd5b6101ed60048036038101906101e8919061340a565b610585565b6040516101fa9190614275565b60405180910390f35b61021d60048036038101906102189190613501565b61064f565b60405161022a9190613fd8565b60405180910390f35b61024d6004803603810190610248919061357c565b610731565b005b61026960048036038101906102649190613553565b6108fd565b6040516102769190613ff3565b60405180910390f35b6102996004803603810190610294919061333f565b610991565b005b6102b560048036038101906102b0919061340a565b6109a5565b6040516102c29190614275565b60405180910390f35b6102e560048036038101906102e09190613280565b6109b9565b005b61030160048036038101906102fc9190613553565b610a5a565b60405161030e9190613f7f565b60405180910390f35b61031f610ac5565b60405161032c9190614275565b60405180910390f35b61034f600480360381019061034a9190613495565b610acf565b60405161035c9190613f7f565b60405180910390f35b61036d610c80565b60405161037a9190613fd8565b60405180910390f35b61038b610c97565b005b6103a760048036038101906103a29190613553565b610d1f565b6040516103b49190613ff3565b60405180910390f35b6103c5610d31565b005b6103e160048036038101906103dc9190613553565b610e50565b6040516103ee9190613ff3565b60405180910390f35b6103ff610ef5565b005b610409610f7b565b6040516104169190613ea2565b60405180910390f35b610439600480360381019061043491906135e3565b610fa5565b005b61045560048036038101906104509190613446565b61100d565b005b610471600480360381019061046c91906133ce565b61107a565b005b61048d60048036038101906104889190613244565b6111fb565b60405161049a9190613fd8565b60405180910390f35b6104ab61120f565b005b6104c760048036038101906104c2919061357c565b611295565b005b6104e360048036038101906104de9190613280565b6112c0565b005b6104ff60048036038101906104fa91906133ce565b6112d4565b005b61051b60048036038101906105169190613244565b6112e2565b6040516105289190613fd8565b60405180910390f35b61054b6004803603810190610546919061333f565b611376565b005b6105676004803603810190610562919061321b565b611417565b005b610583600480360381019061057e91906135e3565b61150f565b005b60008073ffffffffffffffffffffffffffffffffffffffff168373ffffffffffffffffffffffffffffffffffffffff1614156105f6576040517f08c379a00000000000000000000000000000000000000000000000000000000081526004016105ed90614075565b60405180910390fd5b60c9600083815260200190815260200160002060008473ffffffffffffffffffffffffffffffffffffffff1673ffffffffffffffffffffffffffffffffffffffff16815260200190815260200160002054905092915050565b60007fd9b67a26000000000000000000000000000000000000000000000000000000007bffffffffffffffffffffffffffffffffffffffffffffffffffffffff1916827bffffffffffffffffffffffffffffffffffffffffffffffffffffffff1916148061071a57507f0e89341c000000000000000000000000000000000000000000000000000000007bffffffffffffffffffffffffffffffffffffffffffffffffffffffff1916827bffffffffffffffffffffffffffffffffffffffffffffffffffffffff1916145b8061072a575061072982611776565b5b9050919050565b60008367ffffffffffffffff811115610773577f4e487b7100000000000000000000000000000000000000000000000000000000600052604160045260246000fd5b6040519080825280602002602001820160405280156107a15781602001602082028036833780820191505090505b50905060008467ffffffffffffffff8111156107e6577f4e487b7100000000000000000000000000000000000000000000000000000000600052604160045260246000fd5b6040519080825280602002602001820160405280156108145781602001602082028036833780820191505090505b50905060005b858110156108cf578060fb5461083091906143e3565b838281518110610869577f4e487b7100000000000000000000000000000000000000000000000000000000600052603260045260246000fd5b60200260200101818152505060018282815181106108b0577f4e487b7100000000000000000000000000000000000000000000000000000000600052603260045260246000fd5b60200260200101818152505080806108c790614521565b91505061081a565b506108dc848383866117e0565b815160fb60008282546108ef91906143e3565b925050819055505050505050565b606060cb805461090c906144ef565b80601f0160208091040260200160405190810160405280929190818152602001828054610938906144ef565b80156109855780601f1061095a57610100808354040283529160200191610985565b820191906000526020600020905b81548152906001019060200180831161096857829003601f168201915b50505050509050919050565b61099e8585858585611376565b5050505050565b60006109b18383610585565b905092915050565b6109c1611a4b565b73ffffffffffffffffffffffffffffffffffffffff168573ffffffffffffffffffffffffffffffffffffffff161480610a075750610a0685610a01611a4b565b6112e2565b5b610a46576040517f08c379a0000000000000000000000000000000000000000000000000000000008152600401610a3d90614155565b60405180910390fd5b610a538585858585611a53565b5050505050565b606060fd6000838152602001908152602001600020805480602002602001604051908101604052809291908181526020018280548015610ab957602002820191906000526020600020905b815481526020019060010190808311610aa5575b50505050509050919050565b600060fb54905090565b60608151835114610b15576040517f08c379a0000000000000000000000000000000000000000000000000000000008152600401610b0c90614215565b60405180910390fd5b6000835167ffffffffffffffff811115610b58577f4e487b7100000000000000000000000000000000000000000000000000000000600052604160045260246000fd5b604051908082528060200260200182016040528015610b865781602001602082028036833780820191505090505b50905060005b8451811015610c7557610c1f858281518110610bd1577f4e487b7100000000000000000000000000000000000000000000000000000000600052603260045260246000fd5b6020026020010151858381518110610c12577f4e487b7100000000000000000000000000000000000000000000000000000000600052603260045260246000fd5b6020026020010151610585565b828281518110610c58577f4e487b7100000000000000000000000000000000000000000000000000000000600052603260045260246000fd5b60200260200101818152505080610c6e90614521565b9050610b8c565b508091505092915050565b6000603360009054906101000a900460ff16905090565b610c9f611a4b565b73ffffffffffffffffffffffffffffffffffffffff16610cbd610f7b565b73ffffffffffffffffffffffffffffffffffffffff1614610d13576040517f08c379a0000000000000000000000000000000000000000000000000000000008152600401610d0a906141d5565b60405180910390fd5b610d1d6000611db6565b565b6060610d2a826108fd565b9050919050565b600060019054906101000a900460ff1680610d57575060008054906101000a900460ff16155b610d96576040517f08c379a0000000000000000000000000000000000000000000000000000000008152600401610d8d90614175565b60405180910390fd5b60008060019054906101000a900460ff161590508015610de6576001600060016101000a81548160ff02191690831515021790555060016000806101000a81548160ff0219169083151502179055505b610e246040518060400160405280601581526020017f68747470733a2f2f697066732e6f6e65632e696e2f0000000000000000000000815250611e7c565b600060fb819055508015610e4d5760008060016101000a81548160ff0219169083151502179055505b50565b606060fc60008381526020019081526020016000208054610e70906144ef565b80601f0160208091040260200160405190810160405280929190818152602001828054610e9c906144ef565b8015610ee95780601f10610ebe57610100808354040283529160200191610ee9565b820191906000526020600020905b815481529060010190602001808311610ecc57829003601f168201915b50505050509050919050565b610efd611a4b565b73ffffffffffffffffffffffffffffffffffffffff16610f1b610f7b565b73ffffffffffffffffffffffffffffffffffffffff1614610f71576040517f08c379a0000000000000000000000000000000000000000000000000000000008152600401610f68906141d5565b60405180910390fd5b610f79611f6f565b565b6000606560009054906101000a900473ffffffffffffffffffffffffffffffffffffffff16905090565b610fb38360fb548685612011565b60fd600082815260200190815260200160002060fb54908060018154018082558091505060019003906000526020600020016000909190919091505560fb600081548092919061100290614521565b919050555050505050565b6110188383836121a8565b6040518060400160405280600381526020017f307830000000000000000000000000000000000000000000000000000000000081525060fc60008481526020019081526020016000209080519060200190611074929190612ef5565b50505050565b8173ffffffffffffffffffffffffffffffffffffffff16611099611a4b565b73ffffffffffffffffffffffffffffffffffffffff1614156110f0576040517f08c379a00000000000000000000000000000000000000000000000000000000081526004016110e7906141f5565b60405180910390fd5b8060ca60006110fd611a4b565b73ffffffffffffffffffffffffffffffffffffffff1673ffffffffffffffffffffffffffffffffffffffff16815260200190815260200160002060008473ffffffffffffffffffffffffffffffffffffffff1673ffffffffffffffffffffffffffffffffffffffff16815260200190815260200160002060006101000a81548160ff0219169083151502179055508173ffffffffffffffffffffffffffffffffffffffff166111aa611a4b565b73ffffffffffffffffffffffffffffffffffffffff167f17307eab39ab6107e8899845ad3d59bd9653f200f220920489ca2b5937696c31836040516111ef9190613fd8565b60405180910390a35050565b600061120783836112e2565b905092915050565b611217611a4b565b73ffffffffffffffffffffffffffffffffffffffff16611235610f7b565b73ffffffffffffffffffffffffffffffffffffffff161461128b576040517f08c379a0000000000000000000000000000000000000000000000000000000008152600401611282906141d5565b60405180910390fd5b6112936123c7565b565b6112a38260fb548584612011565b60fb60008154809291906112b690614521565b9190505550505050565b6112cd85858585856109b9565b5050505050565b6112de828261107a565b5050565b600060ca60008473ffffffffffffffffffffffffffffffffffffffff1673ffffffffffffffffffffffffffffffffffffffff16815260200190815260200160002060008373ffffffffffffffffffffffffffffffffffffffff1673ffffffffffffffffffffffffffffffffffffffff16815260200190815260200160002060009054906101000a900460ff16905092915050565b61137e611a4b565b73ffffffffffffffffffffffffffffffffffffffff168573ffffffffffffffffffffffffffffffffffffffff1614806113c457506113c3856113be611a4b565b6112e2565b5b611403576040517f08c379a00000000000000000000000000000000000000000000000000000000081526004016113fa906140f5565b60405180910390fd5b611410858585858561246a565b5050505050565b61141f611a4b565b73ffffffffffffffffffffffffffffffffffffffff1661143d610f7b565b73ffffffffffffffffffffffffffffffffffffffff1614611493576040517f08c379a000000000000000000000000000000000000000000000000000000000815260040161148a906141d5565b60405180910390fd5b600073ffffffffffffffffffffffffffffffffffffffff168173ffffffffffffffffffffffffffffffffffffffff161415611503576040517f08c379a00000000000000000000000000000000000000000000000000000000081526004016114fa90614095565b60405180910390fd5b61150c81611db6565b50565b60008467ffffffffffffffff811115611551577f4e487b7100000000000000000000000000000000000000000000000000000000600052604160045260246000fd5b60405190808252806020026020018201604052801561157f5781602001602082028036833780820191505090505b50905060008567ffffffffffffffff8111156115c4577f4e487b7100000000000000000000000000000000000000000000000000000000600052604160045260246000fd5b6040519080825280602002602001820160405280156115f25781602001602082028036833780820191505090505b50905060005b868110156116ad578060fb5461160e91906143e3565b838281518110611647577f4e487b7100000000000000000000000000000000000000000000000000000000600052603260045260246000fd5b602002602001018181525050600182828151811061168e577f4e487b7100000000000000000000000000000000000000000000000000000000600052603260045260246000fd5b60200260200101818152505080806116a590614521565b9150506115f8565b506116ba858383876117e0565b815160fb60008282546116cd91906143e3565b9250508190555060005b825181101561176d5760fd600085815260200190815260200160002083828151811061172c577f4e487b7100000000000000000000000000000000000000000000000000000000600052603260045260246000fd5b60200260200101519080600181540180825580915050600190039060005260206000200160009091909190915055808061176590614521565b9150506116d7565b50505050505050565b60007f01ffc9a7000000000000000000000000000000000000000000000000000000007bffffffffffffffffffffffffffffffffffffffffffffffffffffffff1916827bffffffffffffffffffffffffffffffffffffffffffffffffffffffff1916149050919050565b600073ffffffffffffffffffffffffffffffffffffffff168473ffffffffffffffffffffffffffffffffffffffff161415611850576040517f08c379a000000000000000000000000000000000000000000000000000000000815260040161184790614255565b60405180910390fd5b8151835114611894576040517f08c379a000000000000000000000000000000000000000000000000000000000815260040161188b90614235565b60405180910390fd5b600061189e611a4b565b90506118af816000878787876126ef565b60005b84518110156119b5578381815181106118f4577f4e487b7100000000000000000000000000000000000000000000000000000000600052603260045260246000fd5b602002602001015160c96000878481518110611939577f4e487b7100000000000000000000000000000000000000000000000000000000600052603260045260246000fd5b6020026020010151815260200190815260200160002060008873ffffffffffffffffffffffffffffffffffffffff1673ffffffffffffffffffffffffffffffffffffffff168152602001908152602001600020600082825461199b91906143e3565b9250508190555080806119ad90614521565b9150506118b2565b508473ffffffffffffffffffffffffffffffffffffffff16600073ffffffffffffffffffffffffffffffffffffffff168273ffffffffffffffffffffffffffffffffffffffff167f4a39dc06d4c0dbc64b70af90fd698a233a518aa5d07e595d983b8c0526c8f7fb8787604051611a2d929190613fa1565b60405180910390a4611a44816000878787876127cd565b5050505050565b600033905090565b8151835114611a97576040517f08c379a0000000000000000000000000000000000000000000000000000000008152600401611a8e90614235565b60405180910390fd5b600073ffffffffffffffffffffffffffffffffffffffff168473ffffffffffffffffffffffffffffffffffffffff161415611b07576040517f08c379a0000000000000000000000000000000000000000000000000000000008152600401611afe90614135565b60405180910390fd5b6000611b11611a4b565b9050611b218187878787876126ef565b60005b8451811015611d21576000858281518110611b68577f4e487b7100000000000000000000000000000000000000000000000000000000600052603260045260246000fd5b602002602001015190506000858381518110611bad577f4e487b7100000000000000000000000000000000000000000000000000000000600052603260045260246000fd5b60200260200101519050600060c9600084815260200190815260200160002060008b73ffffffffffffffffffffffffffffffffffffffff1673ffffffffffffffffffffffffffffffffffffffff16815260200190815260200160002054905081811015611c4f576040517f08c379a0000000000000000000000000000000000000000000000000000000008152600401611c46906141b5565b60405180910390fd5b81810360c9600085815260200190815260200160002060008c73ffffffffffffffffffffffffffffffffffffffff1673ffffffffffffffffffffffffffffffffffffffff168152602001908152602001600020819055508160c9600085815260200190815260200160002060008b73ffffffffffffffffffffffffffffffffffffffff1673ffffffffffffffffffffffffffffffffffffffff1681526020019081526020016000206000828254611d0691906143e3565b9250508190555050505080611d1a90614521565b9050611b24565b508473ffffffffffffffffffffffffffffffffffffffff168673ffffffffffffffffffffffffffffffffffffffff168273ffffffffffffffffffffffffffffffffffffffff167f4a39dc06d4c0dbc64b70af90fd698a233a518aa5d07e595d983b8c0526c8f7fb8787604051611d98929190613fa1565b60405180910390a4611dae8187878787876127cd565b505050505050565b6000606560009054906101000a900473ffffffffffffffffffffffffffffffffffffffff16905081606560006101000a81548173ffffffffffffffffffffffffffffffffffffffff021916908373ffffffffffffffffffffffffffffffffffffffff1602179055508173ffffffffffffffffffffffffffffffffffffffff168173ffffffffffffffffffffffffffffffffffffffff167f8be0079c531659141344cd1fd0a4f28419497f9722a3daafe3b4186f6b6457e060405160405180910390a35050565b600060019054906101000a900460ff1680611ea2575060008054906101000a900460ff16155b611ee1576040517f08c379a0000000000000000000000000000000000000000000000000000000008152600401611ed890614175565b60405180910390fd5b60008060019054906101000a900460ff161590508015611f31576001600060016101000a81548160ff02191690831515021790555060016000806101000a81548160ff0219169083151502179055505b611f3961299d565b611f41612a76565b611f4a82612b4f565b8015611f6b5760008060016101000a81548160ff0219169083151502179055505b5050565b611f77610c80565b611fb6576040517f08c379a0000000000000000000000000000000000000000000000000000000008152600401611fad90614055565b60405180910390fd5b6000603360006101000a81548160ff0219169083151502179055507f5db9ee0a495bf2e6ff9c91a7834c1ba4fdd244a5e8aa4e537bd38aeae4b073aa611ffa611a4b565b6040516120079190613ea2565b60405180910390a1565b600073ffffffffffffffffffffffffffffffffffffffff168473ffffffffffffffffffffffffffffffffffffffff161415612081576040517f08c379a000000000000000000000000000000000000000000000000000000000815260040161207890614255565b60405180910390fd5b600061208b611a4b565b90506120ac8160008761209d88612c32565b6120a688612c32565b876126ef565b8260c9600086815260200190815260200160002060008773ffffffffffffffffffffffffffffffffffffffff1673ffffffffffffffffffffffffffffffffffffffff168152602001908152602001600020600082825461210c91906143e3565b925050819055508473ffffffffffffffffffffffffffffffffffffffff16600073ffffffffffffffffffffffffffffffffffffffff168273ffffffffffffffffffffffffffffffffffffffff167fc3d58168c5ae7397731d063d5bbf3d657854427343f4c083240f7aacaa2d0f62878760405161218a929190614290565b60405180910390a46121a181600087878787612cf8565b5050505050565b600073ffffffffffffffffffffffffffffffffffffffff168373ffffffffffffffffffffffffffffffffffffffff161415612218576040517f08c379a000000000000000000000000000000000000000000000000000000000815260040161220f90614195565b60405180910390fd5b6000612222611a4b565b90506122528185600061223487612c32565b61223d87612c32565b604051806020016040528060008152506126ef565b600060c9600085815260200190815260200160002060008673ffffffffffffffffffffffffffffffffffffffff1673ffffffffffffffffffffffffffffffffffffffff168152602001908152602001600020549050828110156122ea576040517f08c379a00000000000000000000000000000000000000000000000000000000081526004016122e1906140b5565b60405180910390fd5b82810360c9600086815260200190815260200160002060008773ffffffffffffffffffffffffffffffffffffffff1673ffffffffffffffffffffffffffffffffffffffff16815260200190815260200160002081905550600073ffffffffffffffffffffffffffffffffffffffff168573ffffffffffffffffffffffffffffffffffffffff168373ffffffffffffffffffffffffffffffffffffffff167fc3d58168c5ae7397731d063d5bbf3d657854427343f4c083240f7aacaa2d0f6287876040516123b8929190614290565b60405180910390a45050505050565b6123cf610c80565b1561240f576040517f08c379a000000000000000000000000000000000000000000000000000000000815260040161240690614115565b60405180910390fd5b6001603360006101000a81548160ff0219169083151502179055507f62e78cea01bee320cd4e420270b5ea74000d11b0c9f74754ebdbfc544b05a258612453611a4b565b6040516124609190613ea2565b60405180910390a1565b600073ffffffffffffffffffffffffffffffffffffffff168473ffffffffffffffffffffffffffffffffffffffff1614156124da576040517f08c379a00000000000000000000000000000000000000000000000000000000081526004016124d190614135565b60405180910390fd5b60006124e4611a4b565b90506125048187876124f588612c32565b6124fe88612c32565b876126ef565b600060c9600086815260200190815260200160002060008873ffffffffffffffffffffffffffffffffffffffff1673ffffffffffffffffffffffffffffffffffffffff1681526020019081526020016000205490508381101561259c576040517f08c379a0000000000000000000000000000000000000000000000000000000008152600401612593906141b5565b60405180910390fd5b83810360c9600087815260200190815260200160002060008973ffffffffffffffffffffffffffffffffffffffff1673ffffffffffffffffffffffffffffffffffffffff168152602001908152602001600020819055508360c9600087815260200190815260200160002060008873ffffffffffffffffffffffffffffffffffffffff1673ffffffffffffffffffffffffffffffffffffffff168152602001908152602001600020600082825461265391906143e3565b925050819055508573ffffffffffffffffffffffffffffffffffffffff168773ffffffffffffffffffffffffffffffffffffffff168373ffffffffffffffffffffffffffffffffffffffff167fc3d58168c5ae7397731d063d5bbf3d657854427343f4c083240f7aacaa2d0f6288886040516126d0929190614290565b60405180910390a46126e6828888888888612cf8565b50505050505050565b60008351905060005b8181101561277b578260fc600087848151811061273e577f4e487b7100000000000000000000000000000000000000000000000000000000600052603260045260246000fd5b602002602001015181526020019081526020016000209080519060200190612767929190612ef5565b50808061277390614521565b9150506126f8565b50612784610c80565b156127c4576040517f08c379a00000000000000000000000000000000000000000000000000000000081526004016127bb906140d5565b60405180910390fd5b50505050505050565b6127ec8473ffffffffffffffffffffffffffffffffffffffff16612ec8565b15612995578373ffffffffffffffffffffffffffffffffffffffff1663bc197c8187878686866040518663ffffffff1660e01b8152600401612832959493929190613ebd565b602060405180830381600087803b15801561284c57600080fd5b505af192505050801561287d57506040513d601f19601f8201168201806040525081019061287a919061352a565b60015b61290c57612889614615565b8061289457506128d1565b806040517f08c379a00000000000000000000000000000000000000000000000000000000081526004016128c89190613ff3565b60405180910390fd5b6040517f08c379a000000000000000000000000000000000000000000000000000000000815260040161290390614015565b60405180910390fd5b63bc197c8160e01b7bffffffffffffffffffffffffffffffffffffffffffffffffffffffff1916817bffffffffffffffffffffffffffffffffffffffffffffffffffffffff191614612993576040517f08c379a000000000000000000000000000000000000000000000000000000000815260040161298a90614035565b60405180910390fd5b505b505050505050565b600060019054906101000a900460ff16806129c3575060008054906101000a900460ff16155b612a02576040517f08c379a00000000000000000000000000000000000000000000000000000000081526004016129f990614175565b60405180910390fd5b60008060019054906101000a900460ff161590508015612a52576001600060016101000a81548160ff02191690831515021790555060016000806101000a81548160ff0219169083151502179055505b8015612a735760008060016101000a81548160ff0219169083151502179055505b50565b600060019054906101000a900460ff1680612a9c575060008054906101000a900460ff16155b612adb576040517f08c379a0000000000000000000000000000000000000000000000000000000008152600401612ad290614175565b60405180910390fd5b60008060019054906101000a900460ff161590508015612b2b576001600060016101000a81548160ff02191690831515021790555060016000806101000a81548160ff0219169083151502179055505b8015612b4c5760008060016101000a81548160ff0219169083151502179055505b50565b600060019054906101000a900460ff1680612b75575060008054906101000a900460ff16155b612bb4576040517f08c379a0000000000000000000000000000000000000000000000000000000008152600401612bab90614175565b60405180910390fd5b60008060019054906101000a900460ff161590508015612c04576001600060016101000a81548160ff02191690831515021790555060016000806101000a81548160ff0219169083151502179055505b612c0d82612edb565b8015612c2e5760008060016101000a81548160ff0219169083151502179055505b5050565b60606000600167ffffffffffffffff811115612c77577f4e487b7100000000000000000000000000000000000000000000000000000000600052604160045260246000fd5b604051908082528060200260200182016040528015612ca55781602001602082028036833780820191505090505b5090508281600081518110612ce3577f4e487b7100000000000000000000000000000000000000000000000000000000600052603260045260246000fd5b60200260200101818152505080915050919050565b612d178473ffffffffffffffffffffffffffffffffffffffff16612ec8565b15612ec0578373ffffffffffffffffffffffffffffffffffffffff1663f23a6e6187878686866040518663ffffffff1660e01b8152600401612d5d959493929190613f25565b602060405180830381600087803b158015612d7757600080fd5b505af1925050508015612da857506040513d601f19601f82011682018060405250810190612da5919061352a565b60015b612e3757612db4614615565b80612dbf5750612dfc565b806040517f08c379a0000000000000000000000000000000000000000000000000000000008152600401612df39190613ff3565b60405180910390fd5b6040517f08c379a0000000000000000000000000000000000000000000000000000000008152600401612e2e90614015565b60405180910390fd5b63f23a6e6160e01b7bffffffffffffffffffffffffffffffffffffffffffffffffffffffff1916817bffffffffffffffffffffffffffffffffffffffffffffffffffffffff191614612ebe576040517f08c379a0000000000000000000000000000000000000000000000000000000008152600401612eb590614035565b60405180910390fd5b505b505050505050565b600080823b905060008111915050919050565b8060cb9080519060200190612ef1929190612f7b565b5050565b828054612f01906144ef565b90600052602060002090601f016020900481019282612f235760008555612f6a565b82601f10612f3c57805160ff1916838001178555612f6a565b82800160010185558215612f6a579182015b82811115612f69578251825591602001919060010190612f4e565b5b509050612f779190613001565b5090565b828054612f87906144ef565b90600052602060002090601f016020900481019282612fa95760008555612ff0565b82601f10612fc257805160ff1916838001178555612ff0565b82800160010185558215612ff0579182015b82811115612fef578251825591602001919060010190612fd4565b5b509050612ffd9190613001565b5090565b5b8082111561301a576000816000905550600101613002565b5090565b600061303161302c846142ea565b6142b9565b9050808382526020820190508285602086028201111561305057600080fd5b60005b8581101561308057816130668882613134565b845260208401935060208301925050600181019050613053565b5050509392505050565b600061309d61309884614316565b6142b9565b905080838252602082019050828560208602820111156130bc57600080fd5b60005b858110156130ec57816130d28882613206565b8452602084019350602083019250506001810190506130bf565b5050509392505050565b600061310961310484614342565b6142b9565b90508281526020810184848401111561312157600080fd5b61312c8482856144ad565b509392505050565b600081359050613143816146cb565b92915050565b600082601f83011261315a57600080fd5b813561316a84826020860161301e565b91505092915050565b600082601f83011261318457600080fd5b813561319484826020860161308a565b91505092915050565b6000813590506131ac816146e2565b92915050565b6000813590506131c1816146f9565b92915050565b6000815190506131d6816146f9565b92915050565b600082601f8301126131ed57600080fd5b81356131fd8482602086016130f6565b91505092915050565b60008135905061321581614710565b92915050565b60006020828403121561322d57600080fd5b600061323b84828501613134565b91505092915050565b6000806040838503121561325757600080fd5b600061326585828601613134565b925050602061327685828601613134565b9150509250929050565b600080600080600060a0868803121561329857600080fd5b60006132a688828901613134565b95505060206132b788828901613134565b945050604086013567ffffffffffffffff8111156132d457600080fd5b6132e088828901613173565b935050606086013567ffffffffffffffff8111156132fd57600080fd5b61330988828901613173565b925050608086013567ffffffffffffffff81111561332657600080fd5b613332888289016131dc565b9150509295509295909350565b600080600080600060a0868803121561335757600080fd5b600061336588828901613134565b955050602061337688828901613134565b945050604061338788828901613206565b935050606061339888828901613206565b925050608086013567ffffffffffffffff8111156133b557600080fd5b6133c1888289016131dc565b9150509295509295909350565b600080604083850312156133e157600080fd5b60006133ef85828601613134565b92505060206134008582860161319d565b9150509250929050565b6000806040838503121561341d57600080fd5b600061342b85828601613134565b925050602061343c85828601613206565b9150509250929050565b60008060006060848603121561345b57600080fd5b600061346986828701613134565b935050602061347a86828701613206565b925050604061348b86828701613206565b9150509250925092565b600080604083850312156134a857600080fd5b600083013567ffffffffffffffff8111156134c257600080fd5b6134ce85828601613149565b925050602083013567ffffffffffffffff8111156134eb57600080fd5b6134f785828601613173565b9150509250929050565b60006020828403121561351357600080fd5b6000613521848285016131b2565b91505092915050565b60006020828403121561353c57600080fd5b600061354a848285016131c7565b91505092915050565b60006020828403121561356557600080fd5b600061357384828501613206565b91505092915050565b60008060006060848603121561359157600080fd5b600061359f86828701613206565b93505060206135b086828701613134565b925050604084013567ffffffffffffffff8111156135cd57600080fd5b6135d9868287016131dc565b9150509250925092565b600080600080608085870312156135f957600080fd5b600061360787828801613206565b945050602061361887828801613134565b935050604085013567ffffffffffffffff81111561363557600080fd5b613641878288016131dc565b925050606061365287828801613206565b91505092959194509250565b600061366a8383613e84565b60208301905092915050565b61367f81614439565b82525050565b600061369082614382565b61369a81856143b0565b93506136a583614372565b8060005b838110156136d65781516136bd888261365e565b97506136c8836143a3565b9250506001810190506136a9565b5085935050505092915050565b6136ec8161444b565b82525050565b60006136fd8261438d565b61370781856143c1565b93506137178185602086016144bc565b613720816145f7565b840191505092915050565b600061373682614398565b61374081856143d2565b93506137508185602086016144bc565b613759816145f7565b840191505092915050565b60006137716034836143d2565b91507f455243313135353a207472616e7366657220746f206e6f6e204552433131353560008301527f526563656976657220696d706c656d656e7465720000000000000000000000006020830152604082019050919050565b60006137d76028836143d2565b91507f455243313135353a204552433131353552656365697665722072656a6563746560008301527f6420746f6b656e730000000000000000000000000000000000000000000000006020830152604082019050919050565b600061383d6014836143d2565b91507f5061757361626c653a206e6f74207061757365640000000000000000000000006000830152602082019050919050565b600061387d602b836143d2565b91507f455243313135353a2062616c616e636520717565727920666f7220746865207a60008301527f65726f20616464726573730000000000000000000000000000000000000000006020830152604082019050919050565b60006138e36026836143d2565b91507f4f776e61626c653a206e6577206f776e657220697320746865207a65726f206160008301527f64647265737300000000000000000000000000000000000000000000000000006020830152604082019050919050565b60006139496024836143d2565b91507f455243313135353a206275726e20616d6f756e7420657863656564732062616c60008301527f616e6365000000000000000000000000000000000000000000000000000000006020830152604082019050919050565b60006139af602c836143d2565b91507f455243313135355061757361626c653a20746f6b656e207472616e736665722060008301527f7768696c652070617573656400000000000000000000000000000000000000006020830152604082019050919050565b6000613a156029836143d2565b91507f455243313135353a2063616c6c6572206973206e6f74206f776e6572206e6f7260008301527f20617070726f76656400000000000000000000000000000000000000000000006020830152604082019050919050565b6000613a7b6010836143d2565b91507f5061757361626c653a20706175736564000000000000000000000000000000006000830152602082019050919050565b6000613abb6025836143d2565b91507f455243313135353a207472616e7366657220746f20746865207a65726f20616460008301527f64726573730000000000000000000000000000000000000000000000000000006020830152604082019050919050565b6000613b216032836143d2565b91507f455243313135353a207472616e736665722063616c6c6572206973206e6f742060008301527f6f776e6572206e6f7220617070726f76656400000000000000000000000000006020830152604082019050919050565b6000613b87602e836143d2565b91507f496e697469616c697a61626c653a20636f6e747261637420697320616c72656160008301527f647920696e697469616c697a65640000000000000000000000000000000000006020830152604082019050919050565b6000613bed6023836143d2565b91507f455243313135353a206275726e2066726f6d20746865207a65726f206164647260008301527f65737300000000000000000000000000000000000000000000000000000000006020830152604082019050919050565b6000613c53602a836143d2565b91507f455243313135353a20696e73756666696369656e742062616c616e636520666f60008301527f72207472616e73666572000000000000000000000000000000000000000000006020830152604082019050919050565b6000613cb96020836143d2565b91507f4f776e61626c653a2063616c6c6572206973206e6f7420746865206f776e65726000830152602082019050919050565b6000613cf96029836143d2565b91507f455243313135353a2073657474696e6720617070726f76616c2073746174757360008301527f20666f722073656c6600000000000000000000000000000000000000000000006020830152604082019050919050565b6000613d5f6029836143d2565b91507f455243313135353a206163636f756e747320616e6420696473206c656e67746860008301527f206d69736d6174636800000000000000000000000000000000000000000000006020830152604082019050919050565b6000613dc56028836143d2565b91507f455243313135353a2069647320616e6420616d6f756e7473206c656e6774682060008301527f6d69736d617463680000000000000000000000000000000000000000000000006020830152604082019050919050565b6000613e2b6021836143d2565b91507f455243313135353a206d696e7420746f20746865207a65726f2061646472657360008301527f73000000000000000000000000000000000000000000000000000000000000006020830152604082019050919050565b613e8d816144a3565b82525050565b613e9c816144a3565b82525050565b6000602082019050613eb76000830184613676565b92915050565b600060a082019050613ed26000830188613676565b613edf6020830187613676565b8181036040830152613ef18186613685565b90508181036060830152613f058185613685565b90508181036080830152613f1981846136f2565b90509695505050505050565b600060a082019050613f3a6000830188613676565b613f476020830187613676565b613f546040830186613e93565b613f616060830185613e93565b8181036080830152613f7381846136f2565b90509695505050505050565b60006020820190508181036000830152613f998184613685565b905092915050565b60006040820190508181036000830152613fbb8185613685565b90508181036020830152613fcf8184613685565b90509392505050565b6000602082019050613fed60008301846136e3565b92915050565b6000602082019050818103600083015261400d818461372b565b905092915050565b6000602082019050818103600083015261402e81613764565b9050919050565b6000602082019050818103600083015261404e816137ca565b9050919050565b6000602082019050818103600083015261406e81613830565b9050919050565b6000602082019050818103600083015261408e81613870565b9050919050565b600060208201905081810360008301526140ae816138d6565b9050919050565b600060208201905081810360008301526140ce8161393c565b9050919050565b600060208201905081810360008301526140ee816139a2565b9050919050565b6000602082019050818103600083015261410e81613a08565b9050919050565b6000602082019050818103600083015261412e81613a6e565b9050919050565b6000602082019050818103600083015261414e81613aae565b9050919050565b6000602082019050818103600083015261416e81613b14565b9050919050565b6000602082019050818103600083015261418e81613b7a565b9050919050565b600060208201905081810360008301526141ae81613be0565b9050919050565b600060208201905081810360008301526141ce81613c46565b9050919050565b600060208201905081810360008301526141ee81613cac565b9050919050565b6000602082019050818103600083015261420e81613cec565b9050919050565b6000602082019050818103600083015261422e81613d52565b9050919050565b6000602082019050818103600083015261424e81613db8565b9050919050565b6000602082019050818103600083015261426e81613e1e565b9050919050565b600060208201905061428a6000830184613e93565b92915050565b60006040820190506142a56000830185613e93565b6142b26020830184613e93565b9392505050565b6000604051905081810181811067ffffffffffffffff821117156142e0576142df6145c8565b5b8060405250919050565b600067ffffffffffffffff821115614305576143046145c8565b5b602082029050602081019050919050565b600067ffffffffffffffff821115614331576143306145c8565b5b602082029050602081019050919050565b600067ffffffffffffffff82111561435d5761435c6145c8565b5b601f19601f8301169050602081019050919050565b6000819050602082019050919050565b600081519050919050565b600081519050919050565b600081519050919050565b6000602082019050919050565b600082825260208201905092915050565b600082825260208201905092915050565b600082825260208201905092915050565b60006143ee826144a3565b91506143f9836144a3565b9250827fffffffffffffffffffffffffffffffffffffffffffffffffffffffffffffffff0382111561442e5761442d61456a565b5b828201905092915050565b600061444482614483565b9050919050565b60008115159050919050565b60007fffffffff0000000000000000000000000000000000000000000000000000000082169050919050565b600073ffffffffffffffffffffffffffffffffffffffff82169050919050565b6000819050919050565b82818337600083830152505050565b60005b838110156144da5780820151818401526020810190506144bf565b838111156144e9576000848401525b50505050565b6000600282049050600182168061450757607f821691505b6020821081141561451b5761451a614599565b5b50919050565b600061452c826144a3565b91507fffffffffffffffffffffffffffffffffffffffffffffffffffffffffffffffff82141561455f5761455e61456a565b5b600182019050919050565b7f4e487b7100000000000000000000000000000000000000000000000000000000600052601160045260246000fd5b7f4e487b7100000000000000000000000000000000000000000000000000000000600052602260045260246000fd5b7f4e487b7100000000000000000000000000000000000000000000000000000000600052604160045260246000fd5b6000601f19601f8301169050919050565b60008160e01c9050919050565b600060443d1015614625576146c8565b60046000803e614636600051614608565b6308c379a0811461464757506146c8565b60405160043d036004823e80513d602482011167ffffffffffffffff82111715614673575050506146c8565b808201805167ffffffffffffffff8111156146925750505050506146c8565b8060208301013d85018111156146ad575050505050506146c8565b6146b6826145f7565b60208401016040528296505050505050505b90565b6146d481614439565b81146146df57600080fd5b50565b6146eb8161444b565b81146146f657600080fd5b50565b61470281614457565b811461470d57600080fd5b50565b614719816144a3565b811461472457600080fd5b5056fea26469706673582212206e3e196b9e158bdd27449d271d8ab3e2935e8dfafdf94f12f9296851a347482764736f6c63430008000033",
  "immutableReferences": {},
  "source": "// SPDX-License-Identifier: MIT\npragma solidity ^0.8.0;\n\n\nimport \"@openzeppelin/contracts-upgradeable/token/ERC1155/ERC1155Upgradeable.sol\";\nimport \"@openzeppelin/contracts-upgradeable/security/PausableUpgradeable.sol\";\nimport \"@openzeppelin/contracts-upgradeable/access/OwnableUpgradeable.sol\";\nimport \"@openzeppelin/contracts-upgradeable/proxy/utils/Initializable.sol\";\n\n\ncontract Onec is Initializable,PausableUpgradeable, OwnableUpgradeable, ERC1155Upgradeable {\n\n    uint private NFTCounter;\n    // token-id to metadata hash\n    mapping(uint256 => bytes) private metadataHash;\n    // Sids to refSids\n    mapping(uint256 => uint256[]) private references;\n\n    function initialize() public initializer {\n        ERC1155Upgradeable.__ERC1155_init(\"https://ipfs.onec.in/\");\n        NFTCounter = 0;\n    }\n    \n    /*\n     * @dev Mints Main Service to the address of _holder.\n     * @params _supply:total no. of service/NFT to mint\n     * _holder:public address of the account to mint service/NFT on that.\n     * _data: metadata hash of the service/NFT.\n     * Requirements:\n     * Can only be called by the deployer of the smart contract.\n     */\n    function mintSid(uint _supply, address _holder, bytes memory _data) public {\n\n        _mint(_holder, NFTCounter, _supply, _data);\n        NFTCounter++;        \n    }\n\n    /*\n     * @dev Mints Reference Service to the address of _holder.\n     * @params _supply:total no. of service/NFT to mint\n     * _holder:public address of the account to mint service/NFT on that.\n     * _data: metadata hash of the service/NFT.\n     * _parentsid: the token id of the service/NFT of which you are minting the references.\n     * Requirements:\n     * Can only be called by the deployer of the smart contract.\n     */\n    function mintRefSid(uint256 _supply, address _holder, bytes memory _data,uint256 _parentSid) public {\n        //require(metadataHash[_id].length == 0);\n        _mint(_holder, NFTCounter, _supply, _data);\n        references[_parentSid].push(NFTCounter);\n        NFTCounter++;\n    }\n\n    /*\n     * @dev Batch-Mints Main Service to the address of _holder.\n     * @params _supply:total no. of service/NFT to mint\n     * _holder:public address of the account to mint service/NFT on that.\n     * _data metadata hash of the service/NFT.\n     * Requirements:\n     * Can only be called by the deployer of the smart contract.\n     */\n    function batchMintSid(uint _supply,address _holder, bytes memory _data) public {\n        //create ids array\n        uint[] memory _ids = new uint[](_supply);\n        uint[] memory _amounts = new uint[](_supply);\n        for(uint i=0;i<_supply;i++){\n            _ids[i]=NFTCounter+i;\n            _amounts[i]=1;\n        }\n        //create amount array\n        _mintBatch(_holder,_ids,_amounts,_data);\n        NFTCounter+=_ids.length;\n    }\n\n    /*\n     * @dev Batch Mints Reference Service to the address of _holder.\n     * @params _supply:total no. of service/NFT to mint\n     * _holder:public address of the account to mint service/NFT on that.\n     * _data: metadata hash of the service/NFT.\n     * _parentsid: the token id of the service/NFT of which you are minting the references.\n     * Requirements:\n     * Can only be called by the deployer of the smart contract.\n     */\n    function batchMintRefSid(uint _supply,address _holder, bytes memory _data,uint _parentSid) public {\n        //create ids array\n        uint[] memory _ids = new uint[](_supply);\n        uint[] memory _amounts = new uint[](_supply);\n        for(uint i=0;i<_supply;i++){\n            _ids[i]=NFTCounter+i;\n            _amounts[i]=1;\n        }\n        //create amount array\n        _mintBatch(_holder,_ids,_amounts,_data);\n        NFTCounter+=_ids.length;\n        for(uint i=0;i<_ids.length;i++){\n            references[_parentSid].push(_ids[i]);\n        }\n    }\n    \n    /*\n     * @dev return the list of token-ids of all the reference service tokens\n     */\n    function getReferences(uint _sid) public view returns(uint256[] memory) {\n        return references[_sid];    \n    }\n    \n    /*\n     *@dev Called before every token transfer, maps the metadataHash of a service/NFT with the token id  \n     */\n    function _beforeTokenTransfer(address _operator, address _from, address _to, uint256[] memory ids, uint256[] memory amount, bytes memory data) override internal {\n        //save the metadata hash\n        uint arrayLength = ids.length;\n        for (uint i=0; i<arrayLength; i++) {\n            metadataHash[ids[i]] = data;\n        }\n        require(!paused(), \"ERC1155Pausable: token transfer while paused\");\n    }\n\n    /*\n     * @dev returns the metaDataHash for the token-ID\n     */\n\n    function getTokenMetadataHash(uint256 _id) view public returns(string memory) {\n        return string(metadataHash[_id]);\n    }\n\n     /*\n      * @dev returns the baseURI.\n      * Doesn't depends on the token-id and returns same thing.\n      */\n    function getBaseURI(uint256 _id) view public returns(string memory) {\n        return super.uri(_id);\n    }\n\n     /*\n      * @dev Tranfers the service/NFT to new address.\n      * Can be called by the service/NFT holder.\n      */\n    function transfer(address _from,address _to, uint256 _id, uint256 _amount, bytes memory _data) public {\n        super.safeTransferFrom(_from, _to, _id, _amount, _data);\n    }\n\n     /*\n      * @dev Batch tranfers the services/NFTs to new address.\n      * Can be called by the service/NFT holder.\n      */\n    function batchTransfer(address _from,address _to,uint256[] memory _ids,uint256[] memory _amounts,bytes memory _data) public {\n        super.safeBatchTransferFrom(_from,_to,_ids,_amounts,_data);\n    }\n\n    /*\n     * @dev pause the onec contract.\n     */\n    function makePause() public onlyOwner {\n        super._pause();\n    }\n\n    /*\n     * @dev un-pause the onec contract.\n     */\n    function makeUnpause() public onlyOwner{\n        super._unpause();\n    } \n\n    /*\n     * @dev Burns the token/service with the given tokenid.\n     */\n    function burnService(address account,uint256 id,uint256 amount) public{\n        super._burn(account,id,amount);\n        metadataHash[id]=bytes(\"0x0\");\n    }\n    \n    /*\n     * @dev Sets approval to the operator to manage service/NFT held by the caller of the function.\n     */\n    function setApproval(address _operator, bool _approved) public {\n        super.setApprovalForAll(_operator,_approved);\n    }\n\n    /*\n     * @dev Give status of the approval rights, if the operator can manage service/NFT held by the account.\n     */\n    function isApproved(address account, address operator) public view returns(bool){\n        return super.isApprovedForAll(account,operator);\n    }\n    \n    /*\n     * @dev Gives the balance of a particular service/NFT of given id held by an account.\n     */\n    function getBalance(address account, uint256 id) public view returns(uint256){\n        return super.balanceOf(account,id);\n    }\n\n    /*\n     * @dev Returns the total minted NFTs/Services by the contract.\n     */\n    function getTotalMintedServices() public view returns(uint256){\n        return NFTCounter;\n    }\n    \n\n}",
  "sourcePath": "/Users/hrishabhsharma/Projects/core-contract/contracts/Onec.sol",
  "compiler": {
    "name": "solc",
    "version": "0.8.0+commit.c7dfd78e.Emscripten.clang"
  },
  "schemaVersion": "3.4.3",
  "updatedAt": "2021-11-24T18:25:11.526Z",
  "networkType": "ethereum",
  "devdoc": {
    "kind": "dev",
    "methods": {
      "balanceOf(address,uint256)": {
        "details": "See {IERC1155-balanceOf}. Requirements: - `account` cannot be the zero address."
      },
      "balanceOfBatch(address[],uint256[])": {
        "details": "See {IERC1155-balanceOfBatch}. Requirements: - `accounts` and `ids` must have the same length."
      },
      "isApprovedForAll(address,address)": {
        "details": "See {IERC1155-isApprovedForAll}."
      },
      "owner()": {
        "details": "Returns the address of the current owner."
      },
      "paused()": {
        "details": "Returns true if the contract is paused, and false otherwise."
      },
      "renounceOwnership()": {
        "details": "Leaves the contract without owner. It will not be possible to call `onlyOwner` functions anymore. Can only be called by the current owner. NOTE: Renouncing ownership will leave the contract without an owner, thereby removing any functionality that is only available to the owner."
      },
      "safeBatchTransferFrom(address,address,uint256[],uint256[],bytes)": {
        "details": "See {IERC1155-safeBatchTransferFrom}."
      },
      "safeTransferFrom(address,address,uint256,uint256,bytes)": {
        "details": "See {IERC1155-safeTransferFrom}."
      },
      "setApprovalForAll(address,bool)": {
        "details": "See {IERC1155-setApprovalForAll}."
      },
      "supportsInterface(bytes4)": {
        "details": "See {IERC165-supportsInterface}."
      },
      "transferOwnership(address)": {
        "details": "Transfers ownership of the contract to a new account (`newOwner`). Can only be called by the current owner."
      },
      "uri(uint256)": {
        "details": "See {IERC1155MetadataURI-uri}. This implementation returns the same URI for *all* token types. It relies on the token type ID substitution mechanism https://eips.ethereum.org/EIPS/eip-1155#metadata[defined in the EIP]. Clients calling this function must replace the `\\{id\\}` substring with the actual token type ID."
      }
    },
    "version": 1
  },
  "userdoc": {
    "kind": "user",
    "methods": {},
    "version": 1
  }
}