{
  "contractName": "Onec721",
  "abi": [
    {
      "anonymous": false,
      "inputs": [
        {
          "indexed": true,
          "internalType": "address",
          "name": "owner",
          "type": "address"
        },
        {
          "indexed": true,
          "internalType": "address",
          "name": "approved",
          "type": "address"
        },
        {
          "indexed": true,
          "internalType": "uint256",
          "name": "tokenId",
          "type": "uint256"
        }
      ],
      "name": "Approval",
      "type": "event"
    },
    {
      "anonymous": false,
      "inputs": [
        {
          "indexed": true,
          "internalType": "address",
          "name": "owner",
          "type": "address"
        },
        {
          "indexed": true,
          "internalType": "address",
          "name": "operator",
          "type": "address"
        },
        {
          "indexed": false,
          "internalType": "bool",
          "name": "approved",
          "type": "bool"
        }
      ],
      "name": "ApprovalForAll",
      "type": "event"
    },
    {
      "anonymous": false,
      "inputs": [
        {
          "indexed": true,
          "internalType": "address",
          "name": "previousOwner",
          "type": "address"
        },
        {
          "indexed": true,
          "internalType": "address",
          "name": "newOwner",
          "type": "address"
        }
      ],
      "name": "OwnershipTransferred",
      "type": "event"
    },
    {
      "anonymous": false,
      "inputs": [
        {
          "indexed": false,
          "internalType": "address",
          "name": "account",
          "type": "address"
        }
      ],
      "name": "Paused",
      "type": "event"
    },
    {
      "anonymous": false,
      "inputs": [
        {
          "indexed": true,
          "internalType": "address",
          "name": "from",
          "type": "address"
        },
        {
          "indexed": true,
          "internalType": "address",
          "name": "to",
          "type": "address"
        },
        {
          "indexed": true,
          "internalType": "uint256",
          "name": "tokenId",
          "type": "uint256"
        }
      ],
      "name": "Transfer",
      "type": "event"
    },
    {
      "anonymous": false,
      "inputs": [
        {
          "indexed": false,
          "internalType": "address",
          "name": "account",
          "type": "address"
        }
      ],
      "name": "Unpaused",
      "type": "event"
    },
    {
      "inputs": [
        {
          "internalType": "address",
          "name": "to",
          "type": "address"
        },
        {
          "internalType": "uint256",
          "name": "tokenId",
          "type": "uint256"
        }
      ],
      "name": "approve",
      "outputs": [],
      "stateMutability": "nonpayable",
      "type": "function"
    },
    {
      "inputs": [
        {
          "internalType": "address",
          "name": "owner",
          "type": "address"
        }
      ],
      "name": "balanceOf",
      "outputs": [
        {
          "internalType": "uint256",
          "name": "",
          "type": "uint256"
        }
      ],
      "stateMutability": "view",
      "type": "function"
    },
    {
      "inputs": [
        {
          "internalType": "uint256",
          "name": "tokenId",
          "type": "uint256"
        }
      ],
      "name": "getApproved",
      "outputs": [
        {
          "internalType": "address",
          "name": "",
          "type": "address"
        }
      ],
      "stateMutability": "view",
      "type": "function"
    },
    {
      "inputs": [
        {
          "internalType": "address",
          "name": "owner",
          "type": "address"
        },
        {
          "internalType": "address",
          "name": "operator",
          "type": "address"
        }
      ],
      "name": "isApprovedForAll",
      "outputs": [
        {
          "internalType": "bool",
          "name": "",
          "type": "bool"
        }
      ],
      "stateMutability": "view",
      "type": "function"
    },
    {
      "inputs": [],
      "name": "name",
      "outputs": [
        {
          "internalType": "string",
          "name": "",
          "type": "string"
        }
      ],
      "stateMutability": "view",
      "type": "function"
    },
    {
      "inputs": [],
      "name": "owner",
      "outputs": [
        {
          "internalType": "address",
          "name": "",
          "type": "address"
        }
      ],
      "stateMutability": "view",
      "type": "function"
    },
    {
      "inputs": [
        {
          "internalType": "uint256",
          "name": "tokenId",
          "type": "uint256"
        }
      ],
      "name": "ownerOf",
      "outputs": [
        {
          "internalType": "address",
          "name": "",
          "type": "address"
        }
      ],
      "stateMutability": "view",
      "type": "function"
    },
    {
      "inputs": [],
      "name": "paused",
      "outputs": [
        {
          "internalType": "bool",
          "name": "",
          "type": "bool"
        }
      ],
      "stateMutability": "view",
      "type": "function"
    },
    {
      "inputs": [],
      "name": "renounceOwnership",
      "outputs": [],
      "stateMutability": "nonpayable",
      "type": "function"
    },
    {
      "inputs": [
        {
          "internalType": "address",
          "name": "from",
          "type": "address"
        },
        {
          "internalType": "address",
          "name": "to",
          "type": "address"
        },
        {
          "internalType": "uint256",
          "name": "tokenId",
          "type": "uint256"
        }
      ],
      "name": "safeTransferFrom",
      "outputs": [],
      "stateMutability": "nonpayable",
      "type": "function"
    },
    {
      "inputs": [
        {
          "internalType": "address",
          "name": "from",
          "type": "address"
        },
        {
          "internalType": "address",
          "name": "to",
          "type": "address"
        },
        {
          "internalType": "uint256",
          "name": "tokenId",
          "type": "uint256"
        },
        {
          "internalType": "bytes",
          "name": "_data",
          "type": "bytes"
        }
      ],
      "name": "safeTransferFrom",
      "outputs": [],
      "stateMutability": "nonpayable",
      "type": "function"
    },
    {
      "inputs": [
        {
          "internalType": "address",
          "name": "operator",
          "type": "address"
        },
        {
          "internalType": "bool",
          "name": "approved",
          "type": "bool"
        }
      ],
      "name": "setApprovalForAll",
      "outputs": [],
      "stateMutability": "nonpayable",
      "type": "function"
    },
    {
      "inputs": [
        {
          "internalType": "bytes4",
          "name": "interfaceId",
          "type": "bytes4"
        }
      ],
      "name": "supportsInterface",
      "outputs": [
        {
          "internalType": "bool",
          "name": "",
          "type": "bool"
        }
      ],
      "stateMutability": "view",
      "type": "function"
    },
    {
      "inputs": [],
      "name": "symbol",
      "outputs": [
        {
          "internalType": "string",
          "name": "",
          "type": "string"
        }
      ],
      "stateMutability": "view",
      "type": "function"
    },
    {
      "inputs": [
        {
          "internalType": "address",
          "name": "from",
          "type": "address"
        },
        {
          "internalType": "address",
          "name": "to",
          "type": "address"
        },
        {
          "internalType": "uint256",
          "name": "tokenId",
          "type": "uint256"
        }
      ],
      "name": "transferFrom",
      "outputs": [],
      "stateMutability": "nonpayable",
      "type": "function"
    },
    {
      "inputs": [
        {
          "internalType": "address",
          "name": "newOwner",
          "type": "address"
        }
      ],
      "name": "transferOwnership",
      "outputs": [],
      "stateMutability": "nonpayable",
      "type": "function"
    },
    {
      "inputs": [
        {
          "internalType": "string",
          "name": "_name",
          "type": "string"
        },
        {
          "internalType": "string",
          "name": "_symbol",
          "type": "string"
        },
        {
          "internalType": "string",
          "name": "_baseURI",
          "type": "string"
        },
        {
          "internalType": "string",
          "name": "_contractMetadata",
          "type": "string"
        }
      ],
      "name": "initialize",
      "outputs": [],
      "stateMutability": "nonpayable",
      "type": "function"
    },
    {
      "inputs": [],
      "name": "contractURI",
      "outputs": [
        {
          "internalType": "string",
          "name": "",
          "type": "string"
        }
      ],
      "stateMutability": "view",
      "type": "function"
    },
    {
      "inputs": [
        {
          "internalType": "string",
          "name": "_metadata",
          "type": "string"
        }
      ],
      "name": "setContractMetadata",
      "outputs": [],
      "stateMutability": "nonpayable",
      "type": "function"
    },
    {
      "inputs": [
        {
          "internalType": "uint256",
          "name": "_tokenId",
          "type": "uint256"
        }
      ],
      "name": "getTokenMetadataHash",
      "outputs": [
        {
          "internalType": "string",
          "name": "",
          "type": "string"
        }
      ],
      "stateMutability": "view",
      "type": "function"
    },
    {
      "inputs": [
        {
          "internalType": "uint256",
          "name": "_tokenId",
          "type": "uint256"
        },
        {
          "internalType": "bytes",
          "name": "_metadataHash",
          "type": "bytes"
        }
      ],
      "name": "setTokenMetadataHash",
      "outputs": [],
      "stateMutability": "nonpayable",
      "type": "function"
    },
    {
      "inputs": [],
      "name": "getBaseURI",
      "outputs": [
        {
          "internalType": "string",
          "name": "",
          "type": "string"
        }
      ],
      "stateMutability": "view",
      "type": "function"
    },
    {
      "inputs": [
        {
          "internalType": "uint256",
          "name": "tokenId",
          "type": "uint256"
        }
      ],
      "name": "tokenURI",
      "outputs": [
        {
          "internalType": "string",
          "name": "",
          "type": "string"
        }
      ],
      "stateMutability": "view",
      "type": "function"
    },
    {
      "inputs": [
        {
          "internalType": "address",
          "name": "_holder",
          "type": "address"
        },
        {
          "internalType": "bytes",
          "name": "_data",
          "type": "bytes"
        }
      ],
      "name": "mintNFT",
      "outputs": [],
      "stateMutability": "nonpayable",
      "type": "function"
    },
    {
      "inputs": [
        {
          "internalType": "address",
          "name": "_holder",
          "type": "address"
        },
        {
          "internalType": "bytes",
          "name": "_data",
          "type": "bytes"
        },
        {
          "internalType": "uint256",
          "name": "_parentTokenId",
          "type": "uint256"
        }
      ],
      "name": "mintRefNFT",
      "outputs": [],
      "stateMutability": "nonpayable",
      "type": "function"
    },
    {
      "inputs": [
        {
          "internalType": "uint256",
          "name": "_id",
          "type": "uint256"
        }
      ],
      "name": "getReferences",
      "outputs": [
        {
          "internalType": "uint256[]",
          "name": "",
          "type": "uint256[]"
        }
      ],
      "stateMutability": "view",
      "type": "function"
    },
    {
      "inputs": [
        {
          "internalType": "address",
          "name": "_from",
          "type": "address"
        },
        {
          "internalType": "address",
          "name": "_to",
          "type": "address"
        },
        {
          "internalType": "uint256",
          "name": "_tokenId",
          "type": "uint256"
        },
        {
          "internalType": "bytes",
          "name": "_data",
          "type": "bytes"
        }
      ],
      "name": "transfer",
      "outputs": [],
      "stateMutability": "nonpayable",
      "type": "function"
    },
    {
      "inputs": [],
      "name": "makePause",
      "outputs": [],
      "stateMutability": "nonpayable",
      "type": "function"
    },
    {
      "inputs": [],
      "name": "makeUnpause",
      "outputs": [],
      "stateMutability": "nonpayable",
      "type": "function"
    },
    {
      "inputs": [
        {
          "internalType": "uint256",
          "name": "_id",
          "type": "uint256"
        }
      ],
      "name": "burnNFT",
      "outputs": [],
      "stateMutability": "nonpayable",
      "type": "function"
    }
  ],
  "bytecode": "0x608060405234801561001057600080fd5b506145e1806100206000396000f3fe608060405234801561001057600080fd5b50600436106101da5760003560e01c8063837c596211610104578063b88d4fde116100a2578063e985e9c511610071578063e985e9c514610519578063edb1019014610549578063f2fde38b14610565578063fce5503714610581576101da565b8063b88d4fde14610493578063c87b56dd146104af578063e83b0227146104df578063e8a3d485146104fb576101da565b806395d89b41116100de57806395d89b4114610433578063a22cb46514610451578063a523d35e1461046d578063a90205a314610489576101da565b8063837c5962146103db57806386838fb61461040b5780638da5cb5b14610415576101da565b80633b9a65fa1161017c5780636352211e1161014b5780636352211e1461035357806370a0823114610383578063714c5398146103b3578063715018a6146103d1576101da565b80633b9a65fa146102cd5780633cfc7ae2146102e957806342842e0e146103195780635c975abb14610335576101da565b8063095ea7b3116101b8578063095ea7b31461025d57806312a837b41461027957806323b872dd146102955780632890e0d7146102b1576101da565b806301ffc9a7146101df57806306fdde031461020f578063081812fc1461022d575b600080fd5b6101f960048036038101906101f49190613428565b61059d565b6040516102069190613efc565b60405180910390f35b61021761067f565b6040516102249190613f17565b60405180910390f35b6102476004803603810190610242919061357e565b610711565b6040516102549190613e73565b60405180910390f35b610277600480360381019061027291906133ec565b610796565b005b610293600480360381019061028e919061327a565b6108ae565b005b6102af60048036038101906102aa919061322b565b61093c565b005b6102cb60048036038101906102c6919061357e565b61099c565b005b6102e760048036038101906102e291906135a7565b610a65565b005b61030360048036038101906102fe919061357e565b610b0d565b6040516103109190613eda565b60405180910390f35b610333600480360381019061032e919061322b565b610b78565b005b61033d610b98565b60405161034a9190613efc565b60405180910390f35b61036d6004803603810190610368919061357e565b610baf565b60405161037a9190613e73565b60405180910390f35b61039d600480360381019061039891906131c6565b610c61565b6040516103aa91906141d9565b60405180910390f35b6103bb610d19565b6040516103c89190613f17565b60405180910390f35b6103d9610dab565b005b6103f560048036038101906103f0919061357e565b610e33565b6040516104029190613f17565b60405180910390f35b610413610ed8565b005b61041d610f5e565b60405161042a9190613e73565b60405180910390f35b61043b610f88565b6040516104489190613f17565b60405180910390f35b61046b600480360381019061046691906132f5565b61101a565b005b610487600480360381019061048291906134bb565b61119b565b005b6104916112c8565b005b6104ad60048036038101906104a8919061327a565b61134e565b005b6104c960048036038101906104c4919061357e565b6113b0565b6040516104d69190613f17565b60405180910390f35b6104f960048036038101906104f49190613331565b6114ac565b005b61050361155d565b6040516105109190613f17565b60405180910390f35b610533600480360381019061052e91906131ef565b6115ef565b6040516105409190613efc565b60405180910390f35b610563600480360381019061055e9190613385565b611683565b005b61057f600480360381019061057a91906131c6565b6117b5565b005b61059b6004803603810190610596919061347a565b6118ad565b005b60007f80ac58cd000000000000000000000000000000000000000000000000000000007bffffffffffffffffffffffffffffffffffffffffffffffffffffffff1916827bffffffffffffffffffffffffffffffffffffffffffffffffffffffff1916148061066857507f5b5e139f000000000000000000000000000000000000000000000000000000007bffffffffffffffffffffffffffffffffffffffffffffffffffffffff1916827bffffffffffffffffffffffffffffffffffffffffffffffffffffffff1916145b80610678575061067782611943565b5b9050919050565b606060c9805461068e90614436565b80601f01602080910402602001604051908101604052809291908181526020018280546106ba90614436565b80156107075780601f106106dc57610100808354040283529160200191610707565b820191906000526020600020905b8154815290600101906020018083116106ea57829003601f168201915b5050505050905090565b600061071c826119ad565b61075b576040517f08c379a000000000000000000000000000000000000000000000000000000000815260040161075290614119565b60405180910390fd5b60cd600083815260200190815260200160002060009054906101000a900473ffffffffffffffffffffffffffffffffffffffff169050919050565b60006107a182610baf565b90508073ffffffffffffffffffffffffffffffffffffffff168373ffffffffffffffffffffffffffffffffffffffff161415610812576040517f08c379a000000000000000000000000000000000000000000000000000000000815260040161080990614199565b60405180910390fd5b8073ffffffffffffffffffffffffffffffffffffffff16610831611a19565b73ffffffffffffffffffffffffffffffffffffffff161480610860575061085f8161085a611a19565b6115ef565b5b61089f576040517f08c379a000000000000000000000000000000000000000000000000000000000815260040161089690614079565b60405180910390fd5b6108a98383611a21565b505050565b6108b6611a19565b73ffffffffffffffffffffffffffffffffffffffff166108d4610f5e565b73ffffffffffffffffffffffffffffffffffffffff161461092a576040517f08c379a000000000000000000000000000000000000000000000000000000000815260040161092190614139565b60405180910390fd5b6109368484848461134e565b50505050565b61094d610947611a19565b82611ada565b61098c576040517f08c379a0000000000000000000000000000000000000000000000000000000008152600401610983906141b9565b60405180910390fd5b610997838383611bb8565b505050565b6109a4611a19565b73ffffffffffffffffffffffffffffffffffffffff166109c2610f5e565b73ffffffffffffffffffffffffffffffffffffffff1614610a18576040517f08c379a0000000000000000000000000000000000000000000000000000000008152600401610a0f90614139565b60405180910390fd5b610a2181611e14565b610a6260fb546040518060400160405280600381526020017f3078300000000000000000000000000000000000000000000000000000000000815250610a65565b50565b610a6d611a19565b73ffffffffffffffffffffffffffffffffffffffff16610a8b610f5e565b73ffffffffffffffffffffffffffffffffffffffff1614610ae1576040517f08c379a0000000000000000000000000000000000000000000000000000000008152600401610ad890614139565b60405180910390fd5b8060fc60008481526020019081526020016000209080519060200190610b08929190612f64565b505050565b606060fd6000838152602001908152602001600020805480602002602001604051908101604052809291908181526020018280548015610b6c57602002820191906000526020600020905b815481526020019060010190808311610b58575b50505050509050919050565b610b938383836040518060200160405280600081525061134e565b505050565b6000603360009054906101000a900460ff16905090565b60008060cb600084815260200190815260200160002060009054906101000a900473ffffffffffffffffffffffffffffffffffffffff169050600073ffffffffffffffffffffffffffffffffffffffff168173ffffffffffffffffffffffffffffffffffffffff161415610c58576040517f08c379a0000000000000000000000000000000000000000000000000000000008152600401610c4f906140b9565b60405180910390fd5b80915050919050565b60008073ffffffffffffffffffffffffffffffffffffffff168273ffffffffffffffffffffffffffffffffffffffff161415610cd2576040517f08c379a0000000000000000000000000000000000000000000000000000000008152600401610cc990614099565b60405180910390fd5b60cc60008373ffffffffffffffffffffffffffffffffffffffff1673ffffffffffffffffffffffffffffffffffffffff168152602001908152602001600020549050919050565b606060ff8054610d2890614436565b80601f0160208091040260200160405190810160405280929190818152602001828054610d5490614436565b8015610da15780601f10610d7657610100808354040283529160200191610da1565b820191906000526020600020905b815481529060010190602001808311610d8457829003601f168201915b5050505050905090565b610db3611a19565b73ffffffffffffffffffffffffffffffffffffffff16610dd1610f5e565b73ffffffffffffffffffffffffffffffffffffffff1614610e27576040517f08c379a0000000000000000000000000000000000000000000000000000000008152600401610e1e90614139565b60405180910390fd5b610e316000611f25565b565b606060fc60008381526020019081526020016000208054610e5390614436565b80601f0160208091040260200160405190810160405280929190818152602001828054610e7f90614436565b8015610ecc5780601f10610ea157610100808354040283529160200191610ecc565b820191906000526020600020905b815481529060010190602001808311610eaf57829003601f168201915b50505050509050919050565b610ee0611a19565b73ffffffffffffffffffffffffffffffffffffffff16610efe610f5e565b73ffffffffffffffffffffffffffffffffffffffff1614610f54576040517f08c379a0000000000000000000000000000000000000000000000000000000008152600401610f4b90614139565b60405180910390fd5b610f5c611feb565b565b6000606560009054906101000a900473ffffffffffffffffffffffffffffffffffffffff16905090565b606060ca8054610f9790614436565b80601f0160208091040260200160405190810160405280929190818152602001828054610fc390614436565b80156110105780601f10610fe557610100808354040283529160200191611010565b820191906000526020600020905b815481529060010190602001808311610ff357829003601f168201915b5050505050905090565b611022611a19565b73ffffffffffffffffffffffffffffffffffffffff168273ffffffffffffffffffffffffffffffffffffffff161415611090576040517f08c379a000000000000000000000000000000000000000000000000000000000815260040161108790614019565b60405180910390fd5b8060ce600061109d611a19565b73ffffffffffffffffffffffffffffffffffffffff1673ffffffffffffffffffffffffffffffffffffffff16815260200190815260200160002060008473ffffffffffffffffffffffffffffffffffffffff1673ffffffffffffffffffffffffffffffffffffffff16815260200190815260200160002060006101000a81548160ff0219169083151502179055508173ffffffffffffffffffffffffffffffffffffffff1661114a611a19565b73ffffffffffffffffffffffffffffffffffffffff167f17307eab39ab6107e8899845ad3d59bd9653f200f220920489ca2b5937696c318360405161118f9190613efc565b60405180910390a35050565b600060019054906101000a900460ff16806111c1575060008054906101000a900460ff16155b611200576040517f08c379a00000000000000000000000000000000000000000000000000000000081526004016111f7906140d9565b60405180910390fd5b60008060019054906101000a900460ff161590508015611250576001600060016101000a81548160ff02191690831515021790555060016000806101000a81548160ff0219169083151502179055505b61125a858561208d565b611262612182565b61126a61226b565b600060fb819055508160fe9080519060200190611288929190612fea565b508260ff908051906020019061129f929190612fea565b5080156112c15760008060016101000a81548160ff0219169083151502179055505b5050505050565b6112d0611a19565b73ffffffffffffffffffffffffffffffffffffffff166112ee610f5e565b73ffffffffffffffffffffffffffffffffffffffff1614611344576040517f08c379a000000000000000000000000000000000000000000000000000000000815260040161133b90614139565b60405180910390fd5b61134c612354565b565b61135f611359611a19565b83611ada565b61139e576040517f08c379a0000000000000000000000000000000000000000000000000000000008152600401611395906141b9565b60405180910390fd5b6113aa848484846123f7565b50505050565b60606113bb826119ad565b6113fa576040517f08c379a00000000000000000000000000000000000000000000000000000000081526004016113f190614179565b60405180910390fd5b600061140583610e33565b90506114a48160ff805461141890614436565b80601f016020809104026020016040519081016040528092919081815260200182805461144490614436565b80156114915780601f1061146657610100808354040283529160200191611491565b820191906000526020600020905b81548152906001019060200180831161147457829003601f168201915b505050505061245390919063ffffffff16565b915050919050565b6114b4611a19565b73ffffffffffffffffffffffffffffffffffffffff166114d2610f5e565b73ffffffffffffffffffffffffffffffffffffffff1614611528576040517f08c379a000000000000000000000000000000000000000000000000000000000815260040161151f90614139565b60405180910390fd5b6115358260fb54836126ac565b61154160fb5482610a65565b60fb600081548092919061155490614468565b91905055505050565b606060fe805461156c90614436565b80601f016020809104026020016040519081016040528092919081815260200182805461159890614436565b80156115e55780601f106115ba576101008083540402835291602001916115e5565b820191906000526020600020905b8154815290600101906020018083116115c857829003601f168201915b5050505050905090565b600060ce60008473ffffffffffffffffffffffffffffffffffffffff1673ffffffffffffffffffffffffffffffffffffffff16815260200190815260200160002060008373ffffffffffffffffffffffffffffffffffffffff1673ffffffffffffffffffffffffffffffffffffffff16815260200190815260200160002060009054906101000a900460ff16905092915050565b61168b611a19565b73ffffffffffffffffffffffffffffffffffffffff166116a9610f5e565b73ffffffffffffffffffffffffffffffffffffffff16146116ff576040517f08c379a00000000000000000000000000000000000000000000000000000000081526004016116f690614139565b60405180910390fd5b60fb548110611743576040517f08c379a000000000000000000000000000000000000000000000000000000000815260040161173a90613f39565b60405180910390fd5b6117508360fb54846126ac565b60fd600082815260200190815260200160002060fb54908060018154018082558091505060019003906000526020600020016000909190919091505561179860fb5483610a65565b60fb60008154809291906117ab90614468565b9190505550505050565b6117bd611a19565b73ffffffffffffffffffffffffffffffffffffffff166117db610f5e565b73ffffffffffffffffffffffffffffffffffffffff1614611831576040517f08c379a000000000000000000000000000000000000000000000000000000000815260040161182890614139565b60405180910390fd5b600073ffffffffffffffffffffffffffffffffffffffff168173ffffffffffffffffffffffffffffffffffffffff1614156118a1576040517f08c379a000000000000000000000000000000000000000000000000000000000815260040161189890613f99565b60405180910390fd5b6118aa81611f25565b50565b6118b5611a19565b73ffffffffffffffffffffffffffffffffffffffff166118d3610f5e565b73ffffffffffffffffffffffffffffffffffffffff1614611929576040517f08c379a000000000000000000000000000000000000000000000000000000000815260040161192090614139565b60405180910390fd5b8060fe908051906020019061193f929190612fea565b5050565b60007f01ffc9a7000000000000000000000000000000000000000000000000000000007bffffffffffffffffffffffffffffffffffffffffffffffffffffffff1916827bffffffffffffffffffffffffffffffffffffffffffffffffffffffff1916149050919050565b60008073ffffffffffffffffffffffffffffffffffffffff1660cb600084815260200190815260200160002060009054906101000a900473ffffffffffffffffffffffffffffffffffffffff1673ffffffffffffffffffffffffffffffffffffffff1614159050919050565b600033905090565b8160cd600083815260200190815260200160002060006101000a81548173ffffffffffffffffffffffffffffffffffffffff021916908373ffffffffffffffffffffffffffffffffffffffff160217905550808273ffffffffffffffffffffffffffffffffffffffff16611a9483610baf565b73ffffffffffffffffffffffffffffffffffffffff167f8c5be1e5ebec7d5bd14f71427d1e84f3dd0314c0f7b2291e5b200ac8c7c3b92560405160405180910390a45050565b6000611ae5826119ad565b611b24576040517f08c379a0000000000000000000000000000000000000000000000000000000008152600401611b1b90614039565b60405180910390fd5b6000611b2f83610baf565b90508073ffffffffffffffffffffffffffffffffffffffff168473ffffffffffffffffffffffffffffffffffffffff161480611b9e57508373ffffffffffffffffffffffffffffffffffffffff16611b8684610711565b73ffffffffffffffffffffffffffffffffffffffff16145b80611baf5750611bae81856115ef565b5b91505092915050565b8273ffffffffffffffffffffffffffffffffffffffff16611bd882610baf565b73ffffffffffffffffffffffffffffffffffffffff1614611c2e576040517f08c379a0000000000000000000000000000000000000000000000000000000008152600401611c2590614159565b60405180910390fd5b600073ffffffffffffffffffffffffffffffffffffffff168273ffffffffffffffffffffffffffffffffffffffff161415611c9e576040517f08c379a0000000000000000000000000000000000000000000000000000000008152600401611c9590613ff9565b60405180910390fd5b611ca9838383612707565b611cb4600082611a21565b600160cc60008573ffffffffffffffffffffffffffffffffffffffff1673ffffffffffffffffffffffffffffffffffffffff1681526020019081526020016000206000828254611d04919061434c565b92505081905550600160cc60008473ffffffffffffffffffffffffffffffffffffffff1673ffffffffffffffffffffffffffffffffffffffff1681526020019081526020016000206000828254611d5b91906142f6565b925050819055508160cb600083815260200190815260200160002060006101000a81548173ffffffffffffffffffffffffffffffffffffffff021916908373ffffffffffffffffffffffffffffffffffffffff160217905550808273ffffffffffffffffffffffffffffffffffffffff168473ffffffffffffffffffffffffffffffffffffffff167fddf252ad1be2c89b69c2b068fc378daa952ba7f163c4a11628f55a4df523b3ef60405160405180910390a4505050565b6000611e1f82610baf565b9050611e2d81600084612707565b611e38600083611a21565b600160cc60008373ffffffffffffffffffffffffffffffffffffffff1673ffffffffffffffffffffffffffffffffffffffff1681526020019081526020016000206000828254611e88919061434c565b9250508190555060cb600083815260200190815260200160002060006101000a81549073ffffffffffffffffffffffffffffffffffffffff021916905581600073ffffffffffffffffffffffffffffffffffffffff168273ffffffffffffffffffffffffffffffffffffffff167fddf252ad1be2c89b69c2b068fc378daa952ba7f163c4a11628f55a4df523b3ef60405160405180910390a45050565b6000606560009054906101000a900473ffffffffffffffffffffffffffffffffffffffff16905081606560006101000a81548173ffffffffffffffffffffffffffffffffffffffff021916908373ffffffffffffffffffffffffffffffffffffffff1602179055508173ffffffffffffffffffffffffffffffffffffffff168173ffffffffffffffffffffffffffffffffffffffff167f8be0079c531659141344cd1fd0a4f28419497f9722a3daafe3b4186f6b6457e060405160405180910390a35050565b611ff3610b98565b612032576040517f08c379a000000000000000000000000000000000000000000000000000000000815260040161202990613f59565b60405180910390fd5b6000603360006101000a81548160ff0219169083151502179055507f5db9ee0a495bf2e6ff9c91a7834c1ba4fdd244a5e8aa4e537bd38aeae4b073aa612076611a19565b6040516120839190613e73565b60405180910390a1565b600060019054906101000a900460ff16806120b3575060008054906101000a900460ff16155b6120f2576040517f08c379a00000000000000000000000000000000000000000000000000000000081526004016120e9906140d9565b60405180910390fd5b60008060019054906101000a900460ff161590508015612142576001600060016101000a81548160ff02191690831515021790555060016000806101000a81548160ff0219169083151502179055505b61214a612754565b61215261282d565b61215c8383612906565b801561217d5760008060016101000a81548160ff0219169083151502179055505b505050565b600060019054906101000a900460ff16806121a8575060008054906101000a900460ff16155b6121e7576040517f08c379a00000000000000000000000000000000000000000000000000000000081526004016121de906140d9565b60405180910390fd5b60008060019054906101000a900460ff161590508015612237576001600060016101000a81548160ff02191690831515021790555060016000806101000a81548160ff0219169083151502179055505b61223f612754565b612247612a0f565b80156122685760008060016101000a81548160ff0219169083151502179055505b50565b600060019054906101000a900460ff1680612291575060008054906101000a900460ff16155b6122d0576040517f08c379a00000000000000000000000000000000000000000000000000000000081526004016122c7906140d9565b60405180910390fd5b60008060019054906101000a900460ff161590508015612320576001600060016101000a81548160ff02191690831515021790555060016000806101000a81548160ff0219169083151502179055505b612328612754565b612330612af8565b80156123515760008060016101000a81548160ff0219169083151502179055505b50565b61235c610b98565b1561239c576040517f08c379a000000000000000000000000000000000000000000000000000000000815260040161239390614059565b60405180910390fd5b6001603360006101000a81548160ff0219169083151502179055507f62e78cea01bee320cd4e420270b5ea74000d11b0c9f74754ebdbfc544b05a2586123e0611a19565b6040516123ed9190613e73565b60405180910390a1565b612402848484611bb8565b61240e84848484612bec565b61244d576040517f08c379a000000000000000000000000000000000000000000000000000000000815260040161244490613f79565b60405180910390fd5b50505050565b60606000839050600083905060008151835161246f91906142f6565b67ffffffffffffffff8111156124ae577f4e487b7100000000000000000000000000000000000000000000000000000000600052604160045260246000fd5b6040519080825280601f01601f1916602001820160405280156124e05781602001600182028036833780820191505090505b5090506000819050600080600091505b85518210156125c457858281518110612532577f4e487b7100000000000000000000000000000000000000000000000000000000600052603260045260246000fd5b602001015160f81c60f81b83828061254990614468565b935081518110612582577f4e487b7100000000000000000000000000000000000000000000000000000000600052603260045260246000fd5b60200101907effffffffffffffffffffffffffffffffffffffffffffffffffffffffffffff1916908160001a90535081806125bc90614468565b9250506124f0565b600091505b845182101561269d5784828151811061260b577f4e487b7100000000000000000000000000000000000000000000000000000000600052603260045260246000fd5b602001015160f81c60f81b83828061262290614468565b93508151811061265b577f4e487b7100000000000000000000000000000000000000000000000000000000600052603260045260246000fd5b60200101907effffffffffffffffffffffffffffffffffffffffffffffffffffffffffffff1916908160001a905350818061269590614468565b9250506125c9565b82965050505050505092915050565b6126b68383612d83565b6126c36000848484612bec565b612702576040517f08c379a00000000000000000000000000000000000000000000000000000000081526004016126f990613f79565b60405180910390fd5b505050565b61270f610b98565b1561274f576040517f08c379a000000000000000000000000000000000000000000000000000000000815260040161274690613fd9565b60405180910390fd5b505050565b600060019054906101000a900460ff168061277a575060008054906101000a900460ff16155b6127b9576040517f08c379a00000000000000000000000000000000000000000000000000000000081526004016127b0906140d9565b60405180910390fd5b60008060019054906101000a900460ff161590508015612809576001600060016101000a81548160ff02191690831515021790555060016000806101000a81548160ff0219169083151502179055505b801561282a5760008060016101000a81548160ff0219169083151502179055505b50565b600060019054906101000a900460ff1680612853575060008054906101000a900460ff16155b612892576040517f08c379a0000000000000000000000000000000000000000000000000000000008152600401612889906140d9565b60405180910390fd5b60008060019054906101000a900460ff1615905080156128e2576001600060016101000a81548160ff02191690831515021790555060016000806101000a81548160ff0219169083151502179055505b80156129035760008060016101000a81548160ff0219169083151502179055505b50565b600060019054906101000a900460ff168061292c575060008054906101000a900460ff16155b61296b576040517f08c379a0000000000000000000000000000000000000000000000000000000008152600401612962906140d9565b60405180910390fd5b60008060019054906101000a900460ff1615905080156129bb576001600060016101000a81548160ff02191690831515021790555060016000806101000a81548160ff0219169083151502179055505b8260c990805190602001906129d1929190612fea565b508160ca90805190602001906129e8929190612fea565b508015612a0a5760008060016101000a81548160ff0219169083151502179055505b505050565b600060019054906101000a900460ff1680612a35575060008054906101000a900460ff16155b612a74576040517f08c379a0000000000000000000000000000000000000000000000000000000008152600401612a6b906140d9565b60405180910390fd5b60008060019054906101000a900460ff161590508015612ac4576001600060016101000a81548160ff02191690831515021790555060016000806101000a81548160ff0219169083151502179055505b612ad4612acf611a19565b611f25565b8015612af55760008060016101000a81548160ff0219169083151502179055505b50565b600060019054906101000a900460ff1680612b1e575060008054906101000a900460ff16155b612b5d576040517f08c379a0000000000000000000000000000000000000000000000000000000008152600401612b54906140d9565b60405180910390fd5b60008060019054906101000a900460ff161590508015612bad576001600060016101000a81548160ff02191690831515021790555060016000806101000a81548160ff0219169083151502179055505b6000603360006101000a81548160ff0219169083151502179055508015612be95760008060016101000a81548160ff0219169083151502179055505b50565b6000612c0d8473ffffffffffffffffffffffffffffffffffffffff16612f51565b15612d76578373ffffffffffffffffffffffffffffffffffffffff1663150b7a02612c36611a19565b8786866040518563ffffffff1660e01b8152600401612c589493929190613e8e565b602060405180830381600087803b158015612c7257600080fd5b505af1925050508015612ca357506040513d601f19601f82011682018060405250810190612ca09190613451565b60015b612d26573d8060008114612cd3576040519150601f19603f3d011682016040523d82523d6000602084013e612cd8565b606091505b50600081511415612d1e576040517f08c379a0000000000000000000000000000000000000000000000000000000008152600401612d1590613f79565b60405180910390fd5b805181602001fd5b63150b7a0260e01b7bffffffffffffffffffffffffffffffffffffffffffffffffffffffff1916817bffffffffffffffffffffffffffffffffffffffffffffffffffffffff191614915050612d7b565b600190505b949350505050565b600073ffffffffffffffffffffffffffffffffffffffff168273ffffffffffffffffffffffffffffffffffffffff161415612df3576040517f08c379a0000000000000000000000000000000000000000000000000000000008152600401612dea906140f9565b60405180910390fd5b612dfc816119ad565b15612e3c576040517f08c379a0000000000000000000000000000000000000000000000000000000008152600401612e3390613fb9565b60405180910390fd5b612e4860008383612707565b600160cc60008473ffffffffffffffffffffffffffffffffffffffff1673ffffffffffffffffffffffffffffffffffffffff1681526020019081526020016000206000828254612e9891906142f6565b925050819055508160cb600083815260200190815260200160002060006101000a81548173ffffffffffffffffffffffffffffffffffffffff021916908373ffffffffffffffffffffffffffffffffffffffff160217905550808273ffffffffffffffffffffffffffffffffffffffff16600073ffffffffffffffffffffffffffffffffffffffff167fddf252ad1be2c89b69c2b068fc378daa952ba7f163c4a11628f55a4df523b3ef60405160405180910390a45050565b600080823b905060008111915050919050565b828054612f7090614436565b90600052602060002090601f016020900481019282612f925760008555612fd9565b82601f10612fab57805160ff1916838001178555612fd9565b82800160010185558215612fd9579182015b82811115612fd8578251825591602001919060010190612fbd565b5b509050612fe69190613070565b5090565b828054612ff690614436565b90600052602060002090601f016020900481019282613018576000855561305f565b82601f1061303157805160ff191683800117855561305f565b8280016001018555821561305f579182015b8281111561305e578251825591602001919060010190613043565b5b50905061306c9190613070565b5090565b5b80821115613089576000816000905550600101613071565b5090565b60006130a061309b84614225565b6141f4565b9050828152602081018484840111156130b857600080fd5b6130c38482856143f4565b509392505050565b60006130de6130d984614255565b6141f4565b9050828152602081018484840111156130f657600080fd5b6131018482856143f4565b509392505050565b6000813590506131188161454f565b92915050565b60008135905061312d81614566565b92915050565b6000813590506131428161457d565b92915050565b6000815190506131578161457d565b92915050565b600082601f83011261316e57600080fd5b813561317e84826020860161308d565b91505092915050565b600082601f83011261319857600080fd5b81356131a88482602086016130cb565b91505092915050565b6000813590506131c081614594565b92915050565b6000602082840312156131d857600080fd5b60006131e684828501613109565b91505092915050565b6000806040838503121561320257600080fd5b600061321085828601613109565b925050602061322185828601613109565b9150509250929050565b60008060006060848603121561324057600080fd5b600061324e86828701613109565b935050602061325f86828701613109565b9250506040613270868287016131b1565b9150509250925092565b6000806000806080858703121561329057600080fd5b600061329e87828801613109565b94505060206132af87828801613109565b93505060406132c0878288016131b1565b925050606085013567ffffffffffffffff8111156132dd57600080fd5b6132e98782880161315d565b91505092959194509250565b6000806040838503121561330857600080fd5b600061331685828601613109565b92505060206133278582860161311e565b9150509250929050565b6000806040838503121561334457600080fd5b600061335285828601613109565b925050602083013567ffffffffffffffff81111561336f57600080fd5b61337b8582860161315d565b9150509250929050565b60008060006060848603121561339a57600080fd5b60006133a886828701613109565b935050602084013567ffffffffffffffff8111156133c557600080fd5b6133d18682870161315d565b92505060406133e2868287016131b1565b9150509250925092565b600080604083850312156133ff57600080fd5b600061340d85828601613109565b925050602061341e858286016131b1565b9150509250929050565b60006020828403121561343a57600080fd5b600061344884828501613133565b91505092915050565b60006020828403121561346357600080fd5b600061347184828501613148565b91505092915050565b60006020828403121561348c57600080fd5b600082013567ffffffffffffffff8111156134a657600080fd5b6134b284828501613187565b91505092915050565b600080600080608085870312156134d157600080fd5b600085013567ffffffffffffffff8111156134eb57600080fd5b6134f787828801613187565b945050602085013567ffffffffffffffff81111561351457600080fd5b61352087828801613187565b935050604085013567ffffffffffffffff81111561353d57600080fd5b61354987828801613187565b925050606085013567ffffffffffffffff81111561356657600080fd5b61357287828801613187565b91505092959194509250565b60006020828403121561359057600080fd5b600061359e848285016131b1565b91505092915050565b600080604083850312156135ba57600080fd5b60006135c8858286016131b1565b925050602083013567ffffffffffffffff8111156135e557600080fd5b6135f18582860161315d565b9150509250929050565b60006136078383613e55565b60208301905092915050565b61361c81614380565b82525050565b600061362d82614295565b61363781856142c3565b935061364283614285565b8060005b8381101561367357815161365a88826135fb565b9750613665836142b6565b925050600181019050613646565b5085935050505092915050565b61368981614392565b82525050565b600061369a826142a0565b6136a481856142d4565b93506136b4818560208601614403565b6136bd8161453e565b840191505092915050565b60006136d3826142ab565b6136dd81856142e5565b93506136ed818560208601614403565b6136f68161453e565b840191505092915050565b600061370e601c836142e5565b91507f506172656e7420746f6b656e206964206973206e6f742076616c6964000000006000830152602082019050919050565b600061374e6014836142e5565b91507f5061757361626c653a206e6f74207061757365640000000000000000000000006000830152602082019050919050565b600061378e6032836142e5565b91507f4552433732313a207472616e7366657220746f206e6f6e20455243373231526560008301527f63656976657220696d706c656d656e74657200000000000000000000000000006020830152604082019050919050565b60006137f46026836142e5565b91507f4f776e61626c653a206e6577206f776e657220697320746865207a65726f206160008301527f64647265737300000000000000000000000000000000000000000000000000006020830152604082019050919050565b600061385a601c836142e5565b91507f4552433732313a20746f6b656e20616c7265616479206d696e746564000000006000830152602082019050919050565b600061389a602c836142e5565b91507f455243313135355061757361626c653a20746f6b656e207472616e736665722060008301527f7768696c652070617573656400000000000000000000000000000000000000006020830152604082019050919050565b60006139006024836142e5565b91507f4552433732313a207472616e7366657220746f20746865207a65726f2061646460008301527f72657373000000000000000000000000000000000000000000000000000000006020830152604082019050919050565b60006139666019836142e5565b91507f4552433732313a20617070726f766520746f2063616c6c6572000000000000006000830152602082019050919050565b60006139a6602c836142e5565b91507f4552433732313a206f70657261746f7220717565727920666f72206e6f6e657860008301527f697374656e7420746f6b656e00000000000000000000000000000000000000006020830152604082019050919050565b6000613a0c6010836142e5565b91507f5061757361626c653a20706175736564000000000000000000000000000000006000830152602082019050919050565b6000613a4c6038836142e5565b91507f4552433732313a20617070726f76652063616c6c6572206973206e6f74206f7760008301527f6e6572206e6f7220617070726f76656420666f7220616c6c00000000000000006020830152604082019050919050565b6000613ab2602a836142e5565b91507f4552433732313a2062616c616e636520717565727920666f7220746865207a6560008301527f726f2061646472657373000000000000000000000000000000000000000000006020830152604082019050919050565b6000613b186029836142e5565b91507f4552433732313a206f776e657220717565727920666f72206e6f6e657869737460008301527f656e7420746f6b656e00000000000000000000000000000000000000000000006020830152604082019050919050565b6000613b7e602e836142e5565b91507f496e697469616c697a61626c653a20636f6e747261637420697320616c72656160008301527f647920696e697469616c697a65640000000000000000000000000000000000006020830152604082019050919050565b6000613be46020836142e5565b91507f4552433732313a206d696e7420746f20746865207a65726f20616464726573736000830152602082019050919050565b6000613c24602c836142e5565b91507f4552433732313a20617070726f76656420717565727920666f72206e6f6e657860008301527f697374656e7420746f6b656e00000000000000000000000000000000000000006020830152604082019050919050565b6000613c8a6020836142e5565b91507f4f776e61626c653a2063616c6c6572206973206e6f7420746865206f776e65726000830152602082019050919050565b6000613cca6029836142e5565b91507f4552433732313a207472616e73666572206f6620746f6b656e2074686174206960008301527f73206e6f74206f776e00000000000000000000000000000000000000000000006020830152604082019050919050565b6000613d30602f836142e5565b91507f4552433732314d657461646174613a2055524920717565727920666f72206e6f60008301527f6e6578697374656e7420746f6b656e00000000000000000000000000000000006020830152604082019050919050565b6000613d966021836142e5565b91507f4552433732313a20617070726f76616c20746f2063757272656e74206f776e6560008301527f72000000000000000000000000000000000000000000000000000000000000006020830152604082019050919050565b6000613dfc6031836142e5565b91507f4552433732313a207472616e736665722063616c6c6572206973206e6f74206f60008301527f776e6572206e6f7220617070726f7665640000000000000000000000000000006020830152604082019050919050565b613e5e816143ea565b82525050565b613e6d816143ea565b82525050565b6000602082019050613e886000830184613613565b92915050565b6000608082019050613ea36000830187613613565b613eb06020830186613613565b613ebd6040830185613e64565b8181036060830152613ecf818461368f565b905095945050505050565b60006020820190508181036000830152613ef48184613622565b905092915050565b6000602082019050613f116000830184613680565b92915050565b60006020820190508181036000830152613f3181846136c8565b905092915050565b60006020820190508181036000830152613f5281613701565b9050919050565b60006020820190508181036000830152613f7281613741565b9050919050565b60006020820190508181036000830152613f9281613781565b9050919050565b60006020820190508181036000830152613fb2816137e7565b9050919050565b60006020820190508181036000830152613fd28161384d565b9050919050565b60006020820190508181036000830152613ff28161388d565b9050919050565b60006020820190508181036000830152614012816138f3565b9050919050565b6000602082019050818103600083015261403281613959565b9050919050565b6000602082019050818103600083015261405281613999565b9050919050565b60006020820190508181036000830152614072816139ff565b9050919050565b6000602082019050818103600083015261409281613a3f565b9050919050565b600060208201905081810360008301526140b281613aa5565b9050919050565b600060208201905081810360008301526140d281613b0b565b9050919050565b600060208201905081810360008301526140f281613b71565b9050919050565b6000602082019050818103600083015261411281613bd7565b9050919050565b6000602082019050818103600083015261413281613c17565b9050919050565b6000602082019050818103600083015261415281613c7d565b9050919050565b6000602082019050818103600083015261417281613cbd565b9050919050565b6000602082019050818103600083015261419281613d23565b9050919050565b600060208201905081810360008301526141b281613d89565b9050919050565b600060208201905081810360008301526141d281613def565b9050919050565b60006020820190506141ee6000830184613e64565b92915050565b6000604051905081810181811067ffffffffffffffff8211171561421b5761421a61450f565b5b8060405250919050565b600067ffffffffffffffff8211156142405761423f61450f565b5b601f19601f8301169050602081019050919050565b600067ffffffffffffffff8211156142705761426f61450f565b5b601f19601f8301169050602081019050919050565b6000819050602082019050919050565b600081519050919050565b600081519050919050565b600081519050919050565b6000602082019050919050565b600082825260208201905092915050565b600082825260208201905092915050565b600082825260208201905092915050565b6000614301826143ea565b915061430c836143ea565b9250827fffffffffffffffffffffffffffffffffffffffffffffffffffffffffffffffff03821115614341576143406144b1565b5b828201905092915050565b6000614357826143ea565b9150614362836143ea565b925082821015614375576143746144b1565b5b828203905092915050565b600061438b826143ca565b9050919050565b60008115159050919050565b60007fffffffff0000000000000000000000000000000000000000000000000000000082169050919050565b600073ffffffffffffffffffffffffffffffffffffffff82169050919050565b6000819050919050565b82818337600083830152505050565b60005b83811015614421578082015181840152602081019050614406565b83811115614430576000848401525b50505050565b6000600282049050600182168061444e57607f821691505b60208210811415614462576144616144e0565b5b50919050565b6000614473826143ea565b91507fffffffffffffffffffffffffffffffffffffffffffffffffffffffffffffffff8214156144a6576144a56144b1565b5b600182019050919050565b7f4e487b7100000000000000000000000000000000000000000000000000000000600052601160045260246000fd5b7f4e487b7100000000000000000000000000000000000000000000000000000000600052602260045260246000fd5b7f4e487b7100000000000000000000000000000000000000000000000000000000600052604160045260246000fd5b6000601f19601f8301169050919050565b61455881614380565b811461456357600080fd5b50565b61456f81614392565b811461457a57600080fd5b50565b6145868161439e565b811461459157600080fd5b50565b61459d816143ea565b81146145a857600080fd5b5056fea2646970667358221220f7f0d7fd611626088b61c56f444ad070c901f4821b9cbcc00bd8586d54299fc564736f6c63430008000033",
  "immutableReferences": {},
  "source": "// SPDX-License-Identifier: MIT\npragma solidity ^0.8.0;\n\nimport \"@openzeppelin/contracts-upgradeable/token/ERC721/ERC721Upgradeable.sol\";\nimport \"@openzeppelin/contracts-upgradeable/security/PausableUpgradeable.sol\";\nimport \"@openzeppelin/contracts-upgradeable/access/OwnableUpgradeable.sol\";\nimport \"@openzeppelin/contracts-upgradeable/proxy/utils/Initializable.sol\";\nimport \"./strings.sol\";\n\ncontract Onec721 is Initializable,PausableUpgradeable, OwnableUpgradeable,ERC721Upgradeable{\n\n    using Strings for string;\n\n    uint private NFTCounter;\n    // token-id to metadata hash\n    mapping(uint256 => bytes) private metadataHash;\n    // tokenIds to refTokenIds\n    mapping(uint256 => uint256[]) private references;\n\n    string private contractMetadata;\n\n    string private baseURI;\n\n    function initialize(string memory _name,string memory _symbol,string memory _baseURI,string memory _contractMetadata) public initializer {\n        ERC721Upgradeable.__ERC721_init(_name,_symbol);\n        OwnableUpgradeable.__Ownable_init();\n        PausableUpgradeable.__Pausable_init();\n        NFTCounter = 0;\n        contractMetadata = _contractMetadata;\n        baseURI=_baseURI;\n    }\n\n     /*\n     * @dev Returns the contract URI to make it trackable at OpenSea.\n     */   \n    function contractURI() public view returns (string memory) {\n        return contractMetadata;\n    }\n\n     /*\n     * @dev Sets the contract URI to make it trackable at OpenSea.\n     @params _metadata: The URL for the contract's OpenSea metadata.\n     */  \n    function setContractMetadata(string memory _metadata) public onlyOwner {\n        contractMetadata = _metadata;\n    }\n\n    function getTokenMetadataHash(uint256 _tokenId) public view returns (string memory) {\n        return string(metadataHash[_tokenId]);\n    }\n\n    function setTokenMetadataHash(uint256 _tokenId, bytes memory _metadataHash) public onlyOwner {\n        metadataHash[_tokenId] = _metadataHash;\n    }\n\n    function getBaseURI() public view returns (string memory){\n        return baseURI;\n    }\n\n    function tokenURI(uint256 tokenId) public view virtual override returns (string memory) {\n        require(_exists(tokenId), \"ERC721Metadata: URI query for nonexistent token\");\n        string memory hash = getTokenMetadataHash(tokenId);\n        return baseURI.concat(string(hash));\n    }\n\n    /*\n     *@dev Called before every token transfer  \n     */\n\n    function _beforeTokenTransfer(\n        address from,\n        address to,\n        uint256 tokenId\n    ) internal override {\n        require(!paused(), \"ERC1155Pausable: token transfer while paused\");\n    }\n\n\n    /*\n     * @dev Mints NFT to the address of _holder.\n     * @params\n     * _holder:public address of the account to mint NFT on that.\n     * _data: metadata hash of the NFT.\n     * Requirements:\n     * Can only be called by the deployer of the smart contract.\n     */\n    function mintNFT(address _holder, bytes memory _data) public onlyOwner{\n        _safeMint(_holder, NFTCounter, _data);\n        setTokenMetadataHash(NFTCounter, _data);\n        NFTCounter++;        \n    }\n\n    /*\n     * @dev Mints Reference  to the address of _holder.\n     * @params\n     * _holder: public address of the account to mint NFT on that.\n     * _data: metadata hash of the NFT.\n     * _parentTokenId: the token id of the NFT of which you are minting the references.\n     * Requirements:\n     * Can only be called by the deployer of the smart contract.\n     */\n    function mintRefNFT(address _holder, bytes memory _data,uint256 _parentTokenId) public onlyOwner {\n        require(_parentTokenId < NFTCounter, \"Parent token id is not valid\");\n        _safeMint(_holder, NFTCounter, _data);\n        references[_parentTokenId].push(NFTCounter);\n        setTokenMetadataHash(NFTCounter, _data);\n        NFTCounter++;\n    }\n\n    /*\n     * @dev return the list of token-ids of all the reference service tokens\n     */\n    function getReferences(uint _id) public view returns(uint256[] memory) {\n        return references[_id];    \n    }\n\n\n     /*\n      * @dev Tranfers the NFT to new address.\n      * Can be called by the NFT holder.\n    */\n    function transfer(address _from,address _to, uint256 _tokenId,bytes memory _data) public onlyOwner {\n        super.safeTransferFrom(_from,_to, _tokenId,_data);\n    }\n\n    /*\n     * @dev pause the onec contract.\n     */\n    function makePause() public onlyOwner {\n        super._pause();\n    }\n\n    /*\n     * @dev un-pause the onec contract.\n     */\n    function makeUnpause() public onlyOwner{\n        super._unpause();\n    }\n\n    /*\n     * @dev Burns the token with the given tokenid.\n     */\n    function burnNFT(uint256 _id) public onlyOwner{\n        super._burn(_id);\n        setTokenMetadataHash(NFTCounter, bytes(\"0x0\"));\n    }\n\n\n\n}",
  "sourcePath": "/Users/hrishabhsharma/Projects/core-contract/contracts/Onec721.sol",
  "compiler": {
    "name": "solc",
    "version": "0.8.0+commit.c7dfd78e.Emscripten.clang"
  },
  "schemaVersion": "3.4.3",
  "updatedAt": "2022-01-18T12:50:52.574Z",
  "devdoc": {
    "kind": "dev",
    "methods": {
      "approve(address,uint256)": {
        "details": "See {IERC721-approve}."
      },
      "balanceOf(address)": {
        "details": "See {IERC721-balanceOf}."
      },
      "getApproved(uint256)": {
        "details": "See {IERC721-getApproved}."
      },
      "isApprovedForAll(address,address)": {
        "details": "See {IERC721-isApprovedForAll}."
      },
      "name()": {
        "details": "See {IERC721Metadata-name}."
      },
      "owner()": {
        "details": "Returns the address of the current owner."
      },
      "ownerOf(uint256)": {
        "details": "See {IERC721-ownerOf}."
      },
      "paused()": {
        "details": "Returns true if the contract is paused, and false otherwise."
      },
      "renounceOwnership()": {
        "details": "Leaves the contract without owner. It will not be possible to call `onlyOwner` functions anymore. Can only be called by the current owner. NOTE: Renouncing ownership will leave the contract without an owner, thereby removing any functionality that is only available to the owner."
      },
      "safeTransferFrom(address,address,uint256)": {
        "details": "See {IERC721-safeTransferFrom}."
      },
      "safeTransferFrom(address,address,uint256,bytes)": {
        "details": "See {IERC721-safeTransferFrom}."
      },
      "setApprovalForAll(address,bool)": {
        "details": "See {IERC721-setApprovalForAll}."
      },
      "supportsInterface(bytes4)": {
        "details": "See {IERC165-supportsInterface}."
      },
      "symbol()": {
        "details": "See {IERC721Metadata-symbol}."
      },
      "tokenURI(uint256)": {
        "details": "See {IERC721Metadata-tokenURI}."
      },
      "transferFrom(address,address,uint256)": {
        "details": "See {IERC721-transferFrom}."
      },
      "transferOwnership(address)": {
        "details": "Transfers ownership of the contract to a new account (`newOwner`). Can only be called by the current owner."
      }
    },
    "version": 1
  },
  "userdoc": {
    "kind": "user",
    "methods": {},
    "version": 1
  }
}